:020000040800F2
:1000000000040020C1010008616000086160000870
:10001000915100086160000861600008616000089B
:10002000616000086160000861600008C18200082A
:1000300061600008616000086160000831EF00083D
:1000400061600008B1BC000841BE000891BE000814
:100050006160000861600008F1B9000841BA000859
:1000600091BA0008E1BA000831BB000841AC0008B1
:1000700091AC0008E1AC000831AD000881AD00088A
:10008000D1AD000821AE000831B7000831C000082A
:10009000A1C0000851C1000801C2000881BB0008CE
:1000A000616000086160000891E900086160000873
:1000B000F1EA000831EB000871EB0008C1CF00083D
:1000C00001D10008616000086160000861600008FB
:1000D000616000086160000861600008F1EF0008DD
:1000E00011BC000801BD000851BD0008D1E900089D
:1000F00061600008616000086160000871AE00087E
:100100006160000891C30008B1EB0008616000085D
:10011000616000086160000851E900086160000842
:10012000C1AE000811AF000861AF0008B1AF000810
:1001300001B0000861600008A1BD0008616000080E
:10014000616000086160000861600008E1E3000888
:1001500051B00008A1B00008F1B0000861600008CB
:10016000616000086160000861600008616000086B
:10017000F1BD000861600008613800086160000896
:10018000616000086160000861600008616000084B
:10019000616000086160000861600008616000083B
:1001A000616000086160000861600008616000082B
:1001B000616000086160000861600008616000081B
:1001C00072B62E4880F3098840F20000CCF200009D
:1001D0004EF63471CEF20001086040F20000C0F229
:1001E000F0004EF68851CEF2000108604FF000009A
:1001F000E1EE100A4EF63C71CEF2000108600620D6
:1002000080F31488BFF36F8F0FF03AF84FF055303A
:100210001B491C4A91423CBF41F8040BFAE71A49BA
:10022000164A91423CBF41F8040BFAE71749184AB5
:10023000184B9A423EBF51F8040B42F8040BF8E702
:1002400000201549154A91423CBF41F8040BFAE7DA
:1002500005F0EEFE124C134DAC4203DA54F8041BC9
:100260008847F9E701F05CFF0F4C104DAC4203DA10
:1002700054F8041B8847F9E705F0EABE000800209F
:10028000000000200004002000040020389701082E
:1002900000080020CC150020D0150020E8810020A7
:1002A000C0010008C0010008C0010008C00100082A
:1002B0002DE9F04F2DED108AC1F80CD0D0F80CD0FC
:1002C000BDEC108ABDE8F08F06F00AF807F040F8A0
:1002D000002383F311882846A047002006F0D8FDAC
:1002E00007F01EF805F0DCFF06F0FAFB05F0F8FF5A
:1002F00007F02EF800DFFEE700000000000000001D
:100300002DE9F843544B80461A68544882422DED3B
:10031000028B1BD052490B68DA0405D40A6842F4F8
:1003200080530B60012000E000204E4A4E491160CE
:1003300013684A4A934208D147490B6030B1484894
:10034000036823F48052026000E0FEE798ED018A22
:10035000B5EE408A0021F1EE10FAC8F81C10C8F87A
:100360001810C8F81410C8F81010C8F82810C8F8E9
:100370002410C8F8201029D0DFED3C7A28EE270A97
:1003800010EE100A01F038F8044618EE100A0D4677
:1003900001F032F80646B8F800000F4601F01AF8EE
:1003A0002BA3D3E9002301F0ADF902460B463046FA
:1003B000394600F0C3FE02460B462046294601F0AE
:1003C000A1F901F055FBA8F82C0001E0A8F82C10C9
:1003D00098ED028AB5EE408AF1EE10FA26D0B8F810
:1003E00000904FEA092000F0F5FF044618EE100ACD
:1003F0000D4601F001F816A3D3E9002301F058F8E7
:10040000064648460F4600F0E5FF02460B463046DA
:10041000394600F093FE02460B462046294601F07D
:1004200071F901F025FBA8F82E0002E00020A8F8E1
:100430002E00B8F800204FF47A73B2FBF3F1A8F85D
:100440003010BDEC028BBDE8F88300BFAFF3008035
:100450001F85EB51B81E1940D0150020CDB5E8B569
:100460003038024000300240C2A507F4000080434B
:100470002DE9F04F9BB083461992A94A1891A948DB
:100480001168814200D0FEE79E6AB3F80CC09F69F4
:100490009A8DD98D039603261C6A5D6A059706928C
:1004A00006FB0CF74FEA8C0206264FEA4C000B9134
:1004B0000E97052106FB0CF70F9207220294049574
:1004C0000D90119701FB0CF04FEACC0602FB0CF1EA
:1004D00000271D695C69D3F81CA010901291179633
:1004E0000197188EDDF80490814580F20A818E48CC
:1004F0009BF800601BF80C7010F80690C25DA144D8
:100500008419511994F8008194F8002201EB4808ED
:10051000CDF81C80DDF834801BF80860855DC719B4
:10052000A9180E9A97F800411BF8022097F800725C
:1005300001EB4405815C0895CC1981190F9E91F857
:10054000008191F8007204EB48081BF80640CDF8D2
:1005500024808218055D92F8006192F80022E91962
:1005600001EB460505EB0807DDF8408015971BF801
:1005700008700A950419C15D94F8005194F800427E
:10058000DDF81C808E1806EB4501119D089A1BF8BA
:1005900005508E18C719425D1696161997F8002156
:1005A00006EB42029044CDF85080129C97F80072FE
:1005B0001BF804604519845DE41995F8007195F8FD
:1005C0000052801904EB47044FF01C0804EB0907A4
:1005D00090F80061139708FB09AADDF81C800C94C1
:1005E0000AEB0209152705EB460490F8005207FBB9
:1005F0000890099FDDF820900A2606FB070A0F27BE
:1006000007FB09A04FF00308DDF8289008FB010064
:100610004FF0060A0AFB0900009015984FF03009C8
:1006200009FB00FADDF858902E2000FB09A0824655
:100630000598824413984FF0240909FB00AA1498E6
:100640004FF02A0909FB00AA0898DDF8249008FB5E
:1006500000F8062000FB0988DDF81C9008EB090073
:1006600007FB01010A9F0C98DDF8009006FB0718B4
:100670001C2606FB008115270B9807FB021205922A
:10068000A9F5003868B1029E049FCDF8108006EBF2
:100690000801CE1B46434FF4807296FBF2F00290A5
:1006A0008046069961B1039E08FB01F8C1F5807789
:1006B00006FB07894FF4807299FBF2F003908046A5
:1006C000199901FB08F7002F02DD0837381103E004
:1006D000083F102697FBF6F047F6BC72019E1349BF
:1006E000189FDDF85C809042A8BF1046DA897243FB
:1006F0008842A8BF0146013627F81210C34401966C
:10070000EFE61D615C61029D059C1D629C61039D7D
:10071000049CC3F81CA05C629D621BB0BDE8F08F16
:10072000D0150020CDB5E8B5000800204480FFFFBB
:100730002DE9F04FA1B0C74C1F92C74A1E91116816
:10074000A14200D0FEE79F6A9A69998DDC8D0497DB
:100750009F89069207910F940322052106241D6AA2
:100760005E6A03957A4379437C43129214911594FF
:10077000072209210A24794305964FEA47084FEAE0
:1007800087097A434FEAC70A7C431E695D69D3F83B
:100790001CB01891CDF84480CDF84C901692CDF84D
:1007A0005CA01D94002102911A8E0299914280F260
:1007B0005981AA4A047812F80490A944C55D111918
:1007C00012F8058091F8004191F800A2464406EB2A
:1007D0004406119C0896045D5519165D95F800C1F4
:1007E00095F8005206EB0A0808EB4C0ADDF8488041
:1007F000CDF824A010F80810DDF84C80565C1419D0
:1008000006EB050A10F8085094F800C1565D94F8FC
:10081000004251180AEB4C0C361991F800A1149CB7
:1008200091F80012CDF828C006EB4A08065DCDF815
:100830002C80945DDDF85480551904EB010A95F87D
:10084000004195F800520AEB44010C9110F8081091
:100850009619545C641996F8005104EB45040D9404
:10086000169D96F80062DDF824A0DDF85C80A444B3
:10087000445DCDF86CC0155D5118AD1991F800615B
:1008800091F8001205EB460505EB0A060E9510F8E7
:1008900008501C961419565DDDF860A0711894F884
:1008A000006194F8004201EB460C08990CEB01063C
:1008B0001A9610F80A605519915D9219091995F860
:1008C000004192F8006195F8005201EB44012D249B
:1008D00001EB090804FB09BB10910899CDF864806D
:1008E0000BEB0C09DDF8288005EB460592F8006259
:1008F000242202FB019A152404FB08A9DDF824A098
:100900000C994FF01C0B0BFB0A994FF00A08DDF80D
:100910002CA008FB01994FF00F0B0E990BFB0A99C5
:100920004FF00308DDF834A008FB01994FF0060BE7
:100930000BFB0A99CDF80490DDF82CA00C994FF030
:100940004B0B51440BFB01F91B994FF0490A0AFB71
:10095000019B0699DDF868900BEB010A4FF03F0B05
:100960001C990BFB09AA4FF0450BDDF864900BFBBB
:1009700001AA4FF0370B0BFB09ABDDF824A00A9955
:1009800008FB0AF84FF00609DDF820A009FB0188F2
:100990000C99D0444FF00F09DDF82CA009FB018819
:1009A0000A21DDF8389001FB0A884FF01C0A0D99E6
:1009B0000AFB098804FB018A109C0F994FF02D094E
:1009C00009FB04A8DDF804A002FB0C820692AAF53C
:1009D0007A3971B1039C0599CDF8149004EB0902A2
:1009E000541A0F9A4FF48071544394FBF1F403941A
:1009F000A146079961B1049CC1F5807209FB01FC15
:100A000004FB02C94FF4807199FBF1F20492914604
:100A10001F9C04FB09F1002902DD10314C1103E099
:100A20001039202291FBF2F447F6BC718C42A8BF2A
:100A30000C46DA890299DDF874804A4308498C42F1
:100A4000A8BF21461E9C24F81210029A4044511C53
:100A5000A9E600BFCDB5E8B5D015002000080020FC
:100A60004480FFFF05981E615D61039E069D049C06
:100A700058629D61C3F81CB01E629C62104621B092
:100A8000BDE8F08F2DE9F04F95B0994C1392994A3B
:100A900012911168A14200D0FEE75E6A1D6A9F6A4A
:100AA0009A69998DB3F82E800C964FF00009D3F80F
:100AB00010C05E69D3F81CB00195029709920A91A3
:100AC000CDF83480CDF80C908B4904780D190C5D6D
:100AD00095F8007295F8008106EB070A067ACDF8C2
:100AE0002CA08F198E5D97F8002202EB4805AC44CC
:100AF000057C97F80081CDF810C04A194D5D92F839
:100B0000009292F8002109EB040A0AEB480C90F8D5
:100B100018A090F82090CDF814C001EB0A0494F8C6
:100B2000007294F80041BF1907EB420801EB09027B
:100B3000CDF8188092F8006292F80021771907EB3F
:100B4000440606EB080C90F8288011F80A70079606
:100B500001EB0805CDF840C095F8004295F800512A
:100B6000E619059F06EB4204E619119690F83060ED
:100B700008948C1911F8097094F80022D219049F76
:100B800002EB4502BD180F9590F8385011F8089007
:100B900094F80041DDF82C808E5D4F1997F800A283
:100BA00097F800710AEB090C0CEB4404DDF818A06F
:100BB00011F805C000941C2505FB082944440A21AE
:100BC000DDF8148001FB0A9906EB4706DDF820A04A
:100BD0000F2707FB0899032101FB0A99DDF81CA0E8
:100BE0004FF0060808FB0A99DDF810A0152101FB5B
:100BF0000A99CB44DDF84490CDF82CB04FF02E0A82
:100C00000AFB09FADDF840904FF0300B0BFB09AA04
:100C10004FF0240B0BFB04A90F9C4FF02A0A0AFB90
:100C2000049B099CDDF81890DDF810A0A344059CF6
:100C300008FB09A8DDF820A04FF0030909FB048890
:100C4000079C07FB0A890A2707FB0498DDF8009038
:100C5000DDF82CA00C9F05FB098501FB02520199D0
:100C60000992AAF500328C180D99DDF82880E51B51
:100C70004D434FF4807195FBF1F40194019F44467C
:100C80007C43029FC8EB010507FB054595FBF1F18D
:100C90000291139C6143002902DD0831091103E030
:100CA0000839102791FBF7F147F6BC75134C129FDA
:100CB0000C92A942A8BF2946039DA142B8BF214674
:100CC00079530C354030C02D03957FF4FDAE099863
:100CD000019C029D9861C3F810C05E61C3F81CB00E
:100CE0001C625A629D62102015B0BDE8F08F00BFF3
:100CF000CDB5E8B5D0150020000800204480FFFFE6
:100D00002DE9F04FA1B084461F92BE4A1E91BE4805
:100D10001168814200D0FEE79E6A9F6905969E8910
:100D2000D98D01967000079703277E431190019893
:100D30009A8D0F9112960521019E08924843B200A8
:100D40001490019E01980199139206277E43072271
:100D5000C700514315961797019E019F1C6A5D6A53
:100D6000169109220A2156434F434FF0000804947C
:100D700006955C691D69D3F81CB018961D97CDF8CF
:100D80000C80188EDDF80C90814580F25A819F49C5
:100D90009CF80000DDF804900F181CF8096097F823
:100DA00000A297F80021085CA2448C198E5D94F88B
:100DB000008294F80041454405EB4207119D0997D4
:100DC0001CF805504A194D5D92F8007292F80081A6
:100DD0003F18129807EB44091CF80040CDF8289002
:100DE00008190C5D90F8007290F80001BF1907EB2C
:100DF0004809DDF84C80CDF82C901CF8089001EBE8
:100E00000902CDF8089092F8006292F80021771953
:100E1000149E1CF80690159E07EB400801EB090094
:100E2000CDF8308090F8005290F800012F1907EBB0
:100E300042081CF80670029DCDF83480CA194E5D38
:100E400092F80042A41904EB40050295DDF82C80CD
:100E5000169E92F80021CF5DA844CDF86C801CF856
:100E6000068011F80950DDF8609001EB080011F8D8
:100E7000088090F8004290F8000166190A9D06EB80
:100E80004204179A0E9466191C961CF802608C197D
:100E90008E5D94F8002294F80041D519099F05EB66
:100EA0004002D5191A951CF809504F194D5D97F855
:100EB000000297F80071404400EB44002D2100EB44
:100EC0000A0401FB0ABB1090099819940BEB020A63
:100ED00006EB470424210B9F01FB00A94FF01508E6
:100EE000DDF828A00D9808FB07964FF01C0B0BFBB4
:100EF0000A69DDF830800A2606FB009A0F27DDF824
:100F0000389007FB08AB4FF0030808FB09BADDF87F
:100F100008B0062000FB0BA9CDF80090DDF834A046
:100F2000DDF830B04FF04B090AEB0B0009FB00FA7B
:100F30001B984FF0490B0BFB00A9079809EB000A1F
:100F4000DDF868901C984FF03F0B0BFB09AA4FF09F
:100F5000450BDDF864900BFB00AA4FF0370B0BFB41
:100F600009ABDDF828A00B9808FB0AF84FF006093A
:100F7000DDF824A009FB00880D9808EB0A0907FB9F
:100F800000980C9FDDF83890029806FB07864FF01A
:100F90001C0A0AFB0968152707FB008610980F9F9B
:100FA0004FF02D0909FB006A01FB02A2DDF800A049
:100FB0000792AAF57A386FB10499069ECDF8188089
:100FC00001EB0800811B79434FF4807291FBF2F72B
:100FD0000497B846089860B1059908FB00F8C0F579
:100FE000807601FB06894FF4807299FBF2F7059732
:100FF000B8461F9800FB08F6002E09DD1036771161
:101000000AE000BFD0150020CDB5E8B500080020EB
:10101000103E202196FBF1F7039ED8891049DDF898
:10102000748047F6BC729742A8BF17468F42A8BF8C
:10103000394670431E9F721C27F81010C444039257
:101040009FE65C61079C049A9C61059E069C1D615D
:10105000C3F81CB01A625C629E6221B0BDE8F08FDA
:101060004480FFFFAFF3008000000000000000009C
:101070004B1C012B98BF70472DE9F003911C9B0876
:10108000B1F80480B1F802900A8831F802CC8044AB
:10109000814402448444D9F80070D8F8006015688F
:1010A000DCF80040C9F80060C8F80070CCF80050C7
:1010B0001460D9F80470D8F804605568DCF804406E
:1010C000C9F80460C8F80470CCF8045054600831C2
:1010D000013BD5D1BDE8F00370474B1C012B98BFF5
:1010E00070472DE9F003911C9B08B1F80480B1F81A
:1010F00002900A8831F802CC00EB580800EB59093D
:1011000000EB520200EB5C0CD9F80070D8F80060DC
:101110001568DCF80040C9F80060C8F80070CCF829
:10112000005014600831013BDFD1BDE8F003704787
:1011300081F0004102E000BF83F0004330B54FEA88
:1011400041044FEA430594EA050F08BF90EA020FF5
:101150001FBF54EA000C55EA020C7FEA645C7FEA88
:10116000655C00F0E2804FEA5454D4EB5555B8BFAB
:101170006D420CDD2C4480EA020281EA030382EA1C
:10118000000083EA010180EA020281EA0303362DAE
:1011900088BF30BD11F0004F4FEA01314FF4801C81
:1011A0004CEA113102D0404261EB410113F0004F93
:1011B0004FEA03334CEA133302D0524263EB43034A
:1011C00094EA050F00F0A780A4F10104D5F1200EE8
:1011D0000DDB02FA0EFC22FA05F2801841F1000143
:1011E00003FA0EF2801843FA05F359410EE0A5F117
:1011F00020050EF1200E012A03FA0EFC28BF4CF048
:10120000020C43FA05F3C01851EBE37101F00045FD
:1012100007D54FF0000EDCF1000C7EEB00006EEB0A
:101220000101B1F5801F1BD3B1F5001F0CD3490894
:101230005FEA30004FEA3C0C04F101044FEA4452EB
:1012400012F5800F80F09A80BCF1004F08BF5FEA72
:10125000500C50F1000041EB045141EA050130BD52
:101260005FEA4C0C404141EB010111F4801FA4F1F5
:101270000104E9D191F0000F04BF01460020B1FA4A
:1012800081F308BF2033A3F10B03B3F120020CDA82
:101290000C3208DD02F1140CC2F10C0201FA0CF060
:1012A00021FA02F10CE002F11402D8BFC2F1200CC5
:1012B00001FA02F120FA0CFCDCBF41EA0C0190407B
:1012C000E41AA2BF01EB0451294330BD6FEA0404C4
:1012D0001F3C1CDA0C340EDC04F11404C4F12002AF
:1012E00020FA04F001FA02F340EA030021FA04F3C1
:1012F00045EA030130BDC4F10C04C4F1200220FA18
:1013000002F001FA04F340EA0300294630BD21FA55
:1013100004F0294630BD94F0000F83F4801306BF1B
:1013200081F480110134013D4EE77FEA645C18BF0F
:101330007FEA655C29D094EA050F08BF90EA020FA6
:1013400005D054EA000C04BF1946104630BD91EA9E
:10135000030F1EBF0021002030BD5FEA545C05D1A1
:101360004000494128BF41F0004130BD14F58004E0
:101370003CBF01F5801130BD01F0004545F0FE4154
:1013800041F470014FF0000030BD7FEA645C1ABF89
:10139000194610467FEA655C1CBF0B46024650EAC0
:1013A000013406BF52EA033591EA030F41F40021EC
:1013B00030BD00BF90F0000F04BF0021704730B572
:1013C0004FF4806404F132044FF000054FF0000147
:1013D00050E700BF90F0000F04BF0021704730B508
:1013E0004FF4806404F1320410F0004548BF4042DD
:1013F0004FF000013EE700BF42004FEAE2014FEA32
:1014000031014FEA02701FBF12F07F4393F07F4F0C
:1014100081F06051704732F07F4208BF704793F00F
:101420007F4F04BF41F40021704730B54FF4607422
:1014300001F0004521F000411CE700BF50EA010225
:1014400008BF704730B54FF000050AE050EA0102CE
:1014500008BF704730B511F0004502D5404261EB3E
:1014600041014FF4806404F132045FEA915C3FF47F
:10147000D8AE4FF003025FEADC0C18BF03325FEA1C
:10148000DC0C18BF033202EBDC02C2F1200300FACD
:1014900003FC20FA02F001FA03FE40EA0E0021FAF2
:1014A00002F11444BDE600BF00000000000000008F
:1014B00070B54FF0FF0C4CF4E06C1CEA11541DBFEA
:1014C0001CEA135594EA0C0F95EA0C0F00F0DEF8B5
:1014D0002C4481EA030621EA4C5123EA4C5350EA9A
:1014E000013518BF52EA033541F4801143F48013EB
:1014F00038D0A0FB02CE4FF00005E1FB02E506F07C
:101500000042E0FB03E54FF00006E1FB03569CF0D0
:10151000000F18BF4EF0010EA4F1FF04B6F5007FD6
:1015200064F5407404D25FEA4E0E6D4146EB060648
:1015300042EAC62141EA55514FEAC52040EA5E50D1
:101540004FEACE2EB4F1FD0C88BFBCF5E06F1ED87B
:10155000BEF1004F08BF5FEA500E50F1000041EBB2
:10156000045170BD06F0004646EA010140EA02005F
:1015700081EA0301B4EB5C04C2BFD4EB0C0541EA81
:10158000045170BD41F480114FF0000E013C00F396
:10159000AB8014F1360FDEBF002001F0004170BDBA
:1015A000C4F10004203C35DA0C341BDC04F11404D3
:1015B000C4F1200500FA05F320FA04F001FA05F25F
:1015C00040EA020001F0004221F0004110EBD3702C
:1015D00021FA04F642EB06015EEA430E08BF20EA58
:1015E000D37070BDC4F10C04C4F1200500FA04F3FB
:1015F00020FA05F001FA04F240EA020001F000418D
:1016000010EBD37041F100015EEA430E08BF20EAFF
:10161000D37070BDC4F1200500FA05F24EEA020E47
:1016200020FA04F301FA05F243EA020321FA04F076
:1016300001F0004121FA04F220EA020000EBD3702D
:101640005EEA430E08BF20EAD37070BD94F0000F2D
:101650000FD101F00046400041EB010111F4801F61
:1016600008BF013CF7D041EA060195F0000F18BF12
:10167000704703F00046520043EB030313F4801F4E
:1016800008BF013DF7D043EA0603704794EA0C0F08
:101690000CEA135518BF95EA0C0F0CD050EA41061E
:1016A00018BF52EA4306D1D181EA030101F000419B
:1016B0004FF0000070BD50EA410606BF10461946C3
:1016C00052EA430619D094EA0C0F02D150EA0136CF
:1016D00013D195EA0C0F05D152EA03361CBF104610
:1016E00019460AD181EA030101F0004141F0FE41AF
:1016F00041F470014FF0000070BD41F0FE4141F433
:10170000780170BD70B54FF0FF0C4CF4E06C1CEA32
:1017100011541DBF1CEA135594EA0C0F95EA0C0FE7
:1017200000F0A7F8A4EB050481EA030E52EA0335A2
:101730004FEA013100F088804FEA03334FF08055C3
:1017400045EA131343EA12634FEA022245EA1115F0
:1017500045EA10654FEA00260EF000419D4208BFA1
:10176000964244F1FD0404F5407402D25B084FEA4E
:101770003202B61A65EB03055B084FEA32024FF4FA
:1017800080104FF4002CB6EB020E75EB030E22BF57
:10179000B61A754640EA0C005B084FEA3202B6EB17
:1017A000020E75EB030E22BFB61A754640EA5C00C6
:1017B0005B084FEA3202B6EB020E75EB030E22BF56
:1017C000B61A754640EA9C005B084FEA3202B6EB57
:1017D000020E75EB030E22BFB61A754640EADC0016
:1017E00055EA060E18D04FEA051545EA16754FEA78
:1017F00006164FEAC30343EA52734FEAC2025FEA96
:101800001C1CC0D111F4801F0BD141EA00014FF024
:1018100000004FF0004CB6E711F4801F04BF0143F5
:101820000020B4F1FD0C88BFBCF5E06F3FF6AFAE11
:10183000B5EB030C04BFB6EB020C5FEA500C50F1A1
:10184000000041EB045170BD0EF0004E4EEA113124
:1018500014EB5C04C2BFD4EB0C0541EA045170BD2B
:1018600041F480114FF0000E013C90E645EA060E6F
:101870008DE60CEA135594EA0C0F08BF95EA0C0F9D
:101880003FF43BAF94EA0C0F0AD150EA01347FF4E5
:1018900034AF95EA0C0F7FF425AF104619462CE7BC
:1018A00095EA0C0F06D152EA03353FF4FDAE10461F
:1018B000194622E750EA410618BF52EA43067FF470
:1018C000C5AE50EA41047FF40DAF52EA43057FF400
:1018D000EBAE12E700000000000000000000000076
:1018E0004FF0FF3C06E000BF4FF0010C02E000BFEC
:1018F0004FF0010C4DF804CD4FEA410C7FEA6C5CCF
:101900004FEA430C18BF7FEA6C5C1BD001B050EA71
:10191000410C0CBF52EA430C91EA030F02BF90EA5C
:10192000020F0020704710F1000F91EA030F58BF1B
:10193000994208BF90422CBFD8176FEAE37040F07D
:10194000010070474FEA410C7FEA6C5C02D150EA1B
:10195000013C07D14FEA430C7FEA6C5CD6D152EAD6
:10196000033CD3D05DF8040B704700BF844610469B
:1019700062468C461946634600E000BF01B5FFF79A
:10198000B7FF002848BF10F1000F01BD4DF808ED6A
:10199000FFF7F4FF0CBF012000205DF808FB00BF3B
:1019A0004DF808EDFFF7EAFF34BF012000205DF895
:1019B00008FB00BF4DF808EDFFF7E0FF94BF0120E2
:1019C00000205DF808FB00BF4DF808EDFFF7CEFFE3
:1019D00094BF012000205DF808FB00BF4DF808ED22
:1019E000FFF7C4FF34BF012000205DF808FB00BFF3
:1019F0004FEA410C7FEA6C5C02D150EA013C0AD10B
:101A00004FEA430C7FEA6C5C02D152EA033C02D1FC
:101A10004FF0000070474FF00100704700000000D9
:101A20004FEA410212F5001215D211D56FF4787306
:101A3000B3EB625212D94FEAC12343F0004343EAA9
:101A4000505311F0004F23FA02F018BF4042704784
:101A50004FF00000704750EA013005D111F000400E
:101A600008BF6FF0004070474FF00000704700BFA4
:101A70004A0011D212F5001211D20DD56FF478730D
:101A8000B3EB62520ED44FEAC12343F0004343EA62
:101A9000505323FA02F070474FF00000704750EAAD
:101AA000013002D14FF0FF3070474FF00000704717
:101AB0004FEA4102B2F1E04324BFB3F5001CDCF170
:101AC000FE5C0DD901F0004C4FEAC0024CEA5070A8
:101AD000B2F1004F40EB830008BF20F001007047D7
:101AE00011F0804F21D113F13872BCBF01F00040DA
:101AF000704741F480114FEA5252C2F11802C2F10C
:101B0000200C10FA0CF320FA02F018BF40F001008C
:101B10004FEAC1234FEAD32303FA0CFC40EA0C003E
:101B200023FA02F34FEA4303CCE77FEA625307D17B
:101B300050EA01331EBF4FF0FE4040F440007047B2
:101B400001F0004040F0FE4040F40000704700BF4C
:101B500053B94AB9002908BF00281CBF4FF0FF3114
:101B60004FF0FF3000F074B9ADF1080C6DE904CE10
:101B700000F006F8DDF804E0DDE9022304B0704768
:101B80002DE9F047089E04468846002B4BD18A4237
:101B9000154667D9B2FA82F24AB1C2F1200701FABA
:101BA00002F320FA07F7954047EA030894404FEA0A
:101BB000154E230CB8FBFEF71FFA85FC0EFB1788A9
:101BC00043EA084307FB0CF1994209D9EB1807F1E6
:101BD000FF3080F01B81994240F21881023F2B4474
:101BE0005B1AA4B2B3FBFEF00EFB103344EA0344CD
:101BF00000FB0CFCA44509D92C1900F1FF3380F03F
:101C00000781A44540F2048102382C4440EA074091
:101C1000A4EB0C0400271EB1D4400023C6E9004306
:101C20003946BDE8F0878B4209D9002E00F0EB80E1
:101C30000027C6E9000138463946BDE8F087B3FA07
:101C400083F7002F47D18B4202D3824200F2FA8001
:101C5000841A61EB030301209846002EE0D0C6E908
:101C60000048DDE702B9FFDEB2FA82F2002A40F056
:101C70008F80491B4FEA154E1FFA85F80127B1FBEB
:101C8000FEFC230C0EFB1C1143EA014308FB0CF184
:101C9000994207D9EB180CF1FF3002D2994200F2B9
:101CA000CD808446591AA3B2B1FBFEF00EFB10148E
:101CB00043EA044408FB00F8A04507D92C1900F1B9
:101CC000FF3302D2A04500F2B6801846A4EB080408
:101CD00040EA0C409FE7C7F1200CBB4022FA0CFE03
:101CE0004EEA030E01FA07F420FA0CF521FA0CF380
:101CF0004FEA1E482543B3FBF8F92C0C08FB1933B7
:101D00001FFA8EFA44EA034309FB0AF49C4202FAE2
:101D100007F200FA07F10BD91EEB030309F1FF30BC
:101D200080F087809C4240F28480A9F102097344CC
:101D30001B1BADB2B3FBF8F008FB103345EA0344BC
:101D400000FB0AFAA24508D91EEB040400F1FF3398
:101D50006BD2A24569D90238744440EA0940A0FB1D
:101D60000289A4EB0A044C45C2464B4654D351D0D9
:101D7000002E69D0B1EB0A0564EB030404FA0CFCF5
:101D8000FD40FC404CEA0505C6E90054002747E742
:101D9000C2F1200320FA03F7954001FA02F021FA7C
:101DA00003F34FEA154E3843010CB3FBFEF71FFA5D
:101DB00085F80EFB173341EA034107FB08F38B421A
:101DC00004FA02F407D9691807F1FF3C2FD28B42BD
:101DD0002DD9023F2944CB1A81B2B3FBFEF00EFB92
:101DE000103341EA034100FB08F38B4207D969181D
:101DF00000F1FF3C17D28B4215D902382944C91A89
:101E000040EA07473BE73746304609E70746E7E63B
:101E10001846FBE64145ABD2B8EB020A69EB0E026D
:101E200001381346A4E76046E9E7184695E7674698
:101E3000D1E781467CE702382C4447E7ACF1020C3D
:101E40002B442FE7384608E73746E9E60000000054
:101E5000704700BF0000000000000000000000000C
:101E6000844641EA000313F003036DD1403A41D3A5
:101E700051F8043B40F8043B51F8043B40F8043B64
:101E800051F8043B40F8043B51F8043B40F8043B54
:101E900051F8043B40F8043B51F8043B40F8043B44
:101EA00051F8043B40F8043B51F8043B40F8043B34
:101EB00051F8043B40F8043B51F8043B40F8043B24
:101EC00051F8043B40F8043B51F8043B40F8043B14
:101ED00051F8043B40F8043B51F8043B40F8043B04
:101EE00051F8043B40F8043B51F8043B40F8043BF4
:101EF000403ABDD2303211D351F8043B40F8043B94
:101F000051F8043B40F8043B51F8043B40F8043BD3
:101F100051F8043B40F8043B103AEDD20C3205D3A3
:101F200051F8043B40F8043B043AF9D2043208D09B
:101F3000D2071CBF11F8013B00F8013B01D30B880D
:101F400003806046704700BF082A13D38B078DD0EB
:101F500010F003038AD0C3F10403D21ADB071CBFBD
:101F600011F8013B00F8013B80D331F8023B20F827
:101F7000023B7BE7043AD9D3013A11F8013B00F860
:101F8000013BF9D20B7803704B7843708B788370E8
:101F900060467047000000000000000000000000E4
:101FA00090F800F06DE9024520F007016FF0000C99
:101FB00010F0070491F820F040F049804FF0000441
:101FC0006FF00700D1E9002391F840F000F108001C
:101FD00082FA4CF2A4FA8CF283FA4CF3A2FA8CF354
:101FE0004BBBD1E9022382FA4CF200F10800A4FABB
:101FF0008CF283FA4CF3A2FA8CF3E3B9D1E904230F
:1020000082FA4CF200F10800A4FA8CF283FA4CF345
:10201000A2FA8CF37BB9D1E9062301F1200182FAFF
:102020004CF200F10800A4FA8CF283FA4CF3A2FA05
:102030008CF3002BC6D0002A04BF04301A4612BA13
:10204000B2FA82F2FDE8024500EBD2007047D1E916
:10205000002304F00305C4F100004FEAC50514F0A5
:10206000040F91F840F00CFA05F562EA05021CBF76
:1020700063EA050362464FF00004A9E70000000090
:1020800001F0FF01102A2BDB10F0070F08D010F829
:10209000013B013A8B422DD010F0070F42B3F6D12D
:1020A000F0B441EA012141EA014122F007047FF046
:1020B00000070023F0E80256083C85EA010586EA9D
:1020C000010685FA47F5A3FA87F586FA47F6A5FAD9
:1020D00087F68EB9EED1F0BC01F0FF0102F00702E5
:1020E00032B110F8013B013A83EA010313B1F8D190
:1020F0000020704701387047002D06BF3546033871
:10210000073815F0010F07D1013015F4807F02BFA9
:10211000013015F4C03F0130F0BC0138704700BFFA
:1021200000B5144B83B01B68019306F029F903F046
:10213000AFFF02F0D5FF1049104807F0D1FC03F0C3
:10214000E7FD02F0A5FA02F07BFE03F001FB0C486C
:1021500001F0A6FF0B4A0C490C4803F0B9FE4FF4FE
:10216000FA7004F0D5FD00F003FE01F041F900F033
:102170000FFDFCE7000B0020200B00203C8100201D
:1021800081220008040B00200C0B0020D415002035
:1021900000B5084B83B01A680192019A1B689A42F5
:1021A00005D1054803B05DF804EB03F0D9BFFFF794
:1021B000EFFF00BF000B0020704C01080000000082
:1021C00000B52B499FED2B7A0B6883B02830019323
:1021D0004FF0FF320A23F0EC017AF4EEC77AF1EE09
:1021E00010FAC8BF1AB203F10103C8BFB0EE677A94
:1021F0001F2BF0D192B2A2F10F03022B1CD9A2F136
:102200001203022B0DD9A2F11603022B1CD9193A85
:10221000022A019A0B6822D99A4213D103B05DF8C1
:1022200004FB019A0B689A4208BF01200AD103B04F
:102230005DF804EB00F0BCBD019A0B689A4208BF40
:102240000620F4D0FFF7A4FF019A0B689A4208BF5A
:102250000320F7D103B05DF804EB00F0A9BD9A426A
:1022600008BF0420EED103B05DF804EB00F0A0BD80
:10227000000B002000401C46000000000000000091
:10228000F0B54E4E4E4D336883B001932B88002934
:1022900000F08980B0F902204A4C07EE902A5A1CBF
:1022A00004EB830792B202339BB2F8EEE77A04EBB9
:1022B00082024FF0000EB3F5006FC7ED007A2B805D
:1022C000C2F800E02CD20139C1F38D0100EBC1014D
:1022D00000271AE0B0F90A2007EE902A5A1C92B2A1
:1022E00003F1020C04EB8307F8EEE77A04EB8202B9
:1022F0001FFA8CF3B3F5006FC7ED007A00F1080008
:102300004FF00107C2F800E009D28842E2D1002F65
:1023100050D1019A33689A424ED103B0F0BD2B8060
:102320002849294C4FF4806000F05AF84FF480623D
:10233000264924480EF064FB2378082B0FD801337C
:10234000DBB201993268237091424FF000032B8079
:1023500032D11E4803B0BDE8F040FFF731BF202363
:1023600083F3118804F0DCFF03F09AFF04F068F8AF
:1023700017488368002B1ADD04F08AFB03F0B0FFD6
:1023800004F0E6FF134B1A689A4207D099699368E4
:102390008A689A4202D2104803F0E2FE002383F3D7
:1023A00011880123CDE7B3F5006FB2D3B8E705F08C
:1023B000AFF8E1E72B80ACE7FFF7EAFE000B002067
:1023C000E2450020E0150020E0450020E035002037
:1023D0002C0B002008730020904C01080000000026
:1023E00000B50D4B83B01A680192B0F5806F019A69
:1023F0001B6804D09A420CD103B05DF804FB9A42EA
:1024000007D106480123002203B05DF804EB0EF06B
:1024100077BAFFF7BDFE00BF000B0020A04C0108FB
:102420000EB410B583B005AA094C52F8041B2368FA
:102430000848009201930CF07BFF019A23689A42AE
:1024400004D103B0BDE8104003B07047FFF7A0FE11
:10245000000B00203C810020000000000000000074
:10246000F0B52DED048B2F4D2F4C2B6889B00793C1
:1024700003F00EF908EE100A03F022F907EE900AB5
:10248000B8EEC88AF8EEE77A284B38EE278AF6EEDF
:10249000007A28EE278AD3ED007A83ED008A38EEA1
:1024A000678AB0EE480A00F02BFEB0EE409A94ED39
:1024B000020A0EF0D5FBD4ED007AE0EE097A94ED35
:1024C000020AC4ED007A0EF083FBD4ED018AE0EE3F
:1024D000098A19EE100AC4ED018AFEF78DFF06463F
:1024E00018EE100A0F46FEF787FFCDE9040118EE3B
:1024F000900AFEF781FFCDE902012068FEF77CFF1C
:102500003246CDE900013B4609490A48FFF788FFFA
:10251000079A2B689A4203D109B0BDEC048BF0BD39
:10252000FFF736FE000B0020F0450020E8450020B4
:10253000A04D01083C8100200000000000000000C8
:102540002DE98048264C274BA26927491B68DFF8F4
:10255000A0A0264DDFF89CB0916187B0DFF898907D
:10256000DFF89880059319E02868FEF745FF0646D6
:10257000A8680F46FEF740FFCDE902016868FEF744
:102580003BFF3246CDE900013B4649464046FFF756
:1025900047FF049804990A3104F0FAFB202383F3DF
:1025A000118804F0BDFE03F07BFEA66A03F098FEDE
:1025B00004F0CEFE2368A34207D0A2699B6892680C
:1025C0009A4202D2584603F0CBFD002383F31188D0
:1025D0009AF800300496012BC6D1FFF741FFC3E7FC
:1025E00008730020000B0020E04C0108F04500209B
:1025F000E4450020F04C0108B04C01083C8100206B
:1026000000B5164B9FED167AD3ED027A154A30EEDF
:10261000270A83B0B4EEC70AF1EE10FAC8BFDFEDA7
:10262000127A11680191C8BF30EE670ADFED0F7AA8
:1026300083ED020AB4EEE70AF1EE10FA05D5DFEDFC
:102640000A7A30EE270A83ED020A0199136899424B
:1026500002D103B05DF804FBFFF79AFDF0450020BE
:10266000DB0F4940000B0020DB0FC940DB0F49C0E6
:10267000F0B52DED028B594F594C3D78236883B04E
:10268000012D01930646B0EE408A2DD01BD3022DBA
:102690000FD0019A23689A4240F08E8033462A4632
:1026A0005049514803B0BDEC028BBDE8F040FFF744
:1026B000B7BE0228EDD8019A23689A427CD103B0B4
:1026C000BDEC028BF0BD012826D066D302285DD177
:1026D000387002F0F5FF00287AD002230022434927
:1026E0004148FFF79DFE10E000F0CAFC012E26D005
:1026F00038D3022ECDD100F0C3FC3E70FFF7B0FE00
:102700003B4B00221A6000F0F3FBB0EE480A00F0E9
:1027100017FD00233B70CEE702F0D2FF00284DD01A
:102720000123002231493048FFF77AFE00F0E0FB38
:10273000019A236801219A4239700CD03CE03E7026
:10274000FFF78EFE2A4B00221A6000F0D1FB019A9F
:1027500023689A4230D103B0BDEC028BBDE8F04053
:1027600000F0AEBB00F08CFC00233B70FFF778FE5E
:10277000019A23681E4900209A4208601CD103B0C8
:10278000BDEC028BBDE8F04000F0B2BB019A2368BB
:102790009A4211D10346002282E702F091FF90B1E4
:1027A00000231A4611491048FFF73AFE019A2368A0
:1027B00000219A423970E2D0FFF7EAFC02F068FF8C
:1027C0000028ADD1B4E702F063FF0028E8D1EDE7BF
:1027D00002F05EFF002880D197E700BFE4450020AB
:1027E000000B0020684D01083C810020304D01089D
:1027F000E84500200000000000000000000000008C
:1028000070B52DED028B844C844D94ED018A2B68BC
:10281000D4ED008A82B0019300F032FCB5EEC08A9C
:10282000F1EE10FA05DDF5EEC08AF1EE10FA00F1D6
:10283000B68068EE087AE8EEA87A17EE900AFEF7FE
:10284000DBFDB5EEC08AF1EE10FA1CD441EC100BA2
:102850000DF0FEF851EC100BFFF72AF908EE100A04
:10286000B5EE408AF1EE10FA3FD1019A2B689A42F8
:1028700040F0CA806A496B4802B0BDEC028BBDE8EB
:102880007040FFF7CDBDF5EEC08AF1EE10FA4CBFF7
:1028900003260126F5EEC08AF1EE10FA40F3978088
:1028A00041EC100B0DF0D4F851EC100BFFF700F9D0
:1028B00008EE100AB5EE408AF1EE10FAD5D0C8EE57
:1028C000887A17EE900AFEF797FD41EC100B0DF099
:1028D0005FF84FA1D1E9000153EC102BFEF72CFC5F
:1028E000FFF7E6F800EE100A14E0C8EE887A17EE5B
:1028F000900AFEF781FD41EC100B0DF049F844A35E
:10290000D3E9002351EC100BFEF716FCFFF7D0F8CB
:1029100000EE100AD4ED026ADFED437A30EE660A6B
:10292000B4EEE70AF1EE10FA08DD9FED407A30EEE2
:10293000470AB4EEE70AF1EE10FAF8DCDFED3C7A74
:10294000B4EEE70AF1EE10FA08D59FED387A30EED2
:10295000070AB4EEE70AF1EE10FAF8D4DFED357AA3
:10296000B4EEE78AF1EE10FA04D5F5EE406AF1EE26
:1029700010FA24D00220FFF77BFE9FED2F0A0120E2
:10298000FFF776FE019A2B689A423DD1B0EE480AD5
:1029900002B0BDEC028BBDE8704000F089BB68EE70
:1029A000087AE8EEA87A17EE900AFEF725FDB5EE54
:1029B000C08AF1EE10FA7FF549AF03266AE7019A63
:1029C0002B689A4220D102B0BDEC028B70BD41EC65
:1029D000100B0DF03DF851EC100BFFF769F808EE05
:1029E000100AB5EE408AF1EE10FA3FF43EAFC8EEA1
:1029F000887A17EE900AFEF7FFFC022E3FF47BAFB9
:102A0000032E3FF462AF76E7FFF7C2FBAFF300801F
:102A100000000060FB210940F0450020000B002071
:102A2000004D01083C810020DB0F4940DB0FC9400D
:102A3000DB0F49C0CDCCCC3D000000000000000001
:102A400030B5484C9FED487AD4ED017A474D83B0BC
:102A5000F4EEC77A2B680193F1EE10FA1FDD94EDC6
:102A6000020AB5EEC00AF1EE10FA06DDDFED407A9B
:102A7000B4EEE70AF1EE10FA65D9DFED3D7AB4EE77
:102A8000E70AF1EE10FA06DDDFED3A7AB4EEE70A76
:102A9000F1EE10FA48D4FFF7B3FED4ED017A9FEDC2
:102AA000367AF4EEC77AF1EE10FA1DD594ED020AEB
:102AB000B5EEC00AF1EE10FA1CD4DFED307AB4EEB8
:102AC000E70AF1EE10FA06D5DFED2D7AB4EEE70A4B
:102AD000F1EE10FA3DDC019A2B689A423FD103B027
:102AE000BDE83040FFF78CBE019A2B689A4236D180
:102AF00003B030BDDFED217AB4EEE70AF1EE10FA53
:102B0000DBDBF8EE007A20EE270A0220FFF7B0FDAB
:102B1000019A2B689A4222D19FED1A0A012003B034
:102B2000BDE83040FFF7A4BD37EEC00A022030EE0A
:102B3000000AFFF79DFD9FED130A0120FFF798FDA6
:102B4000D4ED017AABE7F8EE007A20EE270A0220F6
:102B5000EFE737EEC00A022030EE000AD6E7FFF7B3
:102B600017FB00BFF045002000002042000B0020B2
:102B7000DB0FC93FDB0F4940000020C2DB0FC9BF9C
:102B8000DB0F49C000000000000000000000000052
:102B900070B5694D694C2B78226882B00192062B82
:102BA00014D8DFE803F0041D30727B891A00644BEF
:102BB000644A4FF40010986140214FF4806099619D
:102BC0004FF400619861996113782B70019A236822
:102BD0009A4240F0AE8002B070BD00232B70F5E742
:102BE00002F0A6FF02F0F4FF554B20214FF48002C3
:102BF00099614FF080609A614FF400610222986100
:102C000099612A70E2E7202383F3118804F088FB9E
:102C100003F046FB03F014FC4B488368002B40F3A1
:102C2000858003F035FF03F05BFB04F091FB474B1D
:102C30001A689A4207D0996993688A689A4202D2C0
:102C4000434803F08DFA002383F311883C4B202284
:102C50009A614FF480004FF080614FF000629861FC
:102C600099619A6100F004F900283FD100F0E8FB77
:102C70000228064650D0032843D001282BD0FFF766
:102C8000DFFE304B1B782B70A0E72D4B2D4A202008
:102C900098614FF480014FF0806090E7284B20212D
:102CA000402299614FF480609A614FF000610522E3
:102CB000986199612A7089E7214B224A202040219E
:102CC000986199614FF080604FF00061986199615F
:102CD00013782B707AE79FED1F0A0220FFF7C8FCDC
:102CE00030469FED1D0AFFF7C3FCC8E79FED1B0AA6
:102CF0000220FFF7BDFC9FED180A0120FFF7B8FC8A
:102D0000B4E79FED170A0220FFF7B2FC9FED120A0D
:102D10000120FFF7ADFCB2E79FED100AFFF7A8FC1A
:102D20009FED0D0A0120FFF7A3FCA8E704F0F0FBDC
:102D300077E7FFF72DFA00BFEC450020000B0020DD
:102D4000000C0240FC450020380B002008730020D6
:102D5000F04C0108DB0F494000000000DB0FC93FC9
:102D6000DB0FC9BF000000000000000000000000F1
:102D700010B50A4C0A4B22680A4884B04FF47A71A5
:102D8000039200220092402203F06AFF039A236814
:102D90009A4201D104B010BDFFF7FAF9000B0020F0
:102DA000412500080046002000000000000000004F
:102DB00000B51F4A1F4B1278196883B00191062A8B
:102DC00007D8DFE802F01406040406041100062800
:102DD00006D0019A1B689A4228D103B05DF804FB23
:102DE000154A06211170F4E7134A1070F1E7013813
:102DF0000528EED801A252F820F000BF252E0008C9
:102E0000D32D00081D2E0008152E0008D32D000814
:102E1000E12D0008084A04211170DAE7064A03216F
:102E20001170D6E7044A01211170D2E7FFF7B0F91B
:102E3000EC450020000B0020FC45002000000000B5
:102E400000B5084B83B01A680192019A1B689A4238
:102E500005D1054803B05DF804EB04F021BBFFF792
:102E600097F900BF000B0020380B00200000000085
:102E700030B5124D83B02B680193002002F0C8FEDC
:102E8000B0F5967F16DA012002F0C2FEB0F5967F0B
:102E900010DA0524204602F0BBFEB0F5967F09DA71
:102EA0000134082CF6D10020019A2B689A4203D1F4
:102EB00003B030BD0120F7E7FFF76AF9000B0020EF
:102EC00010B50A4C82B0236801934FF4E77002F00A
:102ED000AFFB019A23689A4206D14FF4E77002B023
:102EE000BDE8104002F0BCBBFFF752F9000B002018
:102EF00010B50C4C82B023680193002002F098FBBF
:102F0000002002F0ADFB002002F0F2FB019A2368E2
:102F10009A4205D1002002B0BDE8104002F000BC8A
:102F2000FFF736F9000B0020000000000000000051
:102F30002DE9704F2DED068BDFED4E8A4E4E20EEC3
:102F4000280AB2EE0A8AC0EE087A84B03368039386
:102F5000F0EE419A17EE900AB0EE619AB0EE60AAD8
:102F6000FEF74AFA2AEE28AA41EC100B0CF0B8FC46
:102F7000CAEE087A55EC104B17EE900AFEF73CFAB1
:102F800069EEA89A41EC100B0CF0AAFCC9EE887A05
:102F900059EC108B17EE900AFEF72EFA69EE288A8C
:102FA00041EC100B0CF09CFCC8EE887A5BEC10AB8B
:102FB00017EE900AFEF720FA41EC100B0CF090FC93
:102FC000594650468DED000BFEF72AFD07EE900A9C
:102FD000F8EEE77AFDEEE77A17EE900A02F028FBAA
:102FE0009DED000B51EC100BFEF71AFD07EE900A59
:102FF000F8EEE77AFDEEE77A17EE900A02F030FB82
:1030000049464046FEF70CFD07EE900AF8EEE77AD7
:103010002046FDEEE77A294617EE904A002CB8BF0D
:103020006442FEF7FDFC07EE900AF8EEE77AFDEE4B
:10303000E77A17EE905A002DB8BF6D4202F040FBC0
:103040000028B8BF4042A042F8DB02F021FB002874
:10305000B8BF4042A842F1DB039A33689A4206D1D6
:1030600004B0BDEC068BBDE8704FFFF741BFFFF722
:103070008FF800BF00007A44000B00200000000021
:1030800010B5094C82B023680193002002F0D0FAF9
:10309000019A23689A4205D1002002B0BDE8104091
:1030A00002F0DEBAFFF774F8000B00200000000009
:1030B000DFED107A20EE270AF2EE0A7AC0EE277AC8
:1030C00010B50D4C82B02368019317EE900AFEF7FD
:1030D00093F941EC100B0CF003FC51EC100BFEF7D4
:1030E0009FFC019A23689A4201D102B010BDFFF7FC
:1030F0004FF800BF00007A44000B002000000000E1
:1031000000B50A4B9FED0A7A1A6883B0F2EE0A7A8C
:103110000192019A1B6820EE270A9A4280EE070A64
:1031200002D103B05DF804FBFFF732F8000B00207A
:1031300000007A44000000000000000000000000D1
:10314000DFED197A9FED197A60EE277A10B5C7EE98
:10315000870A174C23682DED028BB5EEC00AF1EEFD
:1031600010FA82B0F1EE047AB9EE041AD4BFF0EE90
:10317000411AF0EE671AB0EE408AD8BFB0EE671A77
:10318000B0EE600A0193FFF7D3FE019A23689A42DA
:1031900008D1B0EE480A02B0BDEC028BBDE8104089
:1031A000FFF72EBAFEF7F4FFCD758641DB0FC9405D
:1031B000000B0020000000000000000000000000E4
:1031C00080B5244C244AA36924491668996186B0C5
:1031D000022320250A220021009305964FF4207334
:1031E000CDE9015530201E4E1E4F01F0D1FB01F0FC
:1031F000D7FA002001F00CFBB04601F071FA13E0A1
:1032000003F046FC03F06CF804F0A2F82368A34234
:1032100007D0A2699B6892689A4202D2384602F0AF
:103220009FFF002383F31188FFF70AFE01F030FBB4
:1032300001F096FA85F3118804F072F803F030F883
:1032400003F0FEF8B368002BDADC404604F060F9C6
:10325000D6E700BF08730020000B0020E04D0108F6
:10326000440B0020004E0108000000000000000098
:10327000F0B5344C83B02368019300F27F25431EE0
:10328000002213F8011F9D420A44FAD12E4B057803
:10329000A3FB0232520A002140F27A264B1C9542CF
:1032A0009BB21FD945186D7995421BD2B34225D8E0
:1032B00021B303F1FF3C84441CF8015F95429FB2A7
:1032C00015D91CF805EC964511D2A7EB010CBCF101
:1032D000270F3B462ADCB74210D839464B1C954293
:1032E0009BB2DFD8B34209D8C55C1946D6E701378F
:1032F000BFB2B7F5207F03F10103DDD1134B18886E
:10330000DFED136A019A236807EE900AF8EEE77A78
:1033100086EEA77AF3EE097AB4EE677AF1EE10FA48
:10332000C8BF3E209A420AD103B0F0BD781A0B44C0
:10333000084A064980B25B1008801380E0E7FEF778
:1033400027FF00BF000B0020CDCCCCCC500B0020C1
:103350000040C444520B00200000000000000000A8
:10336000F0B52DED028B1A4A1A4B92691A499161F8
:10337000ADF5237D01AC1B68A19320464FF420726C
:1033800000210EF06DFA154E154F164D9FED168A61
:10339000284604F085F801F053FA0023C25CC3F319
:1033A0004E01023322F00702B3F5A06F6254F5D14B
:1033B0002046FFF75DFF30800028E9D007EE900A35
:1033C000F8EEE77A88EE277A87ED007AE0E700BF2B
:1033D00008730020000B0020F04D0108EC4900208C
:1033E000E8490020440B00200040C44400000000D5
:1033F00030B50E4C0E4B22680E4885B00025039266
:103400004FF4AF614022009503F02AFC0A4B00956F
:1034100040220A484FF4507103F022FC039A2368BB
:103420009A4201D105B030BDFEF7B2FE000B00207C
:1034300061330008304D0020C1310008F049002000
:1034400000B5174A174B92ED007A1A68F1EE007A30
:1034500083B0B4EEE77AF1EE10FA019212D8124975
:10346000124A0988128895290CD9C72A14D9A2F1C1
:10347000C801C7290ED9A2F5C872C82A8CBF00207E
:10348000022000E00020019A1B689A4206D103B096
:103490005DF804FB0120F6E70320F4E7FEF778FE71
:1034A000E8490020000B0020EC490020520B0020CE
:1034B00030B54368174D1A68296883B004460191F6
:1034C00012B304220270DA681B685208114698474A
:1034D0002378042B18D0202383F3118803F050FFA6
:1034E00002F01EFF04F10800002103F049FD02F084
:1034F00037FF03F05DFF002383F31188019A2B68E7
:103500009A4204D103B030BD02232370E3E7FEF7F3
:103510003FFE00BF000B0020000000000000000084
:1035200070B5194D82B02B68019311F00C0F0C4649
:10353000064622D114F0200109D0019A2B689A4244
:103540001FD1304602B0BDE87040FFF7B1BFE306BF
:103550000DD57268136853B1019C2868844210D15C
:10356000D2683046520802B0BDE870401847019A50
:103570002B689A4205D102B070BD044802F0F0FDFC
:10358000D8E7FEF705FE00BF000B0020304E010813
:1035900070B5194D82B02B68019311F00C0F0C46D9
:1035A000064622D114F0200109D0019A2B689A42D4
:1035B0001FD1304602B0BDE87040FFF779BFE30687
:1035C0000DD57268136853B1019C2868844210D1EC
:1035D000D2683046520802B0BDE870401847019AE0
:1035E0002B689A4205D102B070BD044802F0B8FDC4
:1035F000D8E7FEF7CDFD00BF000B0020304E0108DC
:1036000030B50F4D0F4C2A680F4B83B02046019206
:103610004FF6FF721A8000F013FC0C4B01992A68D8
:103620000B480C4D2562636203F1240591420A4B5D
:103630002363C4E90A5001D103B030BDFEF7A8FDF1
:10364000000B0020C0520020A8520020B85A0108E8
:103650001E010100003C0040460001000000000087
:1036600070B52C4D03782A6882B0012B0446019274
:1036700024D06368E26A5989236B22F4F04223F470
:10368000F043090544BF42F4205243F42053C4E9F7
:103690000B23236A00221A606268236A52891A6027
:1036A000236A03225A60226A136843F040031360BE
:1036B000019A2B689A422BD102B070BD164EB042CF
:1036C0000AD0D4E9083212680C339360A26A236AE4
:1036D00012680C339360CCE70346104A406A0A2113
:1036E00007F066FD80B9B06A0B4B0D4A0A2107F05E
:1036F0005FFD28B90B4A136C43F400431364E0E701
:10370000094802F02DFDF5E7074802F029FDEAE738
:10371000FEF73EFD000B0020C0520020913500084E
:103720002135000800380240104E0108000000005A
:1037300070B5456A174C2D68266882B00196EB601B
:10374000436A1B685960456AC36A2D6843F4806305
:103750002B60836A1B68DA60836A1B685960826A1F
:10376000036B126843F480631360436A1A6813683A
:1037700043F001031360836A1A68136843F001037E
:103780001360019A23689A4201D102B070BDFEF71E
:10379000FFFC00BF000B0020000000000000000044
:1037A00030B5104D81682B680F4A83B001930B68C8
:1037B00023F001030B608168946A03E0936A1B1B8A
:1037C000C72B09D8086810F00100F7D1019A2B68BF
:1037D0009A4204D103B030BD4FF0FF30F6E7FEF758
:1037E000D7FC00BF000B0020087300200000000081
:1037F00030B5184D83B02B68019311F00C0F0446BF
:103800000AD00378032B13D00622636822709A68CB
:103810001AB100212046904763685B688BB101991B
:103820002A68914213D1204603B0BDE830401847C2
:10383000FFF7B6FF0622636822709A68002AE8D173
:10384000EBE7019A2B689A4201D103B030BDFEF735
:103850009FFC00BF000B00200000000000000000E3
:10386000F0B5284D83B02B68019303F021FD02F0E1
:1038700097FD254B1E69F20715D55A69234C42F076
:1038800001025A612778BB1F012B2AD905226368E0
:1038900022701B680BB120469847042F27D0022FB7
:1038A00025D003232370B30710D5174A174C53694B
:1038B00043F0020353612378032B1DD063689B6898
:1038C0000622227013B101211048984702F090FDA2
:1038D000019A2B689A4213D103B0BDE8F04004F07E
:1038E0000FBD019A2B689A420AD103B0F0BD0223A2
:1038F0002370B307EAD5D8E72046FFF751FFDDE78D
:10390000FEF746FC000B002000000550AC520020E2
:1039100030B50B4D0B4C2B6883B02046019300F063
:103920002FF9019A2B680848084D094921619A42EC
:10393000C4E9025001D103B030BDFEF729FC00BF3D
:10394000000B0020AC5200200C5B01080000055069
:1039500016550202000000000000000000000000F8
:103960002DE9F0412F4C0578266882B0012D019693
:1039700006D0019A23689A4252D102B0BDE8F08184
:10398000294DA842F5D10E4690461F46274AE868C1
:103990002B460C2107F00CFC002839D1D5E9023266
:1039A000126828339360EB681A68042151611B6820
:1039B000C3F80C80EB681A6817611B68B6085E6074
:1039C0002B694FB343F480232B61E968184A0968D7
:1039D0000B60EB6819680B6843F001030B60536BD5
:1039E00043F0010353630B214E2007F0C1F8D5E9E2
:1039F0000113DA6842F00102DA60DA6842F002028A
:103A0000DA60CA6822F4804222F001021A60B0E74C
:103A1000084802F0A5FBC1E723F480232B61D4E71B
:103A2000FEF7B6FB000B0020AC520020F137000877
:103A300000380240404E0108000000000000000075
:103A400030B5184C0378226883B0022B019205D060
:103A5000019A23689A4223D103B030BD124B984299
:103A60000546F5D18168114A0B6823F4804323F0A1
:103A700001030B608168CB6823F00F03CB60536BAD
:103A800023F0010353634E2007F09AF8019A23684C
:103A90009A4205D1E86803B0BDE8304007F0F0BBBA
:103AA000FEF776FB000B0020AC52002000380240ED
:103AB00000B50F4B0278196883B0022A01910ED12C
:103AC00081680A6842F002020A6081680A6842F46A
:103AD00080420A6081680A6842F001020A60019A25
:103AE0001B689A4202D103B05DF804FBFEF750FB5D
:103AF000000B00200000000000000000000000009B
:103B000000B50F4B0278196883B0022A01910ED1DB
:103B100081680A6822F002020A6081680A6842F439
:103B200080420A6081680A6842F001020A60019AD4
:103B30001B689A4202D103B05DF804FBFEF728FB34
:103B4000000B00200000000000000000000000004A
:103B500000B5074B83B01A680192019A1B689A421C
:103B600004D103B05DF804EBFFF7D2BEFEF710FB03
:103B7000000B00200000000000000000000000001A
:103B800000B5084B83B01A68019201220270019AB5
:103B90001B6800219A42416002D103B05DF804FB2A
:103BA000FEF7F6FA000B0020000000000000000005
:103BB0002DE9F043254D83B02C680194DDF8289061
:103BC0000F4616469846044618B111B1204B9A424A
:103BD0002FD9204802F0C4FA202383F3118803F080
:103BE0009FFB02F05DFB2378012B02D0194802F005
:103BF000B7FA4246314620464B466760FFF7B0FEB3
:103C00000223237002F06CFB03F0A2FB124B1A6834
:103C10009A4204D0996993688A689A420FD3002324
:103C200083F31188019A2B689A420CD103B0BDE846
:103C3000F0839307CDD1B8F1000FCDD1C9E7074884
:103C400002F08EFAEBE7FEF7A3FA00BF000B0020AC
:103C5000FCFF0300704E010808730020604E01084D
:103C600030B51C4D83B02B680193044658B3202314
:103C700083F3118803F054FB02F012FB2378022B2C
:103C800002D0154802F06CFA2046FFF7D9FE012356
:103C9000237002F025FB03F05BFB104B1A689A427D
:103CA00004D0996993688A689A4208D3002383F301
:103CB0001188019A2B689A4209D103B030BD084897
:103CC00002F04EFAF2E7044802F04AFACFE7FEF7B4
:103CD0005FFA00BF000B0020804E0108087300202F
:103CE000604E01080000000000000000000000001D
:103CF00030B51C4D83B02B680193044658B3202384
:103D000083F3118803F00CFB02F0CAFA2378022B2C
:103D100002D0154802F024FA2046FFF7C9FE04231A
:103D2000237002F0DDFA03F013FB104B1A689A427D
:103D300004D0996993688A689A4208D3002383F370
:103D40001188019A2B689A4209D103B030BD084806
:103D500002F006FAF2E7044802F002FACFE7FEF7B3
:103D600017FA00BF000B0020904E010808730020D6
:103D7000604E01080000000000000000000000008C
:103D800030B51C4D83B02B680193044658B32023F3
:103D900083F3118803F0C4FA02F082FA2378022B2D
:103DA00002D0154802F0DCF92046FFF7A9FE0323F4
:103DB000237002F095FA03F0CBFA104B1A689A427E
:103DC00004D0996993688A689A4208D3002383F3E0
:103DD0001188019A2B689A4209D103B030BD084876
:103DE00002F0BEF9F2E7044802F0BAF9CFE7FEF7B5
:103DF000CFF900BF000B0020B04E0108087300206F
:103E0000604E0108000000000000000000000000FB
:103E100000B5074B83B01A680192019A1B689A4259
:103E200004D103B05DF804EBFFF7EABBFEF7B0F98D
:103E3000000B002000000000000000000000000057
:103E400000B50A4B83B01A680192012202700199F1
:103E50001A6800239142C0E9013305D10C3003B048
:103E60005DF804EB03F094BBFEF792F9000B002021
:103E700070B51E4D82B02B6801930E46044670B398
:103E800069B3202383F3118803F04AFA02F008FA99
:103E90002378013B012B02D9154802F061F9204635
:103EA0006660FFF7DDFB0223237002F019FA03F0CE
:103EB0004FFA104B1A689A4204D0996993688A683D
:103EC0009A4208D3002383F31188019A2B689A42FF
:103ED00009D102B070BD084802F042F9F2E7044887
:103EE00002F03EF9CDE7FEF753F900BF000B0020CA
:103EF000D04E010808730020C04E010800000000E9
:103F00002DE9F041214D82B02C6801940E46904677
:103F10001F46044600B171BB1D4802F021F9202361
:103F200083F3118803F0FCF902F0BAF92378022B2D
:103F300002D0174802F014F903203B4642463146AE
:103F400020702046FFF7F4FB02F0CAF903F000FAF4
:103F5000104B1A689A4204D0996993688A689A4209
:103F60000ED3002383F31188019A2B689A420BD158
:103F700002B0BDE8F081002BCED0002ACFD1CBE734
:103F8000054802F0EDF8ECE7FEF702F9000B00201F
:103F9000E04E010808730020C04E01080000000038
:103FA0002DE9F04F394A3A4B126883B0012401924F
:103FB0001C70002963D04FF00008364CC246C3463F
:103FC000C1464746C446434647F6FF7E1DE0AB4523
:103FD000A8BFAB46024432F9026CB2F90450B442B5
:103FE000B8BF3446B645A8BFB6464D4545DCA845E2
:103FF000A8BFA846B2F90220BA420EDC04339245AB
:104000009BB2A8BF924699420CD95D1C6A0030F958
:1040100015506545DBDDAC46DCE704339BB29942C5
:104020001746F2D8A4EB0E04ACEB0B0CA7EB0A0777
:10403000A9EB0808A4B21FFA8CFCBFB21FFA88F8DB
:10404000154A12491480019C0968144BA2F802C059
:104050009780B0F8F8C4B0F8FA64A2F80680B0F817
:10406000FC54B0F8FE24A3F800C08C425E809D8012
:10407000DA8008D103B0BDE8F08FA946BAE78846D8
:104080000F468C46DCE7FEF783F800BF000B0020EC
:10409000F45200200080FFFF00530020F85200205F
:1040A00070B53F4B3F4C1A78236882B0012A0193C8
:1040B00005D0019A23689A4270D102B070BD3A4986
:1040C0003A4B4D6C45F480354D644E6A002546F4FC
:1040D00080364E624D621D61DD60196A21F001017A
:1040E0001962996921F003019961996941F001010F
:1040F0009961996921F0F0019961196A21F00A0129
:104100001962996921F00C019961996821F0700197
:104110009960996841F050019960996821F4803163
:1041200021F007019960996841F0070199601968C9
:1041300021F440711960DA629D625A61196A21F0B6
:1041400010011962996921F440719961996921F00E
:10415000807121F4E0419961996941F4C04199610C
:10416000196A21F0A00119629A639A6942F4006207
:104170009A611A6A22F480621A621A6A42F0110283
:104180001A621A6842F001021A6020B10090684673
:1041900000F076F98DE7064B0093F8E7FDF7F8FF9E
:1041A00044800020000B0020003802400040014005
:1041B000A13F000800000000000000000000000017
:1041C00070B5114C82B0236801930E46154620232A
:1041D00083F3118803F0D4F802F0A2F80B4B0C48DB
:1041E000C3E9006503F094F902F0BAF803F0E0F8CF
:1041F000002383F31188019A23689A4201D102B007
:1042000070BDFDF7C5FF00BF000B0020186800203F
:104210000853002000000000000000000000000023
:1042200070B5114C82B0236801930E4615462023C9
:1042300083F3118803F0A4F802F072F80B4B0C48DA
:10424000C3E9006503F064F902F08AF803F0B0F8FE
:10425000002383F31188019A23689A4201D102B0A6
:1042600070BDFDF795FF00BF000B0020FC6500202E
:1042700008530020000000000000000000000000C3
:104280002DE9F04F624B63499A69634B916185B0A8
:104290001B6803935E4B9B6993F821305B0700F129
:1042A000AD805E4803F0FCF85C4803F0F9F8584B29
:1042B0009B6993F8212012F0040240F09F80584D32
:1042C00058482B6801680446406805EB830304EBFB
:1042D000810103F50279430001F10808019343D0FD
:1042E000DFF850B1504BDFF85CA1012018F81250F4
:1042F00018F8006019F8121019F8004005F0550C74
:10430000770806F0550613F80CC09E5D01F0550EB7
:104310004CEA061649084FEA540C01F0550104F026
:1043200055040CF0550C6D0813F80EE0595C1C5D3B
:1043300013F80CC00BF8126005F0550507F055078F
:1043400041EA0C114EEA041E0AF812E05D5D0AF81B
:104350000010DF5D0199013245EA071591420BF823
:10436000005000F10200C1D1304B31493148324D8B
:104370000422FCF77DF8314B314932480422FCF726
:1043800077F8314B314932480422FCF771F8314B50
:10439000314932480422FCF76BF8DFF8D4C02868B2
:1043A0009CF80070224A264900EBC71302F1400630
:1043B00014881C8054885C804C889C80043231F8BE
:1043C000044BDC80964203F10803F1D1092F11D18F
:1043D000234B00221B688CF800204FF42071984773
:1043E0002B68204A204993420B6006BF1F4B2B606D
:1043F0002A604FE701378CF800704BE7064B039AB1
:104400001B689A4202D105B0BDE8F08FFDF7C0FEEF
:1044100008730020004F0108000B00200853002003
:1044200018680020FC650020540B0020D463002095
:1044300090580020D0580020D40B00203C6400206D
:10444000A4640020E4640020086400209258002046
:10445000D158002070640020A6640020E56400208C
:10446000E4650020D0590020D80B0020D05E002049
:10447000D0630020000000000000000000000000E9
:104480002DE9F04F494A0168494B116085B0002180
:104490000E461B684748039302F0A2FF4FF4AF613A
:1044A000454B009641224548454DDFF84891454C23
:1044B000DFF844A1444F02F0D3FB444B444A186058
:1044C000136BC5F804A043F480534FF002184FF467
:1044D0007A5B13632846C5E90298A5F800B0FBF79C
:1044E0000FFF2046C4E901A9C4F80C80A4F800B06D
:1044F000FBF706FF05F13400C5E90EA9C5F84080B9
:10450000A5F834B0FBF7FCFE324DC4F8408004F14E
:104510003400C4E90EA9A4F834B0FBF7F1FE31462B
:1045200040F20C4238460DF09BF9DFF8D0902A4A51
:104530006E604FF400634FF080082E812A606B811B
:10454000264CC5F80C80C7F80894FFF761FC294693
:104550002348244DFFF78CFC07F5027307F108028E
:104560004FF480711E48FFF7CBFC314620464FF4D4
:1045700003720DF075F91C4B1C4AC4F808920834FC
:104580001A611946C3E900641948C3E9028504F0B9
:104590007FFB074B039A1B689A4205D1144805B06C
:1045A000BDE8F04F04F0BCBBFDF7F2FDE465002070
:1045B000000B0020085300208142000818530020FF
:1045C000D46300203C6400201868002014530020AD
:1045D0000038024008680020C1410008FC65002046
:1045E000C052002021420008E86500202C0308008A
:1045F00044800020000020410000FA45EFBEADDEFF
:1046000000B5064B83B01A680192019A1B689A4262
:1046100002D103B05DF804FBFDF7BAFD000B0020EA
:1046200000B5064B83B01A680192019A1B689A4242
:1046300002D103B05DF804FBFDF7AAFD000B0020DA
:1046400010B5104C104B226882B0019201221A70F2
:10465000202383F3118802F093FE01F061FE0B48E2
:1046600003F0B6F901F07CFE02F0A2FE002383F312
:104670001188019A23689A4201D102B010BDFDF75A
:1046800087FD00BF000B0020306C0020DC0B0020F9
:1046900030B50E4D0E4C2B6883B00193FFF758FADE
:1046A000206808B10CF014FE4FF496400CF008FEA0
:1046B00001992A682060B0FA80F35B099142C3F146
:1046C000000001D103B030BDFDF762FD000B0020FA
:1046D000286C002000000000000000000000000026
:1046E00030B5174D174C2B78226885B0012B0392FB
:1046F00020D000F0D5FB144B1B78ABB9B0F5964F2A
:1047000015D8124A124B12681B68124900920246D1
:104710001148FFF74DFA01232B700020039A2368FC
:104720009A420BD105B030BDB0F5165FE9D94FF014
:10473000FF30F3E70848FFF793FADAE7FDF728FDC3
:10474000256C0020000B0020266C00202C6C002023
:10475000286C0020104F0108AC520020000000001F
:1047600010B50B4C0B48236882B0019302F0F8FFA0
:10477000094803F0D5F9019A23689A4205D1054802
:1047800002B0BDE8104003F023B8FDF701FD00BF03
:10479000000B0020E40B0020DC0B002000000000D8
:1047A00030B5154D154C164B2268286883B0019220
:1047B00001221A7008B10CF08BFD4FF416500CF06A
:1047C0007FFD286098B10F4D286808B10CF080FD7E
:1047D0004FF416500CF074FDB0FA80F35B092860BA
:1047E0005842019A23689A4204D103B030BD4FF079
:1047F000FF30F6E7FDF7CCFC286C0020000B002012
:10480000266C00202C6C002000000000000000003E
:1048100000B5074B07491A68087083B00192019AE6
:104820001B689A4202D103B05DF804FBFDF7B0FCAF
:10483000000B0020246C002000000000000000009D
:1048400000B50D4A0D4B1278196883B0019142B141
:104850000B4AD26812681268120302D4094A10681F
:1048600001E0094A1068019A1B689A4202D103B01C
:104870005DF804FBFDF78CFC266C0020000B00208B
:10488000AC5200202C6C0020286C0020000000009E
:1048900000B50E4A0E4B1278196883B001914AB1E7
:1048A000019A1B689A420FD10A4803B05DF804EBE5
:1048B000FFF766BA019A1B689A4205D1054803B012
:1048C0005DF804EBFFF714BAFDF762FC246C0020DE
:1048D000000B0020AC52002000000000000000008F
:1048E00070B5274D82B02B68019306460122032143
:1048F0006E2000F04DFB044630B1019A2B689A42BD
:1049000020463AD102B070BD32464E216E2000F0F2
:104910003FFB04460028F0D1442E07D00246B721C1
:104920006E2000F035FBB8B10446E6E70122B7215E
:104930006E2000F02DFB0028F6D1224603216E20C8
:1049400000F026FB0028EFD1032211216E2000F099
:104950001FFB78B10446D0E7224603216E2000F009
:1049600017FB0028E0D10A2211216E2000F010FB75
:104970000028D9D1034B1E71BFE7FDF709FC00BF2A
:10498000000B0020346C002000000000000000003C
:104990002DE9F04F8FB0DFF80084DDF860C0D8F863
:1049A00000400D940CF1FF355C1EB3F5207F9DF89F
:1049B00064909DF868B00C44154400F21282BCF576
:1049C000F07F00F20E82B1F5207F0E4600F21282D7
:1049D000B2F5F07F174600F21082A14280F0048207
:1049E000B4F5207F00F20082AA4280F00082B5F583
:1049F000F07F00F2FC81B9F1400F824600F0B081F7
:104A0000B9F1800F23D0B9F1200F00F09C81002371
:104A1000CDE90033BBF1400F2FD0BBF1800F00F088
:104A2000CB81BBF1200F00F0B9810023CDE9023327
:104A3000002203216E2000F0ABFAA0B30D9AD8F843
:104A400000309A4240F0E2810FB0BDE8F08F9A0743
:104A500040F0D681CC4A8C085900661CA2FB0101AB
:104A6000A2FB030204EB930406EBD2030093BBF119
:104A7000400F06EBD1030193CFD11CF0010F40F0A2
:104A8000C281C14B7D084FEA4C026F1CA3FB02128E
:104A9000A3FB0C1307EB9303029307EB920305EBC5
:104AA0005C050393C4E702465B216E2000F070FAB8
:104AB0000028C3D15046FFF713FF0028BED102469D
:104AC00003216E2000F064FA0028B7D1C6F3072353
:104AD0001A4608216E20049300F05AFA0028ADD13E
:104AE000F3B21A4609216E20059300F051FA00280E
:104AF000A4D1C7F307231A460A216E20069300F0BB
:104B000047FA00289AD1FBB21A460B216E20079370
:104B100000F03EFA002891D1C4F307231A460C2175
:104B20006E20089300F034FA002887D1E3B21A46C9
:104B30000D216E20099300F02BFA00287FF47EAF40
:104B4000C5F307231A460E216E200A9300F020FABF
:104B500000287FF473AFEBB21A460F216E200B933F
:104B600000F016FA00287FF469AF049A35216E2010
:104B700000F00EFA00287FF461AF059A36216E200E
:104B800000F006FA00287FF459AF089A37216E200A
:104B900000F0FEF900287FF451AF099A38216E2009
:104BA00000F0F6F900287FF449AF069A39216E200B
:104BB00000F0EEF900287FF441AF079A3A216E2009
:104BC00000F0E6F900287FF439AF0A9A3B216E2005
:104BD00000F0DEF900287FF431AF0B9A3C216E2003
:104BE00000F0D6F900287FF429AF009B3D21C3F3E4
:104BF00007226E2000F0CCF900287FF41FAF9DF84B
:104C000000203E216E2000F0C3F900287FF416AF8B
:104C1000019B3F21C3F307226E2000F0B9F9002861
:104C20007FF40CAF9DF8042040216E2000F0B0F915
:104C300000287FF403AF029B4121C3F307226E20BB
:104C400000F0A6F900287FF4F9AE9DF80820422173
:104C50006E2000F09DF900287FF4F0AE039B432105
:104C6000C3F307226E2000F093F900287FF4E6AE2C
:104C70009DF80C2044216E2000F08AF900287FF472
:104C8000DDAE012203216E2000F082F900287FF4BE
:104C9000D5AE4A4693216E2000F07AF900287FF4C1
:104CA000CDAE5A4694216E2000F072F900287FF4B0
:104CB000C5AE012203216E2000F06AF900287FF4BE
:104CC000BDAE0134A31B07EE103ADFED307AB8EE2B
:104CD000477ABAF1440F77EEC77A00F09980B0EEC8
:104CE000006AF2EE006AE7EE066A77EEA77AB0EEA7
:104CF000667A67EE877ADFED266A87EEA67AFCEEA3
:104D0000C77ACDED007A009B9521C3F307226E2070
:104D100000F03EF900287FF491AE9DF80020962126
:104D20006E2000F035F900287FF488AE194B01356C
:104D3000EF1BA41B5F801C8083F804A083F8059000
:104D400083F806B07AE610495A00A1FB030306EB8C
:104D50005303A1FB0212009306EB5203019359E6A1
:104D6000D9074DD4084A74085900661CA2FB0101FA
:104D7000A2FB030204EB530406EB9203009306EB41
:104D80009103019346E600BFABAAAAAA0000224401
:104D90000000A344346C0020000B0020244A4FEA9A
:104DA0004C03A2FB0C1CA2FB032307EB530307EBF2
:104DB0005C02029203933BE61CF0030F23D11C4BD1
:104DC000BD084FEA4C026F1CA3FB0212A3FB0C139D
:104DD00007EBD303029307EBD20305EB9C05039388
:104DE00026E66FF0070029E66FF0030026E66FF075
:104DF000040023E66FF0010020E66FF002001DE6DC
:104E00006FF005001AE66FF0060017E6FDF7C0F92F
:104E1000F2EE006A37EE267ADFED066A67EE277A51
:104E200087EEA67AFCEEC77ACDED007A6BE700BF7D
:104E3000ABAAAAAA00002444000000000000000061
:104E400010B5114C86B02368059300F081F80F4926
:104E50000F4803F0DDFF012200210D4804F070F837
:104E600020237822CDE901330092A023B422F0213F
:104E70000220FFF78DFD059A23689A4201D106B002
:104E800010BDFDF785F900BF000B0020204F010881
:104E90002081002000000000000000000000000051
:104EA00010B50A4B0A4A1988146858881B7982B0D1
:104EB000442B019400FB01F00199136818BF4000D6
:104EC000994201D102B010BDFDF762F9346C0020A7
:104ED000000B0020000000000000000000000000A7
:104EE00070B5164E16483368154D82B005224FF442
:104EF0008071019307F084FF20246B6983F4807331
:104F00006B61012001F004FF631E13F0FF04F4D174
:104F10004FF4807140F206222983094807F070FFA0
:104F2000019A33689A4206D10649074802B0BDE8A3
:104F3000704003F025BDFDF72BF900BF000B0020EA
:104F400000040240604F0108887D0020000000003E
:104F500000B50C4A0C4B1278196883B0012A0191F4
:104F6000019A1B6804D09A4209D103B05DF804FB92
:104F70009A4204D103B05DF804EBFFF7B1BFFDF72F
:104F800007F900BF887D0020000B00200000000012
:104F9000F0B5214C214E89B03368079307460025B0
:104FA00020468DF818108DF819208DF8145003F054
:104FB000FFFD2378012B0CD0042205AB0195029252
:104FC00000933946022306AA204603F081FD0546D8
:104FD00048B9114803F00CFE0020079A33689A4242
:104FE00017D109B0F0BD204603F05AFD23780C4AD2
:104FF000052B106004D0084803F0FAFD68B2ECE716
:10500000204603F005FD2378012BF4D1FFF768FF5C
:10501000F1E7FDF7BDF800BF887D0020000B002000
:105020003C6C0020000000000000000000000000B8
:105030002DE9F043254E83B034680194042A9DF88D
:105040002890144605460F46984639D9B9F1000F05
:1050500014BF00224FF08052640002EB0863013C51
:105060001C4405F00F0527F01F07202383F3118848
:1050700002F056F93D4301F013F9154B1035DD6090
:105080001C6101F02DF902F063F9124B1A689A4283
:1050900004D0996993688A689A420DD3002383F3F8
:1050A0001188BFF36F8FBFF34F8F019A33689A4215
:1050B0000AD103B0BDE8F083074801F051F8EDE7ED
:1050C000064801F04DF8C1E7FDF762F8000B00203B
:1050D00090ED00E008730020F04F0108D04F010868
:1050E00030B5224D224C2B68224A85B00393636869
:1050F00043F004036360536A43F480335362202314
:1051000083F3118802F00CF901F0CAF817221A4B48
:10511000E260236101F0E4F802F01AF9174B1A6813
:105120009A4204D0996993688A689A4218D30020F9
:1051300080F31188BFF36F8FBFF34F8F03231D22BE
:1051400000904FF00051FFF773FF094A536843F096
:1051500001035360039A2B689A4205D105B030BD14
:10516000074800F0FDFFE2E7FDF712F8000B002012
:1051700090ED00E000ED00E0090000100873002051
:10518000F04F0108000000000000000000000000D7
:1051900070B51A4D1A4C1B4E0FCD0FC49EB02A6825
:1051A000336822801D93EFF30981682203A8FCF77E
:1051B00057FE154B9D6AAA0714D4EB0708D5124B6E
:1051C00008995B6B114A00910D4880210CF098FB07
:1051D0001D9A33689A420FD109481EB0BDE870404D
:1051E00000F0BEBF099A5B6B0092A4F11000084A60
:1051F00080210CF085FBE0E7FCF7CAFFB44F010803
:10520000406C0020000B002000ED00E0904F0108F2
:10521000704F0108000000000000000000000000C6
:1052200000B51F4B0278196883B00191E2B11D4AA5
:105230004FF4005111834278EAB11A4A4FF4805179
:1052400011838278F2B1174A4FF480411183C278FA
:10525000FAB9144A4FF400415183019A1B689A42EB
:105260001CD103B05DF804FB0E4A4FF4005151838A
:105270004278002AE1D10B4A4FF480515183827861
:10528000002AE0D1074A4FF480415183C278002AB6
:10529000DFD0044A4FF400411183DEE7FCF778FFCA
:1052A000000B002000100240000000000000000081
:1052B00000B51F4B0278196883B00191E2B11D4A15
:1052C0004FF4007111834278EAB11A4A4FF48071A9
:1052D00011838278F2B1174A4FF400611183C278CA
:1052E000FAB9144A4FF480615183019A1B689A42BB
:1052F0001CD103B05DF804FB0E4A4FF400715183DA
:105300004278002AE1D10B4A4FF4807151838278B0
:10531000002AE0D1074A4FF400615183C278002A85
:10532000DFD0044A4FF480611183DEE7FCF730FFE1
:10533000000B0020001002400000000000000000F0
:1053400030B50C4A0C4B116883B04FF400550191F5
:105350004FF480544FF400414FF480405D835C83F0
:105360005883598301991368994201D103B030BD24
:10537000FCF70EFF000B00200010024000000000B0
:1053800030B50C4A0C4B116883B04FF40075019195
:105390004FF480744FF480614FF400605D835C8350
:1053A0005883598301991368994201D103B030BDE4
:1053B000FCF7EEFE000B0020001002400000000091
:1053C00010B50B4C0B48236882B099220021019341
:1053D00003F0B6FD019A23689A4206D105480021E0
:1053E00002B0BDE8104003F093BEFCF7D1FE00BF51
:1053F000000B0020E88000200000000000000000FA
:1054000010B50B4C0B48236882B099220021019300
:1054100003F096FD019A23689A4206D105480021BF
:1054200002B0BDE8104003F073BEFCF7B1FE00BF50
:10543000000B00200481002000000000000000009C
:1054400000B5084B83B01A680192019A1B689A4212
:1054500006D10548002103B05DF804EB03F0C0BDA0
:10546000FCF796FE000B0020E88000200000000002
:1054700000B5084B83B01A680192019A1B689A42E2
:1054800006D10548002103B05DF804EB03F0A8BD88
:10549000FCF77EFE000B00200481002000000000CD
:1054A00070B51A4C1A4E2378326882B0022B0192E2
:1054B000A26811D165781748013505F0070500EBA2
:1054C0008500904763686570013B6360019A3368AB
:1054D0009A4219D102B070BD012B08D001993368EE
:1054E000994211D10C4802B0BDE870401047657870
:1054F0000848013D05F0070500EB8500904763680B
:10550000657001336360E1E7FCF742FED86C002070
:10551000000B00209050010880500108000000009E
:1055200070B51A4C1A4E2378326882B0012B019262
:10553000A26811D165781748013505F0070500EB21
:10554000850090476368657001336360019A336832
:105550009A4219D102B070BD022B08D0019933686C
:10556000994211D10C4802B0BDE8704010476578EF
:105570000848013D05F0070500EB8500904763688A
:105580006570013B6360E1E7FCF702FEC06C002040
:10559000000B00209050010880500108000000001E
:1055A00030B51F4D85B02B68039340F24C439942B0
:1055B000044626DCA3F69803994211DB4B00002B2E
:1055C00029D10370036998474FF47A71039A2B68C5
:1055D0009A421ED1606905B0BDE8304003F068BC56
:1055E000104B02225B42227040F2892293420E4904
:1055F00091FBF3F189B207DC0191E36898470199C7
:10560000E4E7012303702D21019123699847019953
:10561000DCE7FCF7BDFDE4DD01220270E4E700BF3A
:10562000000B002068F7FFFFA086010000000000CB
:1056300000B5084B83B01A680192019A1B689A4220
:1056400006D10146044803B05DF804EBFFF7A8BF9C
:10565000FCF79EFD000B0020C06C00200000000045
:1056600000B5084B83B01A680192019A1B689A42F0
:1056700006D10146044803B05DF804EBFFF790BF84
:10568000FCF786FD000B0020D86C00200000000015
:1056900000B5094B094A1968506883B000EBD07017
:1056A0000191019A1B689A4203D1401003B05DF842
:1056B00004FBFCF76DFD00BF000B0020C06C002058
:1056C00000B5094B094A1968506883B000EBD070E7
:1056D0000191019A1B689A4203D1401003B05DF812
:1056E00004FBFCF755FD00BF000B0020D86C002028
:1056F00000B5084B08491A6883B040000192019A2E
:105700001B6848609A4202D103B05DF804FBFCF7C5
:105710003FFD00BF000B0020C06C00200000000017
:1057200000B5084B08491A6883B040000192019AFD
:105730001B6848609A4202D103B05DF804FBFCF795
:1057400027FD00BF000B0020D86C002000000000E7
:1057500070B51D4E1D4A1E4B30681E491E4C91608F
:1057600082B00021D46001901C4C1D481D4D9D60ED
:10577000117051705160106154611B481B4A1C4DDF
:10578000D8601C48197059705960C3E90425FFF7A7
:1057900047FD1848FFF78CFD1749204603F038FBFA
:1057A000204603F06DFC2846144903F031FB019AB2
:1057B00033689A4205D1284602B0BDE8704003F034
:1057C0005FBCFCF7E5FC00BF000B0020D86C00209C
:1057D000C06C002021520008C1530008E88000205E
:1057E00041540008B15200080154000871540008E7
:1057F0000481002080500108405001080050010839
:105800000A490B4B09680B4A82B0202001914021C4
:1058100058834FF4806559834FF400644FF48040FF
:1058200004215D835C8358835183FEE7000B0020D5
:10583000000C0240000402400000000000000000D4
:1058400010B51E491E4A0B78106882B0013B0190CA
:10585000072B0AD8DFE803F012151C1F26290F04B6
:1058600018480824012304830B7001991368994296
:1058700021D102B010BD08230B70F6E702230B7094
:10588000F3E711484FF48054032304830B70ECE7D3
:1058900004230B70E9E70C484FF48044052304838C
:1058A0000B70E2E706230B70DFE7064804240723AA
:1058B00004830B70D9E7FCF76BFC00BF707000200D
:1058C000000B002000100240000402400000000015
:1058D00030B50C4B0C4918680C4A83B04FF4804526
:1058E00001904FF480504883042408204D83548352
:1058F0005083019A1B689A4201D103B030BDFCF776
:1059000047FC00BF000B00200004024000100240D2
:105910002DE9F04F4E4B4F4A9B694F499961A5B015
:1059200007AE05AD80231768009331462A46002450
:105930000CA84A4B2397CDE90766CDE90555CDE97B
:1059400009440B9400F0DCFA0CA9454A4548434C45
:10595000454DDFF83481DFF834B1DFF834A100F0D1
:10596000F7FA04F11C0604F16007A146504601F065
:1059700097FD2A682B69226063602A6A2B6BA260FC
:10598000E3606A686B69226163616A6A6B6BA2613A
:10599000E361AA68AB6922626362AA6AAB6BA26226
:1059A000E362EA68EB6922636363EA6AEB6B2F499F
:1059B000A263E36351F8043F0A6AB142A3EB020316
:1059C0000B64F7D1802249460CA800F0F1FA98F850
:1059D0000030002BCAD09BF8003033B3012BC5D167
:1059E000DFF8B0C02248614650F8042B51F8043F5C
:1059F000B84213440B60F7D11E4A13780133DBB26F
:105A0000642B1370B2D11C495CF8043F1B4A82FB23
:105A10000302DB17C3EB621341F8043B184B9C45B0
:105A2000F2D1002388F80030A0E71946202212485E
:105A300003930BF015FF039B1248194620220BF02D
:105A40000FFF0C49039B0B7001228BF800208DE7A0
:105A500008730020000B0020B0500108746D002076
:105A6000F0500108D4150020106D0020706D00204A
:105A7000B46D0020516D0020D46D00201F85EB51C6
:105A8000706D0020546D0020506D0020526D00207C
:105A9000F80B0020506D0020000000000000000006
:105AA00070B502691E4D52882B6882B006460C46BE
:105AB0001C480193920000210BF0D2FE33695B88F1
:105AC0005BB1184AA11E002331F8020F42F8040B03
:105AD0003069408801339842F6D8202383F3118837
