:020000040800F2
:1000000000040020C10100084161000841610008AE
:100010007152000841610008416100084161000817
:10002000416100084161000841610008A1830008A6
:1000300041610008416100084161000811F00008B9
:100040004161000891BD000821BF000871BF000890
:100050004161000841610008D1BA000821BB0008D5
:1000600071BB0008C1BB000811BC000821AD00082D
:1000700071AD0008C1AD000811AE000861AE000806
:10008000B1AE000801AF000811B8000811C10008A6
:1000900081C1000831C20008E1C2000861BC00084B
:1000A000416100084161000871EA000841610008EF
:1000B000D1EB000811EC000851EC0008A1D00008B9
:1000C000E1D1000841610008416100084161000878
:1000D000416100084161000841610008D1F0000859
:1000E000F1BC0008E1BD000831BE0008B1EA00081B
:1000F00041610008416100084161000851AF0008FA
:100100004161000871C4000891EC000841610008D9
:10011000416100084161000831EA000841610008BE
:10012000A1AF0008F1AF000841B0000891B000088D
:10013000E1B000084161000881BE0008416100088B
:10014000416100084161000841610008C1E4000804
:1001500031B1000881B10008D1B100084161000847
:1001600041610008416100084161000841610008E7
:10017000D1BE000841610008413900084161000812
:1001800041610008416100084161000841610008C7
:1001900041610008416100084161000841610008B7
:1001A00041610008416100084161000841610008A7
:1001B0004161000841610008416100084161000897
:1001C00072B62E4880F3098840F20000CCF200009D
:1001D0004EF63471CEF20001086040F20000C0F229
:1001E000F0004EF68851CEF2000108604FF000009A
:1001F000E1EE100A4EF63C71CEF2000108600620D6
:1002000080F31488BFF36F8F0FF0AAF84FF05530CA
:100210001B491C4A91423CBF41F8040BFAE71A49BA
:10022000164A91423CBF41F8040BFAE71749184AB5
:10023000184B9A423EBF51F8040B42F8040BF8E702
:1002400000201549154A91423CBF41F8040BFAE7DA
:1002500005F05EFF124C134DAC4203DA54F8041B58
:100260008847F9E701F05CFF0F4C104DAC4203DA10
:1002700054F8041B8847F9E705F05ABF000800202E
:10028000000000200004002000040020988F0108D6
:1002900000080020BC150020C0150020D8810020D7
:1002A000C0010008C0010008C0010008C00100082A
:1002B0002DE9F04F2DED108AC1F80CD0D0F80CD0FC
:1002C000BDEC108ABDE8F08F06F07AF807F0B0F8C0
:1002D000002383F311882846A047002006F048FE3B
:1002E00007F08EF806F04CF806F06AFC06F068F8A5
:1002F00007F09EF800DFFEE70000000000000000AD
:100300002DE9F843544B80461A68544882422DED3B
:10031000028B1BD052490B68DA0405D40A6842F4F8
:1003200080530B60012000E000204E4A4E491160CE
:1003300013684A4A934208D147490B6030B1484894
:10034000036823F48052026000E0FEE798ED018A22
:10035000B5EE408A0021F1EE10FAC8F81C10C8F87A
:100360001810C8F81410C8F81010C8F82810C8F8E9
:100370002410C8F8201029D0DFED3C7A28EE270A97
:1003800010EE100A01F038F8044618EE100A0D4677
:1003900001F032F80646B8F800000F4601F01AF8EE
:1003A0002BA3D3E9002301F0ADF902460B463046FA
:1003B000394600F0C3FE02460B462046294601F0AE
:1003C000A1F901F03DFBA8F82C0001E0A8F82C10E1
:1003D00098ED028AB5EE408AF1EE10FA26D0B8F810
:1003E00000904FEA092000F0F5FF044618EE100ACD
:1003F0000D4601F001F816A3D3E9002301F058F8E7
:10040000064648460F4600F0E5FF02460B463046DA
:10041000394600F093FE02460B462046294601F07D
:1004200071F901F00DFBA8F82E0002E00020A8F8F9
:100430002E00B8F800204FF47A73B2FBF3F1A8F85D
:100440003010BDEC028BBDE8F88300BFAFF3008035
:100450001F85EB51B81E1940C0150020CDB5E8B579
:100460003038024000300240C2A507F4000080434B
:100470002DE9F04F9BB083461992A94A1891A948DB
:100480001168814200D0FEE79E6AB3F80CC09F69F4
:100490009A8DD98D039603261C6A5D6A059706928C
:1004A00006FB0CF74FEA8C0206264FEA4C000B9134
:1004B0000E97052106FB0CF70F9207220294049574
:1004C0000D90119701FB0CF04FEACC0602FB0CF1EA
:1004D00000271D695C69D3F81CA010901291179633
:1004E0000197188EDDF80490814580F20A818E48CC
:1004F0009BF800601BF80C7010F80690C25DA144D8
:100500008419511994F8008194F8002201EB4808ED
:10051000CDF81C80DDF834801BF80860855DC719B4
:10052000A9180E9A97F800411BF8022097F800725C
:1005300001EB4405815C0895CC1981190F9E91F857
:10054000008191F8007204EB48081BF80640CDF8D2
:1005500024808218055D92F8006192F80022E91962
:1005600001EB460505EB0807DDF8408015971BF801
:1005700008700A950419C15D94F8005194F800427E
:10058000DDF81C808E1806EB4501119D089A1BF8BA
:1005900005508E18C719425D1696161997F8002156
:1005A00006EB42029044CDF85080129C97F80072FE
:1005B0001BF804604519845DE41995F8007195F8FD
:1005C0000052801904EB47044FF01C0804EB0907A4
:1005D00090F80061139708FB09AADDF81C800C94C1
:1005E0000AEB0209152705EB460490F8005207FBB9
:1005F0000890099FDDF820900A2606FB070A0F27BE
:1006000007FB09A04FF00308DDF8289008FB010064
:100610004FF0060A0AFB0900009015984FF03009C8
:1006200009FB00FADDF858902E2000FB09A0824655
:100630000598824413984FF0240909FB00AA1498E6
:100640004FF02A0909FB00AA0898DDF8249008FB5E
:1006500000F8062000FB0988DDF81C9008EB090073
:1006600007FB01010A9F0C98DDF8009006FB0718B4
:100670001C2606FB008115270B9807FB021205922A
:10068000A9F5003868B1029E049FCDF8108006EBF2
:100690000801CE1B46434FF4807296FBF2F00290A5
:1006A0008046069961B1039E08FB01F8C1F5807789
:1006B00006FB07894FF4807299FBF2F003908046A5
:1006C000199901FB08F7002F02DD0837381103E004
:1006D000083F102697FBF6F047F6BC72019E1349BF
:1006E000189FDDF85C809042A8BF1046DA897243FB
:1006F0008842A8BF0146013627F81210C34401966C
:10070000EFE61D615C61029D059C1D629C61039D7D
:10071000049CC3F81CA05C629D621BB0BDE8F08F16
:10072000C0150020CDB5E8B5000800204480FFFFCB
:100730002DE9F04FA1B0C74C1F92C74A1E91116816
:10074000A14200D0FEE79F6A9A69998DDC8D0497DB
:100750009F89069207910F940322052106241D6AA2
:100760005E6A03957A4379437C43129214911594FF
:10077000072209210A24794305964FEA47084FEAE0
:1007800087097A434FEAC70A7C431E695D69D3F83B
:100790001CB01891CDF84480CDF84C901692CDF84D
:1007A0005CA01D94002102911A8E0299914280F260
:1007B0005981AA4A047812F80490A944C55D111918
:1007C00012F8058091F8004191F800A2464406EB2A
:1007D0004406119C0896045D5519165D95F800C1F4
:1007E00095F8005206EB0A0808EB4C0ADDF8488041
:1007F000CDF824A010F80810DDF84C80565C1419D0
:1008000006EB050A10F8085094F800C1565D94F8FC
:10081000004251180AEB4C0C361991F800A1149CB7
:1008200091F80012CDF828C006EB4A08065DCDF815
:100830002C80945DDDF85480551904EB010A95F87D
:10084000004195F800520AEB44010C9110F8081091
:100850009619545C641996F8005104EB45040D9404
:10086000169D96F80062DDF824A0DDF85C80A444B3
:10087000445DCDF86CC0155D5118AD1991F800615B
:1008800091F8001205EB460505EB0A060E9510F8E7
:1008900008501C961419565DDDF860A0711894F884
:1008A000006194F8004201EB460C08990CEB01063C
:1008B0001A9610F80A605519915D9219091995F860
:1008C000004192F8006195F8005201EB44012D249B
:1008D00001EB090804FB09BB10910899CDF864806D
:1008E0000BEB0C09DDF8288005EB460592F8006259
:1008F000242202FB019A152404FB08A9DDF824A098
:100900000C994FF01C0B0BFB0A994FF00A08DDF80D
:100910002CA008FB01994FF00F0B0E990BFB0A99C5
:100920004FF00308DDF834A008FB01994FF0060BE7
:100930000BFB0A99CDF80490DDF82CA00C994FF030
:100940004B0B51440BFB01F91B994FF0490A0AFB71
:10095000019B0699DDF868900BEB010A4FF03F0B05
:100960001C990BFB09AA4FF0450BDDF864900BFBBB
:1009700001AA4FF0370B0BFB09ABDDF824A00A9955
:1009800008FB0AF84FF00609DDF820A009FB0188F2
:100990000C99D0444FF00F09DDF82CA009FB018819
:1009A0000A21DDF8389001FB0A884FF01C0A0D99E6
:1009B0000AFB098804FB018A109C0F994FF02D094E
:1009C00009FB04A8DDF804A002FB0C820692AAF53C
:1009D0007A3971B1039C0599CDF8149004EB0902A2
:1009E000541A0F9A4FF48071544394FBF1F403941A
:1009F000A146079961B1049CC1F5807209FB01FC15
:100A000004FB02C94FF4807199FBF1F20492914604
:100A10001F9C04FB09F1002902DD10314C1103E099
:100A20001039202291FBF2F447F6BC718C42A8BF2A
:100A30000C46DA890299DDF874804A4308498C42F1
:100A4000A8BF21461E9C24F81210029A4044511C53
:100A5000A9E600BFCDB5E8B5C0150020000800200C
:100A60004480FFFF05981E615D61039E069D049C06
:100A700058629D61C3F81CB01E629C62104621B092
:100A8000BDE8F08F2DE9F04F95B0994C1392994A3B
:100A900012911168A14200D0FEE75E6A1D6A9F6A4A
:100AA0009A69998DB3F82E800C964FF00009D3F80F
:100AB00010C05E69D3F81CB00195029709920A91A3
:100AC000CDF83480CDF80C908B4904780D190C5D6D
:100AD00095F8007295F8008106EB070A067ACDF8C2
:100AE0002CA08F198E5D97F8002202EB4805AC44CC
:100AF000057C97F80081CDF810C04A194D5D92F839
:100B0000009292F8002109EB040A0AEB480C90F8D5
:100B100018A090F82090CDF814C001EB0A0494F8C6
:100B2000007294F80041BF1907EB420801EB09027B
:100B3000CDF8188092F8006292F80021771907EB3F
:100B4000440606EB080C90F8288011F80A70079606
:100B500001EB0805CDF840C095F8004295F800512A
:100B6000E619059F06EB4204E619119690F83060ED
:100B700008948C1911F8097094F80022D219049F76
:100B800002EB4502BD180F9590F8385011F8089007
:100B900094F80041DDF82C808E5D4F1997F800A283
:100BA00097F800710AEB090C0CEB4404DDF818A06F
:100BB00011F805C000941C2505FB082944440A21AE
:100BC000DDF8148001FB0A9906EB4706DDF820A04A
:100BD0000F2707FB0899032101FB0A99DDF81CA0E8
:100BE0004FF0060808FB0A99DDF810A0152101FB5B
:100BF0000A99CB44DDF84490CDF82CB04FF02E0A82
:100C00000AFB09FADDF840904FF0300B0BFB09AA04
:100C10004FF0240B0BFB04A90F9C4FF02A0A0AFB90
:100C2000049B099CDDF81890DDF810A0A344059CF6
:100C300008FB09A8DDF820A04FF0030909FB048890
:100C4000079C07FB0A890A2707FB0498DDF8009038
:100C5000DDF82CA00C9F05FB098501FB02520199D0
:100C60000992AAF500328C180D99DDF82880E51B51
:100C70004D434FF4807195FBF1F40194019F44467C
:100C80007C43029FC8EB010507FB054595FBF1F18D
:100C90000291139C6143002902DD0831091103E030
:100CA0000839102791FBF7F147F6BC75134C129FDA
:100CB0000C92A942A8BF2946039DA142B8BF214674
:100CC00079530C354030C02D03957FF4FDAE099863
:100CD000019C029D9861C3F810C05E61C3F81CB00E
:100CE0001C625A629D62102015B0BDE8F08F00BFF3
:100CF000CDB5E8B5C0150020000800204480FFFFF6
:100D00002DE9F04FA1B084461F92BE4A1E91BE4805
:100D10001168814200D0FEE79E6A9F6905969E8910
:100D2000D98D01967000079703277E431190019893
:100D30009A8D0F9112960521019E08924843B200A8
:100D40001490019E01980199139206277E43072271
:100D5000C700514315961797019E019F1C6A5D6A53
:100D6000169109220A2156434F434FF0000804947C
:100D700006955C691D69D3F81CB018961D97CDF8CF
:100D80000C80188EDDF80C90814580F25A819F49C5
:100D90009CF80000DDF804900F181CF8096097F823
:100DA00000A297F80021085CA2448C198E5D94F88B
:100DB000008294F80041454405EB4207119D0997D4
:100DC0001CF805504A194D5D92F8007292F80081A6
:100DD0003F18129807EB44091CF80040CDF8289002
:100DE00008190C5D90F8007290F80001BF1907EB2C
:100DF0004809DDF84C80CDF82C901CF8089001EBE8
:100E00000902CDF8089092F8006292F80021771953
:100E1000149E1CF80690159E07EB400801EB090094
:100E2000CDF8308090F8005290F800012F1907EBB0
:100E300042081CF80670029DCDF83480CA194E5D38
:100E400092F80042A41904EB40050295DDF82C80CD
:100E5000169E92F80021CF5DA844CDF86C801CF856
:100E6000068011F80950DDF8609001EB080011F8D8
:100E7000088090F8004290F8000166190A9D06EB80
:100E80004204179A0E9466191C961CF802608C197D
:100E90008E5D94F8002294F80041D519099F05EB66
:100EA0004002D5191A951CF809504F194D5D97F855
:100EB000000297F80071404400EB44002D2100EB44
:100EC0000A0401FB0ABB1090099819940BEB020A63
:100ED00006EB470424210B9F01FB00A94FF01508E6
:100EE000DDF828A00D9808FB07964FF01C0B0BFBB4
:100EF0000A69DDF830800A2606FB009A0F27DDF824
:100F0000389007FB08AB4FF0030808FB09BADDF87F
:100F100008B0062000FB0BA9CDF80090DDF834A046
:100F2000DDF830B04FF04B090AEB0B0009FB00FA7B
:100F30001B984FF0490B0BFB00A9079809EB000A1F
:100F4000DDF868901C984FF03F0B0BFB09AA4FF09F
:100F5000450BDDF864900BFB00AA4FF0370B0BFB41
:100F600009ABDDF828A00B9808FB0AF84FF006093A
:100F7000DDF824A009FB00880D9808EB0A0907FB9F
:100F800000980C9FDDF83890029806FB07864FF01A
:100F90001C0A0AFB0968152707FB008610980F9F9B
:100FA0004FF02D0909FB006A01FB02A2DDF800A049
:100FB0000792AAF57A386FB10499069ECDF8188089
:100FC00001EB0800811B79434FF4807291FBF2F72B
:100FD0000497B846089860B1059908FB00F8C0F579
:100FE000807601FB06894FF4807299FBF2F7059732
:100FF000B8461F9800FB08F6002E09DD1036771161
:101000000AE000BFC0150020CDB5E8B500080020FB
:10101000103E202196FBF1F7039ED8891049DDF898
:10102000748047F6BC729742A8BF17468F42A8BF8C
:10103000394670431E9F721C27F81010C444039257
:101040009FE65C61079C049A9C61059E069C1D615D
:10105000C3F81CB01A625C629E6221B0BDE8F08FDA
:101060004480FFFFAFF3008000000000000000009C
:101070004B1C012B98BF70472DE9F003911C9B0876
:10108000B1F80480B1F802900A8831F802CC8044AB
:10109000814402448444D9F80070D8F8006015688F
:1010A000DCF80040C9F80060C8F80070CCF80050C7
:1010B0001460D9F80470D8F804605568DCF804406E
:1010C000C9F80460C8F80470CCF8045054600831C2
:1010D000013BD5D1BDE8F00370474B1C012B98BFF5
:1010E00070472DE9F003911C9B08B1F80480B1F81A
:1010F00002900A8831F802CC00EB580800EB59093D
:1011000000EB520200EB5C0CD9F80070D8F80060DC
:101110001568DCF80040C9F80060C8F80070CCF829
:10112000005014600831013BDFD1BDE8F003704787
:1011300081F0004102E000BF83F0004330B54FEA88
:1011400041044FEA430594EA050F08BF90EA020FF5
:101150001FBF54EA000C55EA020C7FEA645C7FEA88
:10116000655C00F0E2804FEA5454D4EB5555B8BFAB
:101170006D420CDD2C4480EA020281EA030382EA1C
:10118000000083EA010180EA020281EA0303362DAE
:1011900088BF30BD11F0004F4FEA01314FF4801C81
:1011A0004CEA113102D0404261EB410113F0004F93
:1011B0004FEA03334CEA133302D0524263EB43034A
:1011C00094EA050F00F0A780A4F10104D5F1200EE8
:1011D0000DDB02FA0EFC22FA05F2801841F1000143
:1011E00003FA0EF2801843FA05F359410EE0A5F117
:1011F00020050EF1200E012A03FA0EFC28BF4CF048
:10120000020C43FA05F3C01851EBE37101F00045FD
:1012100007D54FF0000EDCF1000C7EEB00006EEB0A
:101220000101B1F5801F1BD3B1F5001F0CD3490894
:101230005FEA30004FEA3C0C04F101044FEA4452EB
:1012400012F5800F80F09A80BCF1004F08BF5FEA72
:10125000500C50F1000041EB045141EA050130BD52
:101260005FEA4C0C404141EB010111F4801FA4F1F5
:101270000104E9D191F0000F04BF01460020B1FA4A
:1012800081F308BF2033A3F10B03B3F120020CDA82
:101290000C3208DD02F1140CC2F10C0201FA0CF060
:1012A00021FA02F10CE002F11402D8BFC2F1200CC5
:1012B00001FA02F120FA0CFCDCBF41EA0C0190407B
:1012C000E41AA2BF01EB0451294330BD6FEA0404C4
:1012D0001F3C1CDA0C340EDC04F11404C4F12002AF
:1012E00020FA04F001FA02F340EA030021FA04F3C1
:1012F00045EA030130BDC4F10C04C4F1200220FA18
:1013000002F001FA04F340EA0300294630BD21FA55
:1013100004F0294630BD94F0000F83F4801306BF1B
:1013200081F480110134013D4EE77FEA645C18BF0F
:101330007FEA655C29D094EA050F08BF90EA020FA6
:1013400005D054EA000C04BF1946104630BD91EA9E
:10135000030F1EBF0021002030BD5FEA545C05D1A1
:101360004000494128BF41F0004130BD14F58004E0
:101370003CBF01F5801130BD01F0004545F0FE4154
:1013800041F470014FF0000030BD7FEA645C1ABF89
:10139000194610467FEA655C1CBF0B46024650EAC0
:1013A000013406BF52EA033591EA030F41F40021EC
:1013B00030BD00BF90F0000F04BF0021704730B572
:1013C0004FF4806404F132044FF000054FF0000147
:1013D00050E700BF90F0000F04BF0021704730B508
:1013E0004FF4806404F1320410F0004548BF4042DD
:1013F0004FF000013EE700BF42004FEAE2014FEA32
:1014000031014FEA02701FBF12F07F4393F07F4F0C
:1014100081F06051704732F07F4208BF704793F00F
:101420007F4F04BF41F40021704730B54FF4607422
:1014300001F0004521F000411CE700BF50EA010225
:1014400008BF704730B54FF000050AE050EA0102CE
:1014500008BF704730B511F0004502D5404261EB3E
:1014600041014FF4806404F132045FEA915C3FF47F
:10147000D8AE4FF003025FEADC0C18BF03325FEA1C
:10148000DC0C18BF033202EBDC02C2F1200300FACD
:1014900003FC20FA02F001FA03FE40EA0E0021FAF2
:1014A00002F11444BDE600BF00000000000000008F
:1014B00070B54FF0FF0C4CF4E06C1CEA11541DBFEA
:1014C0001CEA135594EA0C0F95EA0C0F00F0DEF8B5
:1014D0002C4481EA030621EA4C5123EA4C5350EA9A
:1014E000013518BF52EA033541F4801143F48013EB
:1014F00038D0A0FB02CE4FF00005E1FB02E506F07C
:101500000042E0FB03E54FF00006E1FB03569CF0D0
:10151000000F18BF4EF0010EA4F1FF04B6F5007FD6
:1015200064F5407404D25FEA4E0E6D4146EB060648
:1015300042EAC62141EA55514FEAC52040EA5E50D1
:101540004FEACE2EB4F1FD0C88BFBCF5E06F1ED87B
:10155000BEF1004F08BF5FEA500E50F1000041EBB2
:10156000045170BD06F0004646EA010140EA02005F
:1015700081EA0301B4EB5C04C2BFD4EB0C0541EA81
:10158000045170BD41F480114FF0000E013C00F396
:10159000AB8014F1360FDEBF002001F0004170BDBA
:1015A000C4F10004203C35DA0C341BDC04F11404D3
:1015B000C4F1200500FA05F320FA04F001FA05F25F
:1015C00040EA020001F0004221F0004110EBD3702C
:1015D00021FA04F642EB06015EEA430E08BF20EA58
:1015E000D37070BDC4F10C04C4F1200500FA04F3FB
:1015F00020FA05F001FA04F240EA020001F000418D
:1016000010EBD37041F100015EEA430E08BF20EAFF
:10161000D37070BDC4F1200500FA05F24EEA020E47
:1016200020FA04F301FA05F243EA020321FA04F076
:1016300001F0004121FA04F220EA020000EBD3702D
:101640005EEA430E08BF20EAD37070BD94F0000F2D
:101650000FD101F00046400041EB010111F4801F61
:1016600008BF013CF7D041EA060195F0000F18BF12
:10167000704703F00046520043EB030313F4801F4E
:1016800008BF013DF7D043EA0603704794EA0C0F08
:101690000CEA135518BF95EA0C0F0CD050EA41061E
:1016A00018BF52EA4306D1D181EA030101F000419B
:1016B0004FF0000070BD50EA410606BF10461946C3
:1016C00052EA430619D094EA0C0F02D150EA0136CF
:1016D00013D195EA0C0F05D152EA03361CBF104610
:1016E00019460AD181EA030101F0004141F0FE41AF
:1016F00041F470014FF0000070BD41F0FE4141F433
:10170000780170BD70B54FF0FF0C4CF4E06C1CEA32
:1017100011541DBF1CEA135594EA0C0F95EA0C0FE7
:1017200000F0A7F8A4EB050481EA030E52EA0335A2
:101730004FEA013100F088804FEA03334FF08055C3
:1017400045EA131343EA12634FEA022245EA1115F0
:1017500045EA10654FEA00260EF000419D4208BFA1
:10176000964244F1FD0404F5407402D25B084FEA4E
:101770003202B61A65EB03055B084FEA32024FF4FA
:1017800080104FF4002CB6EB020E75EB030E22BF57
:10179000B61A754640EA0C005B084FEA3202B6EB17
:1017A000020E75EB030E22BFB61A754640EA5C00C6
:1017B0005B084FEA3202B6EB020E75EB030E22BF56
:1017C000B61A754640EA9C005B084FEA3202B6EB57
:1017D000020E75EB030E22BFB61A754640EADC0016
:1017E00055EA060E18D04FEA051545EA16754FEA78
:1017F00006164FEAC30343EA52734FEAC2025FEA96
:101800001C1CC0D111F4801F0BD141EA00014FF024
:1018100000004FF0004CB6E711F4801F04BF0143F5
:101820000020B4F1FD0C88BFBCF5E06F3FF6AFAE11
:10183000B5EB030C04BFB6EB020C5FEA500C50F1A1
:10184000000041EB045170BD0EF0004E4EEA113124
:1018500014EB5C04C2BFD4EB0C0541EA045170BD2B
:1018600041F480114FF0000E013C90E645EA060E6F
:101870008DE60CEA135594EA0C0F08BF95EA0C0F9D
:101880003FF43BAF94EA0C0F0AD150EA01347FF4E5
:1018900034AF95EA0C0F7FF425AF104619462CE7BC
:1018A00095EA0C0F06D152EA03353FF4FDAE10461F
:1018B000194622E750EA410618BF52EA43067FF470
:1018C000C5AE50EA41047FF40DAF52EA43057FF400
:1018D000EBAE12E700000000000000000000000076
:1018E0004FF0FF3C06E000BF4FF0010C02E000BFEC
:1018F0004FF0010C4DF804CD4FEA410C7FEA6C5CCF
:101900004FEA430C18BF7FEA6C5C1BD001B050EA71
:10191000410C0CBF52EA430C91EA030F02BF90EA5C
:10192000020F0020704710F1000F91EA030F58BF1B
:10193000994208BF90422CBFD8176FEAE37040F07D
:10194000010070474FEA410C7FEA6C5C02D150EA1B
:10195000013C07D14FEA430C7FEA6C5CD6D152EAD6
:10196000033CD3D05DF8040B704700BF844610469B
:1019700062468C461946634600E000BF01B5FFF79A
:10198000B7FF002848BF10F1000F01BD4DF808ED6A
:10199000FFF7F4FF0CBF012000205DF808FB00BF3B
:1019A0004DF808EDFFF7EAFF34BF012000205DF895
:1019B00008FB00BF4DF808EDFFF7E0FF94BF0120E2
:1019C00000205DF808FB00BF4DF808EDFFF7CEFFE3
:1019D00094BF012000205DF808FB00BF4DF808ED22
:1019E000FFF7C4FF34BF012000205DF808FB00BFF3
:1019F0004FEA410212F5001215D211D56FF4787337
:101A0000B3EB625212D94FEAC12343F0004343EAD9
:101A1000505311F0004F23FA02F018BF40427047B4
:101A20004FF00000704750EA013005D111F000403E
:101A300008BF6FF0004070474FF00000704700BFD4
:101A40004A0011D212F5001211D20DD56FF478733D
:101A5000B3EB62520ED44FEAC12343F0004343EA92
:101A6000505323FA02F070474FF00000704750EADD
:101A7000013002D14FF0FF3070474FF00000704747
:101A80004FEA4102B2F1E04324BFB3F5001CDCF1A0
:101A9000FE5C0DD901F0004C4FEAC0024CEA5070D8
:101AA000B2F1004F40EB830008BF20F00100704707
:101AB00011F0804F21D113F13872BCBF01F000400A
:101AC000704741F480114FEA5252C2F11802C2F13C
:101AD000200C10FA0CF320FA02F018BF40F00100BD
:101AE0004FEAC1234FEAD32303FA0CFC40EA0C006F
:101AF00023FA02F34FEA4303CCE77FEA625307D1AC
:101B000050EA01331EBF4FF0FE4040F440007047E2
:101B100001F0004040F0FE4040F40000704700BF7C
:101B200053B94AB9002908BF00281CBF4FF0FF3144
:101B30004FF0FF3000F074B9ADF1080C6DE904CE40
:101B400000F006F8DDF804E0DDE9022304B0704798
:101B50002DE9F047089E04468846002B4BD18A4267
:101B6000154667D9B2FA82F24AB1C2F1200701FAEA
:101B700002F320FA07F7954047EA030894404FEA3A
:101B8000154E230CB8FBFEF71FFA85FC0EFB1788D9
:101B900043EA084307FB0CF1994209D9EB1807F116
:101BA000FF3080F01B81994240F21881023F2B44A4
:101BB0005B1AA4B2B3FBFEF00EFB103344EA0344FD
:101BC00000FB0CFCA44509D92C1900F1FF3380F06F
:101BD0000781A44540F2048102382C4440EA0740C2
:101BE000A4EB0C0400271EB1D4400023C6E9004337
:101BF0003946BDE8F0878B4209D9002E00F0EB8012
:101C00000027C6E9000138463946BDE8F087B3FA37
:101C100083F7002F47D18B4202D3824200F2FA8031
:101C2000841A61EB030301209846002EE0D0C6E938
:101C30000048DDE702B9FFDEB2FA82F2002A40F086
:101C40008F80491B4FEA154E1FFA85F80127B1FB1B
:101C5000FEFC230C0EFB1C1143EA014308FB0CF1B4
:101C6000994207D9EB180CF1FF3002D2994200F2E9
:101C7000CD808446591AA3B2B1FBFEF00EFB1014BE
:101C800043EA044408FB00F8A04507D92C1900F1E9
:101C9000FF3302D2A04500F2B6801846A4EB080438
:101CA00040EA0C409FE7C7F1200CBB4022FA0CFE33
:101CB0004EEA030E01FA07F420FA0CF521FA0CF3B0
:101CC0004FEA1E482543B3FBF8F92C0C08FB1933E7
:101CD0001FFA8EFA44EA034309FB0AF49C4202FA13
:101CE00007F200FA07F10BD91EEB030309F1FF30ED
:101CF00080F087809C4240F28480A9F102097344FD
:101D00001B1BADB2B3FBF8F008FB103345EA0344EC
:101D100000FB0AFAA24508D91EEB040400F1FF33C8
:101D20006BD2A24569D90238744440EA0940A0FB4D
:101D30000289A4EB0A044C45C2464B4654D351D009
:101D4000002E69D0B1EB0A0564EB030404FA0CFC25
:101D5000FD40FC404CEA0505C6E90054002747E772
:101D6000C2F1200320FA03F7954001FA02F021FAAC
:101D700003F34FEA154E3843010CB3FBFEF71FFA8D
:101D800085F80EFB173341EA034107FB08F38B424A
:101D900004FA02F407D9691807F1FF3C2FD28B42ED
:101DA0002DD9023F2944CB1A81B2B3FBFEF00EFBC2
:101DB000103341EA034100FB08F38B4207D969184D
:101DC00000F1FF3C17D28B4215D902382944C91AB9
:101DD00040EA07473BE73746304609E70746E7E66C
:101DE0001846FBE64145ABD2B8EB020A69EB0E029E
:101DF00001381346A4E76046E9E7184695E76746C9
:101E0000D1E781467CE702382C4447E7ACF1020C6D
:101E10002B442FE7384608E73746E9E60000000084
:101E2000704700BF0000000000000000000000003C
:101E3000844641EA000313F003036DD1403A41D3D5
:101E400051F8043B40F8043B51F8043B40F8043B94
:101E500051F8043B40F8043B51F8043B40F8043B84
:101E600051F8043B40F8043B51F8043B40F8043B74
:101E700051F8043B40F8043B51F8043B40F8043B64
:101E800051F8043B40F8043B51F8043B40F8043B54
:101E900051F8043B40F8043B51F8043B40F8043B44
:101EA00051F8043B40F8043B51F8043B40F8043B34
:101EB00051F8043B40F8043B51F8043B40F8043B24
:101EC000403ABDD2303211D351F8043B40F8043BC4
:101ED00051F8043B40F8043B51F8043B40F8043B04
:101EE00051F8043B40F8043B103AEDD20C3205D3D4
:101EF00051F8043B40F8043B043AF9D2043208D0CC
:101F0000D2071CBF11F8013B00F8013B01D30B883D
:101F100003806046704700BF082A13D38B078DD01B
:101F200010F003038AD0C3F10403D21ADB071CBFED
:101F300011F8013B00F8013B80D331F8023B20F857
:101F4000023B7BE7043AD9D3013A11F8013B00F890
:101F5000013BF9D20B7803704B7843708B78837018
:101F60006046704700000000000000000000000014
:101F700090F800F06DE9024520F007016FF0000CC9
:101F800010F0070491F820F040F049804FF0000471
:101F90006FF00700D1E9002391F840F000F108004C
:101FA00082FA4CF2A4FA8CF283FA4CF3A2FA8CF384
:101FB0004BBBD1E9022382FA4CF200F10800A4FAEB
:101FC0008CF283FA4CF3A2FA8CF3E3B9D1E904233F
:101FD00082FA4CF200F10800A4FA8CF283FA4CF376
:101FE000A2FA8CF37BB9D1E9062301F1200182FA30
:101FF0004CF200F10800A4FA8CF283FA4CF3A2FA36
:102000008CF3002BC6D0002A04BF04301A4612BA43
:10201000B2FA82F2FDE8024500EBD2007047D1E946
:10202000002304F00305C4F100004FEAC50514F0D5
:10203000040F91F840F00CFA05F562EA05021CBFA6
:1020400063EA050362464FF00004A9E700000000C0
:1020500001F0FF01102A2BDB10F0070F08D010F859
:10206000013B013A8B422DD010F0070F42B3F6D15D
:10207000F0B441EA012141EA014122F007047FF076
:1020800000070023F0E80256083C85EA010586EACD
:10209000010685FA47F5A3FA87F586FA47F6A5FA09
:1020A00087F68EB9EED1F0BC01F0FF0102F0070215
:1020B00032B110F8013B013A83EA010313B1F8D1C0
:1020C0000020704701387047002D06BF35460338A1
:1020D000073815F0010F07D1013015F4807F02BFDA
:1020E000013015F4C03F0130F0BC0138704700BF2B
:1020F0004FEA410C7FEA6C5C02D150EA013C0AD104
:102100004FEA430C7FEA6C5C02D152EA033C02D1F5
:102110004FF0000070474FF00100704700000000D2
:1021200000B5174B83B01B68019306F099F904F0D2
:102130001FF803F045F81349134807F041FD02ACBE
:1021400003F056FE02F014FB02F0EAFE03F070FB0F
:102150000E4802F015F800230D4A0E490E4804F807
:10216000053D03F025FF4FF4FA6004F041FE00F056
:102170007FF900F01DFF204600F0DAFBFBE700BF0F
:10218000000B0020200B00202C8100209122000851
:10219000040B00200C0B0020C415002000000000E0
:1021A00000B5084B83B01A680192019A1B689A42E5
:1021B00005D1054803B05DF804EB04F041B8FFF722
:1021C000EFFF00BF000B00202045010800000000C9
:1021D00000B52B499FED2B7A0B6883B02830019313
:1021E0004FF0FF320A23F0EC017AF4EEC77AF1EEF9
:1021F00010FAC8BF1AB203F10103C8BFB0EE677A84
:102200001F2BF0D192B2A2F10F03022B1CD9A2F125
:102210001203022B0DD9A2F11603022B1CD9193A75
:10222000022A019A0B6822D99A4213D103B05DF8B1
:1022300004FB019A0B689A4208BF01200AD103B03F
:102240005DF804EB00F034B9019A0B689A4208BFBC
:102250000020F4D0FFF7A4FF019A0B689A4208BF50
:102260000320F7D103B05DF804EB00F021B99A42E6
:1022700008BF0420EED103B05DF804EB00F018B9FC
:10228000000B002000401C46000000000000000081
:10229000F0B54E4E4E4D336883B001932B88002924
:1022A00000F08980B0F902204A4C07EE902A5A1CAF
:1022B00004EB830792B202339BB2F8EEE77A04EBA9
:1022C00082024FF0000EB3F5006FC7ED007A2B804D
:1022D000C2F800E02CD20139C1F38D0100EBC1013D
:1022E00000271AE0B0F90A2007EE902A5A1C92B291
:1022F00003F1020C04EB8307F8EEE77A04EB8202A9
:102300001FFA8CF3B3F5006FC7ED007A00F10800F7
:102310004FF00107C2F800E009D28842E2D1002F55
:1023200050D1019A33689A424ED103B0F0BD2B8050
:102330002849294C4FF4806000F05AF84FF480622D
:10234000264924480DF0B4FF2378082B0FD8013319
:10235000DBB201993268237091424FF000032B8069
:1023600032D11E4803B0BDE8F040FFF731BF202353
:1023700083F3118805F044F804F002F804F0D0F873
:1023800017488368002B1ADD04F0F2FB04F018F8FC
:1023900005F04EF8134B1A689A4207D09969936872
:1023A0008A689A4202D2104803F04AFF002383F35E
:1023B00011880123CDE7B3F5006FB2D3B8E705F07C
:1023C00017F9E1E72B80ACE7FFF7EAFE000B0020EE
:1023D000D2450020D0150020D0450020D035002067
:1023E0002C0B0020F872002040450108000000007E
:1023F00000B50D4B83B01A680192B0F5806F019A59
:102400001B6804D09A420CD103B05DF804FB9A42D9
:1024100007D106480123002203B05DF804EB0DF05C
:10242000C7BEFFF7BDFE00BF000B002050450108EE
:102430000EB410B583B005AA094C52F8041B2368EA
:102440000848009201930CF0E3FF019A23689A4236
:1024500004D103B0BDE8104003B07047FFF7A0FE01
:10246000000B00202C810020000000000000000074
:1024700010B50A4C0A4B22680A4884B04FF47A71AE
:10248000039200220092402204F05AFC039A23682F
:102490009A4201D104B010BDFFF782FE000B00206C
:1024A00031260008F0450020000000000000000078
:1024B00000B5204A204B1278196883B00191062A92
:1024C00007D8DFE802F011060404060423000628FA
:1024D00006D0019A1B689A4229D103B05DF804FB2B
:1024E000164A06211170F4E7421E052A11D801A1EF
:1024F00051F822F0172500081325000827250008A9
:102500001F25000813250008E12400080B4A10705D
:10251000DFE70128DDD1094A01211170D9E7074A17
:1025200004211170D5E7054A03211170D1E7FFF7A7
:1025300037FE00BFDC450020000B0020EC450020EA
:10254000F0B52DED048B324D324C2B6889B00793DA
:1025500003F00EF908EE100A03F022F907EE900AD4
:10256000B8EEC88AF8EEE77A2B4B38EE278AF6EEFB
:10257000007A28EE278AD3ED007A83ED008A38EEC0
:10258000678AB0EE480A00F0B3FBF0EE408A94EDA3
:10259000020A0DF0BDFF20EE289A94ED020A0DF01C
:1025A0006FFF18EE900A60EE288AFEF725FF0646B8
:1025B00018EE100A0F46FEF71FFFCDE9040118EED2
:1025C000900AFEF719FFCDE9020119EE100AFEF795
:1025D00013FF3246CDE900013B4610491048FFF792
:1025E00027FF94ED000AD4ED017A079A2B6830EEAC
:1025F000090A77EEA88A9A4284ED000AC4ED018A9E
:1026000003D109B0BDEC048BF0BDFFF7C9FD00BFDD
:10261000000B0020E0450020D8450020204601089E
:102620002C810020000000000000000000000000DD
:102630002DE98048264C274BA26927491B68DFF803
:10264000A0A0264DDFF89CB0916187B0DFF898908C
:10265000DFF89880059319E02868FEF7CDFE06465E
:10266000A8680F46FEF7C8FECDE902016868FEF7CC
:10267000C3FE3246CDE900013B4649464046FFF7DE
:10268000D7FE049804990A3104F0F2FB202383F367
:10269000118804F0B5FE03F073FEA66A03F090FE05
:1026A00004F0C6FE2368A34207D0A2699B68926823
:1026B0009A4202D2584603F0C3FD002383F31188E7
:1026C0009AF800300496012BC6D1FFF739FFC3E713
:1026D000F8720020000B002090450108E045002022
:1026E000D4450020A0450108604501082C81002048
:1026F00010B5DFED257A254C2DED028B60EE277AA3
:10270000DFED238A2368C7EEA80A82B00193B5EEF5
:10271000C00AF1EE10FAF1EE047AB9EE041AD4BF51
:10272000F0EE411AF0EE671AB0EE408AD8BFB0EE74
:10273000671AB0EE600A00F01BFA164BDFED167A4E
:1027400093ED020A38EE000AB4EEE70AF1EE10FA51
:10275000C8BF30EE680ADFED117A83ED020AB4EEED
:10276000E70AF1EE10FA05D5DFED097A30EE270A17
:1027700083ED020A019A23689A4203D102B0BDECAC
:10278000028B10BDFFF70CFDCD758641000B0020BC
:10279000DB0FC940E0450020DB0F4940DB0F49C09B
:1027A000F0B52DED028B594F594C3D78236883B01D
:1027B000012D01930646B0EE408A2DD01BD3022D89
:1027C0000FD0019A23689A4240F08E8033462A4601
:1027D0005049514803B0BDEC028BBDE8F040FFF713
:1027E00027BE0228EDD8019A23689A427CD103B013
:1027F000BDEC028BF0BD012826D066D302285DD146
:10280000387002F0CDFF00287AD00223002243491D
:102810004148FFF70DFE10E000F052FA012E26D0DD
:1028200038D3022ECDD100F04BFA3E70FFF788FE70
:102830003B4B00221A6000F07BF9B0EE480AFFF72C
:1028400057FF00233B70CEE702F0AAFF00284DD0CF
:102850000123002231493048FFF7EAFD00F068F912
:10286000019A236801219A4239700CD03CE03E70F5
:10287000FFF766FE2A4B00221A6000F059F9019A10
:1028800023689A4230D103B0BDEC028BBDE8F04022
:1028900000F036B900F014FA00233B70FFF750FE49
:1028A000019A23681E4900209A4208601CD103B097
:1028B000BDEC028BBDE8F04000F03AB9019A236804
:1028C0009A4211D10346002282E702F069FF90B1DB
:1028D00000231A4611491048FFF7AAFD019A236800
:1028E00000219A423970E2D0FFF75AFC02F040FF13
:1028F0000028ADD1B4E702F03BFF0028E8D1EDE7B6
:1029000002F036FF002880D197E700BFD4450020B1
:10291000000B0020E84501082C810020B04501088B
:10292000D84500200000000000000000000000006A
:1029300070B52DED048B564D0378564E2A683370D2
:1029400082B004460192062B07D8DFE803F0826EBE
:10295000421F0E06040000230370019A2B689A425E
:1029600012D102B0BDEC048B70BD4B4B4FF0006236
:10297000202440204FF480619C61986199619A61A4
:10298000019A2B689A42ECD0FFF70AFC00F098FB02
:1029900000F066FB00F0FCFB00F062FB00F078FC4E
:1029A00000F05EFB00F0DCFC00F05AFB00F068FD7C
:1029B00000F056FB00F0D4FC00F052FB019A2B68AB
:1029C0009A42E1D102B0BDEC048BBDE8704000F04A
:1029D00057BD314BDFED319A9FED318A9FED319A32
:1029E000DFED318A4FF400144FF480004FF0806126
:1029F0004FF000629C61986199619A6107E0032839
:102A000043D0012836D04FF4FA7004F0F1F900F009
:102A1000F7FA0228F3D1B0EE690AFFF7C1FEB0EE73
:102A2000480A0120FFF7BCFEEDE703F0F1F803F0E0
:102A30003FF9194B20229A614FF480014FF08062D8
:102A400099619A614FF4006102229961227032709B
:102A500083E7114B154A4FF40011996140219961A8
:102A60004FF4806199614FF40061996113780370AC
:102A7000337072E7B0EE680A0220FFF791FEB0EE05
:102A8000480A0120FFF78CFEBDE7B0EE490AF3E7E4
:102A9000000B0020DC450020000C0240DB0FC93F8A
:102AA00000000000DB0FC9BFDB0F4940EC450020F0
:102AB00070B5114E82B0054633680193002003F0D3
:102AC00017F9854214DD012003F012F985420FDD6C
:102AD0000524204603F00CF9A84209DA0134082C39
:102AE000F7D10020019A33689A4203D102B070BD39
:102AF0000120F7E7FFF754FB000B00200000000067
:102B000010B50A4C82B0236801934FF4E77002F0CD
:102B1000FFFD019A23689A4206D14FF4E77002B094
:102B2000BDE8104002F00CBEFFF73AFB000B00209E
:102B300010B50C4C82B023680193002002F0E8FD30
:102B4000002002F0FDFD002002F042FE019A236801
:102B50009A4205D1002002B0BDE8104002F050BEFC
:102B6000FFF71EFB000B002000000000000000002B
:102B70002DE9F0432DED068B9FED4D9A4D4D20EE46
:102B8000090AF2EE0A8AC0EE287A85B02B68039310
:102B9000B0EE41AA17EE900AF0EE619AB0EE608AAC
:102BA000FEF72AFC41EC100B0CF00AFF51EC100B65
:102BB000FEF71EFF68EE097A07EE100AC7EEA87A44
:102BC000B8EEC78A17EE900AFEF716FC2AEE09AA9D
:102BD00041EC100B0CF0F4FECAEE287A57EC106BA7
:102BE00017EE900AFEF708FC29EE899A41EC100BCB
:102BF0000CF0E6FEC9EE287A59EC108B17EE900A1D
:102C0000FEF7FAFB41EC100B0CF0DAFE49464046A9
:102C10008DED000BFEF7ECFE07EE900AF8EEE77A7A
:102C2000FDEEE77A17EE900A02F072FD9DED000BC3
:102C300051EC100BFEF7DCFE07EE900AF8EEE77A97
:102C4000FDEEE77A17EE900A02F07AFD304639463B
:102C5000FEF7CEFE07EE900AF8EEE77AFDEEE77A91
:102C600017EE904A002CB8BF64420DE002F080FDE0
:102C7000FDEEC87A002817EE903AB8BF4042002B0C
:102C8000B8BF5B42984206DC02F08AFD0028B8BF5C
:102C90004042A042EADD039A2B689A4206D105B071
:102CA000BDEC068BBDE8F043FFF742BFFFF778FAB3
:102CB00000007A44000B002000000000000000002B
:102CC00010B5094C82B023680193002002F020FD6A
:102CD000019A23689A4205D1002002B0BDE8104055
:102CE00002F02EBDFFF75CFA000B00200000000090
:102CF00000B50A4B9FED0A7A1A6883B0F2EE0A7AA1
:102D00000192019A1B6820EE270A9A4280EE070A78
:102D100002D103B05DF804FBFFF742FA000B00207C
:102D200000007A44000000000000000000000000E5
:102D300080B5234C234AA36923491668996186B05C
:102D4000022320250A220021009305964FF42073C8
:102D5000CDE9015530201D4E1D4F01F089FE01F0D7
:102D60008FFD002001F0C4FDB04601F029FD13E005
:102D700003F0FEFE03F024FB04F05AFB2368A34299
:102D800007D0A2699B6892689A4202D2384603F043
:102D900057FA002383F3118801F0EAFD01F050FD9A
:102DA00085F3118804F02CFB03F0EAFA03F0B8FB7A
:102DB000B368002BDCDC404604F01AFCD8E700BF07
:102DC000F8720020000B002060460108380B00203C
:102DD0008046010800000000000000000000000024
:102DE000F0B5344C83B02368019300F27F25431E75
:102DF000002213F8011F9D420A44FAD12E4B057898
:102E0000A3FB0232520A002140F27A264B1C954263
:102E10009BB21FD945186D7995421BD2B34225D874
:102E200021B303F1FF3C84441CF8015F95429FB23B
:102E300015D91CF805EC964511D2A7EB010CBCF195
:102E4000270F3B462ADCB74210D839464B1C954227
:102E50009BB2DFD8B34209D8C55C1946D6E7013723
:102E6000BFB2B7F5207F03F10103DDD1134B188802
:102E7000DFED136A019A236807EE900AF8EEE77A0D
:102E800086EEA77AF3EE097AB4EE677AF1EE10FADD
:102E9000C8BF3E209A420AD103B0F0BD781A0B4455
:102EA000084A064980B25B1008801380E0E7FFF70C
:102EB00077F900BF000B0020CDCCCCCC440B002018
:102EC0000040C444460B0020000000000000000049
:102ED0002DE9F04F2DED028B2C4D2D4BAA692D497C
:102EE0009161ADF5237D0DF1040A1B68A193504655
:102EF0004FF4207200210EF00BF9274FDFF8A48069
:102F0000DFF8A490254E9FED268A202383F31188B5
:102F100004F076FA03F034FAD5F828B003F050FA4A
:102F200004F086FA2B68AB4207D0AA699B689268C6
:102F30009A4202D2484603F083F9002484F31188B0
:102F40003046CDF800B004F01BFB01F0E9FC23464D
:102F5000C25CC3F34E01023322F00702B3F5A06F47
:102F60000AF80120F4D15046FFF73AFF388038B113
:102F700007EE900AF8EEE77A88EE277A88ED007A75
:102F800000980099643103F073FFBEE7F8720020E7
:102F9000000B002070460108DC490020380B00209F
:102FA0000040C444D84900208046010800000000C9
:102FB00030B50E4C0E4B22680E4885B000250392AA
:102FC0004FF4AF614022009503F0BAFE0A4B009522
:102FD00040220A484FF4507103F0B2FE039A23686E
:102FE0009A4201D105B030BDFFF7DAF8000B00209E
:102FF000D12E0008204D0020312D0008E04900208E
:1030000030B5124C124B22681D8883B09620019275
:10301000FFF74EFD70B10F4B1B88C72B10D9B5F5CC
:10302000967F0FD96FF496731D44B5F5967F2CBF2C
:1030300000200220019A23689A4205D103B030BDD6
:103040000020F7E70320F5E7FFF7AAF8000B0020C0
:10305000460B0020DC4900200000000000000000BA
:1030600010B5DFED150A154C82B023680193B0EE60
:10307000600AFBEE0E1AB3EE0E1AFFF779FDF3EEBF
:103080000E1AF2EE0E0AB0EE611AB0EE600AFFF709
:103090006FFD019A23689A420CD1DFED070AF3EE27
:1030A0000E1AB0EE600ABBEE0E1A02B0BDE8104078
:1030B000FFF75EBDFFF774F8CD758640000B00206A
:1030C00010B52E4C82B0F3EE0E1A23680193B0EEC9
:1030D000611AF0EE610AB0EE610AFFF749FDDFED1B
:1030E000280AFBEE0E1AB0EE600AB3EE0E1AFFF7D6
:1030F0003FFDF3EE0E1AF2EE0E0AB0EE611AB0EEDC
:10310000600AFFF735FDDFED1F0AF3EE0E1AB0EE91
:10311000600ABBEE0E1AFFF72BFDF3EE0E1AF2EE6D
:103120000E0AB0EE611AB0EE600AFFF721FDDFED86
:10313000140AFBEE0E1AB0EE600AB3EE0E1AFFF799
:1031400017FDF3EE0E1AB0EE611AF0EE610AB0EE62
:10315000610AFFF70DFD019A23689A420CD1DFED59
:103160000A0AFBEE0E1AB0EE600AB3EE0E1A02B0B7
:10317000BDE81040FFF7FCBCFFF712F8000B002081
:10318000BC47B340BC473340CD750641000000004A
:1031900010B5DFED3D0A3D4C82B023680193B0EEDF
:1031A000600AF3EE0E1ABBEE0E1AFFF7E1FCF3EE27
:1031B0000E1AF2EE040AB0EE611AB0EE600AFFF7E2
:1031C000D7FCDFED310AFBEE0E1AB0EE600AB3EE6B
:1031D0000E1AFFF7CDFCF3EE0E1AB0EE611AF0EE08
:1031E000610AB0EE610AFFF7C3FCDFED270AFBEED0
:1031F0000E1AB0EE600AB3EE0E1AFFF7B9FCF3EE4A
:103200000E1AF3EE040AB0EE611AB0EE600AFFF790
:10321000AFFCDFED1D0AFBEE0E1AB0EE600AB3EE56
:103220000E1AFFF7A5FCF3EE0E1AB0EE611AF0EEDF
:10323000610AB0EE610AFFF79BFCDFED130AFBEEBB
:103240000E1AB0EE600AB3EE0E1AFFF791FCF3EE21
:103250000E1AF2EE040AB0EE611AB0EE600AFFF741
:1032600087FC019A23689A420CD1DFED070AFBEE36
:103270000E1AB0EE600AB3EE0E1A02B0BDE81040AE
:10328000FFF776BCFEF78CFFCD758640000B002063
:1032900010B52E4C82B0F3EE0E1A23680193B0EEF7
:1032A000611AF0EE610AB0EE610AFFF761FCDFED32
:1032B000280AFBEE0E1AB0EE600AB3EE0E1AFFF704
:1032C00057FCDFED240AF3EE0E1AB0EE600AB0EE02
:1032D000611AFFF74DFCDFED1E0AF3EE0E1AB0EE99
:1032E000600ABBEE0E1AFFF743FCF3EE0E1AB0EEC7
:1032F000611AF0EE610AB0EE610AFFF739FCDFED0A
:10330000160AFBEE0E1AB0EE600AB3EE0E1AFFF7C5
:103310002FFCF3EE0E1AB0EE611AF0EE610AB0EE79
:10332000610AFFF725FC019A23689A420CD1DFED70
:103330000A0AFBEE0E1AB0EE600AB3EE0E1A02B0E5
:10334000BDE81040FFF714BCFEF72AFF000B002079
:10335000500AEF4000000042CD7506410000000019
:1033600010B5424C82B0F3EE0E1A23680193B0EE12
:10337000611AF0EE610AB0EE610AFFF7F9FBDFEDCA
:103380003C0AFBEE0E1AB0EE600AB3EE0E1AFFF71F
:10339000EFFBF3EE0E1AF1EE040AB0EE611AB0EE96
:1033A000600AFFF7E5FBDFED330AFBEE0E1AB0EE25
:1033B000600AB3EE0E1AFFF7DBFBDFED2F0AF3EE28
:1033C0000E1AB0EE600AB0EE611AFFF7D1FBDFED26
:1033D000290AFBEE0E1AB0EE600AB3EE0E1AFFF7E2
:1033E000C7FBF3EE0E1AF2EE040AB0EE611AB0EE6D
:1033F000600AFFF7BDFBDFED1F0AFBEE0E1AB0EE11
:10340000600AB3EE0E1AFFF7B3FBDFED1B0AF3EE13
:103410000E1AB0EE600AB0EE611AFFF7A9FBDFEDFD
:10342000150AFBEE0E1AB0EE600AB3EE0E1AFFF7A5
:103430009FFBF3EE0E1AF1EE040AB0EE611AB0EE45
:10344000600AFFF795FB019A23689A420CD1DFEDE1
:10345000080AFBEE0E1AB0EE600AB3EE0E1A02B0C6
:10346000BDE81040FFF784BBFEF79AFE000B00207A
:10347000CD758640CD750640713D6241000000006B
:1034800010B5DFED3D0A3D4C82B023680193B0EEEC
:10349000600AFBEE0E1AB3EE0E1AFFF769FBDFEDC2
:1034A000380AF3EE0E1AB0EE600AB0EE611AFFF7BA
:1034B0005FFBDFED340AFBEE0E1AB0EE600AB3EEEE
:1034C0000E1AFFF755FBF3EE0E1AF3EE040AB0EEF8
:1034D000611AB0EE600AFFF74BFBDFED2B0AFBEE43
:1034E0000E1AB0EE600AB3EE0E1AFFF741FBF3EED0
:1034F0000E1AF3EE040AB0EE611AB0EE600AFFF79E
:1035000037FBDFED210AFBEE0E1AB0EE600AB3EED8
:103510000E1AFFF72DFBF3EE0E1AF3EE040AB0EECF
:10352000611AB0EE600AFFF723FBDFED160AFBEE2F
:103530000E1AB0EE600AB3EE0E1AFFF719FBDFEDBC
:10354000100AF3EE0E1AB0EE600AB0EE611AFFF741
:103550000FFB019A23689A420CD1DFED0C0AF3EEBF
:103560000E1AB0EE600ABBEE0E1A02B0BDE81040B3
:10357000FFF7FEBAFEF714FE500A6F3F000B002063
:10358000000020420629D1401757A440500AEF40BE
:1035900030B54368174D1A68296883B00446019115
:1035A00012B304220270DA681B6852081146984769
:1035B0002378042B18D0202383F3118803F050FFC5
:1035C00002F01EFF04F10800002103F049FD02F0A3
:1035D00037FF03F05DFF002383F31188019A2B6806
:1035E0009A4204D103B030BD02232370E3E7FEF713
:1035F000D7FD00BF000B002000000000000000000D
:1036000070B5194D82B02B68019311F00C0F0C4668
:10361000064622D114F0200109D0019A2B689A4263
:103620001FD1304602B0BDE87040FFF7B1BFE306DE
:103630000DD57268136853B1019C2868844210D17B
:10364000D2683046520802B0BDE870401847019A6F
:103650002B689A4205D102B070BD044802F0F0FD1B
:10366000D8E7FEF79DFD00BF000B0020B046010823
:1036700070B5194D82B02B68019311F00C0F0C46F8
:10368000064622D114F0200109D0019A2B689A42F3
:103690001FD1304602B0BDE87040FFF779BFE306A6
:1036A0000DD57268136853B1019C2868844210D10B
:1036B000D2683046520802B0BDE870401847019AFF
:1036C0002B689A4205D102B070BD044802F0B8FDE3
:1036D000D8E7FEF765FD00BF000B0020B0460108EB
:1036E00030B50F4D0F4C2A680F4B83B02046019226
:1036F0004FF6FF721A8000F013FC0C4B01992A68F8
:103700000B480C4D2562636203F1240591420A4B7C
:103710002363C4E90A5001D103B030BDFEF740FD78
:10372000000B0020B05200209852002038530108AE
:103730001E010100003C00404600010000000000A6
:1037400070B52C4D03782A6882B0012B0446019293
:1037500024D06368E26A5989236B22F4F04223F48F
:10376000F043090544BF42F4205243F42053C4E916
:103770000B23236A00221A606268236A52891A6046
:10378000236A03225A60226A136843F040031360DD
:10379000019A2B689A422BD102B070BD164EB042EE
:1037A0000AD0D4E9083212680C339360A26A236A03
:1037B00012680C339360CCE70346104A406A0A2132
:1037C00007F066FD80B9B06A0B4B0D4A0A2107F07D
:1037D0005FFD28B90B4A136C43F400431364E0E720
:1037E000094802F02DFDF5E7074802F029FDEAE758
:1037F000FEF7D6FC000B0020B05200207136000806
:103800000136000800380240904601080000000020
:1038100070B5456A174C2D68266882B00196EB603A
:10382000436A1B685960456AC36A2D6843F4806324
:103830002B60836A1B68DA60836A1B685960826A3E
:10384000036B126843F480631360436A1A68136859
:1038500043F001031360836A1A68136843F001039D
:103860001360019A23689A4201D102B070BDFEF73D
:1038700097FC00BF000B00200000000000000000CB
:1038800030B5104D81682B680F4A83B001930B68E7
:1038900023F001030B608168946A03E0936A1B1BA9
:1038A000C72B09D8086810F00100F7D1019A2B68DE
:1038B0009A4204D103B030BD4FF0FF30F6E7FEF777
:1038C0006FFC00BF000B0020F87200200000000019
:1038D00030B5184D83B02B68019311F00C0F0446DE
:1038E0000AD00378032B13D00622636822709A68EB
:1038F0001AB100212046904763685B688BB101993B
:103900002A68914213D1204603B0BDE830401847E1
:10391000FFF7B6FF0622636822709A68002AE8D192
:10392000EBE7019A2B689A4201D103B030BDFEF754
:1039300037FC00BF000B002000000000000000006A
:10394000F0B5284D83B02B68019303F021FD02F000
:1039500097FD254B1E69F20715D55A69234C42F095
:1039600001025A612778BB1F012B2AD905226368FF
:1039700022701B680BB120469847042F27D0022FD6
:1039800025D003232370B30710D5174A174C53696A
:1039900043F0020353612378032B1DD063689B68B7
:1039A0000622227013B101211048984702F090FDC1
:1039B000019A2B689A4213D103B0BDE8F04004F09D
:1039C0000FBD019A2B689A420AD103B0F0BD0223C1
:1039D0002370B307EAD5D8E72046FFF751FFDDE7AC
:1039E000FEF7DEFB000B0020000005509C5200207B
:1039F00030B50B4D0B4C2B6883B02046019300F083
:103A00002FF9019A2B680848084D094921619A420B
:103A1000C4E9025001D103B030BDFEF7C1FB00BFC5
:103A2000000B00209C5200208C5301080000055020
:103A30001655020200000000000000000000000017
:103A40002DE9F0412F4C0578266882B0012D0196B2
:103A500006D0019A23689A4252D102B0BDE8F081A3
:103A6000294DA842F5D10E4690461F46274AE868E0
:103A70002B460C2107F00CFC002839D1D5E9023285
:103A8000126828339360EB681A68042151611B683F
:103A9000C3F80C80EB681A6817611B68B6085E6093
:103AA0002B694FB343F480232B61E968184A0968F6
:103AB0000B60EB6819680B6843F001030B60536BF4
:103AC00043F0010353630B214E2007F0C1F8D5E901
:103AD0000113DA6842F00102DA60DA6842F00202A9
:103AE000DA60CA6822F4804222F001021A60B0E76C
:103AF000084802F0A5FBC1E723F480232B61D4E73B
:103B0000FEF74EFB000B00209C520020D13800082D
:103B100000380240C046010800000000000000001C
:103B200030B5184C0378226883B0022B019205D07F
:103B3000019A23689A4223D103B030BD124B9842B8
:103B40000546F5D18168114A0B6823F4804323F0C0
:103B500001030B608168CB6823F00F03CB60536BCC
:103B600023F0010353634E2007F09AF8019A23686B
:103B70009A4205D1E86803B0BDE8304007F0F0BBD9
:103B8000FEF70EFB000B00209C5200200038024084
:103B900000B50F4B0278196883B0022A01910ED14B
:103BA00081680A6842F002020A6081680A6842F489
:103BB00080420A6081680A6842F001020A60019A44
:103BC0001B689A4202D103B05DF804FBFEF7E8FAE5
:103BD000000B0020000000000000000000000000BA
:103BE00000B50F4B0278196883B0022A01910ED1FB
:103BF00081680A6822F002020A6081680A6842F459
:103C000080420A6081680A6842F001020A60019AF3
:103C10001B689A4202D103B05DF804FBFEF7C0FABC
:103C2000000B002000000000000000000000000069
:103C300000B5074B83B01A680192019A1B689A423B
:103C400004D103B05DF804EBFFF7D2BEFEF7A8FA8B
:103C5000000B002000000000000000000000000039
:103C600000B5084B83B01A68019201220270019AD4
:103C70001B6800219A42416002D103B05DF804FB49
:103C8000FEF78EFA000B002000000000000000008C
:103C90002DE9F043254D83B02C680194DDF8289080
:103CA0000F4616469846044618B111B1204B9A4269
:103CB0002FD9204802F0C4FA202383F3118803F09F
:103CC0009FFB02F05DFB2378012B02D0194802F024
:103CD000B7FA4246314620464B466760FFF7B0FED2
:103CE0000223237002F06CFB03F0A2FB124B1A6854
:103CF0009A4204D0996993688A689A420FD3002344
:103D000083F31188019A2B689A420CD103B0BDE865
:103D1000F0839307CDD1B8F1000FCDD1C9E70748A3
:103D200002F08EFAEBE7FEF73BFA00BF000B002033
:103D3000FCFF0300F0460108F8720020E04601088D
:103D400030B51C4D83B02B680193044658B3202333
:103D500083F3118803F054FB02F012FB2378022B4B
:103D600002D0154802F06CFA2046FFF7D9FE012375
:103D7000237002F025FB03F05BFB104B1A689A429C
:103D800004D0996993688A689A4208D3002383F320
:103D90001188019A2B689A4209D103B030BD0848B6
:103DA00002F04EFAF2E7044802F04AFACFE7FEF7D3
:103DB000F7F900BF000B002000470108F87200204F
:103DC000E0460108000000000000000000000000C4
:103DD00030B51C4D83B02B680193044658B32023A3
:103DE00083F3118803F00CFB02F0CAFA2378022B4C
:103DF00002D0154802F024FA2046FFF7C9FE04233A
:103E0000237002F0DDFA03F013FB104B1A689A429C
:103E100004D0996993688A689A4208D3002383F38F
:103E20001188019A2B689A4209D103B030BD084825
:103E300002F006FAF2E7044802F002FACFE7FEF7D2
:103E4000AFF900BF000B002010470108F8720020F6
:103E5000E046010800000000000000000000000033
:103E600030B51C4D83B02B680193044658B3202312
:103E700083F3118803F0C4FA02F082FA2378022B4C
:103E800002D0154802F0DCF92046FFF7A9FE032313
:103E9000237002F095FA03F0CBFA104B1A689A429D
:103EA00004D0996993688A689A4208D3002383F3FF
:103EB0001188019A2B689A4209D103B030BD084895
:103EC00002F0BEF9F2E7044802F0BAF9CFE7FEF7D4
:103ED00067F900BF000B002030470108F87200208E
:103EE000E0460108000000000000000000000000A3
:103EF00000B5074B83B01A680192019A1B689A4279
:103F000004D103B05DF804EBFFF7EABBFEF748F914
:103F1000000B002000000000000000000000000076
:103F200000B50A4B83B01A68019201220270019910
:103F30001A6800239142C0E9013305D10C3003B067
:103F40005DF804EB03F094BBFEF72AF9000B0020A8
:103F500070B51E4D82B02B6801930E46044670B3B7
:103F600069B3202383F3118803F04AFA02F008FAB8
:103F70002378013B012B02D9154802F061F9204654
:103F80006660FFF7DDFB0223237002F019FA03F0ED
:103F90004FFA104B1A689A4204D0996993688A685C
:103FA0009A4208D3002383F31188019A2B689A421E
:103FB00009D102B070BD084802F042F9F2E70448A6
:103FC00002F03EF9CDE7FEF7EBF800BF000B002052
:103FD00050470108F8720020404701080000000027
:103FE0002DE9F041214D82B02C6801940E46904697
:103FF0001F46044600B171BB1D4802F021F9202381
:1040000083F3118803F0FCF902F0BAF92378022B4C
:1040100002D0174802F014F903203B4642463146CD
:1040200020702046FFF7F4FB02F0CAF903F000FA13
:10403000104B1A689A4204D0996993688A689A4228
:104040000ED3002383F31188019A2B689A420BD177
:1040500002B0BDE8F081002BCED0002ACFD1CBE753
:10406000054802F0EDF8ECE7FEF79AF8000B0020A7
:1040700060470108F8720020404701080000000076
:104080002DE9F04F394A3A4B126883B0012401926E
:104090001C70002963D04FF00008364CC246C3465E
:1040A000C1464746C446434647F6FF7E1DE0AB4542
:1040B000A8BFAB46024432F9026CB2F90450B442D4
:1040C000B8BF3446B645A8BFB6464D4545DCA84501
:1040D000A8BFA846B2F90220BA420EDC04339245CA
:1040E0009BB2A8BF924699420CD95D1C6A0030F978
:1040F00015506545DBDDAC46DCE704339BB29942E5
:104100001746F2D8A4EB0E04ACEB0B0CA7EB0A0796
:10411000A9EB0808A4B21FFA8CFCBFB21FFA88F8FA
:10412000154A12491480019C0968144BA2F802C078
:104130009780B0F8F8C4B0F8FA64A2F80680B0F836
:10414000FC54B0F8FE24A3F800C08C425E809D8031
:10415000DA8008D103B0BDE8F08FA946BAE78846F7
:104160000F468C46DCE7FEF71BF800BF000B002073
:10417000E45200200080FFFFF0520020E8520020AF
:1041800070B53F4B3F4C1A78236882B0012A0193E7
:1041900005D0019A23689A4270D102B070BD3A49A5
:1041A0003A4B4D6C45F480354D644E6A002546F41B
:1041B00080364E624D621D61DD60196A21F0010199
:1041C0001962996921F003019961996941F001012E
:1041D0009961996921F0F0019961196A21F00A0148
:1041E0001962996921F00C019961996821F07001B7
:1041F0009960996841F050019960996821F4803183
:1042000021F007019960996841F0070199601968E8
:1042100021F440711960DA629D625A61196A21F0D5
:1042200010011962996921F440719961996921F02D
:10423000807121F4E0419961996941F4C04199612B
:10424000196A21F0A00119629A639A6942F4006226
:104250009A611A6A22F480621A621A6A42F01102A2
:104260001A621A6842F001021A6020B10090684692
:1042700000F076F98DE7064B0093F8E7FDF790FF25
:1042800034800020000B0020003802400040014034
:104290008140000800000000000000000000000055
:1042A00070B5114C82B0236801930E461546202349
:1042B00083F3118803F0D4F802F0A2F80B4B0C48FA
:1042C000C3E9006503F094F902F0BAF803F0E0F8EE
:1042D000002383F31188019A23689A4201D102B026
:1042E00070BDFDF75DFF00BF000B002008680020D7
:1042F000F852002000000000000000000000000054
:1043000070B5114C82B0236801930E4615462023E8
:1043100083F3118803F0A4F802F072F80B4B0C48F9
:10432000C3E9006503F064F902F08AF803F0B0F81D
:10433000002383F31188019A23689A4201D102B0C5
:1043400070BDFDF72DFF00BF000B0020EC650020C5
:10435000F8520020000000000000000000000000F3
:104360002DE9F04F624B63499A69634B916185B0C7
:104370001B6803935E4B9B6993F821305B0700F148
:10438000AD805E4803F0FCF85C4803F0F9F8584B48
:104390009B6993F8212012F0040240F09F80584D51
:1043A00058482B6801680446406805EB830304EB1A
:1043B000810103F50279430001F10808019343D01C
:1043C000DFF850B1504BDFF85CA1012018F8125013
:1043D00018F8006019F8121019F8004005F0550C93
:1043E000770806F0550613F80CC09E5D01F0550ED7
:1043F0004CEA061649084FEA540C01F0550104F046
:1044000055040CF0550C6D0813F80EE0595C1C5D5A
:1044100013F80CC00BF8126005F0550507F05507AE
:1044200041EA0C114EEA041E0AF812E05D5D0AF83A
:104430000010DF5D0199013245EA071591420BF842
:10444000005000F10200C1D1304B31493148324DAA
:104450000422FCF70DF8314B314932480422FCF7B5
:1044600007F8314B314932480422FCF701F8314B4F
:10447000314932480422FBF7FBFFDFF8D4C028683B
:104480009CF80070224A264900EBC71302F140064F
:1044900014881C8054885C804C889C80043231F8DD
:1044A000044BDC80964203F10803F1D1092F11D1AE
:1044B000234B00221B688CF800204FF42071984792
:1044C0002B68204A204993420B6006BF1F4B2B608C
:1044D0002A604FE701378CF800704BE7064B039AD0
:1044E0001B689A4202D105B0BDE8F08FFDF758FE77
:1044F000F872002080470108000B0020F8520020CD
:1045000008680020EC650020480B0020C4630020F0
:1045100080580020C0580020C80B00202C640020C8
:1045200094640020D4640020F863002082580020A6
:10453000C15800206064002096640020D5640020EB
:10454000D4650020C0590020CC0B0020C05E0020A4
:10455000C063002000000000000000000000000018
:104560002DE9F04F494A0168494B116085B000219F
:104570000E461B684748039302F0A2FF4FF4AF6159
:10458000454B009641224548454DDFF84891454C42
:10459000DFF844A1444F02F0D3FB444B444A186077
:1045A000136BC5F804A043F480534FF002184FF486
:1045B0007A5B13632846C5E90298A5F800B0FBF7BB
:1045C0009FFE2046C4E901A9C4F80C80A4F800B0FD
:1045D000FBF796FE05F13400C5E90EA9C5F8408049
:1045E000A5F834B0FBF78CFE324DC4F8408004F1DE
:1045F0003400C4E90EA9A4F834B0FBF781FE3146BB
:1046000040F20C4238460CF083FDDFF8D0902A4A85
:104610006E604FF400634FF080082E812A606B813A
:10462000264CC5F80C80C7F80894FFF761FC2946B2
:104630002348244DFFF78CFC07F5027307F10802AD
:104640004FF480711E48FFF7CBFC314620464FF4F3
:1046500003720CF05DFD1C4B1C4AC4F80892083430
:104660001A611946C3E900641948C3E9028504F0D8
:104670007FFB074B039A1B689A4205D1144805B08B
:10468000BDE8F04F04F0BCBBFDF78AFDD465002007
:10469000000B0020F852002061430008085300205E
:1046A000C46300202C64002008680020045300200C
:1046B00000380240F8670020A1420008EC650020A5
:1046C000B052002001430008D86500202C030800E8
:1046D00034800020000020410000FA45EFBEADDE2E
:1046E00000B5064B83B01A680192019A1B689A4282
:1046F00002D103B05DF804FBFDF752FD000B002072
:1047000000B5064B83B01A680192019A1B689A4261
:1047100002D103B05DF804FBFDF742FD000B002061
:1047200010B5104C104B226882B0019201221A7011
:10473000202383F3118802F093FE01F061FE0B4801
:1047400003F0B6F901F07CFE02F0A2FE002383F331
:104750001188019A23689A4201D102B010BDFDF779
:104760001FFD00BF000B0020206C0020D00B00209C
:1047700030B50E4D0E4C2B6883B00193FFF758FAFD
:10478000206808B10CF0FCF94FF496400CF0F0F9F9
:1047900001992A682060B0FA80F35B099142C3F165
:1047A000000001D103B030BDFDF7FAFC000B002082
:1047B000186C002000000000000000000000000055
:1047C00030B5174D174C2B78226885B0012B03921A
:1047D00020D000F0D5FB144B1B78ABB9B0F5964F49
:1047E00015D8124A124B12681B68124900920246F1
:1047F0001148FFF74DFA01232B700020039A23681C
:104800009A420BD105B030BDB0F5165FE9D94FF033
:10481000FF30F3E70848FFF793FADAE7FDF7C0FC4B
:10482000156C0020000B0020166C00201C6C002072
:10483000186C0020904701089C52002000000000E6
:1048400010B50B4C0B48236882B0019302F0F8FFBF
:10485000094803F0D5F9019A23689A4205D1054821
:1048600002B0BDE8104003F023B8FDF799FC00BF8B
:10487000000B0020D80B0020D00B0020000000000F
:1048800030B5154D154C164B2268286883B001923F
:1048900001221A7008B10CF073F94FF416500CF0A5
:1048A00067F9286098B10F4D286808B10CF068F9D5
:1048B0004FF416500CF05CF9B0FA80F35B092860F5
:1048C0005842019A23689A4204D103B030BD4FF098
:1048D000FF30F6E7FDF764FC186C0020000B0020A9
:1048E000166C00201C6C002000000000000000007E
:1048F00000B5074B07491A68087083B00192019A06
:104900001B689A4202D103B05DF804FBFDF748FC36
:10491000000B0020146C00200000000000000000CC
:1049200000B50D4A0D4B1278196883B0019142B160
:104930000B4AD26812681268120302D4094A10683E
:1049400001E0094A1068019A1B689A4202D103B03B
:104950005DF804FBFDF724FC166C0020000B002022
:104960009C5200201C6C0020186C002000000000ED
:1049700000B50E4A0E4B1278196883B001914AB106
:10498000019A1B689A420FD10A4803B05DF804EB04
:10499000FFF766BA019A1B689A4205D1054803B031
:1049A0005DF804EBFFF714BAFDF7FAFB146C002076
:1049B000000B00209C5200200000000000000000BE
:1049C00070B5274D82B02B68019306460122032162
:1049D0006E2000F04DFB044630B1019A2B689A42DC
:1049E00020463AD102B070BD32464E216E2000F012
:1049F0003FFB04460028F0D1442E07D00246B721E1
:104A00006E2000F035FBB8B10446E6E70122B7217D
:104A10006E2000F02DFB0028F6D1224603216E20E7
:104A200000F026FB0028EFD1032211216E2000F0B8
:104A30001FFB78B10446D0E7224603216E2000F028
:104A400017FB0028E0D10A2211216E2000F010FB94
:104A50000028D9D1034B1E71BFE7FDF7A1FB00BFB2
:104A6000000B0020246C002000000000000000006B
:104A70002DE9F04F8FB0DFF80084DDF860C0D8F882
:104A800000400D940CF1FF355C1EB3F5207F9DF8BE
:104A900064909DF868B00C44154400F21282BCF595
:104AA000F07F00F20E82B1F5207F0E4600F21282F6
:104AB000B2F5F07F174600F21082A14280F0048226
:104AC000B4F5207F00F20082AA4280F00082B5F5A2
:104AD000F07F00F2FC81B9F1400F824600F0B08116
:104AE000B9F1800F23D0B9F1200F00F09C81002391
:104AF000CDE90033BBF1400F2FD0BBF1800F00F0A8
:104B0000CB81BBF1200F00F0B9810023CDE9023346
:104B1000002203216E2000F0ABFAA0B30D9AD8F862
:104B200000309A4240F0E2810FB0BDE8F08F9A0762
:104B300040F0D681CC4A8C085900661CA2FB0101CA
:104B4000A2FB030204EB930406EBD2030093BBF138
:104B5000400F06EBD1030193CFD11CF0010F40F0C1
:104B6000C281C14B7D084FEA4C026F1CA3FB0212AD
:104B7000A3FB0C1307EB9303029307EB920305EBE4
:104B80005C050393C4E702465B216E2000F070FAD7
:104B90000028C3D15046FFF713FF0028BED10246BC
:104BA00003216E2000F064FA0028B7D1C6F3072372
:104BB0001A4608216E20049300F05AFA0028ADD15D
:104BC000F3B21A4609216E20059300F051FA00282D
:104BD000A4D1C7F307231A460A216E20069300F0DA
:104BE00047FA00289AD1FBB21A460B216E20079390
:104BF00000F03EFA002891D1C4F307231A460C2195
:104C00006E20089300F034FA002887D1E3B21A46E8
:104C10000D216E20099300F02BFA00287FF47EAF5F
:104C2000C5F307231A460E216E200A9300F020FADE
:104C300000287FF473AFEBB21A460F216E200B935E
:104C400000F016FA00287FF469AF049A35216E202F
:104C500000F00EFA00287FF461AF059A36216E202D
:104C600000F006FA00287FF459AF089A37216E2029
:104C700000F0FEF900287FF451AF099A38216E2028
:104C800000F0F6F900287FF449AF069A39216E202A
:104C900000F0EEF900287FF441AF079A3A216E2028
:104CA00000F0E6F900287FF439AF0A9A3B216E2024
:104CB00000F0DEF900287FF431AF0B9A3C216E2022
:104CC00000F0D6F900287FF429AF009B3D21C3F303
:104CD00007226E2000F0CCF900287FF41FAF9DF86A
:104CE00000203E216E2000F0C3F900287FF416AFAB
:104CF000019B3F21C3F307226E2000F0B9F9002881
:104D00007FF40CAF9DF8042040216E2000F0B0F934
:104D100000287FF403AF029B4121C3F307226E20DA
:104D200000F0A6F900287FF4F9AE9DF80820422192
:104D30006E2000F09DF900287FF4F0AE039B432124
:104D4000C3F307226E2000F093F900287FF4E6AE4B
:104D50009DF80C2044216E2000F08AF900287FF491
:104D6000DDAE012203216E2000F082F900287FF4DD
:104D7000D5AE4A4693216E2000F07AF900287FF4E0
:104D8000CDAE5A4694216E2000F072F900287FF4CF
:104D9000C5AE012203216E2000F06AF900287FF4DD
:104DA000BDAE0134A31B07EE103ADFED307AB8EE4A
:104DB000477ABAF1440F77EEC77A00F09980B0EEE7
:104DC000006AF2EE006AE7EE066A77EEA77AB0EEC6
:104DD000667A67EE877ADFED266A87EEA67AFCEEC2
:104DE000C77ACDED007A009B9521C3F307226E2090
:104DF00000F03EF900287FF491AE9DF80020962146
:104E00006E2000F035F900287FF488AE194B01358B
:104E1000EF1BA41B5F801C8083F804A083F805901F
:104E200083F806B07AE610495A00A1FB030306EBAB
:104E30005303A1FB0212009306EB5203019359E6C0
:104E4000D9074DD4084A74085900661CA2FB010119
:104E5000A2FB030204EB530406EB9203009306EB60
:104E60009103019346E600BFABAAAAAA0000224420
:104E70000000A344246C0020000B0020244A4FEAC9
:104E80004C03A2FB0C1CA2FB032307EB530307EB11
:104E90005C02029203933BE61CF0030F23D11C4BF0
:104EA000BD084FEA4C026F1CA3FB0212A3FB0C13BC
:104EB00007EBD303029307EBD20305EB9C050393A7
:104EC00026E66FF0070029E66FF0030026E66FF094
:104ED000040023E66FF0010020E66FF002001DE6FB
:104EE0006FF005001AE66FF0060017E6FDF758F9B7
:104EF000F2EE006A37EE267ADFED066A67EE277A71
:104F000087EEA67AFCEEC77ACDED007A6BE700BF9C
:104F1000ABAAAAAA00002444000000000000000080
:104F200010B5114C86B02368059300F081F80F4945
:104F30000F4803F0DDFF012200210D4804F070F856
:104F400020237822CDE901330092A023B422F0215E
:104F50000220FFF78DFD059A23689A4201D106B021
:104F600010BDFDF71DF900BF000B0020A047010890
:104F70001081002000000000000000000000000080
:104F800010B50A4B0A4A1988146858881B7982B0F0
:104F9000442B019400FB01F00199136818BF4000F5
:104FA000994201D102B010BDFDF7FAF8246C00203F
:104FB000000B0020000000000000000000000000C6
:104FC00070B5164E16483368154D82B005224FF461
:104FD0008071019307F084FF20246B6983F4807350
:104FE0006B61012001F004FF631E13F0FF04F4D194
:104FF0004FF4807140F206222983094807F070FFC0
:10500000019A33689A4206D10649074802B0BDE8C2
:10501000704003F025BDFDF7C3F800BF000B002072
:1050200000040240E0470108787D002000000000F5
:1050300000B50C4A0C4B1278196883B0012A019113
:10504000019A1B6804D09A4209D103B05DF804FBB1
:105050009A4204D103B05DF804EBFFF7B1BFFDF74E
:105060009FF800BF787D0020000B002000000000AA
:10507000F0B5214C214E89B03368079307460025CF
:1050800020468DF818108DF819208DF8145003F073
:10509000FFFD2378012B0CD0042205AB0195029271
:1050A00000933946022306AA204603F081FD0546F7
:1050B00048B9114803F00CFE0020079A33689A4261
:1050C00017D109B0F0BD204603F05AFD23780C4AF1
:1050D000052B106004D0084803F0FAFD68B2ECE735
:1050E000204603F005FD2378012BF4D1FFF768FF7C
:1050F000F1E7FDF755F800BF787D0020000B002098
:105100002C6C0020000000000000000000000000E7
:105110002DE9F043254E83B034680194042A9DF8AC
:105120002890144605460F46984639D9B9F1000F24
:1051300014BF00224FF08052640002EB0863013C70
:105140001C4405F00F0527F01F07202383F3118867
:1051500002F056F93D4301F013F9154B1035DD60AF
:105160001C6101F02DF902F063F9124B1A689A42A2
:1051700004D0996993688A689A420DD3002383F317
:105180001188BFF36F8FBFF34F8F019A33689A4234
:105190000AD103B0BDE8F083074801F051F8EDE70C
:1051A000064801F04DF8C1E7FCF7FAFF000B0020BC
:1051B00090ED00E0F87200207048010850480108A6
:1051C00030B5224D224C2B68224A85B00393636888
:1051D00043F004036360536A43F480335362202333
:1051E00083F3118802F00CF901F0CAF817221A4B68
:1051F000E260236101F0E4F802F01AF9174B1A6833
:105200009A4204D0996993688A689A4218D3002018
:1052100080F31188BFF36F8FBFF34F8F03231D22DD
:1052200000904FF00051FFF773FF094A536843F0B5
:1052300001035360039A2B689A4205D105B030BD33
:10524000074800F0FDFFE2E7FCF7AAFF000B002093
:1052500090ED00E000ED00E009000010F872002081
:10526000704801080000000000000000000000007D
:1052700070B51A4D1A4C1B4E0FCD0FC49EB02A6844
:10528000336822801D93EFF30981682203A8FCF79D
:10529000CFFD154B9D6AAA0714D4EB0708D5124B16
:1052A00008995B6B114A00910D4880210BF080FF3B
:1052B0001D9A33689A420FD109481EB0BDE870406C
:1052C00000F0BEBF099A5B6B0092A4F11000084A7F
:1052D00080210BF06DFFE0E7FCF762FF3448010826
:1052E000306C0020000B002000ED00E010480108A9
:1052F000F04701080000000000000000000000006E
:1053000000B51F4B0278196883B00191E2B11D4AC4
:105310004FF4005111834278EAB11A4A4FF4805198
:1053200011838278F2B1174A4FF480411183C27819
:10533000FAB9144A4FF400415183019A1B689A420A
:105340001CD103B05DF804FB0E4A4FF400515183A9
:105350004278002AE1D10B4A4FF480515183827880
:10536000002AE0D1074A4FF480415183C278002AD5
:10537000DFD0044A4FF400411183DEE7FCF710FF51
:10538000000B0020001002400000000000000000A0
:1053900000B51F4B0278196883B00191E2B11D4A34
:1053A0004FF4007111834278EAB11A4A4FF48071C8
:1053B00011838278F2B1174A4FF400611183C278E9
:1053C000FAB9144A4FF480615183019A1B689A42DA
:1053D0001CD103B05DF804FB0E4A4FF400715183F9
:1053E0004278002AE1D10B4A4FF4807151838278D0
:1053F000002AE0D1074A4FF400615183C278002AA5
:10540000DFD0044A4FF480611183DEE7FCF7C8FE69
:10541000000B00200010024000000000000000000F
:1054200030B50C4A0C4B116883B04FF40055019114
:105430004FF480544FF400414FF480405D835C830F
:105440005883598301991368994201D103B030BD43
:10545000FCF7A6FE000B0020001002400000000038
:1054600030B50C4A0C4B116883B04FF400750191B4
:105470004FF480744FF480614FF400605D835C836F
:105480005883598301991368994201D103B030BD03
:10549000FCF786FE000B0020001002400000000018
:1054A00010B50B4C0B48236882B099220021019360
:1054B00003F0B6FD019A23689A4206D105480021FF
:1054C00002B0BDE8104003F093BEFCF769FE00BFD8
:1054D000000B0020D8800020000000000000000029
:1054E00010B50B4C0B48236882B099220021019320
:1054F00003F096FD019A23689A4206D105480021DF
:1055000002B0BDE8104003F073BEFCF749FE00BFD7
:10551000000B0020F48000200000000000000000CC
:1055200000B5084B83B01A680192019A1B689A4231
:1055300006D10548002103B05DF804EB03F0C0BDBF
:10554000FCF72EFE000B0020D88000200000000099
:1055500000B5084B83B01A680192019A1B689A4201
:1055600006D10548002103B05DF804EB03F0A8BDA7
:10557000FCF716FE000B0020F48000200000000065
:1055800070B51A4C1A4E2378326882B0022B019201
:10559000A26811D165781748013505F0070500EBC1
:1055A0008500904763686570013B6360019A3368CA
:1055B0009A4219D102B070BD012B08D0019933680D
:1055C000994211D10C4802B0BDE87040104765788F
:1055D0000848013D05F0070500EB8500904763682A
:1055E000657001336360E1E7FCF7DAFDC86C002009
:1055F000000B0020104901080049010800000000CC
:1056000070B51A4C1A4E2378326882B0012B019281
:10561000A26811D165781748013505F0070500EB40
:10562000850090476368657001336360019A336851
:105630009A4219D102B070BD022B08D0019933688B
:10564000994211D10C4802B0BDE87040104765780E
:105650000848013D05F0070500EB850090476368A9
:105660006570013B6360E1E7FCF79AFDB06C0020D8
:10567000000B00201049010800490108000000004B
:1056800030B51F4D85B02B68039340F24C439942CF
:10569000044626DCA3F69803994211DB4B00002B4D
:1056A00029D10370036998474FF47A71039A2B68E4
:1056B0009A421ED1606905B0BDE8304003F068BC75
:1056C000104B02225B42227040F2892293420E4923
:1056D00091FBF3F189B207DC0191E36898470199E6
:1056E000E4E7012303702D21019123699847019973
:1056F000DCE7FCF755FDE4DD01220270E4E700BFC2
:10570000000B002068F7FFFFA086010000000000EA
:1057100000B5084B83B01A680192019A1B689A423F
:1057200006D10146044803B05DF804EBFFF7A8BFBB
:10573000FCF736FD000B0020B06C002000000000DC
:1057400000B5084B83B01A680192019A1B689A420F
:1057500006D10146044803B05DF804EBFFF790BFA3
:10576000FCF71EFD000B0020C86C002000000000AC
:1057700000B5094B094A1968506883B000EBD07036
:105780000191019A1B689A4203D1401003B05DF861
:1057900004FBFCF705FD00BF000B0020B06C0020EF
:1057A00000B5094B094A1968506883B000EBD07006
:1057B0000191019A1B689A4203D1401003B05DF831
:1057C00004FBFCF7EDFC00BF000B0020C86C0020C0
:1057D00000B5084B08491A6883B040000192019A4D
:1057E0001B6848609A4202D103B05DF804FBFCF7E5
:1057F000D7FC00BF000B0020B06C002000000000B0
:1058000000B5084B08491A6883B040000192019A1C
:105810001B6848609A4202D103B05DF804FBFCF7B4
:10582000BFFC00BF000B0020C86C0020000000007F
:1058300070B51D4E1D4A1E4B30681E491E4C9160AE
:1058400082B00021D46001901C4C1D481D4D9D600C
:10585000117051705160106154611B481B4A1C4DFE
:10586000D8601C48197059705960C3E90425FFF7C6
:1058700047FD1848FFF78CFD1749204603F038FB19
:10588000204603F06DFC2846144903F031FB019AD1
:1058900033689A4205D1284602B0BDE8704003F053
:1058A0005FBCFCF77DFC00BF000B0020C86C002033
:1058B000B06C002001530008A1540008D8800020DB
:1058C0002155000891530008E15400085155000883
:1058D000F480002000490108C04801088048010800
:1058E0000A490B4B09680B4A82B0202001914021E4
:1058F00058834FF4806559834FF400644FF480401F
:1059000004215D835C8358835183FEE7000B0020F4
:10591000000C0240000402400000000000000000F3
:1059200010B51E491E4A0B78106882B0013B0190E9
:10593000072B0AD8DFE803F012151C1F26290F04D5
:1059400018480824012304830B70019913689942B5
:1059500021D102B010BD08230B70F6E702230B70B3
:10596000F3E711484FF48054032304830B70ECE7F2
:1059700004230B70E9E70C484FF4804405230483AB
:105980000B70E2E706230B70DFE7064804240723C9
:1059900004830B70D9E7FCF703FC00BF60700020A4
:1059A000000B002000100240000402400000000034
:1059B00030B50C4B0C4918680C4A83B04FF4804545
:1059C00001904FF480504883042408204D83548371
:1059D0005083019A1B689A4201D103B030BDFCF795
:1059E000DFFB00BF000B002000040240001002405B
:1059F0002DE9F04F4E4B4F4A9B694F499961A5B035
:105A000007AE05AD80231768009331462A4600246F
:105A10000CA84A4B2397CDE90766CDE90555CDE99A
:105A200009440B9400F0DCFA0CA9454A4548434C64
:105A3000454DDFF83481DFF834B1DFF834A100F0F0
:105A4000F7FA04F11C0604F16007A146504601F084
:105A500097FD2A682B69226063602A6A2B6BA2601B
:105A6000E3606A686B69226163616A6A6B6BA26159
:105A7000E361AA68AB6922626362AA6AAB6BA26245
:105A8000E362EA68EB6922636363EA6AEB6B2F49BE
:105A9000A263E36351F8043F0A6AB142A3EB020335
:105AA0000B64F7D1802249460CA800F0F1FA98F86F
:105AB0000030002BCAD09BF8003033B3012BC5D186
:105AC000DFF8B0C02248614650F8042B51F8043F7B
:105AD000B84213440B60F7D11E4A13780133DBB28E
