:020000040800F2
:1000000000040020C1010008816D0008816D000816
:10001000A15E0008816D0008816D0008816D0008F7
:10002000816D0008816D0008816D0008E18F000876
:10003000816D0008816D0008816D000851FC000889
:10004000816D0008D1C9000861CB0008B1CB000860
:10005000816D0008816D000811C7000861C70008A4
:10006000B1C7000801C8000851C8000861B90008FC
:10007000B1B9000801BA000851BA0008A1BA0008D5
:10008000F1BA000841BB000851C4000851CD000876
:10009000C1CD000871CE000821CF0008A1C800081A
:1000A000816D0008816D0008B1F60008816D0008BF
:1000B00011F8000851F8000891F80008E1DC000888
:1000C00021DE0008816D0008816D0008816D000847
:1000D000816D0008816D0008816D000811FD000828
:1000E00031C9000821CA000871CA0008F1F60008E9
:1000F000816D0008816D0008816D000891BB0008CA
:10010000816D0008B1D00008D1F80008816D0008A9
:10011000816D0008816D000871F60008816D00088E
:10012000E1BB000831BC000881BC0008D1BC00085C
:1001300021BD0008816D0008C1CA0008816D00085A
:10014000816D0008816D0008816D000801F10008D3
:1001500071BD0008C1BD000811BE0008816D000816
:10016000816D0008816D0008816D0008816D0008B7
:1001700011CB0008816D000831440008816D000832
:10018000816D0008816D0008816D0008816D000897
:10019000816D0008816D0008816D0008816D000887
:1001A000816D0008816D0008816D0008816D000877
:1001B000816D0008816D0008816D0008816D000867
:1001C00072B62E4880F3098840F20000CCF200009D
:1001D0004EF63471CEF20001086040F20000C0F229
:1001E000F0004EF68851CEF2000108604FF000009A
:1001F000E1EE100A4EF63C71CEF2000108600620D6
:1002000080F31488BFF36F8F0FF0CAFE4FF05530A4
:100210001B491C4A91423CBF41F8040BFAE71A49BA
:10022000164A91423CBF41F8040BFAE71749184AB5
:10023000184B9A423EBF51F8040B42F8040BF8E702
:1002400000201549154A91423CBF41F8040BFAE7DA
:1002500006F07EFD124C134DAC4203DA54F8041B39
:100260008847F9E701F05CFF0F4C104DAC4203DA10
:1002700054F8041B8847F9E706F07ABD000800200F
:1002800000000020000400200004002018A4010841
:1002900000080020C4150020C8150020F8800020A8
:1002A000C0010008C0010008C0010008C00100082A
:1002B0002DE9F04F2DED108AC1F80CD0D0F80CD0FC
:1002C000BDEC108ABDE8F08F06F09AFE07F0D0FE74
:1002D000002383F311882846A047002007F068FC1C
:1002E00007F0AEFE06F06CFE07F08AFA06F088FE14
:1002F00007F0BEFE00DFFEE7000000000000000087
:100300002DE9F843544B80461A68544882422DED3B
:10031000028B1BD052490B68DA0405D40A6842F4F8
:1003200080530B60012000E000204E4A4E491160CE
:1003300013684A4A934208D147490B6030B1484894
:10034000036823F48052026000E0FEE798ED018A22
:10035000B5EE408A0021F1EE10FAC8F81C10C8F87A
:100360001810C8F81410C8F81010C8F82810C8F8E9
:100370002410C8F8201029D0DFED3C7A28EE270A97
:1003800010EE100A01F038F8044618EE100A0D4677
:1003900001F032F80646B8F800000F4601F01AF8EE
:1003A0002BA3D3E9002301F0ADF902460B463046FA
:1003B000394600F0C3FE02460B462046294601F0AE
:1003C000A1F901F055FBA8F82C0001E0A8F82C10C9
:1003D00098ED028AB5EE408AF1EE10FA26D0B8F810
:1003E00000904FEA092000F0F5FF044618EE100ACD
:1003F0000D4601F001F816A3D3E9002301F058F8E7
:10040000064648460F4600F0E5FF02460B463046DA
:10041000394600F093FE02460B462046294601F07D
:1004200071F901F025FBA8F82E0002E00020A8F8E1
:100430002E00B8F800204FF47A73B2FBF3F1A8F85D
:100440003010BDEC028BBDE8F88300BFAFF3008035
:100450001F85EB51B81E1940C8150020CDB5E8B571
:100460003038024000300240C2A507F4000080434B
:100470002DE9F04F9BB083461992A94A1891A948DB
:100480001168814200D0FEE79E6AB3F80CC09F69F4
:100490009A8DD98D039603261C6A5D6A059706928C
:1004A00006FB0CF74FEA8C0206264FEA4C000B9134
:1004B0000E97052106FB0CF70F9207220294049574
:1004C0000D90119701FB0CF04FEACC0602FB0CF1EA
:1004D00000271D695C69D3F81CA010901291179633
:1004E0000197188EDDF80490814580F20A818E48CC
:1004F0009BF800601BF80C7010F80690C25DA144D8
:100500008419511994F8008194F8002201EB4808ED
:10051000CDF81C80DDF834801BF80860855DC719B4
:10052000A9180E9A97F800411BF8022097F800725C
:1005300001EB4405815C0895CC1981190F9E91F857
:10054000008191F8007204EB48081BF80640CDF8D2
:1005500024808218055D92F8006192F80022E91962
:1005600001EB460505EB0807DDF8408015971BF801
:1005700008700A950419C15D94F8005194F800427E
:10058000DDF81C808E1806EB4501119D089A1BF8BA
:1005900005508E18C719425D1696161997F8002156
:1005A00006EB42029044CDF85080129C97F80072FE
:1005B0001BF804604519845DE41995F8007195F8FD
:1005C0000052801904EB47044FF01C0804EB0907A4
:1005D00090F80061139708FB09AADDF81C800C94C1
:1005E0000AEB0209152705EB460490F8005207FBB9
:1005F0000890099FDDF820900A2606FB070A0F27BE
:1006000007FB09A04FF00308DDF8289008FB010064
:100610004FF0060A0AFB0900009015984FF03009C8
:1006200009FB00FADDF858902E2000FB09A0824655
:100630000598824413984FF0240909FB00AA1498E6
:100640004FF02A0909FB00AA0898DDF8249008FB5E
:1006500000F8062000FB0988DDF81C9008EB090073
:1006600007FB01010A9F0C98DDF8009006FB0718B4
:100670001C2606FB008115270B9807FB021205922A
:10068000A9F5003868B1029E049FCDF8108006EBF2
:100690000801CE1B46434FF4807296FBF2F00290A5
:1006A0008046069961B1039E08FB01F8C1F5807789
:1006B00006FB07894FF4807299FBF2F003908046A5
:1006C000199901FB08F7002F02DD0837381103E004
:1006D000083F102697FBF6F047F6BC72019E1349BF
:1006E000189FDDF85C809042A8BF1046DA897243FB
:1006F0008842A8BF0146013627F81210C34401966C
:10070000EFE61D615C61029D059C1D629C61039D7D
:10071000049CC3F81CA05C629D621BB0BDE8F08F16
:10072000C8150020CDB5E8B5000800204480FFFFC3
:100730002DE9F04FA1B0C74C1F92C74A1E91116816
:10074000A14200D0FEE79F6A9A69998DDC8D0497DB
:100750009F89069207910F940322052106241D6AA2
:100760005E6A03957A4379437C43129214911594FF
:10077000072209210A24794305964FEA47084FEAE0
:1007800087097A434FEAC70A7C431E695D69D3F83B
:100790001CB01891CDF84480CDF84C901692CDF84D
:1007A0005CA01D94002102911A8E0299914280F260
:1007B0005981AA4A047812F80490A944C55D111918
:1007C00012F8058091F8004191F800A2464406EB2A
:1007D0004406119C0896045D5519165D95F800C1F4
:1007E00095F8005206EB0A0808EB4C0ADDF8488041
:1007F000CDF824A010F80810DDF84C80565C1419D0
:1008000006EB050A10F8085094F800C1565D94F8FC
:10081000004251180AEB4C0C361991F800A1149CB7
:1008200091F80012CDF828C006EB4A08065DCDF815
:100830002C80945DDDF85480551904EB010A95F87D
:10084000004195F800520AEB44010C9110F8081091
:100850009619545C641996F8005104EB45040D9404
:10086000169D96F80062DDF824A0DDF85C80A444B3
:10087000445DCDF86CC0155D5118AD1991F800615B
:1008800091F8001205EB460505EB0A060E9510F8E7
:1008900008501C961419565DDDF860A0711894F884
:1008A000006194F8004201EB460C08990CEB01063C
:1008B0001A9610F80A605519915D9219091995F860
:1008C000004192F8006195F8005201EB44012D249B
:1008D00001EB090804FB09BB10910899CDF864806D
:1008E0000BEB0C09DDF8288005EB460592F8006259
:1008F000242202FB019A152404FB08A9DDF824A098
:100900000C994FF01C0B0BFB0A994FF00A08DDF80D
:100910002CA008FB01994FF00F0B0E990BFB0A99C5
:100920004FF00308DDF834A008FB01994FF0060BE7
:100930000BFB0A99CDF80490DDF82CA00C994FF030
:100940004B0B51440BFB01F91B994FF0490A0AFB71
:10095000019B0699DDF868900BEB010A4FF03F0B05
:100960001C990BFB09AA4FF0450BDDF864900BFBBB
:1009700001AA4FF0370B0BFB09ABDDF824A00A9955
:1009800008FB0AF84FF00609DDF820A009FB0188F2
:100990000C99D0444FF00F09DDF82CA009FB018819
:1009A0000A21DDF8389001FB0A884FF01C0A0D99E6
:1009B0000AFB098804FB018A109C0F994FF02D094E
:1009C00009FB04A8DDF804A002FB0C820692AAF53C
:1009D0007A3971B1039C0599CDF8149004EB0902A2
:1009E000541A0F9A4FF48071544394FBF1F403941A
:1009F000A146079961B1049CC1F5807209FB01FC15
:100A000004FB02C94FF4807199FBF1F20492914604
:100A10001F9C04FB09F1002902DD10314C1103E099
:100A20001039202291FBF2F447F6BC718C42A8BF2A
:100A30000C46DA890299DDF874804A4308498C42F1
:100A4000A8BF21461E9C24F81210029A4044511C53
:100A5000A9E600BFCDB5E8B5C81500200008002004
:100A60004480FFFF05981E615D61039E069D049C06
:100A700058629D61C3F81CB01E629C62104621B092
:100A8000BDE8F08F2DE9F04F95B0994C1392994A3B
:100A900012911168A14200D0FEE75E6A1D6A9F6A4A
:100AA0009A69998DB3F82E800C964FF00009D3F80F
:100AB00010C05E69D3F81CB00195029709920A91A3
:100AC000CDF83480CDF80C908B4904780D190C5D6D
:100AD00095F8007295F8008106EB070A067ACDF8C2
:100AE0002CA08F198E5D97F8002202EB4805AC44CC
:100AF000057C97F80081CDF810C04A194D5D92F839
:100B0000009292F8002109EB040A0AEB480C90F8D5
:100B100018A090F82090CDF814C001EB0A0494F8C6
:100B2000007294F80041BF1907EB420801EB09027B
:100B3000CDF8188092F8006292F80021771907EB3F
:100B4000440606EB080C90F8288011F80A70079606
:100B500001EB0805CDF840C095F8004295F800512A
:100B6000E619059F06EB4204E619119690F83060ED
:100B700008948C1911F8097094F80022D219049F76
:100B800002EB4502BD180F9590F8385011F8089007
:100B900094F80041DDF82C808E5D4F1997F800A283
:100BA00097F800710AEB090C0CEB4404DDF818A06F
:100BB00011F805C000941C2505FB082944440A21AE
:100BC000DDF8148001FB0A9906EB4706DDF820A04A
:100BD0000F2707FB0899032101FB0A99DDF81CA0E8
:100BE0004FF0060808FB0A99DDF810A0152101FB5B
:100BF0000A99CB44DDF84490CDF82CB04FF02E0A82
:100C00000AFB09FADDF840904FF0300B0BFB09AA04
:100C10004FF0240B0BFB04A90F9C4FF02A0A0AFB90
:100C2000049B099CDDF81890DDF810A0A344059CF6
:100C300008FB09A8DDF820A04FF0030909FB048890
:100C4000079C07FB0A890A2707FB0498DDF8009038
:100C5000DDF82CA00C9F05FB098501FB02520199D0
:100C60000992AAF500328C180D99DDF82880E51B51
:100C70004D434FF4807195FBF1F40194019F44467C
:100C80007C43029FC8EB010507FB054595FBF1F18D
:100C90000291139C6143002902DD0831091103E030
:100CA0000839102791FBF7F147F6BC75134C129FDA
:100CB0000C92A942A8BF2946039DA142B8BF214674
:100CC00079530C354030C02D03957FF4FDAE099863
:100CD000019C029D9861C3F810C05E61C3F81CB00E
:100CE0001C625A629D62102015B0BDE8F08F00BFF3
:100CF000CDB5E8B5C8150020000800204480FFFFEE
:100D00002DE9F04FA1B084461F92BE4A1E91BE4805
:100D10001168814200D0FEE79E6A9F6905969E8910
:100D2000D98D01967000079703277E431190019893
:100D30009A8D0F9112960521019E08924843B200A8
:100D40001490019E01980199139206277E43072271
:100D5000C700514315961797019E019F1C6A5D6A53
:100D6000169109220A2156434F434FF0000804947C
:100D700006955C691D69D3F81CB018961D97CDF8CF
:100D80000C80188EDDF80C90814580F25A819F49C5
:100D90009CF80000DDF804900F181CF8096097F823
:100DA00000A297F80021085CA2448C198E5D94F88B
:100DB000008294F80041454405EB4207119D0997D4
:100DC0001CF805504A194D5D92F8007292F80081A6
:100DD0003F18129807EB44091CF80040CDF8289002
:100DE00008190C5D90F8007290F80001BF1907EB2C
:100DF0004809DDF84C80CDF82C901CF8089001EBE8
:100E00000902CDF8089092F8006292F80021771953
:100E1000149E1CF80690159E07EB400801EB090094
:100E2000CDF8308090F8005290F800012F1907EBB0
:100E300042081CF80670029DCDF83480CA194E5D38
:100E400092F80042A41904EB40050295DDF82C80CD
:100E5000169E92F80021CF5DA844CDF86C801CF856
:100E6000068011F80950DDF8609001EB080011F8D8
:100E7000088090F8004290F8000166190A9D06EB80
:100E80004204179A0E9466191C961CF802608C197D
:100E90008E5D94F8002294F80041D519099F05EB66
:100EA0004002D5191A951CF809504F194D5D97F855
:100EB000000297F80071404400EB44002D2100EB44
:100EC0000A0401FB0ABB1090099819940BEB020A63
:100ED00006EB470424210B9F01FB00A94FF01508E6
:100EE000DDF828A00D9808FB07964FF01C0B0BFBB4
:100EF0000A69DDF830800A2606FB009A0F27DDF824
:100F0000389007FB08AB4FF0030808FB09BADDF87F
:100F100008B0062000FB0BA9CDF80090DDF834A046
:100F2000DDF830B04FF04B090AEB0B0009FB00FA7B
:100F30001B984FF0490B0BFB00A9079809EB000A1F
:100F4000DDF868901C984FF03F0B0BFB09AA4FF09F
:100F5000450BDDF864900BFB00AA4FF0370B0BFB41
:100F600009ABDDF828A00B9808FB0AF84FF006093A
:100F7000DDF824A009FB00880D9808EB0A0907FB9F
:100F800000980C9FDDF83890029806FB07864FF01A
:100F90001C0A0AFB0968152707FB008610980F9F9B
:100FA0004FF02D0909FB006A01FB02A2DDF800A049
:100FB0000792AAF57A386FB10499069ECDF8188089
:100FC00001EB0800811B79434FF4807291FBF2F72B
:100FD0000497B846089860B1059908FB00F8C0F579
:100FE000807601FB06894FF4807299FBF2F7059732
:100FF000B8461F9800FB08F6002E09DD1036771161
:101000000AE000BFC8150020CDB5E8B500080020F3
:10101000103E202196FBF1F7039ED8891049DDF898
:10102000748047F6BC729742A8BF17468F42A8BF8C
:10103000394670431E9F721C27F81010C444039257
:101040009FE65C61079C049A9C61059E069C1D615D
:10105000C3F81CB01A625C629E6221B0BDE8F08FDA
:101060004480FFFFAFF3008000000000000000009C
:101070004B1C012B98BF70472DE9F003911C9B0876
:10108000B1F80480B1F802900A8831F802CC8044AB
:10109000814402448444D9F80070D8F8006015688F
:1010A000DCF80040C9F80060C8F80070CCF80050C7
:1010B0001460D9F80470D8F804605568DCF804406E
:1010C000C9F80460C8F80470CCF8045054600831C2
:1010D000013BD5D1BDE8F00370474B1C012B98BFF5
:1010E00070472DE9F003911C9B08B1F80480B1F81A
:1010F00002900A8831F802CC00EB580800EB59093D
:1011000000EB520200EB5C0CD9F80070D8F80060DC
:101110001568DCF80040C9F80060C8F80070CCF829
:10112000005014600831013BDFD1BDE8F003704787
:1011300081F0004102E000BF83F0004330B54FEA88
:1011400041044FEA430594EA050F08BF90EA020FF5
:101150001FBF54EA000C55EA020C7FEA645C7FEA88
:10116000655C00F0E2804FEA5454D4EB5555B8BFAB
:101170006D420CDD2C4480EA020281EA030382EA1C
:10118000000083EA010180EA020281EA0303362DAE
:1011900088BF30BD11F0004F4FEA01314FF4801C81
:1011A0004CEA113102D0404261EB410113F0004F93
:1011B0004FEA03334CEA133302D0524263EB43034A
:1011C00094EA050F00F0A780A4F10104D5F1200EE8
:1011D0000DDB02FA0EFC22FA05F2801841F1000143
:1011E00003FA0EF2801843FA05F359410EE0A5F117
:1011F00020050EF1200E012A03FA0EFC28BF4CF048
:10120000020C43FA05F3C01851EBE37101F00045FD
:1012100007D54FF0000EDCF1000C7EEB00006EEB0A
:101220000101B1F5801F1BD3B1F5001F0CD3490894
:101230005FEA30004FEA3C0C04F101044FEA4452EB
:1012400012F5800F80F09A80BCF1004F08BF5FEA72
:10125000500C50F1000041EB045141EA050130BD52
:101260005FEA4C0C404141EB010111F4801FA4F1F5
:101270000104E9D191F0000F04BF01460020B1FA4A
:1012800081F308BF2033A3F10B03B3F120020CDA82
:101290000C3208DD02F1140CC2F10C0201FA0CF060
:1012A00021FA02F10CE002F11402D8BFC2F1200CC5
:1012B00001FA02F120FA0CFCDCBF41EA0C0190407B
:1012C000E41AA2BF01EB0451294330BD6FEA0404C4
:1012D0001F3C1CDA0C340EDC04F11404C4F12002AF
:1012E00020FA04F001FA02F340EA030021FA04F3C1
:1012F00045EA030130BDC4F10C04C4F1200220FA18
:1013000002F001FA04F340EA0300294630BD21FA55
:1013100004F0294630BD94F0000F83F4801306BF1B
:1013200081F480110134013D4EE77FEA645C18BF0F
:101330007FEA655C29D094EA050F08BF90EA020FA6
:1013400005D054EA000C04BF1946104630BD91EA9E
:10135000030F1EBF0021002030BD5FEA545C05D1A1
:101360004000494128BF41F0004130BD14F58004E0
:101370003CBF01F5801130BD01F0004545F0FE4154
:1013800041F470014FF0000030BD7FEA645C1ABF89
:10139000194610467FEA655C1CBF0B46024650EAC0
:1013A000013406BF52EA033591EA030F41F40021EC
:1013B00030BD00BF90F0000F04BF0021704730B572
:1013C0004FF4806404F132044FF000054FF0000147
:1013D00050E700BF90F0000F04BF0021704730B508
:1013E0004FF4806404F1320410F0004548BF4042DD
:1013F0004FF000013EE700BF42004FEAE2014FEA32
:1014000031014FEA02701FBF12F07F4393F07F4F0C
:1014100081F06051704732F07F4208BF704793F00F
:101420007F4F04BF41F40021704730B54FF4607422
:1014300001F0004521F000411CE700BF50EA010225
:1014400008BF704730B54FF000050AE050EA0102CE
:1014500008BF704730B511F0004502D5404261EB3E
:1014600041014FF4806404F132045FEA915C3FF47F
:10147000D8AE4FF003025FEADC0C18BF03325FEA1C
:10148000DC0C18BF033202EBDC02C2F1200300FACD
:1014900003FC20FA02F001FA03FE40EA0E0021FAF2
:1014A00002F11444BDE600BF00000000000000008F
:1014B00070B54FF0FF0C4CF4E06C1CEA11541DBFEA
:1014C0001CEA135594EA0C0F95EA0C0F00F0DEF8B5
:1014D0002C4481EA030621EA4C5123EA4C5350EA9A
:1014E000013518BF52EA033541F4801143F48013EB
:1014F00038D0A0FB02CE4FF00005E1FB02E506F07C
:101500000042E0FB03E54FF00006E1FB03569CF0D0
:10151000000F18BF4EF0010EA4F1FF04B6F5007FD6
:1015200064F5407404D25FEA4E0E6D4146EB060648
:1015300042EAC62141EA55514FEAC52040EA5E50D1
:101540004FEACE2EB4F1FD0C88BFBCF5E06F1ED87B
:10155000BEF1004F08BF5FEA500E50F1000041EBB2
:10156000045170BD06F0004646EA010140EA02005F
:1015700081EA0301B4EB5C04C2BFD4EB0C0541EA81
:10158000045170BD41F480114FF0000E013C00F396
:10159000AB8014F1360FDEBF002001F0004170BDBA
:1015A000C4F10004203C35DA0C341BDC04F11404D3
:1015B000C4F1200500FA05F320FA04F001FA05F25F
:1015C00040EA020001F0004221F0004110EBD3702C
:1015D00021FA04F642EB06015EEA430E08BF20EA58
:1015E000D37070BDC4F10C04C4F1200500FA04F3FB
:1015F00020FA05F001FA04F240EA020001F000418D
:1016000010EBD37041F100015EEA430E08BF20EAFF
:10161000D37070BDC4F1200500FA05F24EEA020E47
:1016200020FA04F301FA05F243EA020321FA04F076
:1016300001F0004121FA04F220EA020000EBD3702D
:101640005EEA430E08BF20EAD37070BD94F0000F2D
:101650000FD101F00046400041EB010111F4801F61
:1016600008BF013CF7D041EA060195F0000F18BF12
:10167000704703F00046520043EB030313F4801F4E
:1016800008BF013DF7D043EA0603704794EA0C0F08
:101690000CEA135518BF95EA0C0F0CD050EA41061E
:1016A00018BF52EA4306D1D181EA030101F000419B
:1016B0004FF0000070BD50EA410606BF10461946C3
:1016C00052EA430619D094EA0C0F02D150EA0136CF
:1016D00013D195EA0C0F05D152EA03361CBF104610
:1016E00019460AD181EA030101F0004141F0FE41AF
:1016F00041F470014FF0000070BD41F0FE4141F433
:10170000780170BD70B54FF0FF0C4CF4E06C1CEA32
:1017100011541DBF1CEA135594EA0C0F95EA0C0FE7
:1017200000F0A7F8A4EB050481EA030E52EA0335A2
:101730004FEA013100F088804FEA03334FF08055C3
:1017400045EA131343EA12634FEA022245EA1115F0
:1017500045EA10654FEA00260EF000419D4208BFA1
:10176000964244F1FD0404F5407402D25B084FEA4E
:101770003202B61A65EB03055B084FEA32024FF4FA
:1017800080104FF4002CB6EB020E75EB030E22BF57
:10179000B61A754640EA0C005B084FEA3202B6EB17
:1017A000020E75EB030E22BFB61A754640EA5C00C6
:1017B0005B084FEA3202B6EB020E75EB030E22BF56
:1017C000B61A754640EA9C005B084FEA3202B6EB57
:1017D000020E75EB030E22BFB61A754640EADC0016
:1017E00055EA060E18D04FEA051545EA16754FEA78
:1017F00006164FEAC30343EA52734FEAC2025FEA96
:101800001C1CC0D111F4801F0BD141EA00014FF024
:1018100000004FF0004CB6E711F4801F04BF0143F5
:101820000020B4F1FD0C88BFBCF5E06F3FF6AFAE11
:10183000B5EB030C04BFB6EB020C5FEA500C50F1A1
:10184000000041EB045170BD0EF0004E4EEA113124
:1018500014EB5C04C2BFD4EB0C0541EA045170BD2B
:1018600041F480114FF0000E013C90E645EA060E6F
:101870008DE60CEA135594EA0C0F08BF95EA0C0F9D
:101880003FF43BAF94EA0C0F0AD150EA01347FF4E5
:1018900034AF95EA0C0F7FF425AF104619462CE7BC
:1018A00095EA0C0F06D152EA03353FF4FDAE10461F
:1018B000194622E750EA410618BF52EA43067FF470
:1018C000C5AE50EA41047FF40DAF52EA43057FF400
:1018D000EBAE12E700000000000000000000000076
:1018E0004FF0FF3C06E000BF4FF0010C02E000BFEC
:1018F0004FF0010C4DF804CD4FEA410C7FEA6C5CCF
:101900004FEA430C18BF7FEA6C5C1BD001B050EA71
:10191000410C0CBF52EA430C91EA030F02BF90EA5C
:10192000020F0020704710F1000F91EA030F58BF1B
:10193000994208BF90422CBFD8176FEAE37040F07D
:10194000010070474FEA410C7FEA6C5C02D150EA1B
:10195000013C07D14FEA430C7FEA6C5CD6D152EAD6
:10196000033CD3D05DF8040B704700BF844610469B
:1019700062468C461946634600E000BF01B5FFF79A
:10198000B7FF002848BF10F1000F01BD4DF808ED6A
:10199000FFF7F4FF0CBF012000205DF808FB00BF3B
:1019A0004DF808EDFFF7EAFF34BF012000205DF895
:1019B00008FB00BF4DF808EDFFF7E0FF94BF0120E2
:1019C00000205DF808FB00BF4DF808EDFFF7CEFFE3
:1019D00094BF012000205DF808FB00BF4DF808ED22
:1019E000FFF7C4FF34BF012000205DF808FB00BFF3
:1019F0004FEA410C7FEA6C5C02D150EA013C0AD10B
:101A00004FEA430C7FEA6C5C02D152EA033C02D1FC
:101A10004FF0000070474FF00100704700000000D9
:101A20004FEA410212F5001215D211D56FF4787306
:101A3000B3EB625212D94FEAC12343F0004343EAA9
:101A4000505311F0004F23FA02F018BF4042704784
:101A50004FF00000704750EA013005D111F000400E
:101A600008BF6FF0004070474FF00000704700BFA4
:101A70004A0011D212F5001211D20DD56FF478730D
:101A8000B3EB62520ED44FEAC12343F0004343EA62
:101A9000505323FA02F070474FF00000704750EAAD
:101AA000013002D14FF0FF3070474FF00000704717
:101AB0004FEA4102B2F1E04324BFB3F5001CDCF170
:101AC000FE5C0DD901F0004C4FEAC0024CEA5070A8
:101AD000B2F1004F40EB830008BF20F001007047D7
:101AE00011F0804F21D113F13872BCBF01F00040DA
:101AF000704741F480114FEA5252C2F11802C2F10C
:101B0000200C10FA0CF320FA02F018BF40F001008C
:101B10004FEAC1234FEAD32303FA0CFC40EA0C003E
:101B200023FA02F34FEA4303CCE77FEA625307D17B
:101B300050EA01331EBF4FF0FE4040F440007047B2
:101B400001F0004040F0FE4040F40000704700BF4C
:101B500053B94AB9002908BF00281CBF4FF0FF3114
:101B60004FF0FF3000F074B9ADF1080C6DE904CE10
:101B700000F006F8DDF804E0DDE9022304B0704768
:101B80002DE9F047089E04468846002B4BD18A4237
:101B9000154667D9B2FA82F24AB1C2F1200701FABA
:101BA00002F320FA07F7954047EA030894404FEA0A
:101BB000154E230CB8FBFEF71FFA85FC0EFB1788A9
:101BC00043EA084307FB0CF1994209D9EB1807F1E6
:101BD000FF3080F01B81994240F21881023F2B4474
:101BE0005B1AA4B2B3FBFEF00EFB103344EA0344CD
:101BF00000FB0CFCA44509D92C1900F1FF3380F03F
:101C00000781A44540F2048102382C4440EA074091
:101C1000A4EB0C0400271EB1D4400023C6E9004306
:101C20003946BDE8F0878B4209D9002E00F0EB80E1
:101C30000027C6E9000138463946BDE8F087B3FA07
:101C400083F7002F47D18B4202D3824200F2FA8001
:101C5000841A61EB030301209846002EE0D0C6E908
:101C60000048DDE702B9FFDEB2FA82F2002A40F056
:101C70008F80491B4FEA154E1FFA85F80127B1FBEB
:101C8000FEFC230C0EFB1C1143EA014308FB0CF184
:101C9000994207D9EB180CF1FF3002D2994200F2B9
:101CA000CD808446591AA3B2B1FBFEF00EFB10148E
:101CB00043EA044408FB00F8A04507D92C1900F1B9
:101CC000FF3302D2A04500F2B6801846A4EB080408
:101CD00040EA0C409FE7C7F1200CBB4022FA0CFE03
:101CE0004EEA030E01FA07F420FA0CF521FA0CF380
:101CF0004FEA1E482543B3FBF8F92C0C08FB1933B7
:101D00001FFA8EFA44EA034309FB0AF49C4202FAE2
:101D100007F200FA07F10BD91EEB030309F1FF30BC
:101D200080F087809C4240F28480A9F102097344CC
:101D30001B1BADB2B3FBF8F008FB103345EA0344BC
:101D400000FB0AFAA24508D91EEB040400F1FF3398
:101D50006BD2A24569D90238744440EA0940A0FB1D
:101D60000289A4EB0A044C45C2464B4654D351D0D9
:101D7000002E69D0B1EB0A0564EB030404FA0CFCF5
:101D8000FD40FC404CEA0505C6E90054002747E742
:101D9000C2F1200320FA03F7954001FA02F021FA7C
:101DA00003F34FEA154E3843010CB3FBFEF71FFA5D
:101DB00085F80EFB173341EA034107FB08F38B421A
:101DC00004FA02F407D9691807F1FF3C2FD28B42BD
:101DD0002DD9023F2944CB1A81B2B3FBFEF00EFB92
:101DE000103341EA034100FB08F38B4207D969181D
:101DF00000F1FF3C17D28B4215D902382944C91A89
:101E000040EA07473BE73746304609E70746E7E63B
:101E10001846FBE64145ABD2B8EB020A69EB0E026D
:101E200001381346A4E76046E9E7184695E7674698
:101E3000D1E781467CE702382C4447E7ACF1020C3D
:101E40002B442FE7384608E73746E9E60000000054
:101E5000704700BF0000000000000000000000000C
:101E6000844641EA000313F003036DD1403A41D3A5
:101E700051F8043B40F8043B51F8043B40F8043B64
:101E800051F8043B40F8043B51F8043B40F8043B54
:101E900051F8043B40F8043B51F8043B40F8043B44
:101EA00051F8043B40F8043B51F8043B40F8043B34
:101EB00051F8043B40F8043B51F8043B40F8043B24
:101EC00051F8043B40F8043B51F8043B40F8043B14
:101ED00051F8043B40F8043B51F8043B40F8043B04
:101EE00051F8043B40F8043B51F8043B40F8043BF4
:101EF000403ABDD2303211D351F8043B40F8043B94
:101F000051F8043B40F8043B51F8043B40F8043BD3
:101F100051F8043B40F8043B103AEDD20C3205D3A3
:101F200051F8043B40F8043B043AF9D2043208D09B
:101F3000D2071CBF11F8013B00F8013B01D30B880D
:101F400003806046704700BF082A13D38B078DD0EB
:101F500010F003038AD0C3F10403D21ADB071CBFBD
:101F600011F8013B00F8013B80D331F8023B20F827
:101F7000023B7BE7043AD9D3013A11F8013B00F860
:101F8000013BF9D20B7803704B7843708B788370E8
:101F900060467047000000000000000000000000E4
:101FA00090F800F06DE9024520F007016FF0000C99
:101FB00010F0070491F820F040F049804FF0000441
:101FC0006FF00700D1E9002391F840F000F108001C
:101FD00082FA4CF2A4FA8CF283FA4CF3A2FA8CF354
:101FE0004BBBD1E9022382FA4CF200F10800A4FABB
:101FF0008CF283FA4CF3A2FA8CF3E3B9D1E904230F
:1020000082FA4CF200F10800A4FA8CF283FA4CF345
:10201000A2FA8CF37BB9D1E9062301F1200182FAFF
:102020004CF200F10800A4FA8CF283FA4CF3A2FA05
:102030008CF3002BC6D0002A04BF04301A4612BA13
:10204000B2FA82F2FDE8024500EBD2007047D1E916
:10205000002304F00305C4F100004FEAC50514F0A5
:10206000040F91F840F00CFA05F562EA05021CBF76
:1020700063EA050362464FF00004A9E70000000090
:1020800001F0FF01102A2BDB10F0070F08D010F829
:10209000013B013A8B422DD010F0070F42B3F6D12D
:1020A000F0B441EA012141EA014122F007047FF046
:1020B00000070023F0E80256083C85EA010586EA9D
:1020C000010685FA47F5A3FA87F586FA47F6A5FAD9
:1020D00087F68EB9EED1F0BC01F0FF0102F00702E5
:1020E00032B110F8013B013A83EA010313B1F8D190
:1020F0000020704701387047002D06BF3546033871
:10210000073815F0010F07D1013015F4807F02BFA9
:10211000013015F4C03F0130F0BC0138704700BFFA
:1021200080B5274B274C1B68DFF8B48082B020278E
:10213000019306F0B5FF04F03BFE03F059FE22497F
:10214000224808F05DFB04F073FC03F089F803F00B
:102150005FFC04F085F91E4802F08AFD1D4A1E4905
:102160001E4804F045FD4FF4FA7005F061FC00F0E4
:1021700087FF01F0D5FA04F063FB002687F311888E
:1021800005F05EFF04F01CFFA56A04F039FF05F0BE
:102190006FFF2368A34207D0A2699B6892689A42A6
:1021A00002D2404604F06CFE86F31188009500F0E0
:1021B00057FE009800990A3105F07AFCDEE700BF6F
:1021C000000B002018720020200B00204C80002003
:1021D00021240008040B00200C0B0020CC1500204B
:1021E00090590108000000000000000000000000FD
:1021F00000B5084B83B01A680192019A1B689A4295
:1022000005D1054803B05DF804EB04F039BEFFF7D3
:10221000EFFF00BF000B0020A059010800000000E4
:1022200030B5794D794CB5F9001023689FED787A77
:1022300083B04A1C019300F168004FF01A033ED0AE
:102240004FF0FF32F0EC017AF4EEC77AF1EE10FABB
:10225000C8BF1AB203F10103C8BFB0EE677A302BD2
:10226000F0D1914208D04FF6FF732B80019A23687A
:102270009A4270D103B030BD89B2A1F12A03022B7A
:1022800030D9A1F11B03022B3DD9A1F11D03022B73
:1022900051D9A1F11F03022B3FD9A1F12103022B38
:1022A0005BD85C4B1B784FF6FF722A80002BDDD089
:1022B000594B1A78002AD9D102221A70D6E7002287
:1022C000F0EC017AF4EEC77AF1EE10FA03DDB0EE2D
:1022D000677A19B201220133302BF1D1002AC5D01F
:1022E0002980C3E7019A23684A4800244FF6FF710A
:1022F0009A420470298008BF04202CD103B0BDE8A5
:10230000304000F0DDBE019A23684FF6FF719A421B
:10231000298008BF0120F1D01DE03E4B1B784FF60D
:10232000FF722A80002BA1D03B4B1A78002A9DD146
:1023300001221A709AE73749019A23683648012426
:102340000C709A424FF000044FF6FF710470298020
:1023500008BF0320D2D0FFF74BFFA1F12303022BCC
:102360000FD82C4B1B784FF6FF722A80002B3FF4BE
:102370007DAF294B1A78002A7FF478AF03221A70B8
:1023800074E7A1F12503022B0FD8224B1B784FF6DF
:10239000FF722A80002B3FF469AF1F4B1A78002A86
:1023A0007FF464AF04221A7060E7A1F12803022BC6
:1023B0000FD8184B1B784FF6FF722A80002B3FF482
:1023C00055AF154B1A78002A7FF450AF05221A70CA
:1023D0004CE72C3902290FD80E4B1B784FF6FF72B1
:1023E0002A80002B3FF442AF0B4B1A78002A7FF46F
:1023F0003DAF06221A7039E7074A00214FF6FF73F6
:1024000011702B8032E700BF2C0B0020000B002046
:102410000050C347DC450020D81500200000000014
:10242000F0B5364E364D336883B001932B880029C2
:102430005BD0B0F90220334C07EE902A5A1C04EB13
:10244000830792B202339BB2F8EEE77A04EB820282
:102450004FF0000EB3F5006FC7ED007A2B80C2F885
:1024600000E02BD20139C1F38D0100EBC10100273F
:102470001AE0B0F90A2007EE902A5A1C92B203F132
:10248000020C04EB8307F8EEE77A04EB82021FFAF2
:102490008CF3B3F5006FC7ED007A00F108004FF040
:1024A0000107C2F800E008D28842E2D11FBB019ABE
:1024B00033689A421DD103B0F0BD2B8011494FF40F
:1024C000806000F07DF84FF480620F490D480FF0F6
:1024D00027F9019A336800219A42298009D10A48D4
:1024E00003B0BDE8F040FFF79BBEB3F5006FDED34D
:1024F000E4E7FFF77DFE2B80D9E700BF000B00204B
:10250000DE450020DC150020DC3500200000000046
:1025100010B5084A084B1168187882B00024019160
:10252000019912681C70914201D102B010BDFFF7F1
:102530005FFE00BF000B0020D81500200000000047
:1025400000B50A4A0A4B10781A6883B0019218B194
:10255000084A002111700120019A1B689A4202D199
:1025600003B05DF804FBFFF743FE00BFD815002061
:10257000000B0020DC4500200000000000000000EF
:1025800030B5094B094C1A68094983B001250192FD
:10259000019A1B68257000209A42087001D103B08F
:1025A00030BDFFF725FE00BF000B0020DC450020FA
:1025B000D81500200000000000000000000000000E
:1025C00000B50D4B83B01A680192B0F5806F019A87
:1025D0001B6804D09A420CD103B05DF804FB9A4208
:1025E00007D106480123002203B05DF804EB0FF089
:1025F00017B8FFF7FDFD00BF000B0020C059010810
:102600000EB410B583B005AA094C52F8041B236818
:102610000848009201930DF01BFD019A23689A422D
:1026200004D103B0BDE8104003B07047FFF7E0FDF0
:10263000000B00204C800020000000000000000083
:1026400030B52DED028B204D204C2B6883B00193CB
:1026500003F0A6FE08EE100A03F0BAFE07EE100A19
:10266000F8EEC87AB8EEC70A194B77EE807AB6EE64
:10267000000A67EE807A93ED000AC3ED007A37EE28
:10268000C00A00F095FEB0EE408A94ED020A0FF009
:1026900077F9D4ED007AE0EE087A94ED020AC4ED01
:1026A000007A0FF025F9D4ED017A019A2B68E0EE5B
:1026B000087A9A42C4ED017A03D103B0BDEC028BD3
:1026C00030BDFFF795FD00BF000B0020EC4500205A
:1026D000E4450020000000000000000000000000B1
:1026E0002DE98048264C274BA26927491B68DFF853
:1026F000A0A0264DDFF89CB0916187B0DFF89890DC
:10270000DFF89880059319E0049804990A3105F0E0
:10271000CFF92868FEF770FE0646A8680F46FEF758
:102720006BFECDE902016868FEF766FE3246CDE930
:1027300000013B4649464046FFF762FF202383F3F2
:10274000118805F07DFC04F03BFCA66A04F058FCFF
:1027500005F08EFC2368A34207D0A2699B689268AB
:102760009A4202D2584604F08BFB002383F311886F
:102770009AF800300496012BC6D1FFF761FFC3E73A
:1027800018720020000B0020005A0108EC450020C0
:10279000E0450020105A0108D05901084C80002063
:1027A00030B5224C224DD4ED027A2B682DED028BF0
:1027B00030EE270A9FED1F8A84ED020A83B0B4EE43
:1027C000C80AF1EE10FA01930FDDDFED1B8A30EE3F
:1027D000680A022084ED020A05F02AF994ED020A43
:1027E000B4EEC80AF1EE10FAF1DC9FED148AB4EEF3
:1027F000C80AF1EE10FA0FD8DFED0F8A30EE280A82
:10280000022084ED020A05F013F994ED020AB4EEF9
:10281000C80AF1EE10FAF1D9019A2B689A4203D155
:1028200003B0BDEC028B30BDFFF7E2FCEC450020AD
:10283000000B0020DB0F4940DB0FC940DB0F49C014
:1028400010B5174C82B023680193202383F31188BD
:1028500005F0F6FB04F0B4FBFFF7F2FE114B00228B
:102860001A6004F0CDFB05F003FC0F4B1A689A4286
:1028700004D0996993688A689A420BD3002383F342
:102880001188019A23689A4208D102B0BDE810402D
:1028900000F0A6BC054804F0F3FAEFE7FFF7A8FC48
:1028A000000B0020E445002018720020105A010897
:1028B00070B5544D544C2A7823682DED028B82B0AC
:1028C000012A01930646B0EE408A33D01AD3022A79
:1028D0000ED001992368994208BF334659D14B491C
:1028E0004B4802B0BDEC028BBDE87040FFF788BEDC
:1028F0000228EED8019A23689A424AD102B0BDEC70
:10290000028B70BD012832D04CD3022843D103F092
:102910005FFD002870D002232A783E493C48FFF72B
:102920006FFE0223B0EE480A2B7000F061FD002319
:102930002B70DFE700F024FDFFF782FF012E0AD0A5
:102940004DD3022E44D1B0EE480A2E7000F050FD57
:1029500000232B70CEE7019A23682E709A4218D17B
:1029600002B0BDEC028BBDE8704000F021BC03F06A
:102970002FFD002836D001232A7826492448FFF766
:102980003FFE00F02DFC019A236801219A42297034
:10299000E6D0FFF72DFC019A23689A42F9D103464D
:1029A00000229CE703F014FD08B300232A7819499C
:1029B0001748FFF725FE019A236800219A422970E3
:1029C000E7D102B0BDEC028BBDE8704000F008BC5E
:1029D000019A23689A42DCD133462A787FE70023A4
:1029E0002B7087E703F0DCFC0028C4D1CBE703F0B1
:1029F000D7FC0028D9D1DEE703F0D2FC00288AD129
:102A00008FE700BFE0450020000B0020885A010836
:102A10004C800020505A0108000000000000000017
:102A200070B52DED068B704C704DD4ED018A2B687E
:102A300094ED009A82B0019300F0A2FC68EEA87AAF
:102A4000E9EE097A17EE900AFEF7D6FC41EC100B7E
:102A50000DF08EFE51EC100BFFF72AF809EE900AEC
:102A6000F5EE409AF1EE10FA00F09080DFED607A1A
:102A700094ED02AAF4EEE79AF1EE10FA04D5B5EE61
:102A800040AAF1EE10FA79D0C9EE297A17EE900A31
:102A9000FEF7B2FCF5EEC08AF1EE10FA41EC100B35
:102AA00040F28180F5EEC08AF1EE10FA00F18F80DD
:102AB0000DF0FEFD4AA3D3E9002351EC100BFEF705
:102AC0003BFBFEF7F5FF08EE100A38EE4A8ADFED11
:102AD000498AB4EEE88AF1EE10FA0BDD9FED469AD2
:102AE00038EE498A012004F0A3FFB4EEE88AF1EE43
:102AF00010FAF5DCDFED418AB4EEE88AF1EE10FA67
:102B00000BD89FED3D9A38EE098A012004F090FF22
:102B1000B4EEE88AF1EE10FAF5D9B0EE480A0220D8
:102B2000FFF7C6FE9FED360A0120FFF7C1FE6420C5
:102B300004F07EFF334B1B78022B03D8324B1B78FB
:102B4000022B1BD900F01CFCF2EE081AB0EE611A41
:102B5000F0EE690AB0EE690A00F062FB019A2B6898
:102B60009A423AD194ED020A0220B1EE400A02B034
:102B7000BDEC068BBDE87040FFF79ABE019A2B684A
:102B80009A422AD102B0BDEC068B70BD019A2B6827
:102B90009A4222D11D491E4802B0BDEC068BBDE809
:102BA0007040FFF72DBDB5EEC09AF1EE10FA7FF53B
:102BB00079AF0DF07DFD0AA1D1E9000153EC102B96
:102BC000FEF7BAFAFEF774FF08EE100A7DE7B5EEDD
:102BD000C09AF1EE10FAECDA6AE7FFF709FB00BFE2
:102BE00000000060FB210940EC450020000B0020A4
:102BF000CDCCCC3DDB0F4940DB0FC940DB0F49C0DA
:102C000000000000FB450020FA450020205A010882
:102C10004C800020000000000000000000000000C8
:102C200030B5414C414DD4ED017A2B68B3EE047AB6
:102C300083B0F4EEC77AF1EE10FA019329DD94ED3A
:102C4000020AB5EEC00AF1EE10FA06DD9FED387A01
:102C5000B4EEC70AF1EE10FA5DD99FED357AB4EE05
:102C6000C70AF1EE10FA14DD9FED327AB4EEC70A0E
:102C7000F1EE10FA0DD837EE400A022030EE000ACD
:102C8000FFF716FE9FED2C0A0120FFF711FED4ED91
:102C9000017ABBEE047AF4EEC77AF1EE10FA14D59D
:102CA00094ED020AB5EEC00AF1EE10FA13D4DFED8E
:102CB000237AB4EEE70AF1EE10FA06D5DFED207ABA
:102CC000B4EEE70AF1EE10FA1FDC019A2B689A4283
:102CD00027D103B030BDDFED197AB4EEE70AF1EE8B
:102CE00010FAE4DBF8EE007A20EE270A0220FFF764
:102CF000DFFD019A2B689A4213D19FED0F0A012044
:102D000003B0BDE83040FFF7D3BD37EEC00A022064
:102D100030EE000AEBE7F8EE007A20EE270A0220F8
:102D2000AEE7FFF765FA00BFEC450020000B00207E
:102D3000DB0FC93FDB0F494000000000DB0FC9BFBC
:102D4000DB0F49C000000000000000000000000090
:102D5000F0B53E4B3E4ED3ED007A3368BBEE0E7AB3
:102D600083B0F4EEC77AF1EE10FA01934AD4F3EE91
:102D70000E6AF4EEE67AF1EE10FA3DDD354DF4EE32
:102D8000C77AF1EE10FA2B785CD933490A78022B16
:102D900002F101020A7043D82F4F3B78022B42D830
:102DA000FFF73EFE2B7893B100240121084602F084
:102DB00027FF642004F03CFE0021012002F020FFE8
:102DC000642004F035FE2B7801349C42EDDB3B7827
:102DD00093B100240121032002F012FF642004F0CB
:102DE00027FE0021032002F00BFF642004F020FEE8
:102DF0003B7801349C42EDDB019A33689A421FD143
:102E000003B0F0BD134D2B78B3EE0E7A0133F4EE20
:102E1000C77ADBB2F1EE10FA2B70B6DA022BBBD90F
:102E20000121084601E00121032002F0E9FE012012
:102E300002F03EFFFFF7F4FD084B04221A70DBE7B7
:102E4000FFF7D6F90133DBB22B709EE7EC4500208B
:102E5000000B0020FB450020FA450020F94500202A
:102E6000F0B52DED028B794D794C2B78226883B02B
:102E70000192042B18D8DFE803F0034D689B200073
:102E8000744A13786BB1744B4FF400119961402070
:102E90004FF48061986199614FF40060002198615E
:102EA00011706E4B1B782B70019A23689A4240F088
:102EB000CA8003B0BDEC028BF0BD9FED698A002093
:102EC000B0EE480AFFF7F4FC0026664B6649674AF5
:102ED00083ED008A304683ED018A83ED028A0E700D
:102EE000167002F005FF304602F0E2FE5A4B6048D1
:102EF0005A49584A20279F6140279F614FF48067B5
:102F00009F614FF400679F6101232E7006700E7061
:102F10001370C9E703F0E4FC4F4B9FED510A4FF4E7
:102F200000129A614FF080614FF400624020986176
:102F3000996101209A61FFF7BBFC4649474A022389
:102F40000120087013702B70AEE7424B1A7862B103
:102F5000414A2021916140204FF080619061916150
:102F60004FF40060002190611970FFF7F1FEFFF748
:102F700057FE00F0FDFB0128064642D0022808D18A
:102F80009FED3C0AFFF794FC9FED350A0120FFF707
:102F90008FFC00F0E5F8002883D09FED370A02206F
:102FA000FFF786FC9FED2E0A0120FFF781FC78E7F2
:102FB0002F4E337873B9284B4FF400129A614FF4B7
:102FC00080014FF4806299619A614FF0006107229D
:102FD00099613270FFF7B4FA00283FF462AFFFF74F
:102FE00097FA431E3070052B08D8DFE803F003275B
:102FF000221D181500F01CFC00F0EAFBFFF7C0FAD8
:103000004FE79FED1E0A0220FFF752FC30469FED6E
:10301000140AFFF74DFCBCE700F052FEEEE700F0AB
:10302000FFFD00F0D5FBE9E700F052FD00F0D0FB1A
:10303000E4E700F0E5FC00F0CBFBDFE700F060FC2C
:1030400000F0C6FBDAE7FFF7D3F800BFE845002041
:10305000000B00202E0B0020000C0240F945002040
:1030600000000000EC450020FA450020FB45002050
:10307000F8450020E4CB16C0DB0F4940E4CB1640F6
:1030800010B50A4C0A4B22680A4884B04FF43E71CE
:10309000039200220092402204F072FC039A2368FB
:1030A0009A4201D104B010BDFFF7A2F8000B002036
:1030B000E12600080046002000000000000000009B
:1030C00000B5114B114A1B78116883B0022B019196
:1030D00009D0032B07D063B101991368994211D12C
:1030E00003B05DF804FB0428F6D1094B04211970E4
:1030F000F2E7032803D00428F7D00128ECD1044BD1
:103100001870E9E7FFF774F8E8450020000B00208D
:10311000F945002000000000000000000000000051
:1031200010B50D4C82B023680193002003F0F8FB2A
:10313000312806DD0120019A23689A4209D102B0A4
:1031400010BD072003F0ECFB3128D4BF0020012084
:10315000F1E7FFF74DF800BF000B00200000000072
:1031600010B5124C82B023680193002003F0D8FB05
:10317000C72806DD0120019A23689A4213D102B0C4
:1031800010BD012003F0CCFBC728F3DC072003F0BF
:10319000C7FBC728EEDC062003F0C2FBC728D4BF5C
:1031A00000200120E7E7FFF723F800BF000B002015
:1031B00010B50A4C82B02368019340F29B3003F0B3
:1031C000BFF8019A23689A4206D140F29B3002B0C0
:1031D000BDE8104003F0CCB8FFF70AF8000B002060
:1031E00010B50C4C82B023680193002003F0A8F8BE
:1031F000002003F0BDF8002003F002F9019A2368D3
:103200009A4205D1002002B0BDE8104003F010B989
:10321000FEF7EEFF000B00200000000000000000A1
:103220002DE9704F2DED068BDFED508A504E20EECC
:10323000280AB2EE0A8AC0EE087A84B03368039393
:10324000F0EE419A17EE900AB0EE619AB0EE60AAE5
:10325000FEF7D2F82AEE28AA41EC100B0DF0D0F9B7
:10326000CAEE087A55EC104B17EE900AFEF7C4F838
:1032700069EEA89A41EC100B0DF0C2F9C9EE887AFC
:1032800059EC108B17EE900AFEF7B6F869EE288A13
:1032900041EC100B0DF0B4F9C8EE887A5BEC10AB82
:1032A00017EE900AFEF7A8F841EC100B0DF0A8F904
:1032B000594650468DED000BFEF7B2FB07EE900A23
:1032C000F8EEE77AFDEEE77A17EE900A03F038F8A9
:1032D0009DED000B51EC100BFEF7A2FB07EE900AE0
:1032E000F8EEE77AFDEEE77A17EE900A03F040F881
:1032F00049464046FEF794FB07EE900AF8EEE77A5F
:103300002046FDEEE77A294617EE904A002CB8BF1A
:103310006442FEF785FB07EE900AF8EEE77AFDEED1
:10332000E77A17EE905A002DB8BF6D4202E00420F4
:1033300004F07EFB03F04CF80028B8BF4042A042E6
:10334000F5DB03F02DF80028B8BF4042A842EEDBC1
:10335000039A33689A4206D104B0BDEC068BBDE8EF
:10336000704FFFF73DBFFEF743FF00BF00007A44F8
:10337000000B002000000000000000000000000022
:1033800010B5094C82B023680193002002F0D8FFE9
:10339000019A23689A4205D1002002B0BDE810408E
:1033A00002F0E6BFFEF724FF000B00200000000043
:1033B00000B50A4B9FED0A7A1A6883B0F2EE0A7ADA
:1033C0000192019A1B6820EE270A9A4280EE070AB2
:1033D00002D103B05DF804FBFEF70AFF000B0020EA
:1033E00000007A440000000000000000000000001F
:1033F000DFED197A9FED197A60EE277A10B5C7EEE6
:10340000870A174C23682DED028BB5EEC00AF1EE4A
:1034100010FA82B0F2EE087ABAEE081AD4BFF0EED3
:10342000411AF0EE671AB0EE408AD8BFB0EE671AC4
:10343000B0EE600A0193FFF7F3FE019A23689A4207
:1034400008D1B0EE480A02B0BDEC028BBDE81040D6
:10345000FFF7A6B9FEF7CCFE50D68641DB0FC94078
:10346000000B002000000000000000000000000031
:1034700080B5234C234AA36923491668996186B015
:10348000022320250A220021009305964FF4207381
:10349000CDE9015530201D4E1D4F02F061F801F0BD
:1034A00067FF002001F09CFFB04601F001FF13E030
:1034B00004F07EF903F0A4FD04F0DAFD2368A342D2
:1034C00007D0A2699B6892689A4202D2384603F0FC
:1034D000D7FC002383F3118801F0C2FF01F028FF1D
:1034E00085F3118804F0ACFD03F06AFD03F038FEAB
:1034F000B368002BDCDC404604F09AFED8E700BF3E
:1035000018720020000B0020C05A0108300B002068
:10351000E05A010800000000000000000000000068
:10352000F0B5344C83B02368019300F27F25431E2D
:10353000002213F8011F9D420A44FAD12E4B057850
:10354000A3FB0232520A002140F27A264B1C95421C
:103550009BB21FD945186D7995421BD2B34225D82D
:1035600021B303F1FF3C84441CF8015F95429FB2F4
:1035700015D91CF805EC964511D2A7EB010CBCF14E
:10358000270F3B462ADCB74210D839464B1C9542E0
:103590009BB2DFD8B34209D8C55C1946D6E70137DC
:1035A000BFB2B7F5207F03F10103DDD1134B1888BB
:1035B000DFED136A019A236807EE900AF8EEE77AC6
:1035C00086EEA77AF3EE097AB4EE677AF1EE10FA96
:1035D000C8BF3E209A420AD103B0F0BD781A0B440E
:1035E000084A064980B25B1008801380E0E7FEF7C6
:1035F000FFFD00BF000B0020CDCCCCCC480B002041
:103600000040C4444A0B00200000000000000000FD
:103610002DE9F04F384C394BA26939499161ADF52C
:10362000237D0DF1040A1B68A19350464FF42072CC
:1036300000210EF0A5FFDFF8D480324FDFF8D090E4
:103640002026002586F3118804F0FAFC03F0B8FC6C
:10365000D4F828B003F0D4FC04F00AFD2368A34298
:1036600007D0A2699B6892689A4202D2484603F04A
:1036700007FC85F311882448CDF800B004F0A0FDC4
:1036800001F0C6FE0023C25CC3F34E01023322F0F8
:103690000702B3F5A06F0AF80120F4D15046FFF7F6
:1036A0003FFF009B0099A8F800006431184604F021
:1036B000FFF986F3118804F0C3FC03F081FC03F0EA
:1036C0004FFDBB68002B13DD04F072F803F098FC8B
:1036D00004F0CEFC2368A34207D0A2699B689268DD
:1036E0009A4202D2484603F0CBFB85F31188A9E742
:1036F000044804F09DFDE7E718720020000B00204D
:10370000D05A01083C0B0020300B0020F848002064
:10371000E05A010800000000000000000000000066
:1037200030B50E4C0E4B22680E4885B00025039232
:103730004FF4AF614022009504F022F90A4B009546
:1037400040220A484FF4507104F01AF9039A236892
:103750009A4201D105B030BDFEF74AFD000B0020B2
:1037600011360008404C0020713400080049002048
:1037700010B5134C1348236882B0019304F020FD68
:10378000FFF7CEFC80B1104B1B88C72B12D90F4B13
:103790001888B0F5967F0FD96FF496731844B0F57A
:1037A000967F2CBF00200120019A23689A4205D100
:1037B00002B010BD0020F7E70220F5E7FEF718FD84
:1037C000000B00203C0B0020F84800204A0B002092
:1037D00010B5DFED150A154C82B023680193B0EEE9
:1037E000600AFAEE0A1AB2EE0A1AFFF719FDF2EEB3
:1037F0000A1AF2EE0E0AB0EE611AB0EE600AFFF796
:103800000FFD019A23689A420CD1DFED070AF2EE10
:103810000A1AB0EE600ABAEE0A1A02B0BDE8104009
:10382000FFF7FEBCFEF7E4FC50D68640000B0020FC
:1038300010B52E4C82B0F2EE0A1AF3EE0E0A23688F
:103840000193B0EE611AB0EE600AFFF7E9FCDFED1C
:10385000280AFAEE0A1AB0EE600AB2EE0A1AFFF768
:10386000DFFCF2EE0A1AF2EE0E0AB0EE611AB0EECA
:10387000600AFFF7D5FCDFED1F0AF2EE0A1AB0EE80
:10388000600ABAEE0A1AFFF7CBFCF2EE0A1AF2EE61
:103890000E0AB0EE611AB0EE600AFFF7C1FCDFED70
:1038A000140AFAEE0A1AB0EE600AB2EE0A1AFFF72C
:1038B000B7FCF2EE0A1AF3EE0E0AB0EE611AB0EEA1
:1038C000600AFFF7ADFC019A23689A420CD1DFED44
:1038D0000A0AFAEE0A1AB0EE600AB2EE0A1A02B04A
:1038E000BDE81040FFF79CBCFEF782FC000B0020F7
:1038F0006BC8B3406BC8334050D60641000000008F
:1039000010B5DFED3D0A3D4C82B023680193B0EE67
:10391000600AFAEE0A1AB2EE0A1AFFF781FCF2EE1A
:103920000A1AF3EE040AB0EE611AB0EE600AFFF76D
:1039300077FCDFED310AF2EE0A1AB0EE600ABAEE59
:103940000A1AFFF76DFCF2EE0A1AF3EE0E0AB0EE59
:10395000611AB0EE600AFFF763FCDFED270AF2EEB2
:103960000A1AB0EE600ABAEE0A1AFFF759FCF2EE34
:103970000A1AF3EE040AB0EE611AB0EE600AFFF71D
:103980004FFCDFED1D0AF2EE0A1AB0EE600ABAEE45
:103990000A1AFFF745FCF2EE0A1AF3EE0E0AB0EE31
:1039A000611AB0EE600AFFF73BFCDFED130AF2EE9E
:1039B0000A1AB0EE600ABAEE0A1AFFF731FCF2EE0C
:1039C0000A1AF3EE040AB0EE611AB0EE600AFFF7CD
:1039D00027FC019A23689A420CD1DFED070AF2EE28
:1039E0000A1AB0EE600ABAEE0A1A02B0BDE8104038
:1039F000FFF716BCFEF7FCFB50D68640000B0020FC
:103A000010B52E4C82B0F2EE0A1AF3EE0E0A2368BD
:103A10000193B0EE611AB0EE600AFFF701FCDFED32
:103A2000280AFAEE0A1AB0EE600AB2EE0A1AFFF796
:103A3000F7FBDFED240AF2EE0A1AB0EE600AB0EEF0
:103A4000611AFFF7EDFBDFED1E0AF2EE0A1AB0EE87
:103A5000600ABAEE0A1AFFF7E3FBF2EE0A1AF3EE77
:103A60000E0AB0EE611AB0EE600AFFF7D9FBDFED87
:103A7000160AFAEE0A1AB0EE600AB2EE0A1AFFF758
:103A8000CFFBF2EE0A1AF3EE0E0AB0EE611AB0EEB8
:103A9000600AFFF7C5FB019A23689A420CD1DFED5B
:103AA0000A0AFAEE0A1AB0EE600AB2EE0A1A02B078
:103AB000BDE81040FFF7B4BBFEF79AFB000B0020F7
:103AC0004433DB40713D104250D6064100000000F7
:103AD00010B54C4C82B0F2EE0A1AF3EE0E0A2368CF
:103AE0000193B0EE611AB0EE600AFFF799FBDFEDCB
:103AF000460AFAEE0A1AB0EE600AB2EE0A1AFFF7A8
:103B00008FFBF2EE0A1AF2EE040AB0EE611AB0EE82
:103B1000600AFFF785FBDFED3D0AFAEE0A1AB0EE08
:103B2000600AB2EE0A1AFFF77BFBDFED390AF2EE0C
:103B30000A1AB0EE600AB0EE611AFFF771FBDFED12
:103B4000330AFAEE0A1AB0EE600AB2EE0A1AFFF76A
:103B500067FBF2EE0A1AF2EE040AB0EE611AB0EE5A
:103B6000600AFFF75DFBDFED290AFAEE0A1AB0EEF4
:103B7000600AB2EE0A1AFFF753FBDFED250AF2EEF8
:103B80000A1AB0EE600AB0EE611AFFF749FBDFEDEA
:103B90001F0AFAEE0A1AB0EE600AB2EE0A1AFFF72E
:103BA0003FFBF2EE0A1AF2EE040AB0EE611AB0EE32
:103BB000600AFFF735FBDFED170AFAEE0A1AB0EEDE
:103BC000600AB2EE0A1AFFF72BFBF2EE0A1AF3EEC6
:103BD000040AB0EE611AB0EE600AFFF721FB019A09
:103BE00023689A420CD1DFED080AF2EE0A1AB0EE11
:103BF000600ABAEE0A1A02B0BDE81040FFF710BB27
:103C0000FEF7F6FA000B002050D6864050D606404C
:103C1000713D624150D606410000000000000000E6
:103C200010B5DFED1F0A1F4C82B023680193B0EE80
:103C3000600AFAEE0A1AB2EE0A1AFFF7F1FADFED9D
:103C40001A0AF2EE0A1AB0EE600AB0EE611AFFF735
:103C5000E7FADFED160AFAEE0A1AB0EE600AB2EEE3
:103C60000A1AFFF7DDFADFED100AF2EE0A1AB0EEDB
:103C7000600AB0EE611AFFF7D3FA019A23689A42FC
:103C80000CD1DFED0B0AF2EE0A1AB0EE600ABAEEC2
:103C90000A1A02B0BDE81040FFF7C2BAFEF7A8FA50
:103CA000ABE45C3F000B0020C3F5FC419F6FD640A6
:103CB0000B10F240000000000000000000000000B7
:103CC00010B5EC4C82B0F2EE0A1AF3EE0E0A23683D
:103CD0000193B0EE611AB0EE600AFFF7A1FADFEDD2
:103CE000E60AFAEE0A1AB0EE600AB2EE0A1AFFF716
:103CF00097FAF2EE0A1AF2EE040AB0EE611AB0EE8A
:103D0000600AFFF78DFADFEDDD0AFAEE0A1AB0EE6F
:103D1000600AB2EE0A1AFFF783FAF2EE0A1AF2EE1E
:103D2000040AB0EE611AB0EE600AFFF779FADFED2F
:103D3000D20AF2EE0A1AB0EE600ABAEE0A1AFFF7D9
:103D40006FFAF2EE0A1AF2EE0E0AB0EE611AB0EE57
:103D5000600AFFF765FADFEDC80AF2EE0A1AB0EE64
:103D6000600ABAEE0A1AFFF75BFAF2EE0A1AF2EEEE
:103D7000040AB0EE611AB0EE600AFFF751FADFED07
:103D8000BF0AFAEE0A1AB0EE600AB2EE0A1AFFF79C
:103D900047FAF2EE0A1AF2EE040AB0EE611AB0EE39
:103DA000600AFFF73DFADFEDB40AF2EE0A1AB0EE50
:103DB000600ABAEE0A1AFFF733FAF2EE0A1AF2EEC6
:103DC0000E0AB0EE611AB0EE600AFFF729FADFEDD5
:103DD000AA0AF2EE0A1AB0EE600ABAEE0A1AFFF761
:103DE0001FFAF2EE0A1AF2EE0E0AB0EE611AB0EE07
:103DF000600AFFF715FADFEDA00AF2EE0A1AB0EE3C
:103E0000600ABAEE0A1AFFF70BFAF2EE0A1AF3EE9C
:103E10000E0AB0EE611AB0EE600AFFF701FADFEDAC
:103E2000970AFAEE0A1AB0EE600AB2EE0A1AFFF723
:103E3000F7F9F2EE0A1AF3EE0E0AB0EE611AB0EEDE
:103E4000600AFFF7EDF9DFED8C0AF2EE0A1AB0EE28
:103E5000600ABAEE0A1AFFF7E3F9F2EE0A1AF2EE76
:103E6000040AB0EE611AB0EE600AFFF7D9F9DFED8F
:103E7000820AF2EE0A1AB0EE600ABAEE0A1AFFF7E8
:103E8000CFF9F2EE0A1AF2EE0E0AB0EE611AB0EEB7
:103E9000600AFFF7C5F9DFED790AFAEE0A1AB0EE0B
:103EA000600AB2EE0A1AFFF7BBF9F2EE0A1AF2EE56
:103EB0000E0AB0EE611AB0EE600AFFF7B1F9DFED5D
:103EC0006E0AF2EE0A1AB0EE600ABAEE0A1AFFF7AC
:103ED000A7F9F2EE0A1AF2EE0E0AB0EE611AB0EE8F
:103EE000600AFFF79DF9DFED640AF2EE0A1AB0EE00
:103EF000600ABAEE0A1AFFF793F9F2EE0A1AF2EE26
:103F0000040AB0EE611AB0EE600AFFF789F9DFED3E
:103F10005A0AF2EE0A1AB0EE600ABAEE0A1AFFF76F
:103F20007FF9F2EE0A1AF2EE040AB0EE611AB0EE70
:103F3000600AFFF775F9DFED500AF2EE0A1AB0EEEB
:103F4000600ABAEE0A1AFFF76BF9F2EE0A1AF2EEFD
:103F5000040AB0EE611AB0EE600AFFF761F9DFED16
:103F6000460AF2EE0A1AB0EE600ABAEE0A1AFFF733
:103F700057F9F2EE0A1AF2EE0E0AB0EE611AB0EE3E
:103F8000600AFFF74DF9DFED3C0AF2EE0A1AB0EED7
:103F9000600ABAEE0A1AFFF743F9F2EE0A1AF3EED4
:103FA0000E0AB0EE611AB0EE600AFFF739F9DFEDE4
:103FB000330AFAEE0A1AB0EE600AB2EE0A1AFFF7F6
:103FC0002FF9F2EE0A1AF2EE040AB0EE611AB0EE20
:103FD000600AFFF725F9DFED280AF2EE0A1AB0EEC3
:103FE000600ABAEE0A1AFFF71BF9F2EE0A1AF2EEAD
:103FF000040AB0EE611AB0EE600AFFF711F9DFEDC6
:104000001F0AFAEE0A1AB0EE600AB2EE0A1AFFF7B9
:1040100007F9F2EE0A1AF2EE040AB0EE611AB0EEF7
:10402000600AFFF7FDF8DFED140AF2EE0A1AB0EEAF
:10403000600ABAEE0A1AFFF7F3F8F2EE0A1AF3EE84
:10404000040AB0EE611AB0EE600AFFF7E9F8019ACF
:1040500023689A420CD1DFED090AFAEE0A1AB0EE93
:10406000600AB2EE0A1A02B0BDE81040FFF7D8B8F5
:10407000FEF7BEF8000B002050D6864050D6064111
:1040800030B54368174D1A68296883B0044601911A
:1040900012B304220270DA681B685208114698476E
:1040A0002378042B18D0202383F3118803F0F8FF22
:1040B00002F0C6FF04F10800002103F0F1FD02F058
:1040C000DFFF04F005F8002383F31188019A2B68C1
:1040D0009A4204D103B030BD02232370E3E7FEF718
:1040E00087F800BF000B0020000000000000000067
:1040F00070B5194D82B02B68019311F00C0F0C466E
:10410000064622D114F0200109D0019A2B689A4268
:104110001FD1304602B0BDE87040FFF7B1BFE306E3
:104120000DD57268136853B1019C2868844210D180
:10413000D2683046520802B0BDE870401847019A74
:104140002B689A4205D102B070BD044802F098FE77
:10415000D8E7FEF74DF800BF000B0020105B010808
:1041600070B5194D82B02B68019311F00C0F0C46FD
:10417000064622D114F0200109D0019A2B689A42F8
:104180001FD1304602B0BDE87040FFF779BFE306AB
:104190000DD57268136853B1019C2868844210D110
:1041A000D2683046520802B0BDE870401847019A04
:1041B0002B689A4205D102B070BD044802F060FE3F
:1041C000D8E7FEF715F800BF000B0020105B0108D0
:1041D00030B50F4D0F4C2A680F4B83B0204601922B
:1041E0004FF6FF721A8000F013FC0C4B01992A68FD
:1041F0000B480C4D2562636203F1240591420A4B82
:104200002363C4E90A5001D103B030BDFDF7F0FFCC
:10421000000B0020D0510020B85100209867010801
:104220001E010100003C00404600010000000000AB
:1042300070B52C4D03782A6882B0012B0446019298
:1042400024D06368E26A5989236B22F4F04223F494
:10425000F043090544BF42F4205243F42053C4E91B
:104260000B23236A00221A606268236A52891A604B
:10427000236A03225A60226A136843F040031360E2
:10428000019A2B689A422BD102B070BD164EB042F3
:104290000AD0D4E9083212680C339360A26A236A08
:1042A00012680C339360CCE70346104A406A0A2137
:1042B00007F00EFE80B9B06A0B4B0D4A0A2107F0D9
:1042C00007FE28B90B4A136C43F400431364E0E77C
:1042D000094802F0D5FDF5E7074802F0D1FDEAE70D
:1042E000FDF786FF000B0020D0510020614100083F
:1042F000F140000800380240F05A010800000000B8
:1043000070B5456A174C2D68266882B00196EB603F
:10431000436A1B685960456AC36A2D6843F4806329
:104320002B60836A1B68DA60836A1B685960826A43
:10433000036B126843F480631360436A1A6813685E
:1043400043F001031360836A1A68136843F00103A2
:104350001360019A23689A4201D102B070BDFDF743
:1043600047FF00BF000B002000000000000000001D
:1043700030B5104D81682B680F4A83B001930B68EC
:1043800023F001030B608168946A03E0936A1B1BAE
:10439000C72B09D8086810F00100F7D1019A2B68E3
:1043A0009A4204D103B030BD4FF0FF30F6E7FDF77D
:1043B0001FFF00BF000B002018720020000000004B
:1043C00030B5184D83B02B68019311F00C0F0446E3
:1043D0000AD00378032B13D00622636822709A68F0
:1043E0001AB100212046904763685B688BB1019940
:1043F0002A68914213D1204603B0BDE830401847E7
:10440000FFF7B6FF0622636822709A68002AE8D197
:10441000EBE7019A2B689A4201D103B030BDFDF75A
:10442000E7FE00BF000B00200000000000000000BD
:10443000F0B5284D83B02B68019303F0C9FD02F05D
:104440003FFE254B1E69F20715D55A69234C42F0F1
:1044500001025A612778BB1F012B2AD90522636804
:1044600022701B680BB120469847042F27D0022FDB
:1044700025D003232370B30710D5174A174C53696F
:1044800043F0020353612378032B1DD063689B68BC
:104490000622227013B101211048984702F038FE1D
:1044A000019A2B689A4213D103B0BDE8F04004F0A2
:1044B000B7BD019A2B689A420AD103B0F0BD02231E
:1044C0002370B307EAD5D8E72046FFF751FFDDE7B1
:1044D000FDF78EFE000B002000000550BC510020AF
:1044E00030B50B4D0B4C2B6883B02046019300F088
:1044F0002FF9019A2B680848084D094921619A4211
:10450000C4E9025001D103B030BDFDF771FE00BF18
:10451000000B0020BC510020EC6701080000055092
:10452000165502020000000000000000000000001C
:104530002DE9F0412F4C0578266882B0012D0196B7
:1045400006D0019A23689A4252D102B0BDE8F081A8
:10455000294DA842F5D10E4690461F46274AE868E5
:104560002B460C2107F0B4FC002839D1D5E90232E2
:10457000126828339360EB681A68042151611B6844
:10458000C3F80C80EB681A6817611B68B6085E6098
:104590002B694FB343F480232B61E968184A0968FB
:1045A0000B60EB6819680B6843F001030B60536BF9
:1045B00043F0010353630B214E2007F069F9D5E95D
:1045C0000113DA6842F00102DA60DA6842F00202AE
:1045D000DA60CA6822F4804222F001021A60B0E771
:1045E000084802F04DFCC1E723F480232B61D4E797
:1045F000FDF7FEFD000B0020BC510020C143000868
:1046000000380240205B01080000000000000000AC
:1046100030B5184C0378226883B0022B019205D084
:10462000019A23689A4223D103B030BD124B9842BD
:104630000546F5D18168114A0B6823F4804323F0C5
:1046400001030B608168CB6823F00F03CB60536BD1
:1046500023F0010353634E2007F042F9019A2368C7
:104660009A4205D1E86803B0BDE8304007F098BC35
:10467000FDF7BEFD000B0020BC51002000380240B9
:1046800000B50F4B0278196883B0022A01910ED150
:1046900081680A6842F002020A6081680A6842F48E
:1046A00080420A6081680A6842F001020A60019A49
:1046B0001B689A4202D103B05DF804FBFDF798FD38
:1046C000000B0020000000000000000000000000BF
:1046D00000B50F4B0278196883B0022A01910ED100
:1046E00081680A6822F002020A6081680A6842F45E
:1046F00080420A6081680A6842F001020A60019AF9
:104700001B689A4202D103B05DF804FBFDF770FD0F
:10471000000B00200000000000000000000000006E
:1047200000B5074B83B01A680192019A1B689A4240
:1047300004D103B05DF804EBFFF7D2BEFDF758FDDE
:10474000000B00200000000000000000000000003E
:1047500000B5084B83B01A68019201220270019AD9
:104760001B6800219A42416002D103B05DF804FB4E
:10477000FDF73EFD000B00200000000000000000DF
:104780002DE9F043254D83B02C680194DDF8289085
:104790000F4616469846044618B111B1204B9A426E
:1047A0002FD9204802F06CFB202383F3118803F0FB
:1047B00047FC02F005FC2378012B02D0194802F0D7
:1047C0005FFB4246314620464B466760FFF7B0FE2E
:1047D0000223237002F014FC03F04AFC124B1A6807
:1047E0009A4204D0996993688A689A420FD3002349
:1047F00083F31188019A2B689A420CD103B0BDE86B
:10480000F0839307CDD1B8F1000FCDD1C9E70748A8
:1048100002F036FBEBE7FDF7EBFC00BF000B0020DE
:10482000FCFF0300505B010818720020405B010888
:1048300030B51C4D83B02B680193044658B3202338
:1048400083F3118803F0FCFB02F0BAFB2378022B00
:1048500002D0154802F014FB2046FFF7D9FE0123D1
:10486000237002F0CDFB03F003FC104B1A689A4250
:1048700004D0996993688A689A4208D3002383F325
:104880001188019A2B689A4209D103B030BD0848BB
:1048900002F0F6FAF2E7044802F0F2FACFE7FDF789
:1048A000A7FC00BF000B0020605B0108187200200D
:1048B000405B010800000000000000000000000054
:1048C00030B51C4D83B02B680193044658B32023A8
:1048D00083F3118803F0B4FB02F072FB2378022B00
:1048E00002D0154802F0CCFA2046FFF7C9FE042397
:1048F000237002F085FB03F0BBFB104B1A689A4251
:1049000004D0996993688A689A4208D3002383F394
:104910001188019A2B689A4209D103B030BD08482A
:1049200002F0AEFAF2E7044802F0AAFACFE7FDF788
:104930005FFC00BF000B0020705B010818720020B4
:10494000405B0108000000000000000000000000C3
:1049500030B51C4D83B02B680193044658B3202317
:1049600083F3118803F06CFB02F02AFB2378022BFF
:1049700002D0154802F084FA2046FFF7A9FE03236F
:10498000237002F03DFB03F073FB104B1A689A4250
:1049900004D0996993688A689A4208D3002383F304
:1049A0001188019A2B689A4209D103B030BD08489A
:1049B00002F066FAF2E7044802F062FACFE7FDF788
:1049C00017FC00BF000B0020905B0108187200204C
:1049D000405B010800000000000000000000000033
:1049E00000B5074B83B01A680192019A1B689A427E
:1049F00004D103B05DF804EBFFF7EABBFDF7F8FB69
:104A0000000B00200000000000000000000000007B
:104A100000B50A4B83B01A68019201220270019915
:104A20001A6800239142C0E9013305D10C3003B06C
:104A30005DF804EB03F03CBCFDF7DAFB000B002053
:104A400070B51E4D82B02B6801930E46044670B3BC
:104A500069B3202383F3118803F0F2FA02F0B0FA6D
:104A60002378013B012B02D9154802F009FA2046B0
:104A70006660FFF7DDFB0223237002F0C1FA03F04A
:104A8000F7FA104B1A689A4204D0996993688A68B9
:104A90009A4208D3002383F31188019A2B689A4223
:104AA00009D102B070BD084802F0EAF9F2E7044803
:104AB00002F0E6F9CDE7FDF79BFB00BF000B0020FD
:104AC000B05B010818720020A05B01080000000024
:104AD0002DE9F041214D82B02C6801940E4690469C
:104AE0001F46044600B171BB1D4802F0C9F92023DE
:104AF00083F3118803F0A4FA02F062FA2378022B00
:104B000002D0174802F0BCF903203B46424631462A
:104B100020702046FFF7F4FB02F072FA03F0A8FAC7
:104B2000104B1A689A4204D0996993688A689A422D
:104B30000ED3002383F31188019A2B689A420BD17C
:104B400002B0BDE8F081002BCED0002ACFD1CBE758
:104B5000054802F095F9ECE7FDF74AFB000B002051
:104B6000C05B010818720020A05B01080000000073
:104B70002DE9F04F394A3A4B126883B00124019273
:104B80001C70002963D04FF00008364CC246C34663
:104B9000C1464746C446434647F6FF7E1DE0AB4547
:104BA000A8BFAB46024432F9026CB2F90450B442D9
:104BB000B8BF3446B645A8BFB6464D4545DCA84506
:104BC000A8BFA846B2F90220BA420EDC04339245CF
:104BD0009BB2A8BF924699420CD95D1C6A0030F97D
:104BE00015506545DBDDAC46DCE704339BB29942EA
:104BF0001746F2D8A4EB0E04ACEB0B0CA7EB0A079C
:104C0000A9EB0808A4B21FFA8CFCBFB21FFA88F8FF
:104C1000154A12491480019C0968144BA2F802C07D
:104C20009780B0F8F8C4B0F8FA64A2F80680B0F83B
:104C3000FC54B0F8FE24A3F800C08C425E809D8036
:104C4000DA8008D103B0BDE8F08FA946BAE78846FC
:104C50000F468C46DCE7FDF7CBFA00BF000B0020C7
:104C6000045200200080FFFF105200200852002054
:104C700070B53F4B3F4C1A78236882B0012A0193EC
:104C800005D0019A23689A4270D102B070BD3A49AA
:104C90003A4B4D6C45F480354D644E6A002546F420
:104CA00080364E624D621D61DD60196A21F001019E
:104CB0001962996921F003019961996941F0010133
:104CC0009961996921F0F0019961196A21F00A014D
:104CD0001962996921F00C019961996821F07001BC
:104CE0009960996841F050019960996821F4803188
:104CF00021F007019960996841F0070199601968EE
:104D000021F440711960DA629D625A61196A21F0DA
:104D100010011962996921F440719961996921F032
:104D2000807121F4E0419961996941F4C041996130
:104D3000196A21F0A00119629A639A6942F400622B
:104D40009A611A6A22F480621A621A6A42F01102A7
:104D50001A621A6842F001021A6020B10090684697
:104D600000F076F98DE7064B0093F8E7FDF740FA7F
:104D7000547F0020000B002000380240004001401A
:104D8000714B00080000000000000000000000005F
:104D900070B5114C82B0236801930E46154620234E
:104DA00083F3118803F07CF902F04AF90B4B0C48AD
:104DB000C3E9006503F03CFA02F062F903F088F9F8
:104DC000002383F31188019A23689A4201D102B02B
:104DD00070BDFDF70DFA00BF000B00202867002012
:104DE0001852002000000000000000000000000039
:104DF00070B5114C82B0236801930E4615462023EE
:104E000083F3118803F04CF902F01AF90B4B0C48AC
:104E1000C3E9006503F00CFA02F032F903F058F927
:104E2000002383F31188019A23689A4201D102B0CA
:104E300070BDFDF7DDF900BF000B00200C65002000
:104E400018520020000000000000000000000000D8
:104E50002DE9F04F624B63499A69634B916185B0CC
:104E60001B6803935E4B9B6993F821305B0700F14D
:104E7000AD805E4803F0A4F95C4803F0A1F9584BFB
:104E80009B6993F8212012F0040240F09F80584D56
:104E900058482B6801680446406805EB830304EB1F
:104EA000810103F50279430001F10808019343D021
:104EB000DFF850B1504BDFF85CA1012018F8125018
:104EC00018F8006019F8121019F8004005F0550C98
:104ED000770806F0550613F80CC09E5D01F0550EDC
:104EE0004CEA061649084FEA540C01F0550104F04B
:104EF00055040CF0550C6D0813F80EE0595C1C5D60
:104F000013F80CC00BF8126005F0550507F05507B3
:104F100041EA0C114EEA041E0AF812E05D5D0AF83F
:104F20000010DF5D0199013245EA071591420BF847
:104F3000005000F10200C1D1304B31493148324DAF
:104F40000422FBF795FA314B314932480422FBF732
:104F50008FFA314B314932480422FBF789FA314B41
:104F6000314932480422FBF783FADFF8D4C02868BD
:104F70009CF80070224A264900EBC71302F1400654
:104F800014881C8054885C804C889C80043231F8E2
:104F9000044BDC80964203F10803F1D1092F11D1B3
:104FA000234B00221B688CF800204FF42071984797
:104FB0002B68204A204993420B6006BF1F4B2B6091
:104FC0002A604FE701378CF800704BE7064B039AD5
:104FD0001B689A4202D105B0BDE8F08FFDF708F9D1
:104FE00018720020E05B0108000B0020185200201E
:104FF000286700200C6500204C0B0020E462002094
:10500000A0570020E0570020CC0B00204C6300206C
:10501000B4630020F463002018630020A25700202E
:10502000E157002080630020B6630020F563002074
:10503000F4640020E0580020D00B0020E05D002048
:10504000E0620020000000000000000000000000FE
:105050002DE9F04F494A0168494B116085B00021A4
:105060000E461B684748039303F04AF84FF4AF61BC
:10507000454B009641224548454DDFF84891454C47
:10508000DFF844A1444F02F07BFC444B444A1860D3
:10509000136BC5F804A043F480534FF002184FF48B
:1050A0007A5B13632846C5E90298A5F800B0FBF7C0
:1050B00027F92046C4E901A9C4F80C80A4F800B07F
:1050C000FBF71EF905F13400C5E90EA9C5F84080CB
:1050D000A5F834B0FBF714F9324DC4F8408004F160
:1050E0003400C4E90EA9A4F834B0FBF709F931463D
:1050F00040F20C4238460DF043FADFF8D0902A4ACD
:105100006E604FF400634FF080082E812A606B813F
:10511000264CC5F80C80C7F80894FFF761FC2946B7
:105120002348244DFFF78CFC07F5027307F10802B2
:105130004FF480711E48FFF7CBFC314620464FF4F8
:1051400003720DF01DFA1C4B1C4AC4F80892083477
:105150001A611946C3E900641948C3E9028504F0DD
:1051600027FC074B039A1B689A4205D1144805B0E7
:10517000BDE8F04F04F064BCFDF73AF8F464002099
:10518000000B002018520020514E00082852002029
:10519000E46200204C630020286700202452002095
:1051A0000038024018670020914D00080C6500206F
:1051B000D0510020F14D0008F86400202C030800B5
:1051C000547F0020000020410000FA45EFBEADDE14
:1051D00000B5064B83B01A680192019A1B689A4287
:1051E00002D103B05DF804FBFDF702F8000B0020CC
:1051F00000B5064B83B01A680192019A1B689A4267
:1052000002D103B05DF804FBFCF7F2FF000B0020B5
:1052100010B5104C104B226882B0019201221A7016
:10522000202383F3118802F03BFF01F009FF0B48B4
:1052300003F05EFA01F024FF02F04AFF002383F33B
:105240001188019A23689A4201D102B010BDFCF77F
:10525000CFFF00BF000B0020406B0020D40B0020CC
:1052600030B50E4D0E4C2B6883B00193FFF758FA02
:10527000206808B10CF0BCFE4FF496400CF0B0FE74
:1052800001992A682060B0FA80F35B099142C3F16A
:10529000000001D103B030BDFCF7AAFF000B0020D5
:1052A000386B00200000000000000000000000003B
:1052B00030B5174D174C2B78226885B0012B03921F
:1052C00020D000F0D5FB144B1B78ABB9B0F5964F4E
:1052D00015D8124A124B12681B68124900920246F6
:1052E0001148FFF74DFA01232B700020039A236821
:1052F0009A420BD105B030BDB0F5165FE9D94FF039
:10530000FF30F3E70848FFF793FADAE7FCF770FF9E
:10531000356B0020000B0020366B00203C6B00201A
:10532000386B0020F05B0108BC5100200000000039
:1053300010B50B4C0B48236882B0019303F0A0F822
:10534000094803F07DFA019A23689A4205D105487D
:1053500002B0BDE8104003F0CBB8FCF749FF00BF36
:10536000000B0020DC0B0020D40B0020000000000C
:1053700030B5154D154C164B2268286883B0019244
:1053800001221A7008B10CF033FE4FF416500CF0E5
:1053900027FE286098B10F4D286808B10CF028FE50
:1053A0004FF416500CF01CFEB0FA80F35B09286035
:1053B0005842019A23689A4204D103B030BD4FF09D
:1053C000FF30F6E7FCF714FF386B0020000B0020DD
:1053D000366B00203C6B0020000000000000000045
:1053E00000B5074B07491A68087083B00192019A0B
:1053F0001B689A4202D103B05DF804FBFCF7F8FE8B
:10540000000B0020346B00200000000000000000B2
:1054100000B50D4A0D4B1278196883B0019142B165
:105420000B4AD26812681268120302D4094A106843
:1054300001E0094A1068019A1B689A4202D103B040
:105440005DF804FBFCF7D4FE366B0020000B002057
:10545000BC5100203C6B0020386B00200000000095
:1054600000B50E4A0E4B1278196883B001914AB10B
:10547000019A1B689A420FD10A4803B05DF804EB09
:10548000FFF766BA019A1B689A4205D1054803B036
:105490005DF804EBFFF714BAFCF7AAFE346B0020AA
:1054A000000B0020BC5100200000000000000000A4
:1054B00070B5274D82B02B68019306460122032167
:1054C0006E2000F04DFB044630B1019A2B689A42E1
:1054D00020463AD102B070BD32464E216E2000F017
:1054E0003FFB04460028F0D1442E07D00246B721E6
:1054F0006E2000F035FBB8B10446E6E70122B72183
:105500006E2000F02DFB0028F6D1224603216E20EC
:1055100000F026FB0028EFD1032211216E2000F0BD
:105520001FFB78B10446D0E7224603216E2000F02D
:1055300017FB0028E0D10A2211216E2000F010FB99
:105540000028D9D1034B1E71BFE7FCF751FE00BF05
:10555000000B0020446B0020000000000000000051
:105560002DE9F04F8FB0DFF80084DDF860C0D8F887
:1055700000400D940CF1FF355C1EB3F5207F9DF8C3
:1055800064909DF868B00C44154400F21282BCF59A
:10559000F07F00F20E82B1F5207F0E4600F21282FB
:1055A000B2F5F07F174600F21082A14280F004822B
:1055B000B4F5207F00F20082AA4280F00082B5F5A7
:1055C000F07F00F2FC81B9F1400F824600F0B0811B
:1055D000B9F1800F23D0B9F1200F00F09C81002396
:1055E000CDE90033BBF1400F2FD0BBF1800F00F0AD
:1055F000CB81BBF1200F00F0B9810023CDE902334C
:10560000002203216E2000F0ABFAA0B30D9AD8F867
:1056100000309A4240F0E2810FB0BDE8F08F9A0767
:1056200040F0D681CC4A8C085900661CA2FB0101CF
:10563000A2FB030204EB930406EBD2030093BBF13D
:10564000400F06EBD1030193CFD11CF0010F40F0C6
:10565000C281C14B7D084FEA4C026F1CA3FB0212B2
:10566000A3FB0C1307EB9303029307EB920305EBE9
:105670005C050393C4E702465B216E2000F070FADC
:105680000028C3D15046FFF713FF0028BED10246C1
:1056900003216E2000F064FA0028B7D1C6F3072377
:1056A0001A4608216E20049300F05AFA0028ADD162
:1056B000F3B21A4609216E20059300F051FA002832
:1056C000A4D1C7F307231A460A216E20069300F0DF
:1056D00047FA00289AD1FBB21A460B216E20079395
:1056E00000F03EFA002891D1C4F307231A460C219A
:1056F0006E20089300F034FA002887D1E3B21A46EE
:105700000D216E20099300F02BFA00287FF47EAF64
:10571000C5F307231A460E216E200A9300F020FAE3
:1057200000287FF473AFEBB21A460F216E200B9363
:1057300000F016FA00287FF469AF049A35216E2034
:1057400000F00EFA00287FF461AF059A36216E2032
:1057500000F006FA00287FF459AF089A37216E202E
:1057600000F0FEF900287FF451AF099A38216E202D
:1057700000F0F6F900287FF449AF069A39216E202F
:1057800000F0EEF900287FF441AF079A3A216E202D
:1057900000F0E6F900287FF439AF0A9A3B216E2029
:1057A00000F0DEF900287FF431AF0B9A3C216E2027
:1057B00000F0D6F900287FF429AF009B3D21C3F308
:1057C00007226E2000F0CCF900287FF41FAF9DF86F
:1057D00000203E216E2000F0C3F900287FF416AFB0
:1057E000019B3F21C3F307226E2000F0B9F9002886
:1057F0007FF40CAF9DF8042040216E2000F0B0F93A
:1058000000287FF403AF029B4121C3F307226E20DF
:1058100000F0A6F900287FF4F9AE9DF80820422197
:105820006E2000F09DF900287FF4F0AE039B432129
:10583000C3F307226E2000F093F900287FF4E6AE50
:105840009DF80C2044216E2000F08AF900287FF496
:10585000DDAE012203216E2000F082F900287FF4E2
:10586000D5AE4A4693216E2000F07AF900287FF4E5
:10587000CDAE5A4694216E2000F072F900287FF4D4
:10588000C5AE012203216E2000F06AF900287FF4E2
:10589000BDAE0134A31B07EE103ADFED307AB8EE4F
:1058A000477ABAF1440F77EEC77A00F09980B0EEEC
:1058B000006AF2EE006AE7EE066A77EEA77AB0EECB
:1058C000667A67EE877ADFED266A87EEA67AFCEEC7
:1058D000C77ACDED007A009B9521C3F307226E2095
:1058E00000F03EF900287FF491AE9DF8002096214B
:1058F0006E2000F035F900287FF488AE194B013591
:10590000EF1BA41B5F801C8083F804A083F8059024
:1059100083F806B07AE610495A00A1FB030306EBB0
:105920005303A1FB0212009306EB5203019359E6C5
:10593000D9074DD4084A74085900661CA2FB01011E
:10594000A2FB030204EB530406EB9203009306EB65
:105950009103019346E600BFABAAAAAA0000224425
:105960000000A344446B0020000B0020244A4FEAAF
:105970004C03A2FB0C1CA2FB032307EB530307EB16
:105980005C02029203933BE61CF0030F23D11C4BF5
:10599000BD084FEA4C026F1CA3FB0212A3FB0C13C1
:1059A00007EBD303029307EBD20305EB9C050393AC
:1059B00026E66FF0070029E66FF0030026E66FF099
:1059C000040023E66FF0010020E66FF002001DE600
:1059D0006FF005001AE66FF0060017E6FCF708FC0A
:1059E000F2EE006A37EE267ADFED066A67EE277A76
:1059F00087EEA67AFCEEC77ACDED007A6BE700BFA2
:105A0000ABAAAAAA00002444000000000000000085
:105A100010B5114C86B02368059300F081F80F494A
:105A20000F4804F085F8012200210D4804F018F910
:105A300020237822CDE901330092A023B422F02163
:105A40000220FFF78DFD059A23689A4201D106B026
:105A500010BDFCF7CDFB00BF000B0020005C01086F
:105A60003080002000000000000000000000000066
:105A700010B50A4B0A4A1988146858881B7982B0F5
:105A8000442B019400FB01F00199136818BF4000FA
:105A9000994201D102B010BDFCF7AAFB446B002073
:105AA000000B0020000000000000000000000000CB
:105AB00070B5164E16483368154D82B005224FF466
:105AC0008071019308F02CF820246B6983F48073B3
:105AD0006B61012001F0ACFF631E13F0FF04F4D1F1
