:020000040800F2
:1000000000040020C1010008816800088168000820
:10001000A15900088168000881680008816800080B
:10002000816800088168000881680008E18A00088A
:1000300081680008816800088168000851F700089D
:1000400081680008D1C4000861C60008B1C6000874
:10005000816800088168000811C2000861C20008B8
:10006000B1C2000801C3000851C3000861B4000810
:10007000B1B4000801B5000851B50008A1B50008E9
:10008000F1B5000841B6000851BF000851C800088A
:10009000C1C8000871C9000821CA0008A1C300082E
:1000A0008168000881680008B1F1000881680008D3
:1000B00011F3000851F3000891F30008E1D700089C
:1000C00021D900088168000881680008816800085B
:1000D00081680008816800088168000811F800083C
:1000E00031C4000821C5000871C50008F1F10008FD
:1000F00081680008816800088168000891B60008DE
:1001000081680008B1CB0008D1F3000881680008BD
:10011000816800088168000871F1000881680008A2
:10012000E1B6000831B7000881B70008D1B7000870
:1001300021B8000881680008C1C50008816800086E
:1001400081680008816800088168000801EC0008E7
:1001500071B80008C1B8000811B90008816800082A
:1001600081680008816800088168000881680008CB
:1001700011C6000881680008C13F000881680008B6
:1001800081680008816800088168000881680008AB
:10019000816800088168000881680008816800089B
:1001A000816800088168000881680008816800088B
:1001B000816800088168000881680008816800087B
:1001C00072B62E4880F3098840F20000CCF200009D
:1001D0004EF63471CEF20001086040F20000C0F229
:1001E000F0004EF68851CEF2000108604FF000009A
:1001F000E1EE100A4EF63C71CEF2000108600620D6
:1002000080F31488BFF36F8F0FF04AFC4FF0553026
:100210001B491C4A91423CBF41F8040BFAE71A49BA
:10022000164A91423CBF41F8040BFAE71749184AB5
:10023000184B9A423EBF51F8040B42F8040BF8E702
:1002400000201549154A91423CBF41F8040BFAE7DA
:1002500006F0FEFA124C134DAC4203DA54F8041BBC
:100260008847F9E701F05CFF0F4C104DAC4203DA10
:1002700054F8041B8847F9E706F0FABA0008002092
:10028000000000200004002000040020189F010846
:1002900000080020CC150020D0150020F08100209F
:1002A000C0010008C0010008C0010008C00100082A
:1002B0002DE9F04F2DED108AC1F80CD0D0F80CD0FC
:1002C000BDEC108ABDE8F08F06F01AFC07F050FC78
:1002D000002383F311882846A047002007F0E8F99F
:1002E00007F02EFC06F0ECFB07F00AF806F008FC1D
:1002F00007F03EFC00DFFEE7000000000000000009
:100300002DE9F843544B80461A68544882422DED3B
:10031000028B1BD052490B68DA0405D40A6842F4F8
:1003200080530B60012000E000204E4A4E491160CE
:1003300013684A4A934208D147490B6030B1484894
:10034000036823F48052026000E0FEE798ED018A22
:10035000B5EE408A0021F1EE10FAC8F81C10C8F87A
:100360001810C8F81410C8F81010C8F82810C8F8E9
:100370002410C8F8201029D0DFED3C7A28EE270A97
:1003800010EE100A01F038F8044618EE100A0D4677
:1003900001F032F80646B8F800000F4601F01AF8EE
:1003A0002BA3D3E9002301F0ADF902460B463046FA
:1003B000394600F0C3FE02460B462046294601F0AE
:1003C000A1F901F055FBA8F82C0001E0A8F82C10C9
:1003D00098ED028AB5EE408AF1EE10FA26D0B8F810
:1003E00000904FEA092000F0F5FF044618EE100ACD
:1003F0000D4601F001F816A3D3E9002301F058F8E7
:10040000064648460F4600F0E5FF02460B463046DA
:10041000394600F093FE02460B462046294601F07D
:1004200071F901F025FBA8F82E0002E00020A8F8E1
:100430002E00B8F800204FF47A73B2FBF3F1A8F85D
:100440003010BDEC028BBDE8F88300BFAFF3008035
:100450001F85EB51B81E1940D0150020CDB5E8B569
:100460003038024000300240C2A507F4000080434B
:100470002DE9F04F9BB083461992A94A1891A948DB
:100480001168814200D0FEE79E6AB3F80CC09F69F4
:100490009A8DD98D039603261C6A5D6A059706928C
:1004A00006FB0CF74FEA8C0206264FEA4C000B9134
:1004B0000E97052106FB0CF70F9207220294049574
:1004C0000D90119701FB0CF04FEACC0602FB0CF1EA
:1004D00000271D695C69D3F81CA010901291179633
:1004E0000197188EDDF80490814580F20A818E48CC
:1004F0009BF800601BF80C7010F80690C25DA144D8
:100500008419511994F8008194F8002201EB4808ED
:10051000CDF81C80DDF834801BF80860855DC719B4
:10052000A9180E9A97F800411BF8022097F800725C
:1005300001EB4405815C0895CC1981190F9E91F857
:10054000008191F8007204EB48081BF80640CDF8D2
:1005500024808218055D92F8006192F80022E91962
:1005600001EB460505EB0807DDF8408015971BF801
:1005700008700A950419C15D94F8005194F800427E
:10058000DDF81C808E1806EB4501119D089A1BF8BA
:1005900005508E18C719425D1696161997F8002156
:1005A00006EB42029044CDF85080129C97F80072FE
:1005B0001BF804604519845DE41995F8007195F8FD
:1005C0000052801904EB47044FF01C0804EB0907A4
:1005D00090F80061139708FB09AADDF81C800C94C1
:1005E0000AEB0209152705EB460490F8005207FBB9
:1005F0000890099FDDF820900A2606FB070A0F27BE
:1006000007FB09A04FF00308DDF8289008FB010064
:100610004FF0060A0AFB0900009015984FF03009C8
:1006200009FB00FADDF858902E2000FB09A0824655
:100630000598824413984FF0240909FB00AA1498E6
:100640004FF02A0909FB00AA0898DDF8249008FB5E
:1006500000F8062000FB0988DDF81C9008EB090073
:1006600007FB01010A9F0C98DDF8009006FB0718B4
:100670001C2606FB008115270B9807FB021205922A
:10068000A9F5003868B1029E049FCDF8108006EBF2
:100690000801CE1B46434FF4807296FBF2F00290A5
:1006A0008046069961B1039E08FB01F8C1F5807789
:1006B00006FB07894FF4807299FBF2F003908046A5
:1006C000199901FB08F7002F02DD0837381103E004
:1006D000083F102697FBF6F047F6BC72019E1349BF
:1006E000189FDDF85C809042A8BF1046DA897243FB
:1006F0008842A8BF0146013627F81210C34401966C
:10070000EFE61D615C61029D059C1D629C61039D7D
:10071000049CC3F81CA05C629D621BB0BDE8F08F16
:10072000D0150020CDB5E8B5000800204480FFFFBB
:100730002DE9F04FA1B0C74C1F92C74A1E91116816
:10074000A14200D0FEE79F6A9A69998DDC8D0497DB
:100750009F89069207910F940322052106241D6AA2
:100760005E6A03957A4379437C43129214911594FF
:10077000072209210A24794305964FEA47084FEAE0
:1007800087097A434FEAC70A7C431E695D69D3F83B
:100790001CB01891CDF84480CDF84C901692CDF84D
:1007A0005CA01D94002102911A8E0299914280F260
:1007B0005981AA4A047812F80490A944C55D111918
:1007C00012F8058091F8004191F800A2464406EB2A
:1007D0004406119C0896045D5519165D95F800C1F4
:1007E00095F8005206EB0A0808EB4C0ADDF8488041
:1007F000CDF824A010F80810DDF84C80565C1419D0
:1008000006EB050A10F8085094F800C1565D94F8FC
:10081000004251180AEB4C0C361991F800A1149CB7
:1008200091F80012CDF828C006EB4A08065DCDF815
:100830002C80945DDDF85480551904EB010A95F87D
:10084000004195F800520AEB44010C9110F8081091
:100850009619545C641996F8005104EB45040D9404
:10086000169D96F80062DDF824A0DDF85C80A444B3
:10087000445DCDF86CC0155D5118AD1991F800615B
:1008800091F8001205EB460505EB0A060E9510F8E7
:1008900008501C961419565DDDF860A0711894F884
:1008A000006194F8004201EB460C08990CEB01063C
:1008B0001A9610F80A605519915D9219091995F860
:1008C000004192F8006195F8005201EB44012D249B
:1008D00001EB090804FB09BB10910899CDF864806D
:1008E0000BEB0C09DDF8288005EB460592F8006259
:1008F000242202FB019A152404FB08A9DDF824A098
:100900000C994FF01C0B0BFB0A994FF00A08DDF80D
:100910002CA008FB01994FF00F0B0E990BFB0A99C5
:100920004FF00308DDF834A008FB01994FF0060BE7
:100930000BFB0A99CDF80490DDF82CA00C994FF030
:100940004B0B51440BFB01F91B994FF0490A0AFB71
:10095000019B0699DDF868900BEB010A4FF03F0B05
:100960001C990BFB09AA4FF0450BDDF864900BFBBB
:1009700001AA4FF0370B0BFB09ABDDF824A00A9955
:1009800008FB0AF84FF00609DDF820A009FB0188F2
:100990000C99D0444FF00F09DDF82CA009FB018819
:1009A0000A21DDF8389001FB0A884FF01C0A0D99E6
:1009B0000AFB098804FB018A109C0F994FF02D094E
:1009C00009FB04A8DDF804A002FB0C820692AAF53C
:1009D0007A3971B1039C0599CDF8149004EB0902A2
:1009E000541A0F9A4FF48071544394FBF1F403941A
:1009F000A146079961B1049CC1F5807209FB01FC15
:100A000004FB02C94FF4807199FBF1F20492914604
:100A10001F9C04FB09F1002902DD10314C1103E099
:100A20001039202291FBF2F447F6BC718C42A8BF2A
:100A30000C46DA890299DDF874804A4308498C42F1
:100A4000A8BF21461E9C24F81210029A4044511C53
:100A5000A9E600BFCDB5E8B5D015002000080020FC
:100A60004480FFFF05981E615D61039E069D049C06
:100A700058629D61C3F81CB01E629C62104621B092
:100A8000BDE8F08F2DE9F04F95B0994C1392994A3B
:100A900012911168A14200D0FEE75E6A1D6A9F6A4A
:100AA0009A69998DB3F82E800C964FF00009D3F80F
:100AB00010C05E69D3F81CB00195029709920A91A3
:100AC000CDF83480CDF80C908B4904780D190C5D6D
:100AD00095F8007295F8008106EB070A067ACDF8C2
:100AE0002CA08F198E5D97F8002202EB4805AC44CC
:100AF000057C97F80081CDF810C04A194D5D92F839
:100B0000009292F8002109EB040A0AEB480C90F8D5
:100B100018A090F82090CDF814C001EB0A0494F8C6
:100B2000007294F80041BF1907EB420801EB09027B
:100B3000CDF8188092F8006292F80021771907EB3F
:100B4000440606EB080C90F8288011F80A70079606
:100B500001EB0805CDF840C095F8004295F800512A
:100B6000E619059F06EB4204E619119690F83060ED
:100B700008948C1911F8097094F80022D219049F76
:100B800002EB4502BD180F9590F8385011F8089007
:100B900094F80041DDF82C808E5D4F1997F800A283
:100BA00097F800710AEB090C0CEB4404DDF818A06F
:100BB00011F805C000941C2505FB082944440A21AE
:100BC000DDF8148001FB0A9906EB4706DDF820A04A
:100BD0000F2707FB0899032101FB0A99DDF81CA0E8
:100BE0004FF0060808FB0A99DDF810A0152101FB5B
:100BF0000A99CB44DDF84490CDF82CB04FF02E0A82
:100C00000AFB09FADDF840904FF0300B0BFB09AA04
:100C10004FF0240B0BFB04A90F9C4FF02A0A0AFB90
:100C2000049B099CDDF81890DDF810A0A344059CF6
:100C300008FB09A8DDF820A04FF0030909FB048890
:100C4000079C07FB0A890A2707FB0498DDF8009038
:100C5000DDF82CA00C9F05FB098501FB02520199D0
:100C60000992AAF500328C180D99DDF82880E51B51
:100C70004D434FF4807195FBF1F40194019F44467C
:100C80007C43029FC8EB010507FB054595FBF1F18D
:100C90000291139C6143002902DD0831091103E030
:100CA0000839102791FBF7F147F6BC75134C129FDA
:100CB0000C92A942A8BF2946039DA142B8BF214674
:100CC00079530C354030C02D03957FF4FDAE099863
:100CD000019C029D9861C3F810C05E61C3F81CB00E
:100CE0001C625A629D62102015B0BDE8F08F00BFF3
:100CF000CDB5E8B5D0150020000800204480FFFFE6
:100D00002DE9F04FA1B084461F92BE4A1E91BE4805
:100D10001168814200D0FEE79E6A9F6905969E8910
:100D2000D98D01967000079703277E431190019893
:100D30009A8D0F9112960521019E08924843B200A8
:100D40001490019E01980199139206277E43072271
:100D5000C700514315961797019E019F1C6A5D6A53
:100D6000169109220A2156434F434FF0000804947C
:100D700006955C691D69D3F81CB018961D97CDF8CF
:100D80000C80188EDDF80C90814580F25A819F49C5
:100D90009CF80000DDF804900F181CF8096097F823
:100DA00000A297F80021085CA2448C198E5D94F88B
:100DB000008294F80041454405EB4207119D0997D4
:100DC0001CF805504A194D5D92F8007292F80081A6
:100DD0003F18129807EB44091CF80040CDF8289002
:100DE00008190C5D90F8007290F80001BF1907EB2C
:100DF0004809DDF84C80CDF82C901CF8089001EBE8
:100E00000902CDF8089092F8006292F80021771953
:100E1000149E1CF80690159E07EB400801EB090094
:100E2000CDF8308090F8005290F800012F1907EBB0
:100E300042081CF80670029DCDF83480CA194E5D38
:100E400092F80042A41904EB40050295DDF82C80CD
:100E5000169E92F80021CF5DA844CDF86C801CF856
:100E6000068011F80950DDF8609001EB080011F8D8
:100E7000088090F8004290F8000166190A9D06EB80
:100E80004204179A0E9466191C961CF802608C197D
:100E90008E5D94F8002294F80041D519099F05EB66
:100EA0004002D5191A951CF809504F194D5D97F855
:100EB000000297F80071404400EB44002D2100EB44
:100EC0000A0401FB0ABB1090099819940BEB020A63
:100ED00006EB470424210B9F01FB00A94FF01508E6
:100EE000DDF828A00D9808FB07964FF01C0B0BFBB4
:100EF0000A69DDF830800A2606FB009A0F27DDF824
:100F0000389007FB08AB4FF0030808FB09BADDF87F
:100F100008B0062000FB0BA9CDF80090DDF834A046
:100F2000DDF830B04FF04B090AEB0B0009FB00FA7B
:100F30001B984FF0490B0BFB00A9079809EB000A1F
:100F4000DDF868901C984FF03F0B0BFB09AA4FF09F
:100F5000450BDDF864900BFB00AA4FF0370B0BFB41
:100F600009ABDDF828A00B9808FB0AF84FF006093A
:100F7000DDF824A009FB00880D9808EB0A0907FB9F
:100F800000980C9FDDF83890029806FB07864FF01A
:100F90001C0A0AFB0968152707FB008610980F9F9B
:100FA0004FF02D0909FB006A01FB02A2DDF800A049
:100FB0000792AAF57A386FB10499069ECDF8188089
:100FC00001EB0800811B79434FF4807291FBF2F72B
:100FD0000497B846089860B1059908FB00F8C0F579
:100FE000807601FB06894FF4807299FBF2F7059732
:100FF000B8461F9800FB08F6002E09DD1036771161
:101000000AE000BFD0150020CDB5E8B500080020EB
:10101000103E202196FBF1F7039ED8891049DDF898
:10102000748047F6BC729742A8BF17468F42A8BF8C
:10103000394670431E9F721C27F81010C444039257
:101040009FE65C61079C049A9C61059E069C1D615D
:10105000C3F81CB01A625C629E6221B0BDE8F08FDA
:101060004480FFFFAFF3008000000000000000009C
:101070004B1C012B98BF70472DE9F003911C9B0876
:10108000B1F80480B1F802900A8831F802CC8044AB
:10109000814402448444D9F80070D8F8006015688F
:1010A000DCF80040C9F80060C8F80070CCF80050C7
:1010B0001460D9F80470D8F804605568DCF804406E
:1010C000C9F80460C8F80470CCF8045054600831C2
:1010D000013BD5D1BDE8F00370474B1C012B98BFF5
:1010E00070472DE9F003911C9B08B1F80480B1F81A
:1010F00002900A8831F802CC00EB580800EB59093D
:1011000000EB520200EB5C0CD9F80070D8F80060DC
:101110001568DCF80040C9F80060C8F80070CCF829
:10112000005014600831013BDFD1BDE8F003704787
:1011300081F0004102E000BF83F0004330B54FEA88
:1011400041044FEA430594EA050F08BF90EA020FF5
:101150001FBF54EA000C55EA020C7FEA645C7FEA88
:10116000655C00F0E2804FEA5454D4EB5555B8BFAB
:101170006D420CDD2C4480EA020281EA030382EA1C
:10118000000083EA010180EA020281EA0303362DAE
:1011900088BF30BD11F0004F4FEA01314FF4801C81
:1011A0004CEA113102D0404261EB410113F0004F93
:1011B0004FEA03334CEA133302D0524263EB43034A
:1011C00094EA050F00F0A780A4F10104D5F1200EE8
:1011D0000DDB02FA0EFC22FA05F2801841F1000143
:1011E00003FA0EF2801843FA05F359410EE0A5F117
:1011F00020050EF1200E012A03FA0EFC28BF4CF048
:10120000020C43FA05F3C01851EBE37101F00045FD
:1012100007D54FF0000EDCF1000C7EEB00006EEB0A
:101220000101B1F5801F1BD3B1F5001F0CD3490894
:101230005FEA30004FEA3C0C04F101044FEA4452EB
:1012400012F5800F80F09A80BCF1004F08BF5FEA72
:10125000500C50F1000041EB045141EA050130BD52
:101260005FEA4C0C404141EB010111F4801FA4F1F5
:101270000104E9D191F0000F04BF01460020B1FA4A
:1012800081F308BF2033A3F10B03B3F120020CDA82
:101290000C3208DD02F1140CC2F10C0201FA0CF060
:1012A00021FA02F10CE002F11402D8BFC2F1200CC5
:1012B00001FA02F120FA0CFCDCBF41EA0C0190407B
:1012C000E41AA2BF01EB0451294330BD6FEA0404C4
:1012D0001F3C1CDA0C340EDC04F11404C4F12002AF
:1012E00020FA04F001FA02F340EA030021FA04F3C1
:1012F00045EA030130BDC4F10C04C4F1200220FA18
:1013000002F001FA04F340EA0300294630BD21FA55
:1013100004F0294630BD94F0000F83F4801306BF1B
:1013200081F480110134013D4EE77FEA645C18BF0F
:101330007FEA655C29D094EA050F08BF90EA020FA6
:1013400005D054EA000C04BF1946104630BD91EA9E
:10135000030F1EBF0021002030BD5FEA545C05D1A1
:101360004000494128BF41F0004130BD14F58004E0
:101370003CBF01F5801130BD01F0004545F0FE4154
:1013800041F470014FF0000030BD7FEA645C1ABF89
:10139000194610467FEA655C1CBF0B46024650EAC0
:1013A000013406BF52EA033591EA030F41F40021EC
:1013B00030BD00BF90F0000F04BF0021704730B572
:1013C0004FF4806404F132044FF000054FF0000147
:1013D00050E700BF90F0000F04BF0021704730B508
:1013E0004FF4806404F1320410F0004548BF4042DD
:1013F0004FF000013EE700BF42004FEAE2014FEA32
:1014000031014FEA02701FBF12F07F4393F07F4F0C
:1014100081F06051704732F07F4208BF704793F00F
:101420007F4F04BF41F40021704730B54FF4607422
:1014300001F0004521F000411CE700BF50EA010225
:1014400008BF704730B54FF000050AE050EA0102CE
:1014500008BF704730B511F0004502D5404261EB3E
:1014600041014FF4806404F132045FEA915C3FF47F
:10147000D8AE4FF003025FEADC0C18BF03325FEA1C
:10148000DC0C18BF033202EBDC02C2F1200300FACD
:1014900003FC20FA02F001FA03FE40EA0E0021FAF2
:1014A00002F11444BDE600BF00000000000000008F
:1014B00070B54FF0FF0C4CF4E06C1CEA11541DBFEA
:1014C0001CEA135594EA0C0F95EA0C0F00F0DEF8B5
:1014D0002C4481EA030621EA4C5123EA4C5350EA9A
:1014E000013518BF52EA033541F4801143F48013EB
:1014F00038D0A0FB02CE4FF00005E1FB02E506F07C
:101500000042E0FB03E54FF00006E1FB03569CF0D0
:10151000000F18BF4EF0010EA4F1FF04B6F5007FD6
:1015200064F5407404D25FEA4E0E6D4146EB060648
:1015300042EAC62141EA55514FEAC52040EA5E50D1
:101540004FEACE2EB4F1FD0C88BFBCF5E06F1ED87B
:10155000BEF1004F08BF5FEA500E50F1000041EBB2
:10156000045170BD06F0004646EA010140EA02005F
:1015700081EA0301B4EB5C04C2BFD4EB0C0541EA81
:10158000045170BD41F480114FF0000E013C00F396
:10159000AB8014F1360FDEBF002001F0004170BDBA
:1015A000C4F10004203C35DA0C341BDC04F11404D3
:1015B000C4F1200500FA05F320FA04F001FA05F25F
:1015C00040EA020001F0004221F0004110EBD3702C
:1015D00021FA04F642EB06015EEA430E08BF20EA58
:1015E000D37070BDC4F10C04C4F1200500FA04F3FB
:1015F00020FA05F001FA04F240EA020001F000418D
:1016000010EBD37041F100015EEA430E08BF20EAFF
:10161000D37070BDC4F1200500FA05F24EEA020E47
:1016200020FA04F301FA05F243EA020321FA04F076
:1016300001F0004121FA04F220EA020000EBD3702D
:101640005EEA430E08BF20EAD37070BD94F0000F2D
:101650000FD101F00046400041EB010111F4801F61
:1016600008BF013CF7D041EA060195F0000F18BF12
:10167000704703F00046520043EB030313F4801F4E
:1016800008BF013DF7D043EA0603704794EA0C0F08
:101690000CEA135518BF95EA0C0F0CD050EA41061E
:1016A00018BF52EA4306D1D181EA030101F000419B
:1016B0004FF0000070BD50EA410606BF10461946C3
:1016C00052EA430619D094EA0C0F02D150EA0136CF
:1016D00013D195EA0C0F05D152EA03361CBF104610
:1016E00019460AD181EA030101F0004141F0FE41AF
:1016F00041F470014FF0000070BD41F0FE4141F433
:10170000780170BD70B54FF0FF0C4CF4E06C1CEA32
:1017100011541DBF1CEA135594EA0C0F95EA0C0FE7
:1017200000F0A7F8A4EB050481EA030E52EA0335A2
:101730004FEA013100F088804FEA03334FF08055C3
:1017400045EA131343EA12634FEA022245EA1115F0
:1017500045EA10654FEA00260EF000419D4208BFA1
:10176000964244F1FD0404F5407402D25B084FEA4E
:101770003202B61A65EB03055B084FEA32024FF4FA
:1017800080104FF4002CB6EB020E75EB030E22BF57
:10179000B61A754640EA0C005B084FEA3202B6EB17
:1017A000020E75EB030E22BFB61A754640EA5C00C6
:1017B0005B084FEA3202B6EB020E75EB030E22BF56
:1017C000B61A754640EA9C005B084FEA3202B6EB57
:1017D000020E75EB030E22BFB61A754640EADC0016
:1017E00055EA060E18D04FEA051545EA16754FEA78
:1017F00006164FEAC30343EA52734FEAC2025FEA96
:101800001C1CC0D111F4801F0BD141EA00014FF024
:1018100000004FF0004CB6E711F4801F04BF0143F5
:101820000020B4F1FD0C88BFBCF5E06F3FF6AFAE11
:10183000B5EB030C04BFB6EB020C5FEA500C50F1A1
:10184000000041EB045170BD0EF0004E4EEA113124
:1018500014EB5C04C2BFD4EB0C0541EA045170BD2B
:1018600041F480114FF0000E013C90E645EA060E6F
:101870008DE60CEA135594EA0C0F08BF95EA0C0F9D
:101880003FF43BAF94EA0C0F0AD150EA01347FF4E5
:1018900034AF95EA0C0F7FF425AF104619462CE7BC
:1018A00095EA0C0F06D152EA03353FF4FDAE10461F
:1018B000194622E750EA410618BF52EA43067FF470
:1018C000C5AE50EA41047FF40DAF52EA43057FF400
:1018D000EBAE12E700000000000000000000000076
:1018E0004FF0FF3C06E000BF4FF0010C02E000BFEC
:1018F0004FF0010C4DF804CD4FEA410C7FEA6C5CCF
:101900004FEA430C18BF7FEA6C5C1BD001B050EA71
:10191000410C0CBF52EA430C91EA030F02BF90EA5C
:10192000020F0020704710F1000F91EA030F58BF1B
:10193000994208BF90422CBFD8176FEAE37040F07D
:10194000010070474FEA410C7FEA6C5C02D150EA1B
:10195000013C07D14FEA430C7FEA6C5CD6D152EAD6
:10196000033CD3D05DF8040B704700BF844610469B
:1019700062468C461946634600E000BF01B5FFF79A
:10198000B7FF002848BF10F1000F01BD4DF808ED6A
:10199000FFF7F4FF0CBF012000205DF808FB00BF3B
:1019A0004DF808EDFFF7EAFF34BF012000205DF895
:1019B00008FB00BF4DF808EDFFF7E0FF94BF0120E2
:1019C00000205DF808FB00BF4DF808EDFFF7CEFFE3
:1019D00094BF012000205DF808FB00BF4DF808ED22
:1019E000FFF7C4FF34BF012000205DF808FB00BFF3
:1019F0004FEA410C7FEA6C5C02D150EA013C0AD10B
:101A00004FEA430C7FEA6C5C02D152EA033C02D1FC
:101A10004FF0000070474FF00100704700000000D9
:101A20004FEA410212F5001215D211D56FF4787306
:101A3000B3EB625212D94FEAC12343F0004343EAA9
:101A4000505311F0004F23FA02F018BF4042704784
:101A50004FF00000704750EA013005D111F000400E
:101A600008BF6FF0004070474FF00000704700BFA4
:101A70004A0011D212F5001211D20DD56FF478730D
:101A8000B3EB62520ED44FEAC12343F0004343EA62
:101A9000505323FA02F070474FF00000704750EAAD
:101AA000013002D14FF0FF3070474FF00000704717
:101AB0004FEA4102B2F1E04324BFB3F5001CDCF170
:101AC000FE5C0DD901F0004C4FEAC0024CEA5070A8
:101AD000B2F1004F40EB830008BF20F001007047D7
:101AE00011F0804F21D113F13872BCBF01F00040DA
:101AF000704741F480114FEA5252C2F11802C2F10C
:101B0000200C10FA0CF320FA02F018BF40F001008C
:101B10004FEAC1234FEAD32303FA0CFC40EA0C003E
:101B200023FA02F34FEA4303CCE77FEA625307D17B
:101B300050EA01331EBF4FF0FE4040F440007047B2
:101B400001F0004040F0FE4040F40000704700BF4C
:101B500053B94AB9002908BF00281CBF4FF0FF3114
:101B60004FF0FF3000F074B9ADF1080C6DE904CE10
:101B700000F006F8DDF804E0DDE9022304B0704768
:101B80002DE9F047089E04468846002B4BD18A4237
:101B9000154667D9B2FA82F24AB1C2F1200701FABA
:101BA00002F320FA07F7954047EA030894404FEA0A
:101BB000154E230CB8FBFEF71FFA85FC0EFB1788A9
:101BC00043EA084307FB0CF1994209D9EB1807F1E6
:101BD000FF3080F01B81994240F21881023F2B4474
:101BE0005B1AA4B2B3FBFEF00EFB103344EA0344CD
:101BF00000FB0CFCA44509D92C1900F1FF3380F03F
:101C00000781A44540F2048102382C4440EA074091
:101C1000A4EB0C0400271EB1D4400023C6E9004306
:101C20003946BDE8F0878B4209D9002E00F0EB80E1
:101C30000027C6E9000138463946BDE8F087B3FA07
:101C400083F7002F47D18B4202D3824200F2FA8001
:101C5000841A61EB030301209846002EE0D0C6E908
:101C60000048DDE702B9FFDEB2FA82F2002A40F056
:101C70008F80491B4FEA154E1FFA85F80127B1FBEB
:101C8000FEFC230C0EFB1C1143EA014308FB0CF184
:101C9000994207D9EB180CF1FF3002D2994200F2B9
:101CA000CD808446591AA3B2B1FBFEF00EFB10148E
:101CB00043EA044408FB00F8A04507D92C1900F1B9
:101CC000FF3302D2A04500F2B6801846A4EB080408
:101CD00040EA0C409FE7C7F1200CBB4022FA0CFE03
:101CE0004EEA030E01FA07F420FA0CF521FA0CF380
:101CF0004FEA1E482543B3FBF8F92C0C08FB1933B7
:101D00001FFA8EFA44EA034309FB0AF49C4202FAE2
:101D100007F200FA07F10BD91EEB030309F1FF30BC
:101D200080F087809C4240F28480A9F102097344CC
:101D30001B1BADB2B3FBF8F008FB103345EA0344BC
:101D400000FB0AFAA24508D91EEB040400F1FF3398
:101D50006BD2A24569D90238744440EA0940A0FB1D
:101D60000289A4EB0A044C45C2464B4654D351D0D9
:101D7000002E69D0B1EB0A0564EB030404FA0CFCF5
:101D8000FD40FC404CEA0505C6E90054002747E742
:101D9000C2F1200320FA03F7954001FA02F021FA7C
:101DA00003F34FEA154E3843010CB3FBFEF71FFA5D
:101DB00085F80EFB173341EA034107FB08F38B421A
:101DC00004FA02F407D9691807F1FF3C2FD28B42BD
:101DD0002DD9023F2944CB1A81B2B3FBFEF00EFB92
:101DE000103341EA034100FB08F38B4207D969181D
:101DF00000F1FF3C17D28B4215D902382944C91A89
:101E000040EA07473BE73746304609E70746E7E63B
:101E10001846FBE64145ABD2B8EB020A69EB0E026D
:101E200001381346A4E76046E9E7184695E7674698
:101E3000D1E781467CE702382C4447E7ACF1020C3D
:101E40002B442FE7384608E73746E9E60000000054
:101E5000704700BF0000000000000000000000000C
:101E6000844641EA000313F003036DD1403A41D3A5
:101E700051F8043B40F8043B51F8043B40F8043B64
:101E800051F8043B40F8043B51F8043B40F8043B54
:101E900051F8043B40F8043B51F8043B40F8043B44
:101EA00051F8043B40F8043B51F8043B40F8043B34
:101EB00051F8043B40F8043B51F8043B40F8043B24
:101EC00051F8043B40F8043B51F8043B40F8043B14
:101ED00051F8043B40F8043B51F8043B40F8043B04
:101EE00051F8043B40F8043B51F8043B40F8043BF4
:101EF000403ABDD2303211D351F8043B40F8043B94
:101F000051F8043B40F8043B51F8043B40F8043BD3
:101F100051F8043B40F8043B103AEDD20C3205D3A3
:101F200051F8043B40F8043B043AF9D2043208D09B
:101F3000D2071CBF11F8013B00F8013B01D30B880D
:101F400003806046704700BF082A13D38B078DD0EB
:101F500010F003038AD0C3F10403D21ADB071CBFBD
:101F600011F8013B00F8013B80D331F8023B20F827
:101F7000023B7BE7043AD9D3013A11F8013B00F860
:101F8000013BF9D20B7803704B7843708B788370E8
:101F900060467047000000000000000000000000E4
:101FA00090F800F06DE9024520F007016FF0000C99
:101FB00010F0070491F820F040F049804FF0000441
:101FC0006FF00700D1E9002391F840F000F108001C
:101FD00082FA4CF2A4FA8CF283FA4CF3A2FA8CF354
:101FE0004BBBD1E9022382FA4CF200F10800A4FABB
:101FF0008CF283FA4CF3A2FA8CF3E3B9D1E904230F
:1020000082FA4CF200F10800A4FA8CF283FA4CF345
:10201000A2FA8CF37BB9D1E9062301F1200182FAFF
:102020004CF200F10800A4FA8CF283FA4CF3A2FA05
:102030008CF3002BC6D0002A04BF04301A4612BA13
:10204000B2FA82F2FDE8024500EBD2007047D1E916
:10205000002304F00305C4F100004FEAC50514F0A5
:10206000040F91F840F00CFA05F562EA05021CBF76
:1020700063EA050362464FF00004A9E70000000090
:1020800001F0FF01102A2BDB10F0070F08D010F829
:10209000013B013A8B422DD010F0070F42B3F6D12D
:1020A000F0B441EA012141EA014122F007047FF046
:1020B00000070023F0E80256083C85EA010586EA9D
:1020C000010685FA47F5A3FA87F586FA47F6A5FAD9
:1020D00087F68EB9EED1F0BC01F0FF0102F00702E5
:1020E00032B110F8013B013A83EA010313B1F8D190
:1020F0000020704701387047002D06BF3546033871
:10210000073815F0010F07D1013015F4807F02BFA9
:10211000013015F4C03F0130F0BC0138704700BFFA
:1021200000B5144B83B01B68019306F039FD04F031
:10213000BFFB03F0DDFB1049104808F0E1F804F0A4
:10214000F7F902F055FE03F02BFA03F009FF0C48F3
:1021500002F056FB0B4A0C490C4804F0C9FA4FF444
:10216000FA7005F0E5F900F0CBFE01F061FA00F03D
:1021700097FDFCE7000B0020200B0020448100208D
:10218000E1220008040B00200C0B0020D4150020D5
:1021900000B5084B83B01A680192019A1B689A42F5
:1021A00005D1054803B05DF804EB04F0E9BBFFF787
:1021B000EFFF00BF000B002090540108000000005A
:1021C00000B541499FED417A0B6883B000F59C70E2
:1021D00001934FF0FF324E23F0EC017AF4EEC77A10
:1021E000F1EE10FAC8BF1AB203F10103C8BFB0EE96
:1021F000677ACE2BF0D192B2A2F1C403022B2ED972
:10220000A2F15F03022B1FD9A2F16F03022B2ED97B
:10221000A2F14F03022B3FD9A2F17F03022B31D948
:10222000A2F18F03022B42D9A2F19B03022B42D9C8
:10223000A2F1A303022B42D9B33A022A244B94BF42
:10224000052200221A7020E0019A0B689A4208BF0A
:1022500001200AD103B05DF804EB00F071BE019AD1
:102260000B689A4208BF0620F4D0FFF791FF019A4D
:102270000B689A4208BF0320F7D103B05DF804EB66
:1022800000F05EBE124B01221A70019A0B689A424E
:10229000EBD103B05DF804FB019A0B689A4208BFCA
:1022A0000420E2D103B05DF804EB00F049BE084B16
:1022B00002221A70E9E7064B03221A70E5E7044B85
:1022C00004221A70E1E700BF000B00200050C34752
:1022D000E0150020000000000000000000000000E9
:1022E000F0B54E4E4E4D336883B001932B880029D4
:1022F00000F08980B0F902204A4C07EE902A5A1C5F
:1023000004EB830792B202339BB2F8EEE77A04EB58
:1023100082024FF0000EB3F5006FC7ED007A2B80FC
:10232000C2F800E02CD20139C1F38D0100EBC101EC
:1023300000271AE0B0F90A2007EE902A5A1C92B240
:1023400003F1020C04EB8307F8EEE77A04EB820258
:102350001FFA8CF3B3F5006FC7ED007A00F10800A7
:102360004FF00107C2F800E009D28842E2D1002F05
:1023700050D1019A33689A424ED103B0F0BD2B8000
:102380002849294C4FF4806000F072F84FF48062C5
:10239000264924480EF044FF2378082B0FD8013338
:1023A000DBB201993268237091424FF000032B8019
:1023B00032D11E4803B0BDE8F040FFF701BF202333
:1023C00083F3118805F0BCFB04F07AFB04F048FCB1
:1023D00017488368002B1ADD04F06AFF04F090FBB5
:1023E00005F0C6FB134B1A689A4207D099699368A7
:1023F0008A689A4202D2104804F0C2FA002383F39A
:1024000011880123CDE7B3F5006FB2D3B8E705F02B
:102410008FFCE1E72B80ACE7FFF7BAFE000B002052
:10242000E6450020E4150020E4450020E4350020C6
:102430002C0B002010730020B05401080000000095
:1024400010B5084A084B1168187882B00024019131
:10245000019912681C70914201D102B010BDFFF7C2
:1024600097FE00BF000B0020E015002000000000D8
:1024700000B50D4B83B01A680192B0F5806F019AD8
:102480001B6804D09A420CD103B05DF804FB9A4259
:1024900007D106480123002203B05DF804EB0EF0DB
:1024A0003FBEFFF775FE00BF000B0020C0540108BF
:1024B0000EB410B583B005AA094C52F8041B23686A
:1024C0000848009201930DF043FB019A23689A4259
:1024D00004D103B0BDE8104003B07047FFF758FEC9
:1024E000000B0020448100200000000000000000DC
:1024F00030B52DED028B204D204C2B6883B001931D
:1025000003F0CEFC08EE100A03F0E2FC07EE100A1E
:10251000F8EEC87AB8EEC70A194B77EE807AB6EEB5
:10252000000A67EE807A93ED000AC3ED007A37EE79
:10253000C00A00F0EDFEB0EE408A94ED020A0EF003
:102540009FFFD4ED007AE0EE087A94ED020AC4ED24
:10255000007A0EF04DFFD4ED017A019A2B68E0EE7F
:10256000087A9A42C4ED017A03D103B0BDEC028B24
:1025700030BDFFF70DFE00BF000B0020F44500202A
:10258000EC450020000000000000000000000000FA
:1025900080B51A4C1A4BA2691A491B681A4FDFF80A
:1025A0006C80916182B020260193002504E00098A0
:1025B00000990A3104F0FCFF86F3118805F0C0FA97
:1025C00004F07EFAD4F8289004F09AFA05F0D0FAD4
:1025D0002368A34207D0A2699B6892689A4202D2FC
:1025E000404604F0CDF985F311883B78CDF8009092
:1025F000012BDCD1FFF77CFFD9E700BF107300206F
:10260000000B0020D0540108E8450020E0540108E8
:1026100000B51D4B9FED1D7AD3ED027A1C4A30EEBA
:10262000270A83B0B4EEC70A11680191F1EE10FADF
:1026300083ED020A0CDDF0EE477A9FED167A30EE5C
:10264000470AB4EEE70AF1EE10FAF8DC83ED020A6D
:10265000DFED117AB4EEE70AF1EE10FA0AD59FED3C
:102660000D7A30EE070AB4EEE70AF1EE10FAF8D46C
:1026700083ED020A01991368994202D103B05DF813
:1026800004FBFFF785FD00BFF4450020DB0F494048
:10269000000B0020DB0FC940DB0F49C00000000029
:1026A000F0B52DED028B594F594C3D78236883B01E
:1026B000012D01930646B0EE408A2DD01BD3022D8A
:1026C0000FD0019A23689A4240F08E8033462A4602
:1026D0005049514803B0BDEC028BBDE8F040FFF714
:1026E000E7BE0228EDD8019A23689A427CD103B054
:1026F000BDEC028BF0BD012826D066D302285DD147
:10270000387003F0E5FB00287AD002230022434909
:102710004148FFF7CDFE10E000F0BAFD012E26D0B3
:1027200038D3022ECDD100F0B3FD3E70FFF7E0FEAE
:102730003B4B00221A6000F0E3FCB0EE480A00F0C8
:1027400007FE00233B70CEE703F0C2FB00284DD00C
:102750000123002231493048FFF7AAFE00F0D0FCE7
:10276000019A236801219A4239700CD03CE03E70F6
:10277000FFF7BEFE2A4B00221A6000F0C1FC019A4E
:1027800023689A4230D103B0BDEC028BBDE8F04023
:1027900000F09EBC00F07CFD00233B70FFF7A8FE1C
:1027A000019A23681E4900209A4208601CD103B098
:1027B000BDEC028BBDE8F04000F0A2BC019A23689A
:1027C0009A4211D10346002282E703F081FB90B1C7
:1027D00000231A4611491048FFF76AFE019A236840
:1027E00000219A423970E2D0FFF7D2FC03F058FB87
:1027F0000028ADD1B4E703F053FB0028E8D1EDE7A2
:1028000003F04EFB002880D197E700BFE845002089
:10281000000B002058550108448100202055010874
:10282000EC45002000000000000000000000000057
:1028300070B52DED028B844C844D94ED018A2B688C
:10284000D4ED008A82B0019300F022FDB5EEC08A7B
:10285000F1EE10FA05DDF5EEC08AF1EE10FA00F1A6
:10286000B68068EE087AE8EEA87A17EE900AFEF7CE
:10287000C3FDB5EEC08AF1EE10FA1CD441EC100B8A
:102880000DF0F6FC51EC100BFFF712F908EE100AF0
:10289000B5EE408AF1EE10FA3FD1019A2B689A42C8
:1028A00040F0CA806A496B4802B0BDEC028BBDE8BB
:1028B0007040FFF7FDBDF5EEC08AF1EE10FA4CBF97
:1028C00003260126F5EEC08AF1EE10FA40F3978058
:1028D00041EC100B0DF0CCFC51EC100BFFF7E8F8BD
:1028E00008EE100AB5EE408AF1EE10FAD5D0C8EE27
:1028F000887A17EE900AFEF77FFD41EC100B0DF081
:1029000057FC4FA1D1E9000153EC102BFEF714FC4A
:10291000FFF7CEF800EE100A14E0C8EE887A17EE42
:10292000900AFEF769FD41EC100B0DF041FC44A349
:10293000D3E9002351EC100BFEF7FEFBFFF7B8F8CC
:1029400000EE100AD4ED026ADFED437A30EE660A3B
:10295000B4EEE70AF1EE10FA08DD9FED407A30EEB2
:10296000470AB4EEE70AF1EE10FAF8DCDFED3C7A44
:10297000B4EEE70AF1EE10FA08D59FED387A30EEA2
:10298000070AB4EEE70AF1EE10FAF8D4DFED357A73
:10299000B4EEE78AF1EE10FA04D5F5EE406AF1EEF6
:1029A00010FA24D00220FFF77BFE9FED2F0A0120B2
:1029B000FFF776FE019A2B689A423DD1B0EE480AA5
:1029C00002B0BDEC028BBDE8704000F079BC68EE4F
:1029D000087AE8EEA87A17EE900AFEF70DFDB5EE3C
:1029E000C08AF1EE10FA7FF549AF03266AE7019A33
:1029F0002B689A4220D102B0BDEC028B70BD41EC35
:102A0000100B0DF035FC51EC100BFFF751F808EEF0
:102A1000100AB5EE408AF1EE10FA3FF43EAFC8EE70
:102A2000887A17EE900AFEF7E7FC022E3FF47BAFA0
:102A3000032E3FF462AF76E7FFF7AAFBAFF3008007
:102A400000000060FB210940F4450020000B00203D
:102A5000F054010844810020DB0F4940DB0FC940DE
:102A6000DB0F49C0CDCCCC3D0000000000000000D1
:102A700030B5414C9FED417AD4ED017A404D83B0A1
:102A8000F4EEC77A2B680193F1EE10FA29DD94ED8C
:102A9000020AB5EEC00AF1EE10FA06DD9FED397AB2
:102AA000B4EEC70AF1EE10FA5DD99FED367AB4EEB6
:102AB000C70AF1EE10FA14DD9FED337AB4EEC70ABF
:102AC000F1EE10FA0DD537EE400A022030EE000A82
:102AD000FFF7E6FD9FED2D0A0120FFF7E1FDD4EDA4
:102AE000017A9FED2B7AF4EEC77AF1EE10FA14D545
:102AF00094ED020AB5EEC00AF1EE10FA13D4DFED40
:102B0000257AB4EEE70AF1EE10FA06D5DFED227A67
:102B1000B4EEE70AF1EE10FA1FDC019A2B689A4234
:102B200027D103B030BDDFED1B7AB4EEE70AF1EE3A
:102B300010FAE4DBF8EE007A20EE270A0220FFF715
:102B4000AFFD019A2B689A4213D19FED100A012024
:102B500003B0BDE83040FFF7A3BD37EEC00A022046
:102B600030EE000AEBE7F8EE007A20EE270A0220AA
:102B7000AEE7FFF70DFB00BFF44500200000204248
:102B8000000B0020DB0FC93FDB0F494000000000B5
:102B9000000020C2DB0FC9BFDB0F49C000000000EE
:102BA0002DE9F041374B9FED387AD3ED007A374F5E
:102BB00082B0F4EEC77A3B680193F1EE10FA47D485
:102BC0009FED337AF4EEC77AF1EE10FA39DD314E2B
:102BD000314D347895F8008008F101032B70FFF730
:102BE00027FE3378A34246D0A3B100240121084632
:102BF00002F0CEFD4FF4FA7004F09AFC002101209F
:102C000002F0C6FD4FF4FA7004F092FC3378013400
:102C10009C42EBDB2B78A3B100240121032002F0BE
:102C2000B7FD4FF4FA7004F083FC0021032002F09A
:102C3000AFFD4FF4FA7004F07BFC2B7801349C421A
:102C4000EBDB019A3B689A4219D102B0BDE8F081F2
:102C5000104E9FED0F7A34780F4DF4EEC77A631C57
:102C6000F1EE10FA95F800803370B5DCFFF7E0FD67
:102C70003378A342B8D12A784245B5D1E1E7FFF7CE
:102C800087FA00BFF4450020000070C2000B00204E
:102C900000007042024600200146002000000000B3
:102CA00070B58B4D8B4C2B78226882B00192062B2D
:102CB00020D8DFE803F026354FA0B6C60400864BC7
:102CC000DFED867A864A20204021C2ED007A9861A5
:102CD00099614FF480604FF400619861B0EE670A2B
:102CE00099610020C2ED017AC2ED027AFFF7D8FCAB
:102CF00000232B70019A23689A4240F0E68002B0CC
:102D000070BD754B774A20204021986199614FF43E
:102D100080604FF400619861996113782B70E9E746
:102D200003F00EFB03F05CFB6B4B9FED6C0A202263
:102D30009A614FF480004FF400624FF08061986117
:102D4000996101209A61FFF7ABFC664A0223137078
:102D50002B70CFE7202383F3118804F0F1FE03F0FA
:102D6000AFFE03F07DFF60488368002B40F3AA802C
:102D700004F09EFA03F0C4FE04F0FAFE5B4B1A68FE
:102D80009A4207D0996993688A689A4202D2584851
:102D900003F0F6FD002383F311884F4B4FF400122C
:102DA0009A6140204FF480614FF40062986199610C
:102DB000C8209A6100F04CF9002851D1C82000F0D9
:102DC00067F900284CD100F05BFC012806466ED064
:102DD000022808D19FED470AFFF762FC9FED3F0AEA
:102DE0000120FFF75DFCFFF743FEFFF7D9FE3D4BE7
:102DF0001B782B707EE7384B20229A614FF48000BD
:102E00004FF080614FF40062986199619A61FFF719
:102E100017FB0138042832D8DFE800F0443F3A3588
:102E20002D002D4B2F4920229A6140204FF48062C3
:102E300098619A614FF00060052298610A702A70CB
:102E400058E7254B274A20204021986199614FF08F
:102E500080604FF000619861996113782B7049E7A9
:102E60009FED250A0220FFF71BFC9FED1C0A0120A5
:102E7000FFF716FCA7E700F043FE00F031FC194B0A
:102E80001B782B7036E700F0ABFD00F029FCF6E76D
:102E900000F03EFD00F024FCF1E700F0B9FC00F08A
:102EA0001FFCECE700F04CFC00F01AFCE7E79FED9C
:102EB000130A0220FFF7F4FB30469FED080AFFF7E4
:102EC000EFFB90E704F034FF52E7FFF761F900BF32
:102ED000F0450020000B0020000C02400000000024
:102EE000F445002000460020380B0020107300201D
:102EF000E0540108E4CB16C0DB0F4940E4CB164098
:102F000010B50A4C0A4B22680A4884B04FF47A7113
:102F1000039200220092402204F0B2FA039A23683E
:102F20009A4201D104B010BDFFF732F9000B002026
:102F30009125000808460020000000000000000065
:102F400070B5224D224E2B683278224982B0044659
:102F5000019303462048FFF7ABFA3378062B07D8D6
:102F6000DFE803F01306040406041000062C05D065
:102F7000019A2B689A4227D102B070BD174B0622E6
:102F80001A70F5E7154B1C70F2E7013C052CEFD8E1
:102F900001A353F824F000BFC12F0008712F0008CF
:102FA000B92F0008B12F0008712F00087D2F0008ED
:102FB0000A4B04221A70DBE7084B03221A70D7E78A
:102FC000064B01221A70D3E7FFF7E2F8000B00204E
:102FD000F045002090550108448100200046002063
:102FE00000B5084B83B01A680192019A1B689A4297
:102FF00005D1054803B05DF804EB04F061BEFFF7AE
:10300000C7F800BF000B0020380B002000000000B4
:1030100010B50D4C82B023680193002003F000FA34
:10302000132806DD0120019A23689A4209D102B0D3
:1030300010BD072003F0F4F91328D4BF00200120AD
:10304000F1E7FFF7A5F800BF000B0020000000002B
:1030500030B50D4D83B004462B680193002003F07A
:10306000DFF9A0424FF0010005DA03F0D9F9A042E0
:10307000B4BF00200120019A2B689A4201D103B00D
:1030800030BDFFF785F800BF000B002000000000F6
:1030900030B50D4D83B004462B680193072003F033
:1030A000BFF9A04206DB0120019A2B689A4209D1A0
:1030B00003B030BD062003F0B3F9A042B4BF002036
:1030C0000120F1E7FFF764F8000B0020000000008A
:1030D00010B50A4C82B0236801934FF4E77002F0F8
:1030E000AFFE019A23689A4206D14FF4E77002B00E
:1030F000BDE8104002F0BCBEFFF74AF8000B00200C
:1031000010B50C4C82B023680193002002F098FEA9
:10311000002002F0ADFE002002F0F2FE019A2368CA
:103120009A4205D1002002B0BDE8104002F000BF75
:10313000FFF72EF8000B0020000000000000000048
:103140002DE9704F2DED068BDFED4E8A4E4E20EEB1
:10315000280AB2EE0A8AC0EE087A84B03368039374
:10316000F0EE419A17EE900AB0EE619AB0EE60AAC6
:10317000FEF742F92AEE28AA41EC100B0CF0C0FF32
:10318000CAEE087A55EC104B17EE900AFEF734F9A8
:1031900069EEA89A41EC100B0CF0B2FFC9EE887AE8
:1031A00059EC108B17EE900AFEF726F969EE288A83
:1031B00041EC100B0CF0A4FFC8EE887A5BEC10AB6E
:1031C00017EE900AFEF718F941EC100B0CF098FF7F
:1031D000594650468DED000BFEF722FC07EE900A93
:1031E000F8EEE77AFDEEE77A17EE900A02F028FE95
:1031F0009DED000B51EC100BFEF712FC07EE900A50
:10320000F8EEE77AFDEEE77A17EE900A02F030FE6C
:1032100049464046FEF704FC07EE900AF8EEE77ACE
:103220002046FDEEE77A294617EE904A002CB8BFFB
:103230006442FEF7F5FB07EE900AF8EEE77AFDEE42
:10324000E77A17EE905A002DB8BF6D4202F040FEAB
:103250000028B8BF4042A042F8DB02F021FE00285F
:10326000B8BF4042A842F1DB039A33689A4206D1C4
:1032700004B0BDEC068BBDE8704FFFF741BFFEF711
:1032800087FF00BF00007A44000B00200000000010
:1032900010B5094C82B023680193002002F0D0FDE4
:1032A000019A23689A4205D1002002B0BDE810407F
:1032B00002F0DEBDFEF76CFF000B002000000000F6
:1032C000DFED107A20EE270AF2EE0A7AC0EE277AB6
:1032D00010B50D4C82B02368019317EE900AFEF7EB
:1032E0008BF841EC100B0CF00BFF51EC100BFEF7C0
:1032F00097FB019A23689A4201D102B010BDFEF7F4
:1033000047FF00BF00007A44000B002000000000CF
:1033100000B50A4B9FED0A7A1A6883B0F2EE0A7A7A
:103320000192019A1B6820EE270A9A4280EE070A52
:1033300002D103B05DF804FBFEF72AFF000B00206A
:1033400000007A44000000000000000000000000BF
:10335000DFED197A9FED197A60EE277A10B5C7EE86
:10336000870A174C23682DED028BB5EEC00AF1EEEB
:1033700010FA82B0F1EE047AB9EE041AD4BFF0EE7E
:10338000411AF0EE671AB0EE408AD8BFB0EE671A65
:10339000B0EE600A0193FFF7D3FE019A23689A42C8
:1033A00008D1B0EE480A02B0BDEC028BBDE8104077
:1033B000FFF72EB9FEF7ECFECD758641DB0FC94055
:1033C000000B0020000000000000000000000000D2
:1033D00080B5244C244AA36924491668996186B0B3
:1033E000022320250A220021009305964FF4207322
:1033F000CDE9015530201E4E1E4F01F079FE01F03F
:103400007FFD002001F0B4FDB04601F019FD13E08E
:1034100003F04EFF03F074FB04F0AAFB2368A34201
:1034200007D0A2699B6892689A4202D2384603F09C
:10343000A7FA002383F31188FFF7D2FD01F0D8FD2E
:1034400001F03EFD85F3118804F07AFB03F038FBB0
:1034500003F006FCB368002BDADC404604F068FC9D
:10346000D6E700BF10730020000B0020C0550108F4
:10347000440B0020E055010800000000000000009F
:10348000F0B5344C83B02368019300F27F25431ECE
:10349000002213F8011F9D420A44FAD12E4B0578F1
:1034A000A3FB0232520A002140F27A264B1C9542BD
:1034B0009BB21FD945186D7995421BD2B34225D8CE
:1034C00021B303F1FF3C84441CF8015F95429FB295
:1034D00015D91CF805EC964511D2A7EB010CBCF1EF
:1034E000270F3B462ADCB74210D839464B1C954281
:1034F0009BB2DFD8B34209D8C55C1946D6E701377D
:10350000BFB2B7F5207F03F10103DDD1134B18885B
:10351000DFED136A019A236807EE900AF8EEE77A66
:1035200086EEA77AF3EE097AB4EE677AF1EE10FA36
:10353000C8BF3E209A420AD103B0F0BD781A0B44AE
:10354000084A064980B25B1008801380E0E7FEF766
:103550001FFE00BF000B0020CDCCCCCC500B0020B8
:103560000040C444520B0020000000000000000096
:103570002DE9F04F274D284BAA6928499161ADF5F7
:10358000237D0DF1040A1B68A19350464FF420726D
:1035900000210EF075FDDFF88C80DFF88C90204F55
:1035A000202686F3118804F0CBFA03F089FAD5F8C7
:1035B00028B003F0A5FA04F0DBFA2B68AB4207D081
:1035C000AA699B6892689A4202D2484603F0D8F9E9
:1035D000002484F311883846CDF800B004F070FB65
:1035E00001F0DEFC2346C25CC3F34E01023322F03D
:1035F0000702B3F5A06F0AF80120F4D15046FFF797
:103600003FFF009B0099A8F800006431184603F0C2
:10361000CFFFC6E710730020000B0020D055010833
:10362000440B0020F0490020E05501080000000094
:1036300030B50E4C0E4B22680E4885B00025039223
:103640004FF4AF614022009503F01AFF0A4B00953A
:1036500040220A484FF4507103F012FF039A236886
:103660009A4201D105B030BDFEF792FD000B00205B
:1036700071350008384D0020D1330008F84900208A
:1036800030B5124C124B22681D8883B00192FFF7AF
:10369000BFFC70B10F4B1B88C72B10D9B5F5967FB7
:1036A0000FD96FF49673E818B0F5967F2CBF002001
:1036B0000120019A23689A4205D103B030BD002051
:1036C000F7E70220F5E7FEF763FD00BF000B0020DF
:1036D000520B0020F0490020000000000000000014
:1036E00010B5DFED150A154C82B023680193B0EEDA
:1036F000600AFBEE0E1AB3EE0E1AFFF721FDF3EE91
:103700000E1AF2EE0E0AB0EE611AB0EE600AFFF782
:1037100017FD019A23689A420CD1DFED070AF3EEF8
:103720000E1AB0EE600ABBEE0E1A02B0BDE81040F1
:10373000FFF706BDFEF72CFDCD758640000B00207F
:1037400010B52E4C82B0F3EE0E1A23680193B0EE42
:10375000611AF0EE610AB0EE610AFFF7F1FCDFEDED
:10376000280AFBEE0E1AB0EE600AB3EE0E1AFFF74F
:10377000E7FCF3EE0E1AF2EE0E0AB0EE611AB0EEAE
:10378000600AFFF7DDFCDFED1F0AF3EE0E1AB0EE64
:10379000600ABBEE0E1AFFF7D3FCF3EE0E1AF2EE40
:1037A0000E0AB0EE611AB0EE600AFFF7C9FCDFED59
:1037B000140AFBEE0E1AB0EE600AB3EE0E1AFFF713
:1037C000BFFCF3EE0E1AB0EE611AF0EE610AB0EE35
:1037D000610AFFF7B5FC019A23689A420CD1DFED2C
:1037E0000A0AFBEE0E1AB0EE600AB3EE0E1A02B031
:1037F000BDE81040FFF7A4BCFEF7CAFC000B002098
:10380000BC47B340BC473340CD75064100000000C3
:1038100010B5DFED3D0A3D4C82B023680193B0EE58
:10382000600AF3EE0E1ABBEE0E1AFFF789FCF3EEF8
:103830000E1AF2EE040AB0EE611AB0EE600AFFF75B
:103840007FFCDFED310AFBEE0E1AB0EE600AB3EE3C
:103850000E1AFFF775FCF3EE0E1AB0EE611AF0EED9
:10386000610AB0EE610AFFF76BFCDFED270AFBEEA1
:103870000E1AB0EE600AB3EE0E1AFFF761FCF3EE1B
:103880000E1AF3EE040AB0EE611AB0EE600AFFF70A
:1038900057FCDFED1D0AFBEE0E1AB0EE600AB3EE28
:1038A0000E1AFFF74DFCF3EE0E1AB0EE611AF0EEB1
:1038B000610AB0EE610AFFF743FCDFED130AFBEE8D
:1038C0000E1AB0EE600AB3EE0E1AFFF739FCF3EEF3
:1038D0000E1AF2EE040AB0EE611AB0EE600AFFF7BB
:1038E0002FFC019A23689A420CD1DFED070AFBEE08
:1038F0000E1AB0EE600AB3EE0E1A02B0BDE8104028
:10390000FFF71EBCFEF744FCCD758640000B00207F
:1039100010B52E4C82B0F3EE0E1A23680193B0EE70
:10392000611AF0EE610AB0EE610AFFF709FCDFED03
:10393000280AFBEE0E1AB0EE600AB3EE0E1AFFF77D
:10394000FFFBDFED240AF3EE0E1AB0EE600AB0EED4
:10395000611AFFF7F5FBDFED1E0AF3EE0E1AB0EE6B
:10396000600ABBEE0E1AFFF7EBFBF3EE0E1AB0EE99
:10397000611AF0EE610AB0EE610AFFF7E1FBDFEDDC
:10398000160AFBEE0E1AB0EE600AB3EE0E1AFFF73F
:10399000D7FBF3EE0E1AB0EE611AF0EE610AB0EE4C
:1039A000610AFFF7CDFB019A23689A420CD1DFED43
:1039B0000A0AFBEE0E1AB0EE600AB3EE0E1A02B05F
:1039C000BDE81040FFF7BCBBFEF7E2FB000B002098
:1039D000500AEF4000000042CD7506410000000093
:1039E00010B5424C82B0F3EE0E1A23680193B0EE8C
:1039F000611AF0EE610AB0EE610AFFF7A1FBDFED9C
:103A00003C0AFBEE0E1AB0EE600AB3EE0E1AFFF798
:103A100097FBF3EE0E1AF1EE040AB0EE611AB0EE67
:103A2000600AFFF78DFBDFED330AFBEE0E1AB0EEF6
:103A3000600AB3EE0E1AFFF783FBDFED2F0AF3EEF9
:103A40000E1AB0EE600AB0EE611AFFF779FBDFEDF7
:103A5000290AFBEE0E1AB0EE600AB3EE0E1AFFF75B
:103A60006FFBF3EE0E1AF2EE040AB0EE611AB0EE3E
:103A7000600AFFF765FBDFED1F0AFBEE0E1AB0EEE2
:103A8000600AB3EE0E1AFFF75BFBDFED1B0AF3EEE5
:103A90000E1AB0EE600AB0EE611AFFF751FBDFEDCF
:103AA000150AFBEE0E1AB0EE600AB3EE0E1AFFF71F
:103AB00047FBF3EE0E1AF1EE040AB0EE611AB0EE17
:103AC000600AFFF73DFB019A23689A420CD1DFEDB3
:103AD000080AFBEE0E1AB0EE600AB3EE0E1A02B040
:103AE000BDE81040FFF72CBBFEF752FB000B002097
:103AF000CD758640CD750640713D624100000000E5
:103B000010B5DFED3D0A3D4C82B023680193B0EE65
:103B1000600AFBEE0E1AB3EE0E1AFFF711FBDFED93
:103B2000380AF3EE0E1AB0EE600AB0EE611AFFF733
:103B300007FBDFED340AFBEE0E1AB0EE600AB3EEBF
:103B40000E1AFFF7FDFAF3EE0E1AF3EE040AB0EECA
:103B5000611AB0EE600AFFF7F3FADFED2B0AFBEE15
:103B60000E1AB0EE600AB3EE0E1AFFF7E9FAF3EEA2
:103B70000E1AF3EE040AB0EE611AB0EE600AFFF717
:103B8000DFFADFED210AFBEE0E1AB0EE600AB3EEAB
:103B90000E1AFFF7D5FAF3EE0E1AF3EE040AB0EEA2
:103BA000611AB0EE600AFFF7CBFADFED160AFBEE02
:103BB0000E1AB0EE600AB3EE0E1AFFF7C1FADFED8F
:103BC000100AF3EE0E1AB0EE600AB0EE611AFFF7BB
:103BD000B7FA019A23689A420CD1DFED0C0AF3EE92
:103BE0000E1AB0EE600ABBEE0E1A02B0BDE810402D
:103BF000FFF7A6BAFEF7CCFA500A6F3F000B002081
:103C0000000020420629D1401757A440500AEF4037
:103C100030B54368174D1A68296883B0044601918E
:103C200012B304220270DA681B68520811469847E2
:103C30002378042B18D0202383F3118803F0B0FFDE
:103C400002F07EFF04F10800002103F0A9FD02F05C
:103C500097FF03F0BDFF002383F31188019A2B68BF
:103C60009A4204D103B030BD02232370E3E7FEF78C
:103C70008FFA00BF000B00200000000000000000D1
:103C800070B5194D82B02B68019311F00C0F0C46E2
:103C9000064622D114F0200109D0019A2B689A42DD
:103CA0001FD1304602B0BDE87040FFF7B1BFE30658
:103CB0000DD57268136853B1019C2868844210D1F5
:103CC000D2683046520802B0BDE870401847019AE9
:103CD0002B689A4205D102B070BD044802F050FE34
:103CE000D8E7FEF755FA00BF000B00201056010878
:103CF00070B5194D82B02B68019311F00C0F0C4672
:103D0000064622D114F0200109D0019A2B689A426C
:103D10001FD1304602B0BDE87040FFF779BFE3061F
:103D20000DD57268136853B1019C2868844210D184
:103D3000D2683046520802B0BDE870401847019A78
:103D40002B689A4205D102B070BD044802F018FEFB
:103D5000D8E7FEF71DFA00BF000B0020105601083F
:103D600030B50F4D0F4C2A680F4B83B0204601929F
:103D70004FF6FF721A8000F013FC0C4B01992A6871
:103D80000B480C4D2562636203F1240591420A4BF6
:103D90002363C4E90A5001D103B030BDFEF7F8F93E
:103DA000000B0020C8520020B05200209862010889
:103DB0001E010100003C0040460001000000000020
:103DC00070B52C4D03782A6882B0012B044601920D
:103DD00024D06368E26A5989236B22F4F04223F409
:103DE000F043090544BF42F4205243F42053C4E990
:103DF0000B23236A00221A606268236A52891A60C0
:103E0000236A03225A60226A136843F04003136056
:103E1000019A2B689A422BD102B070BD164EB04267
:103E20000AD0D4E9083212680C339360A26A236A7C
:103E300012680C339360CCE70346104A406A0A21AB
:103E400007F0C6FD80B9B06A0B4B0D4A0A2107F096
:103E5000BFFD28B90B4A136C43F400431364E0E739
:103E6000094802F08DFDF5E7074802F089FDEAE711
:103E7000FEF78EF9000B0020C8520020F13C00082C
:103E8000813C000800380240F055010800000000A5
:103E900070B5456A174C2D68266882B00196EB60B4
:103EA000436A1B685960456AC36A2D6843F480639E
:103EB0002B60836A1B68DA60836A1B685960826AB8
:103EC000036B126843F480631360436A1A681368D3
:103ED00043F001031360836A1A68136843F0010317
:103EE0001360019A23689A4201D102B070BDFEF7B7
:103EF0004FF900BF000B0020000000000000000090
:103F000030B5104D81682B680F4A83B001930B6860
:103F100023F001030B608168946A03E0936A1B1B22
:103F2000C72B09D8086810F00100F7D1019A2B6857
:103F30009A4204D103B030BD4FF0FF30F6E7FEF7F0
:103F400027F900BF000B00201073002000000000C4
:103F500030B5184D83B02B68019311F00C0F044657
:103F60000AD00378032B13D00622636822709A6864
:103F70001AB100212046904763685B688BB10199B4
:103F80002A68914213D1204603B0BDE8304018475B
:103F9000FFF7B6FF0622636822709A68002AE8D10C
:103FA000EBE7019A2B689A4201D103B030BDFEF7CE
:103FB000EFF800BF000B0020000000000000000030
:103FC000F0B5284D83B02B68019303F081FD02F01A
:103FD000F7FD254B1E69F20715D55A69234C42F0AF
:103FE00001025A612778BB1F012B2AD90522636879
:103FF00022701B680BB120469847042F27D0022F50
:1040000025D003232370B30710D5174A174C5369E3
:1040100043F0020353612378032B1DD063689B6830
:104020000622227013B101211048984702F0F0FDDA
:10403000019A2B689A4213D103B0BDE8F04004F016
:104040006FBD019A2B689A420AD103B0F0BD0223DA
:104050002370B307EAD5D8E72046FFF751FFDDE725
:10406000FEF796F8000B002000000550B452002027
:1040700030B50B4D0B4C2B6883B02046019300F0FC
:104080002FF9019A2B680848084D094921619A4285
:10409000C4E9025001D103B030BDFEF779F800BF8A
:1040A000000B0020B4520020EC6201080000055013
:1040B0001655020200000000000000000000000091
:1040C0002DE9F0412F4C0578266882B0012D01962C
:1040D00006D0019A23689A4252D102B0BDE8F0811D
:1040E000294DA842F5D10E4690461F46274AE8685A
:1040F0002B460C2107F06CFC002839D1D5E902329F
:10410000126828339360EB681A68042151611B68B8
:10411000C3F80C80EB681A6817611B68B6085E600C
:104120002B694FB343F480232B61E968184A09686F
:104130000B60EB6819680B6843F001030B60536B6D
:1041400043F0010353630B214E2007F021F9D5E919
:104150000113DA6842F00102DA60DA6842F0020222
:10416000DA60CA6822F4804222F001021A60B0E7E5
:10417000084802F005FCC1E723F480232B61D4E753
:10418000FEF706F8000B0020B4520020513F000853
:104190000038024020560108000000000000000026
:1041A00030B5184C0378226883B0022B019205D0F9
:1041B000019A23689A4223D103B030BD124B984232
:1041C0000546F5D18168114A0B6823F4804323F03A
:1041D00001030B608168CB6823F00F03CB60536B46
:1041E00023F0010353634E2007F0FAF8019A236885
:1041F0009A4205D1E86803B0BDE8304007F050BCF2
:10420000FDF7C6FF000B0020B4520020003802402A
:1042100000B50F4B0278196883B0022A01910ED1C4
:1042200081680A6842F002020A6081680A6842F402
:1042300080420A6081680A6842F001020A60019ABD
:104240001B689A4202D103B05DF804FBFDF7A0FFA2
:10425000000B002000000000000000000000000033
:1042600000B50F4B0278196883B0022A01910ED174
:1042700081680A6822F002020A6081680A6842F4D2
:1042800080420A6081680A6842F001020A60019A6D
:104290001B689A4202D103B05DF804FBFDF778FF7A
:1042A000000B0020000000000000000000000000E3
:1042B00000B5074B83B01A680192019A1B689A42B5
:1042C00004D103B05DF804EBFFF7D2BEFDF760FF49
:1042D000000B0020000000000000000000000000B3
:1042E00000B5084B83B01A68019201220270019A4E
:1042F0001B6800219A42416002D103B05DF804FBC3
:10430000FDF746FF000B0020000000000000000049
:104310002DE9F043254D83B02C680194DDF82890F9
:104320000F4616469846044618B111B1204B9A42E2
:104330002FD9204802F024FB202383F3118803F0B7
:10434000FFFB02F0BDFB2378012B02D0194802F0DD
:1043500017FB4246314620464B466760FFF7B0FEEA
:104360000223237002F0CCFB03F002FC124B1A680C
:104370009A4204D0996993688A689A420FD30023BD
:1043800083F31188019A2B689A420CD103B0BDE8DF
:10439000F0839307CDD1B8F1000FCDD1C9E707481D
:1043A00002F0EEFAEBE7FDF7F3FE00BF000B002092
:1043B000FCFF03005056010810730020405601080E
:1043C00030B51C4D83B02B680193044658B32023AD
:1043D00083F3118803F0B4FB02F072FB2378022B05
:1043E00002D0154802F0CCFA2046FFF7D9FE01238F
:1043F000237002F085FB03F0BBFB104B1A689A4256
:1044000004D0996993688A689A4208D3002383F399
:104410001188019A2B689A4209D103B030BD08482F
:1044200002F0AEFAF2E7044802F0AAFACFE7FDF78D
:10443000AFFE00BF000B0020605601081073002083
:1044400040560108000000000000000000000000CD
:1044500030B51C4D83B02B680193044658B320231C
:1044600083F3118803F06CFB02F02AFB2378022B04
:1044700002D0154802F084FA2046FFF7C9FE042353
:10448000237002F03DFB03F073FB104B1A689A4255
:1044900004D0996993688A689A4208D3002383F309
:1044A0001188019A2B689A4209D103B030BD08489F
:1044B00002F066FAF2E7044802F062FACFE7FDF78D
:1044C00067FE00BF000B002070560108107300202B
:1044D000405601080000000000000000000000003D
:1044E00030B51C4D83B02B680193044658B320238C
:1044F00083F3118803F024FB02F0E2FA2378022B05
:1045000002D0154802F03CFA2046FFF7A9FE03232B
:10451000237002F0F5FA03F02BFB104B1A689A4255
:1045200004D0996993688A689A4208D3002383F378
:104530001188019A2B689A4209D103B030BD08480E
:1045400002F01EFAF2E7044802F01AFACFE7FDF78C
:104550001FFE00BF000B00209056010810730020C2
:1045600040560108000000000000000000000000AC
:1045700000B5074B83B01A680192019A1B689A42F2
:1045800004D103B05DF804EBFFF7EABBFDF700FED2
:10459000000B0020000000000000000000000000F0
:1045A00000B50A4B83B01A6801920122027001998A
:1045B0001A6800239142C0E9013305D10C3003B0E1
:1045C0005DF804EB03F0F4BBFDF7E2FD000B002007
:1045D00070B51E4D82B02B6801930E46044670B331
:1045E00069B3202383F3118803F0AAFA02F068FA72
:1045F0002378013B012B02D9154802F0C1F920466E
:104600006660FFF7DDFB0223237002F079FA03F006
:10461000AFFA104B1A689A4204D0996993688A6875
:104620009A4208D3002383F31188019A2B689A4297
:1046300009D102B070BD084802F0A2F9F2E70448BF
:1046400002F09EF9CDE7FDF7A3FD00BF000B0020AF
:10465000B056010810730020A056010800000000A9
:104660002DE9F041214D82B02C6801940E46904610
:104670001F46044600B171BB1D4802F081F920239A
:1046800083F3118803F05CFA02F01AFA2378022B04
:1046900002D0174802F074F903203B4642463146E7
:1046A00020702046FFF7F4FB02F02AFA03F060FACC
:1046B000104B1A689A4204D0996993688A689A42A2
:1046C0000ED3002383F31188019A2B689A420BD1F1
:1046D00002B0BDE8F081002BCED0002ACFD1CBE7CD
:1046E000054802F04DF9ECE7FDF752FD000B002004
:1046F000C056010810730020A056010800000000F9
:104700002DE9F04F394A3A4B126883B001240192E7
:104710001C70002963D04FF00008364CC246C346D7
:10472000C1464746C446434647F6FF7E1DE0AB45BB
:10473000A8BFAB46024432F9026CB2F90450B4424D
:10474000B8BF3446B645A8BFB6464D4545DCA8457A
:10475000A8BFA846B2F90220BA420EDC0433924543
:104760009BB2A8BF924699420CD95D1C6A0030F9F1
:1047700015506545DBDDAC46DCE704339BB299425E
:104780001746F2D8A4EB0E04ACEB0B0CA7EB0A0710
:10479000A9EB0808A4B21FFA8CFCBFB21FFA88F874
:1047A000154A12491480019C0968144BA2F802C0F2
:1047B0009780B0F8F8C4B0F8FA64A2F80680B0F8B0
:1047C000FC54B0F8FE24A3F800C08C425E809D80AB
:1047D000DA8008D103B0BDE8F08FA946BAE7884671
:1047E0000F468C46DCE7FDF7D3FC00BF000B002032
:1047F000FC5200200080FFFF0853002000530020DF
:1048000070B53F4B3F4C1A78236882B0012A019360
:1048100005D0019A23689A4270D102B070BD3A491E
:104820003A4B4D6C45F480354D644E6A002546F494
:1048300080364E624D621D61DD60196A21F0010112
:104840001962996921F003019961996941F00101A7
:104850009961996921F0F0019961196A21F00A01C1
:104860001962996921F00C019961996821F0700130
:104870009960996841F050019960996821F48031FC
:1048800021F007019960996841F007019960196862
:1048900021F440711960DA629D625A61196A21F04F
:1048A00010011962996921F440719961996921F0A7
:1048B000807121F4E0419961996941F4C0419961A5
:1048C000196A21F0A00119629A639A6942F40062A0
:1048D0009A611A6A22F480621A621A6A42F011021C
:1048E0001A621A6842F001021A6020B1009068460C
:1048F00000F076F98DE7064B0093F8E7FDF748FCEA
:104900004C800020000B0020003802400040014095
:104910000147000800000000000000000000000047
:1049200070B5114C82B0236801930E4615462023C2
:1049300083F3118803F034F902F002F90B4B0C48B1
:10494000C3E9006503F0F4F902F01AF903F040F945
:10495000002383F31188019A23689A4201D102B09F
:1049600070BDFDF715FC00BF000B00202068002083
:1049700010530020000000000000000000000000B4
:1049800070B5114C82B0236801930E461546202362
:1049900083F3118803F004F902F0D2F80B4B0C48B2
:1049A000C3E9006503F0C4F902F0EAF803F010F976
:1049B000002383F31188019A23689A4201D102B03F
:1049C00070BDFDF7E5FB00BF000B00200466002072
:1049D0001053002000000000000000000000000054
:1049E0002DE9F04F624B63499A69634B916185B041
:1049F0001B6803935E4B9B6993F821305B0700F1C2
:104A0000AD805E4803F05CF95C4803F059F9584BFF
:104A10009B6993F8212012F0040240F09F80584DCA
:104A200058482B6801680446406805EB830304EB93
:104A3000810103F50279430001F10808019343D095
:104A4000DFF850B1504BDFF85CA1012018F812508C
:104A500018F8006019F8121019F8004005F0550C0C
:104A6000770806F0550613F80CC09E5D01F0550E50
:104A70004CEA061649084FEA540C01F0550104F0BF
:104A800055040CF0550C6D0813F80EE0595C1C5DD4
:104A900013F80CC00BF8126005F0550507F0550728
:104AA00041EA0C114EEA041E0AF812E05D5D0AF8B4
:104AB0000010DF5D0199013245EA071591420BF8BC
:104AC000005000F10200C1D1304B31493148324D24
:104AD0000422FBF7CDFC314B314932480422FBF76D
:104AE000C7FC314B314932480422FBF7C1FC314B42
:104AF000314932480422FBF7BBFCDFF8D4C02868F8
:104B00009CF80070224A264900EBC71302F14006C8
:104B100014881C8054885C804C889C80043231F856
:104B2000044BDC80964203F10803F1D1092F11D127
:104B3000234B00221B688CF800204FF4207198470B
:104B40002B68204A204993420B6006BF1F4B2B6005
:104B50002A604FE701378CF800704BE7064B039A49
:104B60001B689A4202D105B0BDE8F08FFDF710FB3B
:104B700010730020E0560108000B002010530020A5
:104B80002068002004660020540B0020DC63002015
:104B900098580020D8580020D40B002044640020EE
:104BA000AC640020EC640020106400209A580020BF
:104BB000D958002078640020AE640020ED64002005
:104BC000EC650020D8590020D80B0020D85E0020CA
:104BD000D86300200000000000000000000000007A
:104BE0002DE9F04F494A0168494B116085B0002119
:104BF0000E461B684748039303F002F84FF4AF6179
:104C0000454B009641224548454DDFF84891454CBB
:104C1000DFF844A1444F02F033FC444B444A18608F
:104C2000136BC5F804A043F480534FF002184FF4FF
:104C30007A5B13632846C5E90298A5F800B0FBF734
:104C40005FFB2046C4E901A9C4F80C80A4F800B0B9
:104C5000FBF756FB05F13400C5E90EA9C5F8408005
:104C6000A5F834B0FBF74CFB324DC4F8408004F19A
:104C70003400C4E90EA9A4F834B0FBF741FB314677
:104C800040F20C4238460DF0FBF9DFF8D0902A4A8A
:104C90006E604FF400634FF080082E812A606B81B4
:104CA000264CC5F80C80C7F80894FFF761FC29462C
:104CB0002348244DFFF78CFC07F5027307F1080227
:104CC0004FF480711E48FFF7CBFC314620464FF46D
:104CD00003720DF0D5F91C4B1C4AC4F80892083435
:104CE0001A611946C3E900641948C3E9028504F052
:104CF000DFFB074B039A1B689A4205D1144805B0A5
:104D0000BDE8F04F04F01CBCFDF742FAEC65002052
:104D1000000B002010530020E14900082053002020
:104D2000DC63002044640020206800201C53002025
:104D30000038024010680020214900080466002065
:104D4000C852002081490008F06500202C030800AB
:104D50004C800020000020410000FA45EFBEADDE8F
:104D600000B5064B83B01A680192019A1B689A42FB
:104D700002D103B05DF804FBFDF70AFA000B002036
:104D800000B5064B83B01A680192019A1B689A42DB
:104D900002D103B05DF804FBFDF7FAF9000B002027
:104DA00010B5104C104B226882B0019201221A708B
:104DB000202383F3118802F0F3FE01F0C1FE0B48BB
:104DC00003F016FA01F0DCFE02F002FF002383F389
:104DD0001188019A23689A4201D102B010BDFDF7F3
:104DE000D7F900BF000B0020386C0020DC0B00203E
:104DF00030B50E4D0E4C2B6883B00193FFF758FA77
:104E0000206808B10CF074FE4FF496400CF068FE78
:104E100001992A682060B0FA80F35B099142C3F1DE
:104E2000000001D103B030BDFDF7B2F9000B002046
:104E3000306C0020000000000000000000000000B6
:104E400030B5174D174C2B78226885B0012B039293
:104E500020D000F0D5FB144B1B78ABB9B0F5964FC2
:104E600015D8124A124B12681B681249009202466A
:104E70001148FFF74DFA01232B700020039A236895
:104E80009A420BD105B030BDB0F5165FE9D94FF0AD
:104E9000FF30F3E70848FFF793FADAE7FDF778F910
:104EA0002D6C0020000B00202E6C0020346C0020A4
:104EB000306C0020F0560108B452002000000000C1
:104EC00010B50B4C0B48236882B0019303F058F8DF
:104ED000094803F035FA019A23689A4205D105483A
:104EE00002B0BDE8104003F083B8FDF751F900BFF0
:104EF000000B0020E40B0020DC0B00200000000071
:104F000030B5154D154C164B2268286883B00192B8
:104F100001221A7008B10CF0EBFD4FF416500CF0A2
:104F2000DFFD286098B10F4D286808B10CF0E0FD56
:104F30004FF416500CF0D4FDB0FA80F35B092860F2
:104F40005842019A23689A4204D103B030BD4FF011
:104F5000FF30F6E7FDF71CF9306C0020000B002055
:104F60002E6C0020346C00200000000000000000C7
:104F700000B5074B07491A68087083B00192019A7F
:104F80001B689A4202D103B05DF804FBFDF700F9FB
:104F9000000B00202C6C002000000000000000002E
:104FA00000B50D4A0D4B1278196883B0019142B1DA
:104FB0000B4AD26812681268120302D4094A1068B8
:104FC00001E0094A1068019A1B689A4202D103B0B5
:104FD0005DF804FBFDF7DCF82E6C0020000B0020D0
:104FE000B4520020346C0020306C0020000000001F
:104FF00000B50E4A0E4B1278196883B001914AB180
:10500000019A1B689A420FD10A4803B05DF804EB7D
:10501000FFF766BA019A1B689A4205D1054803B0AA
:105020005DF804EBFFF714BAFDF7B2F82C6C002022
:10503000000B0020B452002000000000000000001F
:1050400070B5274D82B02B680193064601220321DB
:105050006E2000F04DFB044630B1019A2B689A4255
:1050600020463AD102B070BD32464E216E2000F08B
:105070003FFB04460028F0D1442E07D00246B7215A
:105080006E2000F035FBB8B10446E6E70122B721F7
:105090006E2000F02DFB0028F6D1224603216E2061
:1050A00000F026FB0028EFD1032211216E2000F032
:1050B0001FFB78B10446D0E7224603216E2000F0A2
:1050C00017FB0028E0D10A2211216E2000F010FB0E
:1050D0000028D9D1034B1E71BFE7FDF759F800BF77
:1050E000000B00203C6C00200000000000000000CD
:1050F0002DE9F04F8FB0DFF80084DDF860C0D8F8FC
:1051000000400D940CF1FF355C1EB3F5207F9DF837
:1051100064909DF868B00C44154400F21282BCF50E
:10512000F07F00F20E82B1F5207F0E4600F212826F
:10513000B2F5F07F174600F21082A14280F004829F
:10514000B4F5207F00F20082AA4280F00082B5F51B
:10515000F07F00F2FC81B9F1400F824600F0B0818F
:10516000B9F1800F23D0B9F1200F00F09C8100230A
:10517000CDE90033BBF1400F2FD0BBF1800F00F021
:10518000CB81BBF1200F00F0B9810023CDE90233C0
:10519000002203216E2000F0ABFAA0B30D9AD8F8DC
:1051A00000309A4240F0E2810FB0BDE8F08F9A07DC
:1051B00040F0D681CC4A8C085900661CA2FB010144
:1051C000A2FB030204EB930406EBD2030093BBF1B2
:1051D000400F06EBD1030193CFD11CF0010F40F03B
:1051E000C281C14B7D084FEA4C026F1CA3FB021227
:1051F000A3FB0C1307EB9303029307EB920305EB5E
:105200005C050393C4E702465B216E2000F070FA50
:105210000028C3D15046FFF713FF0028BED1024635
:1052200003216E2000F064FA0028B7D1C6F30723EB
:105230001A4608216E20049300F05AFA0028ADD1D6
:10524000F3B21A4609216E20059300F051FA0028A6
:10525000A4D1C7F307231A460A216E20069300F053
:1052600047FA00289AD1FBB21A460B216E20079309
:1052700000F03EFA002891D1C4F307231A460C210E
:105280006E20089300F034FA002887D1E3B21A4662
:105290000D216E20099300F02BFA00287FF47EAFD9
:1052A000C5F307231A460E216E200A9300F020FA58
:1052B00000287FF473AFEBB21A460F216E200B93D8
:1052C00000F016FA00287FF469AF049A35216E20A9
:1052D00000F00EFA00287FF461AF059A36216E20A7
:1052E00000F006FA00287FF459AF089A37216E20A3
:1052F00000F0FEF900287FF451AF099A38216E20A2
:1053000000F0F6F900287FF449AF069A39216E20A3
:1053100000F0EEF900287FF441AF079A3A216E20A1
:1053200000F0E6F900287FF439AF0A9A3B216E209D
:1053300000F0DEF900287FF431AF0B9A3C216E209B
:1053400000F0D6F900287FF429AF009B3D21C3F37C
:1053500007226E2000F0CCF900287FF41FAF9DF8E3
:1053600000203E216E2000F0C3F900287FF416AF24
:10537000019B3F21C3F307226E2000F0B9F90028FA
:105380007FF40CAF9DF8042040216E2000F0B0F9AE
:1053900000287FF403AF029B4121C3F307226E2054
:1053A00000F0A6F900287FF4F9AE9DF8082042210C
:1053B0006E2000F09DF900287FF4F0AE039B43219E
:1053C000C3F307226E2000F093F900287FF4E6AEC5
:1053D0009DF80C2044216E2000F08AF900287FF40B
:1053E000DDAE012203216E2000F082F900287FF457
:1053F000D5AE4A4693216E2000F07AF900287FF45A
:10540000CDAE5A4694216E2000F072F900287FF448
:10541000C5AE012203216E2000F06AF900287FF456
:10542000BDAE0134A31B07EE103ADFED307AB8EEC3
:10543000477ABAF1440F77EEC77A00F09980B0EE60
:10544000006AF2EE006AE7EE066A77EEA77AB0EE3F
:10545000667A67EE877ADFED266A87EEA67AFCEE3B
:10546000C77ACDED007A009B9521C3F307226E2009
:1054700000F03EF900287FF491AE9DF800209621BF
:105480006E2000F035F900287FF488AE194B013505
:10549000EF1BA41B5F801C8083F804A083F8059099
:1054A00083F806B07AE610495A00A1FB030306EB25
:1054B0005303A1FB0212009306EB5203019359E63A
:1054C000D9074DD4084A74085900661CA2FB010193
:1054D000A2FB030204EB530406EB9203009306EBDA
:1054E0009103019346E600BFABAAAAAA000022449A
:1054F0000000A3443C6C0020000B0020244A4FEA2B
:105500004C03A2FB0C1CA2FB032307EB530307EB8A
:105510005C02029203933BE61CF0030F23D11C4B69
:10552000BD084FEA4C026F1CA3FB0212A3FB0C1335
:1055300007EBD303029307EBD20305EB9C05039320
:1055400026E66FF0070029E66FF0030026E66FF00D
:10555000040023E66FF0010020E66FF002001DE674
:105560006FF005001AE66FF0060017E6FCF710FE74
:10557000F2EE006A37EE267ADFED066A67EE277AEA
:1055800087EEA67AFCEEC77ACDED007A6BE700BF16
:10559000ABAAAAAA000024440000000000000000FA
:1055A00010B5114C86B02368059300F081F80F49BF
:1055B0000F4804F03DF8012200210D4804F0D0F816
:1055C00020237822CDE901330092A023B422F021D8
:1055D0000220FFF78DFD059A23689A4201D106B09B
:1055E00010BDFCF7D5FD00BF000B002000570108DF
:1055F00028810020000000000000000000000000E2
:1056000010B50A4B0A4A1988146858881B7982B069
:10561000442B019400FB01F00199136818BF40006E
:10562000994201D102B010BDFCF7B2FD3C6C0020E4
:10563000000B00200000000000000000000000003F
:1056400070B5164E16483368154D82B005224FF4DA
:105650008071019307F0E4FF20246B6983F4807369
:105660006B61012001F064FF631E13F0FF04F4D1AD
:105670004FF4807140F206222983094807F0D0FFD9
:10568000019A33689A4206D10649074802B0BDE83C
:10569000704003F085BDFCF77BFD00BF000B0020D0
:1056A0000004024040570108907D002000000000E7
:1056B00000B50C4A0C4B1278196883B0012A01918D
:1056C000019A1B6804D09A4209D103B05DF804FB2B
:1056D0009A4204D103B05DF804EBFFF7B1BFFCF7C9
:1056E00057FD00BF907D0020000B0020000000004F
:1056F000F0B5214C214E89B0336807930746002549
:1057000020468DF818108DF819208DF8145003F0EC
:105710005FFE2378012B0CD0042205AB0195029289
:1057200000933946022306AA204603F0E1FD054610
:1057300048B9114803F06CFE0020079A33689A427A
:1057400017D109B0F0BD204603F0BAFD23780C4A0A
:10575000052B106004D0084803F05AFE68B2ECE74D
:10576000204603F065FD2378012BF4D1FFF768FF95
:10577000F1E7FCF70DFD00BF907D0020000B00203D
:10578000446C002000000000000000000000000049
:1057900070B5294D82B02B6801930E46032841D87D
:1057A000DFE800F01A120A02012922D9234A5369BC
:1057B00083F40063536116E0012926D91F4A536917
:1057C00083F4806353610EE0012918D91B4A5369A1
:1057D00083F04003536106E001291CD9174A53693D
:1057E00083F020035361019A2B689A4218D102B0CA
:1057F00070BD124B4FF4006229B15A83F3E70F4B8F
:1058000040220029F9D11A83EDE70C4B4FF4806256
:105810000029F8D0F1E7094B20220029F3D0ECE76A
:10582000FCF7B6FC0024E0B231460134FFF7B0FFCC
:10583000042CF8D1D7E700BF000B0020000C024079
:105840002DE9F043254E83B034680194042A9DF875
:105850002890144605460F46984639D9B9F1000FED
:1058600014BF00224FF08052640002EB0863013C39
:105870001C4405F00F0527F01F07202383F3118830
:1058800002F05EF93D4301F01BF9154B1035DD6068
:105890001C6101F035F902F06BF9124B1A689A425B
:1058A00004D0996993688A689A420DD3002383F3E0
:1058B0001188BFF36F8FBFF34F8F019A33689A42FD
:1058C0000AD103B0BDE8F083074801F059F8EDE7CD
:1058D000064801F055F8C1E7FCF75AFC000B002020
:1058E00090ED00E010730020D0570108B057010878
:1058F00030B5224D224C2B68224A85B00393636851
:1059000043F004036360536A43F4803353622023FB
:1059100083F3118802F014F901F0D2F817221A4B20
:10592000E260236101F0ECF802F022F9174B1A68EB
:105930009A4204D0996993688A689A4218D30020E1
:1059400080F31188BFF36F8FBFF34F8F03231D22A6
:1059500000904FF00051FFF773FF094A536843F07E
:1059600001035360039A2B689A4205D105B030BDFC
:10597000074801F005F8E2E7FCF70AFC000B0020FD
:1059800090ED00E000ED00E0090000101073002031
:10599000D0570108000000000000000000000000D7
:1059A00070B51A4D1A4C1B4E0FCD0FC49EB02A680D
:1059B000336822801D93EFF30981682203A8FCF766
:1059C0004FFA154B9D6AAA0714D4EB0708D5124B62
:1059D00008995B6B114A00910D4880210CF0A0FBE7
:1059E0001D9A33689A420FD109481EB0BDE8704035
:1059F00000F0C6BF099A5B6B0092A4F11000084A40
:105A000080210CF08DFBE0E7FCF7C2FB9457010806
:105A1000486C0020000B002000ED00E070570108EA
:105A200050570108000000000000000000000000C6
:105A300000B51F4B0278196883B00191E2B11D4A8D
:105A40004FF4005111834278EAB11A4A4FF4805161
:105A500011838278F2B1174A4FF480411183C278E2
:105A6000FAB9144A4FF400415183019A1B689A42D3
:105A70001CD103B05DF804FB0E4A4FF40051518372
:105A80004278002AE1D10B4A4FF480515183827849
:105A9000002AE0D1074A4FF480415183C278002A9E
:105AA000DFD0044A4FF400411183DEE7FCF770FBBE
:105AB000000B002000100240000000000000000069
:105AC00000B51F4B0278196883B00191E2B11D4AFD
:105AD0004FF4007111834278EAB11A4A4FF4807191
