:020000040800F2
:1000000000040020C1010008116E0008116E0008F4
:10001000315F0008116E0008116E0008116E0008B3
:10002000116E0008116E0008116E00087190000832
:10003000116E0008116E0008116E0008E1FC000846
:10004000116E000861CA0008F1CB000841CC00081D
:10005000116E0008116E0008A1C70008F1C7000862
:1000600041C8000891C80008E1C80008F1B90008BB
:1000700041BA000891BA0008E1BA000831BB000893
:1000800081BB0008D1BB0008E1C40008E1CD000835
:1000900051CE000801CF0008B1CF000831C90008D7
:1000A000116E0008116E000841F70008116E00087B
:1000B000A1F80008E1F8000821F9000871DD000846
:1000C000B1DE0008116E0008116E0008116E000804
:1000D000116E0008116E0008116E0008A1FD0008E5
:1000E000C1C90008B1CA000801CB000881F70008A7
:1000F000116E0008116E0008116E000821BC000886
:10010000116E000841D1000861F90008116E000865
:10011000116E0008116E000801F70008116E00084A
:1001200071BC0008C1BC000811BD000861BD000819
:10013000B1BD0008116E000851CB0008116E000817
:10014000116E0008116E0008116E000891F1000890
:1001500001BE000851BE0008A1BE0008116E0008D3
:10016000116E0008116E0008116E0008116E000873
:10017000A1CB0008116E0008C1440008116E0008F0
:10018000116E0008116E0008116E0008116E000853
:10019000116E0008116E0008116E0008116E000843
:1001A000116E0008116E0008116E0008116E000833
:1001B000116E0008116E0008116E0008116E000823
:1001C00072B62E4880F3098840F20000CCF200009D
:1001D0004EF63471CEF20001086040F20000C0F229
:1001E000F0004EF68851CEF2000108604FF000009A
:1001F000E1EE100A4EF63C71CEF2000108600620D6
:1002000080F31488BFF36F8F0FF012FF4FF055305B
:100210001B491C4A91423CBF41F8040BFAE71A49BA
:10022000164A91423CBF41F8040BFAE71749184AB5
:10023000184B9A423EBF51F8040B42F8040BF8E702
:1002400000201549154A91423CBF41F8040BFAE7DA
:1002500006F0C6FD124C134DAC4203DA54F8041BF1
:100260008847F9E701F05CFF0F4C104DAC4203DA10
:1002700054F8041B8847F9E706F0C2BD00080020C7
:10028000000000200004002000040020A8A40108B1
:1002900000080020C4150020C8150020E8810020B7
:1002A000C0010008C0010008C0010008C00100082A
:1002B0002DE9F04F2DED108AC1F80CD0D0F80CD0FC
:1002C000BDEC108ABDE8F08F06F0E2FE07F018FFE3
:1002D000002383F311882846A047002007F0B0FCD4
:1002E00007F0F6FE06F0B4FE07F0D2FA06F0D0FEF4
:1002F00007F006FF00DFFEE700000000000000003E
:100300002DE9F843544B80461A68544882422DED3B
:10031000028B1BD052490B68DA0405D40A6842F4F8
:1003200080530B60012000E000204E4A4E491160CE
:1003300013684A4A934208D147490B6030B1484894
:10034000036823F48052026000E0FEE798ED018A22
:10035000B5EE408A0021F1EE10FAC8F81C10C8F87A
:100360001810C8F81410C8F81010C8F82810C8F8E9
:100370002410C8F8201029D0DFED3C7A28EE270A97
:1003800010EE100A01F038F8044618EE100A0D4677
:1003900001F032F80646B8F800000F4601F01AF8EE
:1003A0002BA3D3E9002301F0ADF902460B463046FA
:1003B000394600F0C3FE02460B462046294601F0AE
:1003C000A1F901F055FBA8F82C0001E0A8F82C10C9
:1003D00098ED028AB5EE408AF1EE10FA26D0B8F810
:1003E00000904FEA092000F0F5FF044618EE100ACD
:1003F0000D4601F001F816A3D3E9002301F058F8E7
:10040000064648460F4600F0E5FF02460B463046DA
:10041000394600F093FE02460B462046294601F07D
:1004200071F901F025FBA8F82E0002E00020A8F8E1
:100430002E00B8F800204FF47A73B2FBF3F1A8F85D
:100440003010BDEC028BBDE8F88300BFAFF3008035
:100450001F85EB51B81E1940C8150020CDB5E8B571
:100460003038024000300240C2A507F4000080434B
:100470002DE9F04F9BB083461992A94A1891A948DB
:100480001168814200D0FEE79E6AB3F80CC09F69F4
:100490009A8DD98D039603261C6A5D6A059706928C
:1004A00006FB0CF74FEA8C0206264FEA4C000B9134
:1004B0000E97052106FB0CF70F9207220294049574
:1004C0000D90119701FB0CF04FEACC0602FB0CF1EA
:1004D00000271D695C69D3F81CA010901291179633
:1004E0000197188EDDF80490814580F20A818E48CC
:1004F0009BF800601BF80C7010F80690C25DA144D8
:100500008419511994F8008194F8002201EB4808ED
:10051000CDF81C80DDF834801BF80860855DC719B4
:10052000A9180E9A97F800411BF8022097F800725C
:1005300001EB4405815C0895CC1981190F9E91F857
:10054000008191F8007204EB48081BF80640CDF8D2
:1005500024808218055D92F8006192F80022E91962
:1005600001EB460505EB0807DDF8408015971BF801
:1005700008700A950419C15D94F8005194F800427E
:10058000DDF81C808E1806EB4501119D089A1BF8BA
:1005900005508E18C719425D1696161997F8002156
:1005A00006EB42029044CDF85080129C97F80072FE
:1005B0001BF804604519845DE41995F8007195F8FD
:1005C0000052801904EB47044FF01C0804EB0907A4
:1005D00090F80061139708FB09AADDF81C800C94C1
:1005E0000AEB0209152705EB460490F8005207FBB9
:1005F0000890099FDDF820900A2606FB070A0F27BE
:1006000007FB09A04FF00308DDF8289008FB010064
:100610004FF0060A0AFB0900009015984FF03009C8
:1006200009FB00FADDF858902E2000FB09A0824655
:100630000598824413984FF0240909FB00AA1498E6
:100640004FF02A0909FB00AA0898DDF8249008FB5E
:1006500000F8062000FB0988DDF81C9008EB090073
:1006600007FB01010A9F0C98DDF8009006FB0718B4
:100670001C2606FB008115270B9807FB021205922A
:10068000A9F5003868B1029E049FCDF8108006EBF2
:100690000801CE1B46434FF4807296FBF2F00290A5
:1006A0008046069961B1039E08FB01F8C1F5807789
:1006B00006FB07894FF4807299FBF2F003908046A5
:1006C000199901FB08F7002F02DD0837381103E004
:1006D000083F102697FBF6F047F6BC72019E1349BF
:1006E000189FDDF85C809042A8BF1046DA897243FB
:1006F0008842A8BF0146013627F81210C34401966C
:10070000EFE61D615C61029D059C1D629C61039D7D
:10071000049CC3F81CA05C629D621BB0BDE8F08F16
:10072000C8150020CDB5E8B5000800204480FFFFC3
:100730002DE9F04FA1B0C74C1F92C74A1E91116816
:10074000A14200D0FEE79F6A9A69998DDC8D0497DB
:100750009F89069207910F940322052106241D6AA2
:100760005E6A03957A4379437C43129214911594FF
:10077000072209210A24794305964FEA47084FEAE0
:1007800087097A434FEAC70A7C431E695D69D3F83B
:100790001CB01891CDF84480CDF84C901692CDF84D
:1007A0005CA01D94002102911A8E0299914280F260
:1007B0005981AA4A047812F80490A944C55D111918
:1007C00012F8058091F8004191F800A2464406EB2A
:1007D0004406119C0896045D5519165D95F800C1F4
:1007E00095F8005206EB0A0808EB4C0ADDF8488041
:1007F000CDF824A010F80810DDF84C80565C1419D0
:1008000006EB050A10F8085094F800C1565D94F8FC
:10081000004251180AEB4C0C361991F800A1149CB7
:1008200091F80012CDF828C006EB4A08065DCDF815
:100830002C80945DDDF85480551904EB010A95F87D
:10084000004195F800520AEB44010C9110F8081091
:100850009619545C641996F8005104EB45040D9404
:10086000169D96F80062DDF824A0DDF85C80A444B3
:10087000445DCDF86CC0155D5118AD1991F800615B
:1008800091F8001205EB460505EB0A060E9510F8E7
:1008900008501C961419565DDDF860A0711894F884
:1008A000006194F8004201EB460C08990CEB01063C
:1008B0001A9610F80A605519915D9219091995F860
:1008C000004192F8006195F8005201EB44012D249B
:1008D00001EB090804FB09BB10910899CDF864806D
:1008E0000BEB0C09DDF8288005EB460592F8006259
:1008F000242202FB019A152404FB08A9DDF824A098
:100900000C994FF01C0B0BFB0A994FF00A08DDF80D
:100910002CA008FB01994FF00F0B0E990BFB0A99C5
:100920004FF00308DDF834A008FB01994FF0060BE7
:100930000BFB0A99CDF80490DDF82CA00C994FF030
:100940004B0B51440BFB01F91B994FF0490A0AFB71
:10095000019B0699DDF868900BEB010A4FF03F0B05
:100960001C990BFB09AA4FF0450BDDF864900BFBBB
:1009700001AA4FF0370B0BFB09ABDDF824A00A9955
:1009800008FB0AF84FF00609DDF820A009FB0188F2
:100990000C99D0444FF00F09DDF82CA009FB018819
:1009A0000A21DDF8389001FB0A884FF01C0A0D99E6
:1009B0000AFB098804FB018A109C0F994FF02D094E
:1009C00009FB04A8DDF804A002FB0C820692AAF53C
:1009D0007A3971B1039C0599CDF8149004EB0902A2
:1009E000541A0F9A4FF48071544394FBF1F403941A
:1009F000A146079961B1049CC1F5807209FB01FC15
:100A000004FB02C94FF4807199FBF1F20492914604
:100A10001F9C04FB09F1002902DD10314C1103E099
:100A20001039202291FBF2F447F6BC718C42A8BF2A
:100A30000C46DA890299DDF874804A4308498C42F1
:100A4000A8BF21461E9C24F81210029A4044511C53
:100A5000A9E600BFCDB5E8B5C81500200008002004
:100A60004480FFFF05981E615D61039E069D049C06
:100A700058629D61C3F81CB01E629C62104621B092
:100A8000BDE8F08F2DE9F04F95B0994C1392994A3B
:100A900012911168A14200D0FEE75E6A1D6A9F6A4A
:100AA0009A69998DB3F82E800C964FF00009D3F80F
:100AB00010C05E69D3F81CB00195029709920A91A3
:100AC000CDF83480CDF80C908B4904780D190C5D6D
:100AD00095F8007295F8008106EB070A067ACDF8C2
:100AE0002CA08F198E5D97F8002202EB4805AC44CC
:100AF000057C97F80081CDF810C04A194D5D92F839
:100B0000009292F8002109EB040A0AEB480C90F8D5
:100B100018A090F82090CDF814C001EB0A0494F8C6
:100B2000007294F80041BF1907EB420801EB09027B
:100B3000CDF8188092F8006292F80021771907EB3F
:100B4000440606EB080C90F8288011F80A70079606
:100B500001EB0805CDF840C095F8004295F800512A
:100B6000E619059F06EB4204E619119690F83060ED
:100B700008948C1911F8097094F80022D219049F76
:100B800002EB4502BD180F9590F8385011F8089007
:100B900094F80041DDF82C808E5D4F1997F800A283
:100BA00097F800710AEB090C0CEB4404DDF818A06F
:100BB00011F805C000941C2505FB082944440A21AE
:100BC000DDF8148001FB0A9906EB4706DDF820A04A
:100BD0000F2707FB0899032101FB0A99DDF81CA0E8
:100BE0004FF0060808FB0A99DDF810A0152101FB5B
:100BF0000A99CB44DDF84490CDF82CB04FF02E0A82
:100C00000AFB09FADDF840904FF0300B0BFB09AA04
:100C10004FF0240B0BFB04A90F9C4FF02A0A0AFB90
:100C2000049B099CDDF81890DDF810A0A344059CF6
:100C300008FB09A8DDF820A04FF0030909FB048890
:100C4000079C07FB0A890A2707FB0498DDF8009038
:100C5000DDF82CA00C9F05FB098501FB02520199D0
:100C60000992AAF500328C180D99DDF82880E51B51
:100C70004D434FF4807195FBF1F40194019F44467C
:100C80007C43029FC8EB010507FB054595FBF1F18D
:100C90000291139C6143002902DD0831091103E030
:100CA0000839102791FBF7F147F6BC75134C129FDA
:100CB0000C92A942A8BF2946039DA142B8BF214674
:100CC00079530C354030C02D03957FF4FDAE099863
:100CD000019C029D9861C3F810C05E61C3F81CB00E
:100CE0001C625A629D62102015B0BDE8F08F00BFF3
:100CF000CDB5E8B5C8150020000800204480FFFFEE
:100D00002DE9F04FA1B084461F92BE4A1E91BE4805
:100D10001168814200D0FEE79E6A9F6905969E8910
:100D2000D98D01967000079703277E431190019893
:100D30009A8D0F9112960521019E08924843B200A8
:100D40001490019E01980199139206277E43072271
:100D5000C700514315961797019E019F1C6A5D6A53
:100D6000169109220A2156434F434FF0000804947C
:100D700006955C691D69D3F81CB018961D97CDF8CF
:100D80000C80188EDDF80C90814580F25A819F49C5
:100D90009CF80000DDF804900F181CF8096097F823
:100DA00000A297F80021085CA2448C198E5D94F88B
:100DB000008294F80041454405EB4207119D0997D4
:100DC0001CF805504A194D5D92F8007292F80081A6
:100DD0003F18129807EB44091CF80040CDF8289002
:100DE00008190C5D90F8007290F80001BF1907EB2C
:100DF0004809DDF84C80CDF82C901CF8089001EBE8
:100E00000902CDF8089092F8006292F80021771953
:100E1000149E1CF80690159E07EB400801EB090094
:100E2000CDF8308090F8005290F800012F1907EBB0
:100E300042081CF80670029DCDF83480CA194E5D38
:100E400092F80042A41904EB40050295DDF82C80CD
:100E5000169E92F80021CF5DA844CDF86C801CF856
:100E6000068011F80950DDF8609001EB080011F8D8
:100E7000088090F8004290F8000166190A9D06EB80
:100E80004204179A0E9466191C961CF802608C197D
:100E90008E5D94F8002294F80041D519099F05EB66
:100EA0004002D5191A951CF809504F194D5D97F855
:100EB000000297F80071404400EB44002D2100EB44
:100EC0000A0401FB0ABB1090099819940BEB020A63
:100ED00006EB470424210B9F01FB00A94FF01508E6
:100EE000DDF828A00D9808FB07964FF01C0B0BFBB4
:100EF0000A69DDF830800A2606FB009A0F27DDF824
:100F0000389007FB08AB4FF0030808FB09BADDF87F
:100F100008B0062000FB0BA9CDF80090DDF834A046
:100F2000DDF830B04FF04B090AEB0B0009FB00FA7B
:100F30001B984FF0490B0BFB00A9079809EB000A1F
:100F4000DDF868901C984FF03F0B0BFB09AA4FF09F
:100F5000450BDDF864900BFB00AA4FF0370B0BFB41
:100F600009ABDDF828A00B9808FB0AF84FF006093A
:100F7000DDF824A009FB00880D9808EB0A0907FB9F
:100F800000980C9FDDF83890029806FB07864FF01A
:100F90001C0A0AFB0968152707FB008610980F9F9B
:100FA0004FF02D0909FB006A01FB02A2DDF800A049
:100FB0000792AAF57A386FB10499069ECDF8188089
:100FC00001EB0800811B79434FF4807291FBF2F72B
:100FD0000497B846089860B1059908FB00F8C0F579
:100FE000807601FB06894FF4807299FBF2F7059732
:100FF000B8461F9800FB08F6002E09DD1036771161
:101000000AE000BFC8150020CDB5E8B500080020F3
:10101000103E202196FBF1F7039ED8891049DDF898
:10102000748047F6BC729742A8BF17468F42A8BF8C
:10103000394670431E9F721C27F81010C444039257
:101040009FE65C61079C049A9C61059E069C1D615D
:10105000C3F81CB01A625C629E6221B0BDE8F08FDA
:101060004480FFFFAFF3008000000000000000009C
:101070004B1C012B98BF70472DE9F003911C9B0876
:10108000B1F80480B1F802900A8831F802CC8044AB
:10109000814402448444D9F80070D8F8006015688F
:1010A000DCF80040C9F80060C8F80070CCF80050C7
:1010B0001460D9F80470D8F804605568DCF804406E
:1010C000C9F80460C8F80470CCF8045054600831C2
:1010D000013BD5D1BDE8F00370474B1C012B98BFF5
:1010E00070472DE9F003911C9B08B1F80480B1F81A
:1010F00002900A8831F802CC00EB580800EB59093D
:1011000000EB520200EB5C0CD9F80070D8F80060DC
:101110001568DCF80040C9F80060C8F80070CCF829
:10112000005014600831013BDFD1BDE8F003704787
:1011300081F0004102E000BF83F0004330B54FEA88
:1011400041044FEA430594EA050F08BF90EA020FF5
:101150001FBF54EA000C55EA020C7FEA645C7FEA88
:10116000655C00F0E2804FEA5454D4EB5555B8BFAB
:101170006D420CDD2C4480EA020281EA030382EA1C
:10118000000083EA010180EA020281EA0303362DAE
:1011900088BF30BD11F0004F4FEA01314FF4801C81
:1011A0004CEA113102D0404261EB410113F0004F93
:1011B0004FEA03334CEA133302D0524263EB43034A
:1011C00094EA050F00F0A780A4F10104D5F1200EE8
:1011D0000DDB02FA0EFC22FA05F2801841F1000143
:1011E00003FA0EF2801843FA05F359410EE0A5F117
:1011F00020050EF1200E012A03FA0EFC28BF4CF048
:10120000020C43FA05F3C01851EBE37101F00045FD
:1012100007D54FF0000EDCF1000C7EEB00006EEB0A
:101220000101B1F5801F1BD3B1F5001F0CD3490894
:101230005FEA30004FEA3C0C04F101044FEA4452EB
:1012400012F5800F80F09A80BCF1004F08BF5FEA72
:10125000500C50F1000041EB045141EA050130BD52
:101260005FEA4C0C404141EB010111F4801FA4F1F5
:101270000104E9D191F0000F04BF01460020B1FA4A
:1012800081F308BF2033A3F10B03B3F120020CDA82
:101290000C3208DD02F1140CC2F10C0201FA0CF060
:1012A00021FA02F10CE002F11402D8BFC2F1200CC5
:1012B00001FA02F120FA0CFCDCBF41EA0C0190407B
:1012C000E41AA2BF01EB0451294330BD6FEA0404C4
:1012D0001F3C1CDA0C340EDC04F11404C4F12002AF
:1012E00020FA04F001FA02F340EA030021FA04F3C1
:1012F00045EA030130BDC4F10C04C4F1200220FA18
:1013000002F001FA04F340EA0300294630BD21FA55
:1013100004F0294630BD94F0000F83F4801306BF1B
:1013200081F480110134013D4EE77FEA645C18BF0F
:101330007FEA655C29D094EA050F08BF90EA020FA6
:1013400005D054EA000C04BF1946104630BD91EA9E
:10135000030F1EBF0021002030BD5FEA545C05D1A1
:101360004000494128BF41F0004130BD14F58004E0
:101370003CBF01F5801130BD01F0004545F0FE4154
:1013800041F470014FF0000030BD7FEA645C1ABF89
:10139000194610467FEA655C1CBF0B46024650EAC0
:1013A000013406BF52EA033591EA030F41F40021EC
:1013B00030BD00BF90F0000F04BF0021704730B572
:1013C0004FF4806404F132044FF000054FF0000147
:1013D00050E700BF90F0000F04BF0021704730B508
:1013E0004FF4806404F1320410F0004548BF4042DD
:1013F0004FF000013EE700BF42004FEAE2014FEA32
:1014000031014FEA02701FBF12F07F4393F07F4F0C
:1014100081F06051704732F07F4208BF704793F00F
:101420007F4F04BF41F40021704730B54FF4607422
:1014300001F0004521F000411CE700BF50EA010225
:1014400008BF704730B54FF000050AE050EA0102CE
:1014500008BF704730B511F0004502D5404261EB3E
:1014600041014FF4806404F132045FEA915C3FF47F
:10147000D8AE4FF003025FEADC0C18BF03325FEA1C
:10148000DC0C18BF033202EBDC02C2F1200300FACD
:1014900003FC20FA02F001FA03FE40EA0E0021FAF2
:1014A00002F11444BDE600BF00000000000000008F
:1014B00070B54FF0FF0C4CF4E06C1CEA11541DBFEA
:1014C0001CEA135594EA0C0F95EA0C0F00F0DEF8B5
:1014D0002C4481EA030621EA4C5123EA4C5350EA9A
:1014E000013518BF52EA033541F4801143F48013EB
:1014F00038D0A0FB02CE4FF00005E1FB02E506F07C
:101500000042E0FB03E54FF00006E1FB03569CF0D0
:10151000000F18BF4EF0010EA4F1FF04B6F5007FD6
:1015200064F5407404D25FEA4E0E6D4146EB060648
:1015300042EAC62141EA55514FEAC52040EA5E50D1
:101540004FEACE2EB4F1FD0C88BFBCF5E06F1ED87B
:10155000BEF1004F08BF5FEA500E50F1000041EBB2
:10156000045170BD06F0004646EA010140EA02005F
:1015700081EA0301B4EB5C04C2BFD4EB0C0541EA81
:10158000045170BD41F480114FF0000E013C00F396
:10159000AB8014F1360FDEBF002001F0004170BDBA
:1015A000C4F10004203C35DA0C341BDC04F11404D3
:1015B000C4F1200500FA05F320FA04F001FA05F25F
:1015C00040EA020001F0004221F0004110EBD3702C
:1015D00021FA04F642EB06015EEA430E08BF20EA58
:1015E000D37070BDC4F10C04C4F1200500FA04F3FB
:1015F00020FA05F001FA04F240EA020001F000418D
:1016000010EBD37041F100015EEA430E08BF20EAFF
:10161000D37070BDC4F1200500FA05F24EEA020E47
:1016200020FA04F301FA05F243EA020321FA04F076
:1016300001F0004121FA04F220EA020000EBD3702D
:101640005EEA430E08BF20EAD37070BD94F0000F2D
:101650000FD101F00046400041EB010111F4801F61
:1016600008BF013CF7D041EA060195F0000F18BF12
:10167000704703F00046520043EB030313F4801F4E
:1016800008BF013DF7D043EA0603704794EA0C0F08
:101690000CEA135518BF95EA0C0F0CD050EA41061E
:1016A00018BF52EA4306D1D181EA030101F000419B
:1016B0004FF0000070BD50EA410606BF10461946C3
:1016C00052EA430619D094EA0C0F02D150EA0136CF
:1016D00013D195EA0C0F05D152EA03361CBF104610
:1016E00019460AD181EA030101F0004141F0FE41AF
:1016F00041F470014FF0000070BD41F0FE4141F433
:10170000780170BD70B54FF0FF0C4CF4E06C1CEA32
:1017100011541DBF1CEA135594EA0C0F95EA0C0FE7
:1017200000F0A7F8A4EB050481EA030E52EA0335A2
:101730004FEA013100F088804FEA03334FF08055C3
:1017400045EA131343EA12634FEA022245EA1115F0
:1017500045EA10654FEA00260EF000419D4208BFA1
:10176000964244F1FD0404F5407402D25B084FEA4E
:101770003202B61A65EB03055B084FEA32024FF4FA
:1017800080104FF4002CB6EB020E75EB030E22BF57
:10179000B61A754640EA0C005B084FEA3202B6EB17
:1017A000020E75EB030E22BFB61A754640EA5C00C6
:1017B0005B084FEA3202B6EB020E75EB030E22BF56
:1017C000B61A754640EA9C005B084FEA3202B6EB57
:1017D000020E75EB030E22BFB61A754640EADC0016
:1017E00055EA060E18D04FEA051545EA16754FEA78
:1017F00006164FEAC30343EA52734FEAC2025FEA96
:101800001C1CC0D111F4801F0BD141EA00014FF024
:1018100000004FF0004CB6E711F4801F04BF0143F5
:101820000020B4F1FD0C88BFBCF5E06F3FF6AFAE11
:10183000B5EB030C04BFB6EB020C5FEA500C50F1A1
:10184000000041EB045170BD0EF0004E4EEA113124
:1018500014EB5C04C2BFD4EB0C0541EA045170BD2B
:1018600041F480114FF0000E013C90E645EA060E6F
:101870008DE60CEA135594EA0C0F08BF95EA0C0F9D
:101880003FF43BAF94EA0C0F0AD150EA01347FF4E5
:1018900034AF95EA0C0F7FF425AF104619462CE7BC
:1018A00095EA0C0F06D152EA03353FF4FDAE10461F
:1018B000194622E750EA410618BF52EA43067FF470
:1018C000C5AE50EA41047FF40DAF52EA43057FF400
:1018D000EBAE12E700000000000000000000000076
:1018E0004FF0FF3C06E000BF4FF0010C02E000BFEC
:1018F0004FF0010C4DF804CD4FEA410C7FEA6C5CCF
:101900004FEA430C18BF7FEA6C5C1BD001B050EA71
:10191000410C0CBF52EA430C91EA030F02BF90EA5C
:10192000020F0020704710F1000F91EA030F58BF1B
:10193000994208BF90422CBFD8176FEAE37040F07D
:10194000010070474FEA410C7FEA6C5C02D150EA1B
:10195000013C07D14FEA430C7FEA6C5CD6D152EAD6
:10196000033CD3D05DF8040B704700BF844610469B
:1019700062468C461946634600E000BF01B5FFF79A
:10198000B7FF002848BF10F1000F01BD4DF808ED6A
:10199000FFF7F4FF0CBF012000205DF808FB00BF3B
:1019A0004DF808EDFFF7EAFF34BF012000205DF895
:1019B00008FB00BF4DF808EDFFF7E0FF94BF0120E2
:1019C00000205DF808FB00BF4DF808EDFFF7CEFFE3
:1019D00094BF012000205DF808FB00BF4DF808ED22
:1019E000FFF7C4FF34BF012000205DF808FB00BFF3
:1019F0004FEA410C7FEA6C5C02D150EA013C0AD10B
:101A00004FEA430C7FEA6C5C02D152EA033C02D1FC
:101A10004FF0000070474FF00100704700000000D9
:101A20004FEA410212F5001215D211D56FF4787306
:101A3000B3EB625212D94FEAC12343F0004343EAA9
:101A4000505311F0004F23FA02F018BF4042704784
:101A50004FF00000704750EA013005D111F000400E
:101A600008BF6FF0004070474FF00000704700BFA4
:101A70004A0011D212F5001211D20DD56FF478730D
:101A8000B3EB62520ED44FEAC12343F0004343EA62
:101A9000505323FA02F070474FF00000704750EAAD
:101AA000013002D14FF0FF3070474FF00000704717
:101AB0004FEA4102B2F1E04324BFB3F5001CDCF170
:101AC000FE5C0DD901F0004C4FEAC0024CEA5070A8
:101AD000B2F1004F40EB830008BF20F001007047D7
:101AE00011F0804F21D113F13872BCBF01F00040DA
:101AF000704741F480114FEA5252C2F11802C2F10C
:101B0000200C10FA0CF320FA02F018BF40F001008C
:101B10004FEAC1234FEAD32303FA0CFC40EA0C003E
:101B200023FA02F34FEA4303CCE77FEA625307D17B
:101B300050EA01331EBF4FF0FE4040F440007047B2
:101B400001F0004040F0FE4040F40000704700BF4C
:101B500053B94AB9002908BF00281CBF4FF0FF3114
:101B60004FF0FF3000F074B9ADF1080C6DE904CE10
:101B700000F006F8DDF804E0DDE9022304B0704768
:101B80002DE9F047089E04468846002B4BD18A4237
:101B9000154667D9B2FA82F24AB1C2F1200701FABA
:101BA00002F320FA07F7954047EA030894404FEA0A
:101BB000154E230CB8FBFEF71FFA85FC0EFB1788A9
:101BC00043EA084307FB0CF1994209D9EB1807F1E6
:101BD000FF3080F01B81994240F21881023F2B4474
:101BE0005B1AA4B2B3FBFEF00EFB103344EA0344CD
:101BF00000FB0CFCA44509D92C1900F1FF3380F03F
:101C00000781A44540F2048102382C4440EA074091
:101C1000A4EB0C0400271EB1D4400023C6E9004306
:101C20003946BDE8F0878B4209D9002E00F0EB80E1
:101C30000027C6E9000138463946BDE8F087B3FA07
:101C400083F7002F47D18B4202D3824200F2FA8001
:101C5000841A61EB030301209846002EE0D0C6E908
:101C60000048DDE702B9FFDEB2FA82F2002A40F056
:101C70008F80491B4FEA154E1FFA85F80127B1FBEB
:101C8000FEFC230C0EFB1C1143EA014308FB0CF184
:101C9000994207D9EB180CF1FF3002D2994200F2B9
:101CA000CD808446591AA3B2B1FBFEF00EFB10148E
:101CB00043EA044408FB00F8A04507D92C1900F1B9
:101CC000FF3302D2A04500F2B6801846A4EB080408
:101CD00040EA0C409FE7C7F1200CBB4022FA0CFE03
:101CE0004EEA030E01FA07F420FA0CF521FA0CF380
:101CF0004FEA1E482543B3FBF8F92C0C08FB1933B7
:101D00001FFA8EFA44EA034309FB0AF49C4202FAE2
:101D100007F200FA07F10BD91EEB030309F1FF30BC
:101D200080F087809C4240F28480A9F102097344CC
:101D30001B1BADB2B3FBF8F008FB103345EA0344BC
:101D400000FB0AFAA24508D91EEB040400F1FF3398
:101D50006BD2A24569D90238744440EA0940A0FB1D
:101D60000289A4EB0A044C45C2464B4654D351D0D9
:101D7000002E69D0B1EB0A0564EB030404FA0CFCF5
:101D8000FD40FC404CEA0505C6E90054002747E742
:101D9000C2F1200320FA03F7954001FA02F021FA7C
:101DA00003F34FEA154E3843010CB3FBFEF71FFA5D
:101DB00085F80EFB173341EA034107FB08F38B421A
:101DC00004FA02F407D9691807F1FF3C2FD28B42BD
:101DD0002DD9023F2944CB1A81B2B3FBFEF00EFB92
:101DE000103341EA034100FB08F38B4207D969181D
:101DF00000F1FF3C17D28B4215D902382944C91A89
:101E000040EA07473BE73746304609E70746E7E63B
:101E10001846FBE64145ABD2B8EB020A69EB0E026D
:101E200001381346A4E76046E9E7184695E7674698
:101E3000D1E781467CE702382C4447E7ACF1020C3D
:101E40002B442FE7384608E73746E9E60000000054
:101E5000704700BF0000000000000000000000000C
:101E6000844641EA000313F003036DD1403A41D3A5
:101E700051F8043B40F8043B51F8043B40F8043B64
:101E800051F8043B40F8043B51F8043B40F8043B54
:101E900051F8043B40F8043B51F8043B40F8043B44
:101EA00051F8043B40F8043B51F8043B40F8043B34
:101EB00051F8043B40F8043B51F8043B40F8043B24
:101EC00051F8043B40F8043B51F8043B40F8043B14
:101ED00051F8043B40F8043B51F8043B40F8043B04
:101EE00051F8043B40F8043B51F8043B40F8043BF4
:101EF000403ABDD2303211D351F8043B40F8043B94
:101F000051F8043B40F8043B51F8043B40F8043BD3
:101F100051F8043B40F8043B103AEDD20C3205D3A3
:101F200051F8043B40F8043B043AF9D2043208D09B
:101F3000D2071CBF11F8013B00F8013B01D30B880D
:101F400003806046704700BF082A13D38B078DD0EB
:101F500010F003038AD0C3F10403D21ADB071CBFBD
:101F600011F8013B00F8013B80D331F8023B20F827
:101F7000023B7BE7043AD9D3013A11F8013B00F860
:101F8000013BF9D20B7803704B7843708B788370E8
:101F900060467047000000000000000000000000E4
:101FA00090F800F06DE9024520F007016FF0000C99
:101FB00010F0070491F820F040F049804FF0000441
:101FC0006FF00700D1E9002391F840F000F108001C
:101FD00082FA4CF2A4FA8CF283FA4CF3A2FA8CF354
:101FE0004BBBD1E9022382FA4CF200F10800A4FABB
:101FF0008CF283FA4CF3A2FA8CF3E3B9D1E904230F
:1020000082FA4CF200F10800A4FA8CF283FA4CF345
:10201000A2FA8CF37BB9D1E9062301F1200182FAFF
:102020004CF200F10800A4FA8CF283FA4CF3A2FA05
:102030008CF3002BC6D0002A04BF04301A4612BA13
:10204000B2FA82F2FDE8024500EBD2007047D1E916
:10205000002304F00305C4F100004FEAC50514F0A5
:10206000040F91F840F00CFA05F562EA05021CBF76
:1020700063EA050362464FF00004A9E70000000090
:1020800001F0FF01102A2BDB10F0070F08D010F829
:10209000013B013A8B422DD010F0070F42B3F6D12D
:1020A000F0B441EA012141EA014122F007047FF046
:1020B00000070023F0E80256083C85EA010586EA9D
:1020C000010685FA47F5A3FA87F586FA47F6A5FAD9
:1020D00087F68EB9EED1F0BC01F0FF0102F00702E5
:1020E00032B110F8013B013A83EA010313B1F8D190
:1020F0000020704701387047002D06BF3546033871
:10210000073815F0010F07D1013015F4807F02BFA9
:10211000013015F4C03F0130F0BC0138704700BFFA
:1021200080B5274B274C1B68DFF8B48082B020278E
:10213000019306F0FDFF04F083FE03F0A1FE2249A7
:10214000224808F0A5FB04F0BBFC03F0D1F803F033
:10215000A7FC04F0CDF91E4802F0D2FD1D4A1E492D
:102160001E4804F08DFD4FF4FA7005F0A9FC00F054
:10217000AFFF01F01DFB04F0ABFB002687F31188D5
:1021800005F0A6FF04F064FFA56A04F081FF05F0E6
:10219000B7FF2368A34207D0A2699B6892689A425E
:1021A00002D2404604F0B4FE86F31188009500F098
:1021B00057FE009800990A3105F0C2FCDEE700BF27
:1021C000000B002008730020200B00203C81002021
:1021D00041240008040B00200C0B0020CC1500202B
:1021E000205A01080000000000000000000000006C
:1021F00000B5084B83B01A680192019A1B689A4295
:1022000005D1054803B05DF804EB04F081BEFFF78B
:10221000EFFF00BF000B0020305A01080000000053
:1022200070B57F4D7F4CB5F9001023689FED7E7A25
:1022300082B04A1C019300F164004FF0190342D0B0
:102240004FF0FF32F0EC017AF4EEC77AF1EE10FABB
:10225000C8BF1AB203F10103C8BFB0EE677A2F2BD3
:10226000F0D1914208D04FF6FF732B80019A23687A
:102270009A4274D102B070BD89B2A1F12A03022B37
:1022800034D9A1F11B03022B41D9A1F11D03022B6B
:1022900055D9A1F11903022B63D9A1F11F03022B18
:1022A0003FD9A1F12103022B65D8604B1B784FF673
:1022B000FF722A80002BD9D05D4B1A78002AD5D125
:1022C00002221A70D2E70022F0EC017AF4EEC77A0B
:1022D000F1EE10FA03DDB0EE677A19B20122013394
:1022E0002F2BF1D1002AC1D02980BFE7019A2368A2
:1022F0004E4800244FF6FF719A420470298008BFAF
:1023000006202CD102B0BDE8704000F001BF019A58
:1023100023684FF6FF719A42298008BF0120F1D04F
:102320001DE0424B1B784FF6FF722A80002B9DD098
:102330003F4B1A78002A99D101221A7096E73B493F
:10234000019A23683A4801240C709A424FF0000425
:102350004FF6FF710470298008BF0320D2D0FFF729
:1023600047FF019A23684FF6FF719A42298008BF00
:102370000420C7D0F3E7A1F12303022B0DD82C4B87
:102380002A481A7801264FF6FF7106702980002A24
:102390007FF46CAF03221A7068E7A1F12503022BCA
:1023A0000FD8224B1B784FF6FF722A80002B3FF488
:1023B0005DAF1F4B1A78002A7FF458AF04221A70C1
:1023C00054E7A1F12803022B0FD8184B1B784FF6C6
:1023D000FF722A80002B3FF449AF154B1A78002A70
:1023E0007FF444AF05221A7040E72C3902290FD838
:1023F0000E4B1B784FF6FF722A80002B3FF436AF4E
:102400000B4B1A78002A7FF431AF06221A702DE7A1
:10241000074A00214FF6FF7311702B8026E700BF9B
:102420002C0B0020000B00200050C347DC4500208F
:10243000D81500200000000000000000000000008F
:10244000F0B5364E364D336883B001932B880029A2
:102450005BD0B0F90220334C07EE902A5A1C04EBF3
:10246000830792B202339BB2F8EEE77A04EB820262
:102470004FF0000EB3F5006FC7ED007A2B80C2F865
:1024800000E02BD20139C1F38D0100EBC10100271F
:102490001AE0B0F90A2007EE902A5A1C92B203F112
:1024A000020C04EB8307F8EEE77A04EB82021FFAD2
:1024B0008CF3B3F5006FC7ED007A00F108004FF020
:1024C0000107C2F800E008D28842E2D11FBB019A9E
:1024D00033689A421DD103B0F0BD2B8011494FF4EF
:1024E000806000F07DF84FF480620F490D480FF0D6
:1024F0005FF9019A336800219A42298009D10A487C
:1025000003B0BDE8F040FFF78BBEB3F5006FDED33C
:10251000E4E7FFF76DFE2B80D9E700BF000B00203A
:10252000DE450020DC150020DC3500200000000026
:1025300010B5084A084B1168187882B00024019140
:10254000019912681C70914201D102B010BDFFF7D1
:102550004FFE00BF000B0020D81500200000000037
:1025600000B50A4A0A4B10781A6883B0019218B174
:10257000084A002111700120019A1B689A4202D179
:1025800003B05DF804FBFFF733FE00BFD815002051
:10259000000B0020DC4500200000000000000000CF
:1025A00030B5094B094C1A68094983B001250192DD
:1025B000019A1B68257000209A42087001D103B06F
:1025C00030BDFFF715FE00BF000B0020DC450020EA
:1025D000D8150020000000000000000000000000EE
:1025E00000B50D4B83B01A680192B0F5806F019A67
:1025F0001B6804D09A420CD103B05DF804FB9A42E8
:1026000007D106480123002203B05DF804EB0FF068
:102610004FB8FFF7EDFD00BF000B0020505A010836
:102620000EB410B583B005AA094C52F8041B2368F8
:102630000848009201930DF053FD019A23689A42D5
:1026400004D103B0BDE8104003B07047FFF7D0FDE0
:10265000000B00203C810020000000000000000072
:1026600030B52DED028B204D204C2B6883B00193AB
:1026700003F0DEFE08EE100A03F0F2FE07EE100A89
:10268000F8EEC87AB8EEC70A194B77EE807AB6EE44
:10269000000A67EE807A93ED000AC3ED007A37EE08
:1026A000C00A00F0CDFEB0EE408A94ED020A0FF0B1
:1026B000AFF9D4ED007AE0EE087A94ED020AC4EDA9
:1026C000007A0FF05DF9D4ED017A019A2B68E0EE03
:1026D000087A9A42C4ED017A03D103B0BDEC028BB3
:1026E00030BDFFF785FD00BF000B0020EC4500204A
:1026F000E445002000000000000000000000000091
:1027000080B51A4C1A4BA2691A491B681A4FDFF898
:102710006C80916182B020260193002504E000982E
:102720000099023105F00CFA86F3118805F0D0FC0F
:1027300004F08EFCD4F8289004F0AAFC05F0E0FC2C
:102740002368A34207D0A2699B6892689A4202D28A
:10275000404604F0DDFB85F311883B78CDF800900E
:10276000012BDCD1FFF77CFFD9E700BF0873002005
:10277000000B0020605A0108E0450020705A010853
:1027800030B5224C224DD4ED027A2B682DED028B10
:1027900030EE270A9FED1F8A84ED020A83B0B4EE63
:1027A000C80AF1EE10FA01930FDDDFED1B8A30EE5F
:1027B000680A022084ED020A05F082F994ED020A0B
:1027C000B4EEC80AF1EE10FAF1DC9FED148AB4EE13
:1027D000C80AF1EE10FA0FD8DFED0F8A30EE280AA2
:1027E000022084ED020A05F06BF994ED020AB4EEC2
:1027F000C80AF1EE10FAF1D9019A2B689A4203D176
:1028000003B0BDEC028B30BDFFF7F2FCEC450020BD
:10281000000B0020DB0F4940DB0FC940DB0F49C034
:1028200070B55E4D5E4C2A7823682DED028B82B028
:10283000012A01930646B0EE408A34D01AD3022A08
:102840000ED001992368994208BF334666D1554995
:10285000554802B0BDEC028BBDE87040FFF7E0BE0A
:102860000228EED8019A23689A4257D102B0BDECF3
:10287000028B70BD01283FD059D3022850D103F0FC
:10288000EFFD002800F0848002232A78474946485B
:10289000FFF7C6FE0223B0EE480A2B7000F0F0FDF1
:1028A00000232B70DEE700F0B3FD012E11D05BD3C7
:1028B000022E52D1FFF7D4FE3D4B00221A6000F0E9
:1028C000D7FCB0EE480A2E7000F0DAFD00232B7022
:1028D000C8E72E70FFF7C4FE354B00221A6000F0E7
:1028E000C7FC019A23689A4218D102B0BDEC028B52
:1028F000BDE8704000F0A4BC03F0B2FD00283DD05C
:1029000001232A7829492848FFF78AFE00F0B0FC05
:10291000019A236801219A422970E6D0FFF768FCEA
:10292000019A23689A42F9D1034600228FE703F007
:1029300097FD40B300232A781C491B48FFF770FE1F
:10294000019A236800219A422970E7D102B0BDECB8
:10295000028BBDE8704000F08BBC019A23689A425C
:10296000DCD133462A7872E7FFF77AFE104B00225B
:102970001A6000F07DFC00232B7073E703F058FD14
:102980000028BDD1C4E703F053FD0028D2D1D7E71A
:1029900003F04EFD00287FF477AF7BE7E045002091
:1029A000000B0020E85A01083C810020B05A0108C1
:1029B000E4450020000000000000000000000000CE
:1029C00070B52DED048B864C864D94ED018A2B68F5
:1029D000D4ED008A82B0019300F01AFDB5EEC08AF2
:1029E000F1EE10FA40F3F480F5EEC08AF1EE10FA41
:1029F00094BF02260126B5EEC08AF1EE10FA05D882
:102A0000F5EE408AF1EE10FA48BF032668EE087A28
:102A1000E8EEA87A17EE900AFEF7EEFCB5EEC08A53
:102A2000F1EE10FA41EC100B00F194800DF0E8FE8D
:102A300051EC100BFFF73CF809EE900AF5EE409AC6
:102A4000F1EE10FA00F0B780C8EEA97A17EE900AFE
:102A5000FEF7D2FC022E41EC100B02D0032E00F048
:102A600094800DF06DFE5CA3D3E9002351EC100BB4
:102A7000FEF762FBFFF71CF808EE100A94ED020A5D
:102A8000DFED598A38EE408AB4EEE88AF1EE10FAAA
:102A90000BDD9FED569A38EE498A022005F010F8BA
:102AA000B4EEE88AF1EE10FAF5DCDFED518AB4EE0F
:102AB000E88AF1EE10FA0BD59FED4C9A38EE098AB0
:102AC000022004F0FDFFB4EEE88AF1EE10FAF5D42E
:102AD000DFED487AF4EEE79AF1EE10FA06D5D4ED80
:102AE000027AF5EE407AF1EE10FA5CD0B0EE480AC8
:102AF0000220FFF795FE9FED400A0120FFF790FEB0
:102B00003E4B1B78022B03D83D4B1B78022B4AD936
:102B10009FED390A0020FFF783FE3A4BF2EE081AC8
:102B20000122B0EE611AF0EE690AB0EE690A1A707D
:102B300000F0BEFB019A2B689A424BD194ED020A39
:102B40000220B1EE400A02B0BDEC048BBDE870403B
:102B5000FFF766BEF5EEC08AF1EE10FAFFF666AF3B
:102B60000DF04EFE51EC100BFEF7A2FF09EE900A9D
:102B7000F5EE409AF1EE10FA1DD0C8EEA97A17EEE4
:102B8000900AFEF739FC41EC100B0DF0D9FD12A1B3
:102B9000D1E9000153EC102BFEF7CEFAFEF788FFC7
:102BA00008EE100A6AE7019A2B689A4212D102B025
:102BB000BDEC048B70BD019A2B689A420AD1124970
:102BC000124802B0BDEC048BBDE87040FFF728BD91
:102BD000012610E7FFF70CFB00000060FB21094015
:102BE000EC450020000B0020DB0F4940DB0FC94003
:102BF000DB0F49C0CDCCCC3D00000000FB450020E0
:102C0000FA450020E0450020805A01083C81002060
:102C100030B5414C414DD4ED017A2B68B3EE047AC6
:102C200083B0F4EEC77AF1EE10FA019329DD94ED4A
:102C3000020AB5EEC00AF1EE10FA06DD9FED387A11
:102C4000B4EEC70AF1EE10FA5DD99FED357AB4EE15
:102C5000C70AF1EE10FA14DD9FED327AB4EEC70A1E
:102C6000F1EE10FA0DD837EE400A022030EE000ADD
:102C7000FFF7D6FD9FED2C0A0120FFF7D1FDD4ED23
:102C8000017ABBEE047AF4EEC77AF1EE10FA14D5AD
:102C900094ED020AB5EEC00AF1EE10FA13D4DFED9E
:102CA000237AB4EEE70AF1EE10FA06D5DFED207ACA
:102CB000B4EEE70AF1EE10FA1FDC019A2B689A4293
:102CC00027D103B030BDDFED197AB4EEE70AF1EE9B
:102CD00010FAE4DBF8EE007A20EE270A0220FFF774
:102CE0009FFD019A2B689A4213D19FED0F0A012094
:102CF00003B0BDE83040FFF793BD37EEC00A0220B5
:102D000030EE000AEBE7F8EE007A20EE270A022008
:102D1000AEE7FFF76DFA00BFEC450020000B002086
:102D2000DB0FC93FDB0F494000000000DB0FC9BFCC
:102D3000DB0F49C0000000000000000000000000A0
:102D4000F0B5404B9FED407AD3ED007A3F4E83B013
:102D5000F4EEC77A33680193F1EE10FA4AD4DFED4E
:102D60003C6AF4EEE67AF1EE10FA3DDD394DF4EE10
:102D7000C77AF1EE10FA2B7860D937490A78022B1E
:102D800002F101020A7043D8334F3B78022B42D83C
:102D9000FFF716FE2B7893B100240121084602F0BC
:102DA00077FF642004F08CFE0021012002F070FF08
:102DB000642004F085FE2B7801349C42EDDB3B78E7
:102DC00093B100240121032002F062FF642004F08B
:102DD00077FE0021032002F05BFF642004F070FE08
:102DE0003B7801349C42EDDB019A33689A4223D14F
:102DF00003B0F0BD174D9FED167A2B78F4EEC77A2D
:102E00000133DBB2F1EE10FA2B70B6DA022BBBD92C
:102E10000121084601E00121032002F039FF0120D1
:102E200002F08EFFFFF7CCFD4FF47A7004F048FEFD
:102E30000A4B06221A70D7E7FFF7DAF90133DBB243
:102E40002B709AE7EC45002000000CC2000B00201C
:102E500000000C42FB450020FA450020F945002007
:102E6000F0B52DED028B8A4D8A4C2B78226883B009
:102E70000192062B19D8DFE803F0044E6992A9BF2E
:102E80002100854B1A785AB1844A4FF40010402132
:102E9000906191614FF480604FF4006190619161A5
:102EA0007F490022097829701A70019A23689A4292
:102EB00040F0EB8003B0BDEC028BF0BD9FED798A52
:102EC0000020B0EE480AFFF7ABFC0026764B7749AE
:102ED000774A83ED008A304683ED018A83ED028ACA
:102EE0000E70167002F04CFF304602F029FF6B4B5B
:102EF00070486B49684A20279F6140279F614FF4C3
:102F000080679F614FF400679F6101232E700670F8
:102F10000E701370C9E703F02BFD604B9FED610A43
:102F20004FF400129A614FF080614FF4006240202C
:102F30009861996101209A61FFF772FC5649584ADD
:102F400002230120087013702B70AEE7524B1A78E1
:102F500052B1524A20204021906191614FF080602F
:102F60004FF400619061916100221A70FFF7E8FE52
:102F7000FFF74EFE00F03CF900287BD100F040FC4A
:102F8000012806466BD002281CD19FED4B0AFFF7A3
:102F900047FC9FED440A0120FFF742FC12E0454E3A
:102FA000337863B93D4B20229A6140214FF480620F
:102FB00099619A614FF00061072299613270FFF7C1
:102FC000CFFA18BB364B1B782B706EE70123324AC1
:102FD0001846137002F0B4FE304B314920229A613A
:102FE00040204FF4806298619A614FF000600522A2
:102FF00098610A702A7058E7274B1A78002A3FF424
:103000004FAF264A20204FF4800141E7FFF790FAA6
:10301000431E3070052B06D8DFE803F017120D08A9
:103020001C0300F095FEFFF7BBFACBE700F098FD1C
:1030300000F016FCF7E700F02BFD00F011FCF2E7C2
:1030400000F0A6FC00F00CFCEDE700F039FC00F00D
:1030500007FCE8E700F02CFE00F002FCE3E79FED40
:10306000170A0220FFF7DCFB30469FED0E0AFFF740
:10307000D7FBA7E79FED120A0220FFF7D1FB9FEDD8
:10308000090A0120FFF7CCFB78E7FFF7B1F800BF92
:10309000E8450020000B00202E0B0020000C024011
:1030A000F945002000000000EC450020FA45002012
:1030B000FB450020F8450020E4CB16C0E4CB1640C9
:1030C000DB0F49400000000000000000000000008D
:1030D00010B50A4C0A4B22680A4884B04FF47A7142
:1030E000039200220092402204F092FC039A23688B
:1030F0009A4201D104B010BDFFF77AF8000B00200E
:103100000127000800460020000000000000000029
:1031100070B51F4D1F4E2B6832781F4982B0044690
:10312000019303461D48FFF77BFA3378052B09D836
:10313000DFE803F00E0803030803062C02D1184B46
:1031400006221A70019A2B689A421FD102B070BDF4
:10315000013C052CF6D801A353F824F07D3100087A
:1031600045310008853100087531000845310008F7
:103170003F3100080A4B04221A70E3E7084B012292
:103180001A70DFE7064B03221A70DBE7FFF730F80F
:10319000000B0020E8450020205B01083C81002056
:1031A000F9450020000000000000000000000000C1
:1031B00010B50D4C82B023680193002003F0F8FB9A
:1031C000312806DD0120019A23689A4209D102B014
:1031D00010BD072003F0ECFB3128D4BF00200120F4
:1031E000F1E7FFF705F800BF000B0020000000002A
:1031F00010B5124C82B023680193002003F0D8FB75
:10320000C72806DD0120019A23689A4213D102B033
:1032100010BD012003F0CCFBC728F3DC072003F02E
:10322000C7FBC728EEDC062003F0C2FBC728D4BFCB
:1032300000200120E7E7FEF7DBFF00BF000B0020C6
:1032400010B50A4C82B02368019340F29B3003F022
:10325000BFF8019A23689A4206D140F29B3002B02F
:10326000BDE8104003F0CCB8FEF7C2FF000B002011
:1032700010B50C4C82B023680193002003F0A8F82D
:10328000002003F0BDF8002003F002F9019A236842
:103290009A4205D1002002B0BDE8104003F010B9F9
:1032A000FEF7A6FF000B0020000000000000000059
:1032B0002DE9704F2DED068BDFED508A504E20EE3C
:1032C000280AB2EE0A8AC0EE087A84B03368039303
:1032D000F0EE419A17EE900AB0EE619AB0EE60AA55
:1032E000FEF78AF82AEE28AA41EC100B0DF0D0F96F
:1032F000CAEE087A55EC104B17EE900AFEF77CF8F0
:1033000069EEA89A41EC100B0DF0C2F9C9EE887A6B
:1033100059EC108B17EE900AFEF76EF869EE288ACA
:1033200041EC100B0DF0B4F9C8EE887A5BEC10ABF1
:1033300017EE900AFEF760F841EC100B0DF0A8F9BB
:10334000594650468DED000BFEF76AFB07EE900ADA
:10335000F8EEE77AFDEEE77A17EE900A03F038F818
:103360009DED000B51EC100BFEF75AFB07EE900A97
:10337000F8EEE77AFDEEE77A17EE900A03F040F8F0
:1033800049464046FEF74CFB07EE900AF8EEE77A16
:103390002046FDEEE77A294617EE904A002CB8BF8A
:1033A0006442FEF73DFB07EE900AF8EEE77AFDEE89
:1033B000E77A17EE905A002DB8BF6D4202E0022066
:1033C00004F07EFB03F04CF80028B8BF4042A04256
:1033D000F5DB03F02DF80028B8BF4042A842EEDB31
:1033E000039A33689A4206D104B0BDEC068BBDE85F
:1033F000704FFFF73DBFFEF7FBFE00BF00007A44B1
:10340000000B002000000000000000000000000091
:1034100010B5094C82B023680193002002F0D8FF58
:10342000019A23689A4205D1002002B0BDE81040FD
:1034300002F0E6BFFEF7DCFE000B002000000000FB
:1034400000B50A4B9FED0A7A1A6883B0F2EE0A7A49
:103450000192019A1B6820EE270A9A4280EE070A21
:1034600002D103B05DF804FBFEF7C2FE000B0020A2
:1034700000007A440000000000000000000000008E
:10348000DFED197A9FED197A60EE277A10B5C7EE55
:10349000870A174C23682DED028BB5EEC00AF1EEBA
:1034A00010FA82B0F2EE087ABAEE081AD4BFF0EE43
:1034B000411AF0EE671AB0EE408AD8BFB0EE671A34
:1034C000B0EE600A0193FFF7F3FE019A23689A4277
:1034D00008D1B0EE480A02B0BDEC028BBDE8104046
:1034E000FFF74EB9FEF784FE50D68641DB0FC94088
:1034F000000B0020000000000000000000000000A1
:1035000080B5234C234AA36923491668996186B084
:10351000022320250A220021009305964FF42073F0
:10352000CDE9015530201D4E1D4F02F061F801F02C
:1035300067FF002001F09CFFB04601F001FF13E09F
:1035400004F07EF903F0A4FD04F0DAFD2368A34241
:1035500007D0A2699B6892689A4202D2384603F06B
:10356000D7FC002383F3118801F0C2FF01F028FF8C
:1035700085F3118804F0ACFD03F06AFD03F038FE1A
:10358000B368002BDCDC404604F09AFED8E700BFAD
:1035900008730020000B0020505B0108300B002056
:1035A000705B010800000000000000000000000047
:1035B000F0B5344C83B02368019300F27F25431E9D
:1035C000002213F8011F9D420A44FAD12E4B0578C0
:1035D000A3FB0232520A002140F27A264B1C95428C
:1035E0009BB21FD945186D7995421BD2B34225D89D
:1035F00021B303F1FF3C84441CF8015F95429FB264
:1036000015D91CF805EC964511D2A7EB010CBCF1BD
:10361000270F3B462ADCB74210D839464B1C95424F
:103620009BB2DFD8B34209D8C55C1946D6E701374B
:10363000BFB2B7F5207F03F10103DDD1134B18882A
:10364000DFED136A019A236807EE900AF8EEE77A35
:1036500086EEA77AF3EE097AB4EE677AF1EE10FA05
:10366000C8BF3E209A420AD103B0F0BD781A0B447D
:10367000084A064980B25B1008801380E0E7FEF735
:10368000B7FD00BF000B0020CDCCCCCC480B0020F8
:103690000040C4444A0B002000000000000000006D
:1036A0002DE9F04F384C394BA26939499161ADF59C
:1036B000237D0DF1040A1B68A19350464FF420723C
:1036C00000210EF0A5FFDFF8D480324FDFF8D09054
:1036D0002026002586F3118804F0FAFC03F0B8FCDC
:1036E000D4F828B003F0D4FC04F00AFD2368A34208
:1036F00007D0A2699B6892689A4202D2484603F0BA
:1037000007FC85F311882448CDF800B004F0A0FD33
:1037100001F0C6FE0023C25CC3F34E01023322F067
:103720000702B3F5A06F0AF80120F4D15046FFF765
:103730003FFF009B0099A8F800006431184604F090
:10374000FFF986F3118804F0C3FC03F081FC03F059
:103750004FFDBB68002B13DD04F072F803F098FCFA
:1037600004F0CEFC2368A34207D0A2699B6892684C
:103770009A4202D2484603F0CBFB85F31188A9E7B1
:10378000044804F09DFDE7E708730020000B0020CB
:10379000605B01083C0B0020300B0020E849002052
:1037A000705B010800000000000000000000000045
:1037B00030B50E4C0E4B22680E4885B000250392A2
:1037C0004FF4AF614022009504F022F90A4B0095B6
:1037D00040220A484FF4507104F01AF9039A236802
:1037E0009A4201D105B030BDFEF702FD000B00206A
:1037F000A1360008304D002001350008F0490020B6
:1038000010B5134C1348236882B0019304F020FDD7
:10381000FFF7CEFC80B1104B1B88C72B12D90F4B82
:103820001888B0F5967F0FD96FF496731844B0F5E9
:10383000967F2CBF00200120019A23689A4205D16F
:1038400002B010BD0020F7E70220F5E7FEF7D0FC3C
:10385000000B00203C0B0020E84900204A0B002010
:1038600010B5DFED150A154C82B023680193B0EE58
:10387000600AFAEE0A1AB2EE0A1AFFF719FDF2EE22
:103880000A1AF2EE0E0AB0EE611AB0EE600AFFF705
:103890000FFD019A23689A420CD1DFED070AF2EE80
:1038A0000A1AB0EE600ABAEE0A1A02B0BDE8104079
:1038B000FFF7FEBCFEF79CFC50D68640000B0020B4
:1038C00010B52E4C82B0F2EE0A1AF3EE0E0A2368FF
:1038D0000193B0EE611AB0EE600AFFF7E9FCDFED8C
:1038E000280AFAEE0A1AB0EE600AB2EE0A1AFFF7D8
:1038F000DFFCF2EE0A1AF2EE0E0AB0EE611AB0EE3A
:10390000600AFFF7D5FCDFED1F0AF2EE0A1AB0EEEF
:10391000600ABAEE0A1AFFF7CBFCF2EE0A1AF2EED0
:103920000E0AB0EE611AB0EE600AFFF7C1FCDFEDDF
:10393000140AFAEE0A1AB0EE600AB2EE0A1AFFF79B
:10394000B7FCF2EE0A1AF3EE0E0AB0EE611AB0EE10
:10395000600AFFF7ADFC019A23689A420CD1DFEDB3
:103960000A0AFAEE0A1AB0EE600AB2EE0A1A02B0B9
:10397000BDE81040FFF79CBCFEF73AFC000B0020AE
:103980006BC8B3406BC8334050D6064100000000FE
:1039900010B5DFED3D0A3D4C82B023680193B0EED7
:1039A000600AFAEE0A1AB2EE0A1AFFF781FCF2EE8A
:1039B0000A1AF3EE040AB0EE611AB0EE600AFFF7DD
:1039C00077FCDFED310AF2EE0A1AB0EE600ABAEEC9
:1039D0000A1AFFF76DFCF2EE0A1AF3EE0E0AB0EEC9
:1039E000611AB0EE600AFFF763FCDFED270AF2EE22
:1039F0000A1AB0EE600ABAEE0A1AFFF759FCF2EEA4
:103A00000A1AF3EE040AB0EE611AB0EE600AFFF78C
:103A10004FFCDFED1D0AF2EE0A1AB0EE600ABAEEB4
:103A20000A1AFFF745FCF2EE0A1AF3EE0E0AB0EEA0
:103A3000611AB0EE600AFFF73BFCDFED130AF2EE0D
:103A40000A1AB0EE600ABAEE0A1AFFF731FCF2EE7B
:103A50000A1AF3EE040AB0EE611AB0EE600AFFF73C
:103A600027FC019A23689A420CD1DFED070AF2EE97
:103A70000A1AB0EE600ABAEE0A1A02B0BDE81040A7
:103A8000FFF716BCFEF7B4FB50D68640000B0020B3
:103A900010B52E4C82B0F2EE0A1AF3EE0E0A23682D
:103AA0000193B0EE611AB0EE600AFFF701FCDFEDA2
:103AB000280AFAEE0A1AB0EE600AB2EE0A1AFFF706
:103AC000F7FBDFED240AF2EE0A1AB0EE600AB0EE60
:103AD000611AFFF7EDFBDFED1E0AF2EE0A1AB0EEF7
:103AE000600ABAEE0A1AFFF7E3FBF2EE0A1AF3EEE7
:103AF0000E0AB0EE611AB0EE600AFFF7D9FBDFEDF7
:103B0000160AFAEE0A1AB0EE600AB2EE0A1AFFF7C7
:103B1000CFFBF2EE0A1AF3EE0E0AB0EE611AB0EE27
:103B2000600AFFF7C5FB019A23689A420CD1DFEDCA
:103B30000A0AFAEE0A1AB0EE600AB2EE0A1A02B0E7
:103B4000BDE81040FFF7B4BBFEF752FB000B0020AE
:103B50004433DB40713D104250D606410000000066
:103B600010B54C4C82B0F2EE0A1AF3EE0E0A23683E
:103B70000193B0EE611AB0EE600AFFF799FBDFED3A
:103B8000460AFAEE0A1AB0EE600AB2EE0A1AFFF717
:103B90008FFBF2EE0A1AF2EE040AB0EE611AB0EEF2
:103BA000600AFFF785FBDFED3D0AFAEE0A1AB0EE78
:103BB000600AB2EE0A1AFFF77BFBDFED390AF2EE7C
:103BC0000A1AB0EE600AB0EE611AFFF771FBDFED82
:103BD000330AFAEE0A1AB0EE600AB2EE0A1AFFF7DA
:103BE00067FBF2EE0A1AF2EE040AB0EE611AB0EECA
:103BF000600AFFF75DFBDFED290AFAEE0A1AB0EE64
:103C0000600AB2EE0A1AFFF753FBDFED250AF2EE67
:103C10000A1AB0EE600AB0EE611AFFF749FBDFED59
:103C20001F0AFAEE0A1AB0EE600AB2EE0A1AFFF79D
:103C30003FFBF2EE0A1AF2EE040AB0EE611AB0EEA1
:103C4000600AFFF735FBDFED170AFAEE0A1AB0EE4D
:103C5000600AB2EE0A1AFFF72BFBF2EE0A1AF3EE35
:103C6000040AB0EE611AB0EE600AFFF721FB019A78
:103C700023689A420CD1DFED080AF2EE0A1AB0EE80
:103C8000600ABAEE0A1A02B0BDE81040FFF710BB96
:103C9000FEF7AEFA000B002050D6864050D6064004
:103CA000713D624150D60641000000000000000056
:103CB00010B5DFED1F0A1F4C82B023680193B0EEF0
:103CC000600AFAEE0A1AB2EE0A1AFFF7F1FADFED0D
:103CD0001A0AF2EE0A1AB0EE600AB0EE611AFFF7A5
:103CE000E7FADFED160AFAEE0A1AB0EE600AB2EE53
:103CF0000A1AFFF7DDFADFED100AF2EE0A1AB0EE4B
:103D0000600AB0EE611AFFF7D3FA019A23689A426B
:103D10000CD1DFED0B0AF2EE0A1AB0EE600ABAEE31
:103D20000A1A02B0BDE81040FFF7C2BAFEF760FA07
:103D3000ABE45C3F000B0020C3F5FC419F6FD64015
:103D40000B10F24000000000000000000000000026
:103D500010B5EC4C82B0F2EE0A1AF3EE0E0A2368AC
:103D60000193B0EE611AB0EE600AFFF7A1FADFED41
:103D7000E60AFAEE0A1AB0EE600AB2EE0A1AFFF785
:103D800097FAF2EE0A1AF2EE040AB0EE611AB0EEF9
:103D9000600AFFF78DFADFEDDD0AFAEE0A1AB0EEDF
:103DA000600AB2EE0A1AFFF783FAF2EE0A1AF2EE8E
:103DB000040AB0EE611AB0EE600AFFF779FADFED9F
:103DC000D20AF2EE0A1AB0EE600ABAEE0A1AFFF749
:103DD0006FFAF2EE0A1AF2EE0E0AB0EE611AB0EEC7
:103DE000600AFFF765FADFEDC80AF2EE0A1AB0EED4
:103DF000600ABAEE0A1AFFF75BFAF2EE0A1AF2EE5E
:103E0000040AB0EE611AB0EE600AFFF751FADFED76
:103E1000BF0AFAEE0A1AB0EE600AB2EE0A1AFFF70B
:103E200047FAF2EE0A1AF2EE040AB0EE611AB0EEA8
:103E3000600AFFF73DFADFEDB40AF2EE0A1AB0EEBF
:103E4000600ABAEE0A1AFFF733FAF2EE0A1AF2EE35
:103E50000E0AB0EE611AB0EE600AFFF729FADFED44
:103E6000AA0AF2EE0A1AB0EE600ABAEE0A1AFFF7D0
:103E70001FFAF2EE0A1AF2EE0E0AB0EE611AB0EE76
:103E8000600AFFF715FADFEDA00AF2EE0A1AB0EEAB
:103E9000600ABAEE0A1AFFF70BFAF2EE0A1AF3EE0C
:103EA0000E0AB0EE611AB0EE600AFFF701FADFED1C
:103EB000970AFAEE0A1AB0EE600AB2EE0A1AFFF793
:103EC000F7F9F2EE0A1AF3EE0E0AB0EE611AB0EE4E
:103ED000600AFFF7EDF9DFED8C0AF2EE0A1AB0EE98
:103EE000600ABAEE0A1AFFF7E3F9F2EE0A1AF2EEE6
:103EF000040AB0EE611AB0EE600AFFF7D9F9DFEDFF
:103F0000820AF2EE0A1AB0EE600ABAEE0A1AFFF757
:103F1000CFF9F2EE0A1AF2EE0E0AB0EE611AB0EE26
:103F2000600AFFF7C5F9DFED790AFAEE0A1AB0EE7A
:103F3000600AB2EE0A1AFFF7BBF9F2EE0A1AF2EEC5
:103F40000E0AB0EE611AB0EE600AFFF7B1F9DFEDCC
:103F50006E0AF2EE0A1AB0EE600ABAEE0A1AFFF71B
:103F6000A7F9F2EE0A1AF2EE0E0AB0EE611AB0EEFE
:103F7000600AFFF79DF9DFED640AF2EE0A1AB0EE6F
:103F8000600ABAEE0A1AFFF793F9F2EE0A1AF2EE95
:103F9000040AB0EE611AB0EE600AFFF789F9DFEDAE
:103FA0005A0AF2EE0A1AB0EE600ABAEE0A1AFFF7DF
:103FB0007FF9F2EE0A1AF2EE040AB0EE611AB0EEE0
:103FC000600AFFF775F9DFED500AF2EE0A1AB0EE5B
:103FD000600ABAEE0A1AFFF76BF9F2EE0A1AF2EE6D
:103FE000040AB0EE611AB0EE600AFFF761F9DFED86
:103FF000460AF2EE0A1AB0EE600ABAEE0A1AFFF7A3
:1040000057F9F2EE0A1AF2EE0E0AB0EE611AB0EEAD
:10401000600AFFF74DF9DFED3C0AF2EE0A1AB0EE46
:10402000600ABAEE0A1AFFF743F9F2EE0A1AF3EE43
:104030000E0AB0EE611AB0EE600AFFF739F9DFED53
:10404000330AFAEE0A1AB0EE600AB2EE0A1AFFF765
:104050002FF9F2EE0A1AF2EE040AB0EE611AB0EE8F
:10406000600AFFF725F9DFED280AF2EE0A1AB0EE32
:10407000600ABAEE0A1AFFF71BF9F2EE0A1AF2EE1C
:10408000040AB0EE611AB0EE600AFFF711F9DFED35
:104090001F0AFAEE0A1AB0EE600AB2EE0A1AFFF729
:1040A00007F9F2EE0A1AF2EE040AB0EE611AB0EE67
:1040B000600AFFF7FDF8DFED140AF2EE0A1AB0EE1F
:1040C000600ABAEE0A1AFFF7F3F8F2EE0A1AF3EEF4
:1040D000040AB0EE611AB0EE600AFFF7E9F8019A3F
:1040E00023689A420CD1DFED090AFAEE0A1AB0EE03
:1040F000600AB2EE0A1A02B0BDE81040FFF7D8B865
:10410000FEF776F8000B002050D6864050D60641C8
:1041100030B54368174D1A68296883B00446019189
:1041200012B304220270DA681B68520811469847DD
:104130002378042B18D0202383F3118803F0F8FF91
:1041400002F0C6FF04F10800002103F0F1FD02F0C7
:10415000DFFF04F005F8002383F31188019A2B6830
:104160009A4204D103B030BD02232370E3E7FEF787
:104170003FF800BF000B002000000000000000001E
:1041800070B5194D82B02B68019311F00C0F0C46DD
:10419000064622D114F0200109D0019A2B689A42D8
:1041A0001FD1304602B0BDE87040FFF7B1BFE30653
:1041B0000DD57268136853B1019C2868844210D1F0
:1041C000D2683046520802B0BDE870401847019AE4
:1041D0002B689A4205D102B070BD044802F098FEE7
:1041E000D8E7FEF705F800BF000B0020A05B010830
:1041F00070B5194D82B02B68019311F00C0F0C466D
:10420000064622D114F0200109D0019A2B689A4267
:104210001FD1304602B0BDE87040FFF779BFE3061A
:104220000DD57268136853B1019C2868844210D17F
:10423000D2683046520802B0BDE870401847019A73
:104240002B689A4205D102B070BD044802F060FEAE
:10425000D8E7FDF7CDFF00BF000B0020A05B0108F1
:1042600030B50F4D0F4C2A680F4B83B0204601929A
:104270004FF6FF721A8000F013FC0C4B01992A686C
:104280000B480C4D2562636203F1240591420A4BF1
:104290002363C4E90A5001D103B030BDFDF7A8FF84
:1042A000000B0020C0520020A852002028680108FE
:1042B0001E010100003C004046000100000000001B
:1042C00070B52C4D03782A6882B0012B0446019208
:1042D00024D06368E26A5989236B22F4F04223F404
:1042E000F043090544BF42F4205243F42053C4E98B
:1042F0000B23236A00221A606268236A52891A60BB
:10430000236A03225A60226A136843F04003136051
:10431000019A2B689A422BD102B070BD164EB04262
:104320000AD0D4E9083212680C339360A26A236A77
:1043300012680C339360CCE70346104A406A0A21A6
:1043400007F00EFE80B9B06A0B4B0D4A0A2107F048
:1043500007FE28B90B4A136C43F400431364E0E7EB
:10436000094802F0D5FDF5E7074802F0D1FDEAE77C
:10437000FDF73EFF000B0020C0520020F141000875
:104380008141000800380240805B01080000000005
:1043900070B5456A174C2D68266882B00196EB60AF
:1043A000436A1B685960456AC36A2D6843F4806399
:1043B0002B60836A1B68DA60836A1B685960826AB3
:1043C000036B126843F480631360436A1A681368CE
:1043D00043F001031360836A1A68136843F0010312
:1043E0001360019A23689A4201D102B070BDFDF7B3
:1043F000FFFE00BF000B00200000000000000000D6
:1044000030B5104D81682B680F4A83B001930B685B
:1044100023F001030B608168946A03E0936A1B1B1D
:10442000C72B09D8086810F00100F7D1019A2B6852
:104430009A4204D103B030BD4FF0FF30F6E7FDF7EC
:10444000D7FE00BF000B0020087300200000000012
:1044500030B5184D83B02B68019311F00C0F044652
:104460000AD00378032B13D00622636822709A685F
:104470001AB100212046904763685B688BB10199AF
:104480002A68914213D1204603B0BDE83040184756
:10449000FFF7B6FF0622636822709A68002AE8D107
:1044A000EBE7019A2B689A4201D103B030BDFDF7CA
:1044B0009FFE00BF000B0020000000000000000075
:1044C000F0B5284D83B02B68019303F0C9FD02F0CD
:1044D0003FFE254B1E69F20715D55A69234C42F061
:1044E00001025A612778BB1F012B2AD90522636874
:1044F00022701B680BB120469847042F27D0022F4B
:1045000025D003232370B30710D5174A174C5369DE
:1045100043F0020353612378032B1DD063689B682B
:104520000622227013B101211048984702F038FE8C
:10453000019A2B689A4213D103B0BDE8F04004F011
:10454000B7BD019A2B689A420AD103B0F0BD02238D
:104550002370B307EAD5D8E72046FFF751FFDDE720
:10456000FDF746FE000B002000000550AC52002075
:1045700030B50B4D0B4C2B6883B02046019300F0F7
:104580002FF9019A2B680848084D094921619A4280
:10459000C4E9025001D103B030BDFDF729FE00BFD0
:1045A000000B0020AC5200207C6801080000055080
:1045B000165502020000000000000000000000008C
:1045C0002DE9F0412F4C0578266882B0012D019627
:1045D00006D0019A23689A4252D102B0BDE8F08118
:1045E000294DA842F5D10E4690461F46274AE86855
:1045F0002B460C2107F0B4FC002839D1D5E9023252
:10460000126828339360EB681A68042151611B68B3
:10461000C3F80C80EB681A6817611B68B6085E6007
:104620002B694FB343F480232B61E968184A09686A
:104630000B60EB6819680B6843F001030B60536B68
:1046400043F0010353630B214E2007F069F9D5E9CC
:104650000113DA6842F00102DA60DA6842F002021D
:10466000DA60CA6822F4804222F001021A60B0E7E0
:10467000084802F04DFCC1E723F480232B61D4E706
:10468000FDF7B6FD000B0020AC520020514400089D
:1046900000380240B05B010800000000000000008C
:1046A00030B5184C0378226883B0022B019205D0F4
:1046B000019A23689A4223D103B030BD124B98422D
:1046C0000546F5D18168114A0B6823F4804323F035
:1046D00001030B608168CB6823F00F03CB60536B41
:1046E00023F0010353634E2007F042F9019A236837
:1046F0009A4205D1E86803B0BDE8304007F098BCA5
:10470000FDF776FD000B0020AC520020003802407F
:1047100000B50F4B0278196883B0022A01910ED1BF
:1047200081680A6842F002020A6081680A6842F4FD
:1047300080420A6081680A6842F001020A60019AB8
:104740001B689A4202D103B05DF804FBFDF750FDEF
:10475000000B00200000000000000000000000002E
:1047600000B50F4B0278196883B0022A01910ED16F
:1047700081680A6822F002020A6081680A6842F4CD
:1047800080420A6081680A6842F001020A60019A68
:104790001B689A4202D103B05DF804FBFDF728FDC7
:1047A000000B0020000000000000000000000000DE
:1047B00000B5074B83B01A680192019A1B689A42B0
:1047C00004D103B05DF804EBFFF7D2BEFDF710FD96
:1047D000000B0020000000000000000000000000AE
:1047E00000B5084B83B01A68019201220270019A49
:1047F0001B6800219A42416002D103B05DF804FBBE
:10480000FDF7F6FC000B0020000000000000000097
:104810002DE9F043254D83B02C680194DDF82890F4
:104820000F4616469846044618B111B1204B9A42DD
:104830002FD9204802F06CFB202383F3118803F06A
:1048400047FC02F005FC2378012B02D0194802F046
:104850005FFB4246314620464B466760FFF7B0FE9D
:104860000223237002F014FC03F04AFC124B1A6876
:104870009A4204D0996993688A689A420FD30023B8
:1048800083F31188019A2B689A420CD103B0BDE8DA
:10489000F0839307CDD1B8F1000FCDD1C9E7074818
:1048A00002F036FBEBE7FDF7A3FC00BF000B002096
:1048B000FCFF0300E05B010808730020D05B0108E7
:1048C00030B51C4D83B02B680193044658B32023A8
:1048D00083F3118803F0FCFB02F0BAFB2378022B70
:1048E00002D0154802F014FB2046FFF7D9FE012341
:1048F000237002F0CDFB03F003FC104B1A689A42C0
:1049000004D0996993688A689A4208D3002383F394
:104910001188019A2B689A4209D103B030BD08482A
:1049200002F0F6FAF2E7044802F0F2FACFE7FDF7F8
:104930005FFC00BF000B0020F05B01080873002043
:10494000D05B010800000000000000000000000033
:1049500030B51C4D83B02B680193044658B3202317
:1049600083F3118803F0B4FB02F072FB2378022B6F
:1049700002D0154802F0CCFA2046FFF7C9FE042306
:10498000237002F085FB03F0BBFB104B1A689A42C0
:1049900004D0996993688A689A4208D3002383F304
:1049A0001188019A2B689A4209D103B030BD08489A
:1049B00002F0AEFAF2E7044802F0AAFACFE7FDF7F8
:1049C00017FC00BF000B0020005C010808730020EA
:1049D000D05B0108000000000000000000000000A3
:1049E00030B51C4D83B02B680193044658B3202387
:1049F00083F3118803F06CFB02F02AFB2378022B6F
:104A000002D0154802F084FA2046FFF7A9FE0323DE
:104A1000237002F03DFB03F073FB104B1A689A42BF
:104A200004D0996993688A689A4208D3002383F373
:104A30001188019A2B689A4209D103B030BD084809
:104A400002F066FAF2E7044802F062FACFE7FDF7F7
:104A5000CFFB00BF000B0020205C01080873002082
:104A6000D05B010800000000000000000000000012
:104A700000B5074B83B01A680192019A1B689A42ED
:104A800004D103B05DF804EBFFF7EABBFDF7B0FB20
:104A9000000B0020000000000000000000000000EB
:104AA00000B50A4B83B01A68019201220270019985
:104AB0001A6800239142C0E9013305D10C3003B0DC
:104AC0005DF804EB03F03CBCFDF792FB000B00200B
:104AD00070B51E4D82B02B6801930E46044670B32C
:104AE00069B3202383F3118803F0F2FA02F0B0FADD
:104AF0002378013B012B02D9154802F009FA204620
:104B00006660FFF7DDFB0223237002F0C1FA03F0B9
:104B1000F7FA104B1A689A4204D0996993688A6828
:104B20009A4208D3002383F31188019A2B689A4292
:104B300009D102B070BD084802F0EAF9F2E7044872
:104B400002F0E6F9CDE7FDF753FB00BF000B0020B4
:104B5000405C010808730020305C01080000000080
:104B60002DE9F041214D82B02C6801940E4690460B
:104B70001F46044600B171BB1D4802F0C9F920234D
:104B800083F3118803F0A4FA02F062FA2378022B6F
:104B900002D0174802F0BCF903203B46424631469A
:104BA00020702046FFF7F4FB02F072FA03F0A8FA37
:104BB000104B1A689A4204D0996993688A689A429D
:104BC0000ED3002383F31188019A2B689A420BD1EC
:104BD00002B0BDE8F081002BCED0002ACFD1CBE7C8
:104BE000054802F095F9ECE7FDF702FB000B002009
:104BF000505C010808730020305C010800000000D0
:104C00002DE9F04F394A3A4B126883B001240192E2
:104C10001C70002963D04FF00008364CC246C346D2
:104C2000C1464746C446434647F6FF7E1DE0AB45B6
:104C3000A8BFAB46024432F9026CB2F90450B44248
:104C4000B8BF3446B645A8BFB6464D4545DCA84575
:104C5000A8BFA846B2F90220BA420EDC043392453E
:104C60009BB2A8BF924699420CD95D1C6A0030F9EC
:104C700015506545DBDDAC46DCE704339BB2994259
:104C80001746F2D8A4EB0E04ACEB0B0CA7EB0A070B
:104C9000A9EB0808A4B21FFA8CFCBFB21FFA88F86F
:104CA000154A12491480019C0968144BA2F802C0ED
:104CB0009780B0F8F8C4B0F8FA64A2F80680B0F8AB
:104CC000FC54B0F8FE24A3F800C08C425E809D80A6
:104CD000DA8008D103B0BDE8F08FA946BAE788466C
:104CE0000F468C46DCE7FDF783FA00BF000B00207F
:104CF000F45200200080FFFF00530020F8520020F3
:104D000070B53F4B3F4C1A78236882B0012A01935B
:104D100005D0019A23689A4270D102B070BD3A4919
:104D20003A4B4D6C45F480354D644E6A002546F48F
:104D300080364E624D621D61DD60196A21F001010D
:104D40001962996921F003019961996941F00101A2
:104D50009961996921F0F0019961196A21F00A01BC
:104D60001962996921F00C019961996821F070012B
:104D70009960996841F050019960996821F48031F7
:104D800021F007019960996841F00701996019685D
:104D900021F440711960DA629D625A61196A21F04A
:104DA00010011962996921F440719961996921F0A2
:104DB000807121F4E0419961996941F4C0419961A0
:104DC000196A21F0A00119629A639A6942F400629B
:104DD0009A611A6A22F480621A621A6A42F0110217
:104DE0001A621A6842F001021A6020B10090684607
:104DF00000F076F98DE7064B0093F8E7FDF7F8F938
:104E000044800020000B0020003802400040014098
:104E1000014C00080000000000000000000000003D
:104E200070B5114C82B0236801930E4615462023BD
:104E300083F3118803F07CF902F04AF90B4B0C481C
:104E4000C3E9006503F03CFA02F062F903F088F967
:104E5000002383F31188019A23689A4201D102B09A
:104E600070BDFDF7C5F900BF000B002018680020D9
:104E700008530020000000000000000000000000B7
:104E800070B5114C82B0236801930E46154620235D
:104E900083F3118803F04CF902F01AF90B4B0C481C
:104EA000C3E9006503F00CFA02F032F903F058F997
:104EB000002383F31188019A23689A4201D102B03A
:104EC00070BDFDF795F900BF000B0020FC650020C8
:104ED0000853002000000000000000000000000057
:104EE0002DE9F04F624B63499A69634B916185B03C
:104EF0001B6803935E4B9B6993F821305B0700F1BD
:104F0000AD805E4803F0A4F95C4803F0A1F9584B6A
:104F10009B6993F8212012F0040240F09F80584DC5
:104F200058482B6801680446406805EB830304EB8E
:104F3000810103F50279430001F10808019343D090
:104F4000DFF850B1504BDFF85CA1012018F8125087
:104F500018F8006019F8121019F8004005F0550C07
:104F6000770806F0550613F80CC09E5D01F0550E4B
:104F70004CEA061649084FEA540C01F0550104F0BA
:104F800055040CF0550C6D0813F80EE0595C1C5DCF
:104F900013F80CC00BF8126005F0550507F0550723
:104FA00041EA0C114EEA041E0AF812E05D5D0AF8AF
:104FB0000010DF5D0199013245EA071591420BF8B7
:104FC000005000F10200C1D1304B31493148324D1F
:104FD0000422FBF74DFA314B314932480422FBF7EA
:104FE00047FA314B314932480422FBF741FA314B41
:104FF000314932480422FBF73BFADFF8D4C0286875
:105000009CF80070224A264900EBC71302F14006C3
:1050100014881C8054885C804C889C80043231F851
:10502000044BDC80964203F10803F1D1092F11D122
:10503000234B00221B688CF800204FF42071984706
:105040002B68204A204993420B6006BF1F4B2B6000
:105050002A604FE701378CF800704BE7064B039A44
:105060001B689A4202D105B0BDE8F08FFDF7C0F889
:1050700008730020705C0108000B0020085300201A
:1050800018680020FC6500204C0B0020D463002031
:1050900090580020D0580020CC0B00203C64002009
:1050A000A4640020E46400200864002092580020DA
:1050B000D158002070640020A6640020E564002020
:1050C000E4650020D0590020D00B0020D05E0020E5
:1050D000D06300200000000000000000000000007D
:1050E0002DE9F04F494A0168494B116085B0002114
:1050F0000E461B684748039303F04AF84FF4AF612C
:10510000454B009641224548454DDFF84891454CB6
:10511000DFF844A1444F02F07BFC444B444A186042
:10512000136BC5F804A043F480534FF002184FF4FA
:105130007A5B13632846C5E90298A5F800B0FBF72F
:10514000DFF82046C4E901A9C4F80C80A4F800B037
:10515000FBF7D6F805F13400C5E90EA9C5F8408083
:10516000A5F834B0FBF7CCF8324DC4F8408004F118
:105170003400C4E90EA9A4F834B0FBF7C1F83146F5
:1051800040F20C4238460DF043FADFF8D0902A4A3C
:105190006E604FF400634FF080082E812A606B81AF
:1051A000264CC5F80C80C7F80894FFF761FC294627
:1051B0002348244DFFF78CFC07F5027307F1080222
:1051C0004FF480711E48FFF7CBFC314620464FF468
:1051D00003720DF01DFA1C4B1C4AC4F808920834E7
:1051E0001A611946C3E900641948C3E9028504F04D
:1051F00027FC074B039A1B689A4205D1144805B057
:10520000BDE8F04F04F064BCFCF7F2FFE465002059
:10521000000B002008530020E14E00081853002026
:10522000D46300203C640020186800201453002040
:105230000038024008680020214E0008FC6500206C
:10524000C0520020814E0008E86500202C030800B1
:1052500044800020000020410000FA45EFBEADDE92
:1052600000B5064B83B01A680192019A1B689A42F6
:1052700002D103B05DF804FBFCF7BAFF000B00207D
:1052800000B5064B83B01A680192019A1B689A42D6
:1052900002D103B05DF804FBFCF7AAFF000B00206D
:1052A00010B5104C104B226882B0019201221A7086
:1052B000202383F3118802F03BFF01F009FF0B4824
:1052C00003F05EFA01F024FF02F04AFF002383F3AB
:1052D0001188019A23689A4201D102B010BDFCF7EF
:1052E00087FF00BF000B0020306C0020D40B002093
:1052F00030B50E4D0E4C2B6883B00193FFF758FA72
:10530000206808B10CF0BCFE4FF496400CF0B0FEE3
:1053100001992A682060B0FA80F35B099142C3F1D9
:10532000000001D103B030BDFCF762FF000B00208C
:10533000286C0020000000000000000000000000B9
:1053400030B5174D174C2B78226885B0012B03928E
:1053500020D000F0D5FB144B1B78ABB9B0F5964FBD
:1053600015D8124A124B12681B6812490092024665
:105370001148FFF74DFA01232B700020039A236890
:105380009A420BD105B030BDB0F5165FE9D94FF0A8
:10539000FF30F3E70848FFF793FADAE7FCF728FF56
:1053A000256C0020000B0020266C00202C6C0020B7
:1053B000286C0020805C0108AC5200200000000036
:1053C00010B50B4C0B48236882B0019303F0A0F892
:1053D000094803F07DFA019A23689A4205D10548ED
:1053E00002B0BDE8104003F0CBB8FCF701FF00BFEE
:1053F000000B0020DC0B0020D40B0020000000007C
:1054000030B5154D154C164B2268286883B00192B3
:1054100001221A7008B10CF033FE4FF416500CF054
:1054200027FE286098B10F4D286808B10CF028FEBF
:105430004FF416500CF01CFEB0FA80F35B092860A4
:105440005842019A23689A4204D103B030BD4FF00C
:10545000FF30F6E7FCF7CCFE286C0020000B0020A4
:10546000266C00202C6C00200000000000000000D2
:1054700000B5074B07491A68087083B00192019A7A
:105480001B689A4202D103B05DF804FBFCF7B0FE42
:10549000000B0020246C0020000000000000000031
:1054A00000B50D4A0D4B1278196883B0019142B1D5
:1054B0000B4AD26812681268120302D4094A1068B3
:1054C00001E0094A1068019A1B689A4202D103B0B0
:1054D0005DF804FBFCF78CFE266C0020000B00201E
:1054E000AC5200202C6C0020286C00200000000032
:1054F00000B50E4A0E4B1278196883B001914AB17B
:10550000019A1B689A420FD10A4803B05DF804EB78
:10551000FFF766BA019A1B689A4205D1054803B0A5
:105520005DF804EBFFF714BAFCF762FE246C002070
:10553000000B0020AC520020000000000000000022
:1055400070B5274D82B02B680193064601220321D6
:105550006E2000F04DFB044630B1019A2B689A4250
:1055600020463AD102B070BD32464E216E2000F086
:105570003FFB04460028F0D1442E07D00246B72155
:105580006E2000F035FBB8B10446E6E70122B721F2
:105590006E2000F02DFB0028F6D1224603216E205C
:1055A00000F026FB0028EFD1032211216E2000F02D
:1055B0001FFB78B10446D0E7224603216E2000F09D
:1055C00017FB0028E0D10A2211216E2000F010FB09
:1055D0000028D9D1034B1E71BFE7FCF709FE00BFBD
:1055E000000B0020346C00200000000000000000D0
:1055F0002DE9F04F8FB0DFF80084DDF860C0D8F8F7
:1056000000400D940CF1FF355C1EB3F5207F9DF832
:1056100064909DF868B00C44154400F21282BCF509
:10562000F07F00F20E82B1F5207F0E4600F212826A
:10563000B2F5F07F174600F21082A14280F004829A
:10564000B4F5207F00F20082AA4280F00082B5F516
:10565000F07F00F2FC81B9F1400F824600F0B0818A
:10566000B9F1800F23D0B9F1200F00F09C81002305
:10567000CDE90033BBF1400F2FD0BBF1800F00F01C
:10568000CB81BBF1200F00F0B9810023CDE90233BB
:10569000002203216E2000F0ABFAA0B30D9AD8F8D7
:1056A00000309A4240F0E2810FB0BDE8F08F9A07D7
:1056B00040F0D681CC4A8C085900661CA2FB01013F
:1056C000A2FB030204EB930406EBD2030093BBF1AD
:1056D000400F06EBD1030193CFD11CF0010F40F036
:1056E000C281C14B7D084FEA4C026F1CA3FB021222
:1056F000A3FB0C1307EB9303029307EB920305EB59
:105700005C050393C4E702465B216E2000F070FA4B
:105710000028C3D15046FFF713FF0028BED1024630
:1057200003216E2000F064FA0028B7D1C6F30723E6
:105730001A4608216E20049300F05AFA0028ADD1D1
:10574000F3B21A4609216E20059300F051FA0028A1
:10575000A4D1C7F307231A460A216E20069300F04E
:1057600047FA00289AD1FBB21A460B216E20079304
:1057700000F03EFA002891D1C4F307231A460C2109
:105780006E20089300F034FA002887D1E3B21A465D
:105790000D216E20099300F02BFA00287FF47EAFD4
:1057A000C5F307231A460E216E200A9300F020FA53
:1057B00000287FF473AFEBB21A460F216E200B93D3
:1057C00000F016FA00287FF469AF049A35216E20A4
:1057D00000F00EFA00287FF461AF059A36216E20A2
:1057E00000F006FA00287FF459AF089A37216E209E
:1057F00000F0FEF900287FF451AF099A38216E209D
:1058000000F0F6F900287FF449AF069A39216E209E
:1058100000F0EEF900287FF441AF079A3A216E209C
:1058200000F0E6F900287FF439AF0A9A3B216E2098
:1058300000F0DEF900287FF431AF0B9A3C216E2096
:1058400000F0D6F900287FF429AF009B3D21C3F377
:1058500007226E2000F0CCF900287FF41FAF9DF8DE
:1058600000203E216E2000F0C3F900287FF416AF1F
:10587000019B3F21C3F307226E2000F0B9F90028F5
:105880007FF40CAF9DF8042040216E2000F0B0F9A9
:1058900000287FF403AF029B4121C3F307226E204F
:1058A00000F0A6F900287FF4F9AE9DF80820422107
:1058B0006E2000F09DF900287FF4F0AE039B432199
:1058C000C3F307226E2000F093F900287FF4E6AEC0
:1058D0009DF80C2044216E2000F08AF900287FF406
:1058E000DDAE012203216E2000F082F900287FF452
:1058F000D5AE4A4693216E2000F07AF900287FF455
:10590000CDAE5A4694216E2000F072F900287FF443
:10591000C5AE012203216E2000F06AF900287FF451
:10592000BDAE0134A31B07EE103ADFED307AB8EEBE
:10593000477ABAF1440F77EEC77A00F09980B0EE5B
:10594000006AF2EE006AE7EE066A77EEA77AB0EE3A
:10595000667A67EE877ADFED266A87EEA67AFCEE36
:10596000C77ACDED007A009B9521C3F307226E2004
:1059700000F03EF900287FF491AE9DF800209621BA
:105980006E2000F035F900287FF488AE194B013500
:10599000EF1BA41B5F801C8083F804A083F8059094
:1059A00083F806B07AE610495A00A1FB030306EB20
:1059B0005303A1FB0212009306EB5203019359E635
:1059C000D9074DD4084A74085900661CA2FB01018E
:1059D000A2FB030204EB530406EB9203009306EBD5
:1059E0009103019346E600BFABAAAAAA0000224495
:1059F0000000A344346C0020000B0020244A4FEA2E
:105A00004C03A2FB0C1CA2FB032307EB530307EB85
:105A10005C02029203933BE61CF0030F23D11C4B64
:105A2000BD084FEA4C026F1CA3FB0212A3FB0C1330
:105A300007EBD303029307EBD20305EB9C0503931B
:105A400026E66FF0070029E66FF0030026E66FF008
:105A5000040023E66FF0010020E66FF002001DE66F
:105A60006FF005001AE66FF0060017E6FCF7C0FBC2
:105A7000F2EE006A37EE267ADFED066A67EE277AE5
:105A800087EEA67AFCEEC77ACDED007A6BE700BF11
:105A9000ABAAAAAA000024440000000000000000F5
:105AA00010B5114C86B02368059300F081F80F49BA
:105AB0000F4804F085F8012200210D4804F018F980
:105AC00020237822CDE901330092A023B422F021D3
:105AD0000220FFF78DFD059A23689A4201D106B096
